{
	"contracts/TaskManager.sol": {
		"TaskManager": {
			"abi": [
				{
					"inputs": [],
					"stateMutability": "nonpayable",
					"type": "constructor"
				},
				{
					"anonymous": false,
					"inputs": [
						{
							"components": [
								{
									"internalType": "uint256",
									"name": "id",
									"type": "uint256"
								},
								{
									"internalType": "enum TaskManager.Priority",
									"name": "priority",
									"type": "uint8"
								},
								{
									"internalType": "string",
									"name": "content",
									"type": "string"
								},
								{
									"internalType": "uint256",
									"name": "timestamp",
									"type": "uint256"
								},
								{
									"internalType": "bool",
									"name": "completed",
									"type": "bool"
								}
							],
							"indexed": false,
							"internalType": "struct TaskManager.Task",
							"name": "task",
							"type": "tuple"
						},
						{
							"indexed": false,
							"internalType": "uint256",
							"name": "time",
							"type": "uint256"
						}
					],
					"name": "NewTask",
					"type": "event"
				},
				{
					"inputs": [
						{
							"internalType": "string",
							"name": "content",
							"type": "string"
						}
					],
					"name": "addTask",
					"outputs": [],
					"stateMutability": "nonpayable",
					"type": "function"
				},
				{
					"inputs": [
						{
							"internalType": "uint256",
							"name": "_count",
							"type": "uint256"
						}
					],
					"name": "completeTask",
					"outputs": [],
					"stateMutability": "nonpayable",
					"type": "function"
				},
				{
					"inputs": [],
					"name": "upgradePlan",
					"outputs": [],
					"stateMutability": "payable",
					"type": "function"
				}
			],
			"devdoc": {
				"kind": "dev",
				"methods": {},
				"version": 1
			},
			"evm": {
				"assembly": "    /* \"contracts/TaskManager.sol\":190:1890  contract TaskManager {\r... */\n  mstore(0x40, 0x80)\n    /* \"contracts/TaskManager.sol\":915:986  constructor() {\r... */\n  callvalue\n  dup1\n  iszero\n  tag_1\n  jumpi\n  0x00\n  dup1\n  revert\ntag_1:\n  pop\n    /* \"contracts/TaskManager.sol\":948:958  msg.sender */\n  caller\n    /* \"contracts/TaskManager.sol\":940:945  admin */\n  0x00\n  dup1\n    /* \"contracts/TaskManager.sol\":940:958  admin = msg.sender */\n  0x0100\n  exp\n  dup2\n  sload\n  dup2\n  0xffffffffffffffffffffffffffffffffffffffff\n  mul\n  not\n  and\n  swap1\n  dup4\n  0xffffffffffffffffffffffffffffffffffffffff\n  and\n  mul\n  or\n  swap1\n  sstore\n  pop\n    /* \"contracts/TaskManager.sol\":977:978  0 */\n  0x00\n    /* \"contracts/TaskManager.sol\":969:974  count */\n  0x01\n    /* \"contracts/TaskManager.sol\":969:978  count = 0 */\n  dup2\n  swap1\n  sstore\n  pop\n    /* \"contracts/TaskManager.sol\":190:1890  contract TaskManager {\r... */\n  dataSize(sub_0)\n  dup1\n  dataOffset(sub_0)\n  0x00\n  codecopy\n  0x00\n  return\nstop\n\nsub_0: assembly {\n        /* \"contracts/TaskManager.sol\":190:1890  contract TaskManager {\r... */\n      mstore(0x40, 0x80)\n      jumpi(tag_1, lt(calldatasize, 0x04))\n      shr(0xe0, calldataload(0x00))\n      dup1\n      0x04fafc6c\n      eq\n      tag_2\n      jumpi\n      dup1\n      0x67238562\n      eq\n      tag_3\n      jumpi\n      dup1\n      0xe1e29558\n      eq\n      tag_4\n      jumpi\n    tag_1:\n      0x00\n      dup1\n      revert\n        /* \"contracts/TaskManager.sol\":1612:1758  function upgradePlan() public payable {\r... */\n    tag_2:\n      tag_5\n      tag_6\n      jump\t// in\n    tag_5:\n      stop\n        /* \"contracts/TaskManager.sol\":1119:1440  function addTask(string memory content) public isPremium {\r... */\n    tag_3:\n      callvalue\n      dup1\n      iszero\n      tag_7\n      jumpi\n      0x00\n      dup1\n      revert\n    tag_7:\n      pop\n      tag_8\n      0x04\n      dup1\n      calldatasize\n      sub\n      dup2\n      add\n      swap1\n      tag_9\n      swap2\n      swap1\n      tag_10\n      jump\t// in\n    tag_9:\n      tag_11\n      jump\t// in\n    tag_8:\n      stop\n        /* \"contracts/TaskManager.sol\":1448:1604  function completeTask(uint _count) public {\r... */\n    tag_4:\n      callvalue\n      dup1\n      iszero\n      tag_12\n      jumpi\n      0x00\n      dup1\n      revert\n    tag_12:\n      pop\n      tag_13\n      0x04\n      dup1\n      calldatasize\n      sub\n      dup2\n      add\n      swap1\n      tag_14\n      swap2\n      swap1\n      tag_15\n      jump\t// in\n    tag_14:\n      tag_16\n      jump\t// in\n    tag_13:\n      stop\n        /* \"contracts/TaskManager.sol\":1612:1758  function upgradePlan() public payable {\r... */\n    tag_6:\n        /* \"contracts/TaskManager.sol\":1682:1687  5 wei */\n      0x05\n        /* \"contracts/TaskManager.sol\":1669:1678  msg.value */\n      callvalue\n        /* \"contracts/TaskManager.sol\":1669:1687  msg.value >= 5 wei */\n      lt\n      iszero\n        /* \"contracts/TaskManager.sol\":1661:1712  require(msg.value >= 5 wei, 'No sufficient funds.') */\n      tag_18\n      jumpi\n      mload(0x40)\n      0x08c379a000000000000000000000000000000000000000000000000000000000\n      dup2\n      mstore\n      0x04\n      add\n      tag_19\n      swap1\n      tag_20\n      jump\t// in\n    tag_19:\n      mload(0x40)\n      dup1\n      swap2\n      sub\n      swap1\n      revert\n    tag_18:\n        /* \"contracts/TaskManager.sol\":1746:1750  true */\n      0x01\n        /* \"contracts/TaskManager.sol\":1723:1731  premiums */\n      0x03\n        /* \"contracts/TaskManager.sol\":1723:1743  premiums[msg.sender] */\n      0x00\n        /* \"contracts/TaskManager.sol\":1732:1742  msg.sender */\n      caller\n        /* \"contracts/TaskManager.sol\":1723:1743  premiums[msg.sender] */\n      0xffffffffffffffffffffffffffffffffffffffff\n      and\n      0xffffffffffffffffffffffffffffffffffffffff\n      and\n      dup2\n      mstore\n      0x20\n      add\n      swap1\n      dup2\n      mstore\n      0x20\n      add\n      0x00\n      keccak256\n      0x00\n        /* \"contracts/TaskManager.sol\":1723:1750  premiums[msg.sender] = true */\n      0x0100\n      exp\n      dup2\n      sload\n      dup2\n      0xff\n      mul\n      not\n      and\n      swap1\n      dup4\n      iszero\n      iszero\n      mul\n      or\n      swap1\n      sstore\n      pop\n        /* \"contracts/TaskManager.sol\":1612:1758  function upgradePlan() public payable {\r... */\n      jump\t// out\n        /* \"contracts/TaskManager.sol\":1119:1440  function addTask(string memory content) public isPremium {\r... */\n    tag_11:\n        /* \"contracts/TaskManager.sol\":1819:1821  10 */\n      0x0a\n        /* \"contracts/TaskManager.sol\":1814:1815  1 */\n      0x01\n        /* \"contracts/TaskManager.sol\":1806:1811  count */\n      dup1\n      sload\n        /* \"contracts/TaskManager.sol\":1806:1815  count + 1 */\n      tag_22\n      swap2\n      swap1\n      tag_23\n      jump\t// in\n    tag_22:\n        /* \"contracts/TaskManager.sol\":1806:1821  count + 1 <= 10 */\n      gt\n      iszero\n        /* \"contracts/TaskManager.sol\":1798:1867  require(count + 1 <= 10, 'Please upgrade to add more than 10 tasks.') */\n      tag_24\n      jumpi\n      mload(0x40)\n      0x08c379a000000000000000000000000000000000000000000000000000000000\n      dup2\n      mstore\n      0x04\n      add\n      tag_25\n      swap1\n      tag_26\n      jump\t// in\n    tag_25:\n      mload(0x40)\n      dup1\n      swap2\n      sub\n      swap1\n      revert\n    tag_24:\n        /* \"contracts/TaskManager.sol\":1187:1203  Task memory task */\n      0x00\n        /* \"contracts/TaskManager.sol\":1206:1264  Task(count, Priority.LOW, content, block.timestamp, false) */\n      mload(0x40)\n      dup1\n      0xa0\n      add\n      0x40\n      mstore\n      dup1\n        /* \"contracts/TaskManager.sol\":1211:1216  count */\n      sload(0x01)\n        /* \"contracts/TaskManager.sol\":1206:1264  Task(count, Priority.LOW, content, block.timestamp, false) */\n      dup2\n      mstore\n      0x20\n      add\n        /* \"contracts/TaskManager.sol\":1218:1230  Priority.LOW */\n      0x00\n        /* \"contracts/TaskManager.sol\":1206:1264  Task(count, Priority.LOW, content, block.timestamp, false) */\n      0x02\n      dup2\n      gt\n      iszero\n      tag_28\n      jumpi\n      tag_29\n      tag_30\n      jump\t// in\n    tag_29:\n    tag_28:\n      dup2\n      mstore\n      0x20\n      add\n        /* \"contracts/TaskManager.sol\":1232:1239  content */\n      dup4\n        /* \"contracts/TaskManager.sol\":1206:1264  Task(count, Priority.LOW, content, block.timestamp, false) */\n      dup2\n      mstore\n      0x20\n      add\n        /* \"contracts/TaskManager.sol\":1241:1256  block.timestamp */\n      timestamp\n        /* \"contracts/TaskManager.sol\":1206:1264  Task(count, Priority.LOW, content, block.timestamp, false) */\n      dup2\n      mstore\n      0x20\n      add\n        /* \"contracts/TaskManager.sol\":1258:1263  false */\n      0x00\n        /* \"contracts/TaskManager.sol\":1206:1264  Task(count, Priority.LOW, content, block.timestamp, false) */\n      iszero\n      iszero\n      dup2\n      mstore\n      pop\n        /* \"contracts/TaskManager.sol\":1187:1264  Task memory task = Task(count, Priority.LOW, content, block.timestamp, false) */\n      swap1\n      pop\n        /* \"contracts/TaskManager.sol\":1290:1294  task */\n      dup1\n        /* \"contracts/TaskManager.sol\":1275:1280  tasks */\n      0x02\n        /* \"contracts/TaskManager.sol\":1275:1287  tasks[count] */\n      0x00\n        /* \"contracts/TaskManager.sol\":1281:1286  count */\n      sload(0x01)\n        /* \"contracts/TaskManager.sol\":1275:1287  tasks[count] */\n      dup2\n      mstore\n      0x20\n      add\n      swap1\n      dup2\n      mstore\n      0x20\n      add\n      0x00\n      keccak256\n        /* \"contracts/TaskManager.sol\":1275:1294  tasks[count] = task */\n      0x00\n      dup3\n      add\n      mload\n      dup2\n      0x00\n      add\n      sstore\n      0x20\n      dup3\n      add\n      mload\n      dup2\n      0x01\n      add\n      exp(0x0100, 0x00)\n      dup2\n      sload\n      dup2\n      0xff\n      mul\n      not\n      and\n      swap1\n      dup4\n      0x02\n      dup2\n      gt\n      iszero\n      tag_31\n      jumpi\n      tag_32\n      tag_30\n      jump\t// in\n    tag_32:\n    tag_31:\n      mul\n      or\n      swap1\n      sstore\n      pop\n      0x40\n      dup3\n      add\n      mload\n      dup2\n      0x02\n      add\n      swap1\n      dup1\n      mload\n      swap1\n      0x20\n      add\n      swap1\n      tag_33\n      swap3\n      swap2\n      swap1\n      tag_34\n      jump\t// in\n    tag_33:\n      pop\n      0x60\n      dup3\n      add\n      mload\n      dup2\n      0x03\n      add\n      sstore\n      0x80\n      dup3\n      add\n      mload\n      dup2\n      0x04\n      add\n      exp(0x0100, 0x00)\n      dup2\n      sload\n      dup2\n      0xff\n      mul\n      not\n      and\n      swap1\n      dup4\n      iszero\n      iszero\n      mul\n      or\n      swap1\n      sstore\n      pop\n      swap1\n      pop\n      pop\n        /* \"contracts/TaskManager.sol\":1313:1335  SafeMath.add(count, 1) */\n      tag_35\n        /* \"contracts/TaskManager.sol\":1326:1331  count */\n      sload(0x01)\n        /* \"contracts/TaskManager.sol\":1333:1334  1 */\n      0x01\n        /* \"contracts/TaskManager.sol\":1313:1325  SafeMath.add */\n      tag_36\n        /* \"contracts/TaskManager.sol\":1313:1335  SafeMath.add(count, 1) */\n      jump\t// in\n    tag_35:\n        /* \"contracts/TaskManager.sol\":1305:1310  count */\n      0x01\n        /* \"contracts/TaskManager.sol\":1305:1335  count = SafeMath.add(count, 1) */\n      dup2\n      swap1\n      sstore\n      pop\n        /* \"contracts/TaskManager.sol\":1402:1432  NewTask(task, block.timestamp) */\n      0x615eb1193ab28532b0958952317b9eefb36e49e4a65bc640cf28f2ec9a931771\n        /* \"contracts/TaskManager.sol\":1410:1414  task */\n      dup2\n        /* \"contracts/TaskManager.sol\":1416:1431  block.timestamp */\n      timestamp\n        /* \"contracts/TaskManager.sol\":1402:1432  NewTask(task, block.timestamp) */\n      mload(0x40)\n      tag_37\n      swap3\n      swap2\n      swap1\n      tag_38\n      jump\t// in\n    tag_37:\n      mload(0x40)\n      dup1\n      swap2\n      sub\n      swap1\n      log1\n        /* \"contracts/TaskManager.sol\":1176:1440  {\r... */\n      pop\n        /* \"contracts/TaskManager.sol\":1119:1440  function addTask(string memory content) public isPremium {\r... */\n      pop\n      jump\t// out\n        /* \"contracts/TaskManager.sol\":1448:1604  function completeTask(uint _count) public {\r... */\n    tag_16:\n        /* \"contracts/TaskManager.sol\":1501:1517  Task memory task */\n      0x00\n        /* \"contracts/TaskManager.sol\":1520:1525  tasks */\n      0x02\n        /* \"contracts/TaskManager.sol\":1520:1533  tasks[_count] */\n      0x00\n        /* \"contracts/TaskManager.sol\":1526:1532  _count */\n      dup4\n        /* \"contracts/TaskManager.sol\":1520:1533  tasks[_count] */\n      dup2\n      mstore\n      0x20\n      add\n      swap1\n      dup2\n      mstore\n      0x20\n      add\n      0x00\n      keccak256\n        /* \"contracts/TaskManager.sol\":1501:1533  Task memory task = tasks[_count] */\n      mload(0x40)\n      dup1\n      0xa0\n      add\n      0x40\n      mstore\n      swap1\n      dup2\n      0x00\n      dup3\n      add\n      sload\n      dup2\n      mstore\n      0x20\n      add\n      0x01\n      dup3\n      add\n      0x00\n      swap1\n      sload\n      swap1\n      0x0100\n      exp\n      swap1\n      div\n      0xff\n      and\n      0x02\n      dup2\n      gt\n      iszero\n      tag_40\n      jumpi\n      tag_41\n      tag_30\n      jump\t// in\n    tag_41:\n    tag_40:\n      0x02\n      dup2\n      gt\n      iszero\n      tag_42\n      jumpi\n      tag_43\n      tag_30\n      jump\t// in\n    tag_43:\n    tag_42:\n      dup2\n      mstore\n      0x20\n      add\n      0x02\n      dup3\n      add\n      dup1\n      sload\n      tag_44\n      swap1\n      tag_45\n      jump\t// in\n    tag_44:\n      dup1\n      0x1f\n      add\n      0x20\n      dup1\n      swap2\n      div\n      mul\n      0x20\n      add\n      mload(0x40)\n      swap1\n      dup2\n      add\n      0x40\n      mstore\n      dup1\n      swap3\n      swap2\n      swap1\n      dup2\n      dup2\n      mstore\n      0x20\n      add\n      dup3\n      dup1\n      sload\n      tag_46\n      swap1\n      tag_45\n      jump\t// in\n    tag_46:\n      dup1\n      iszero\n      tag_47\n      jumpi\n      dup1\n      0x1f\n      lt\n      tag_48\n      jumpi\n      0x0100\n      dup1\n      dup4\n      sload\n      div\n      mul\n      dup4\n      mstore\n      swap2\n      0x20\n      add\n      swap2\n      jump(tag_47)\n    tag_48:\n      dup3\n      add\n      swap2\n      swap1\n      0x00\n      mstore\n      keccak256(0x00, 0x20)\n      swap1\n    tag_49:\n      dup2\n      sload\n      dup2\n      mstore\n      swap1\n      0x01\n      add\n      swap1\n      0x20\n      add\n      dup1\n      dup4\n      gt\n      tag_49\n      jumpi\n      dup3\n      swap1\n      sub\n      0x1f\n      and\n      dup3\n      add\n      swap2\n    tag_47:\n      pop\n      pop\n      pop\n      pop\n      pop\n      dup2\n      mstore\n      0x20\n      add\n      0x03\n      dup3\n      add\n      sload\n      dup2\n      mstore\n      0x20\n      add\n      0x04\n      dup3\n      add\n      0x00\n      swap1\n      sload\n      swap1\n      0x0100\n      exp\n      swap1\n      div\n      0xff\n      and\n      iszero\n      iszero\n      iszero\n      iszero\n      dup2\n      mstore\n      pop\n      pop\n      swap1\n      pop\n        /* \"contracts/TaskManager.sol\":1561:1565  true */\n      0x01\n        /* \"contracts/TaskManager.sol\":1544:1548  task */\n      dup2\n        /* \"contracts/TaskManager.sol\":1544:1558  task.completed */\n      0x80\n      add\n        /* \"contracts/TaskManager.sol\":1544:1565  task.completed = true */\n      swap1\n      iszero\n      iszero\n      swap1\n      dup2\n      iszero\n      iszero\n      dup2\n      mstore\n      pop\n      pop\n        /* \"contracts/TaskManager.sol\":1592:1596  task */\n      dup1\n        /* \"contracts/TaskManager.sol\":1576:1581  tasks */\n      0x02\n        /* \"contracts/TaskManager.sol\":1576:1589  tasks[_count] */\n      0x00\n        /* \"contracts/TaskManager.sol\":1582:1588  _count */\n      dup5\n        /* \"contracts/TaskManager.sol\":1576:1589  tasks[_count] */\n      dup2\n      mstore\n      0x20\n      add\n      swap1\n      dup2\n      mstore\n      0x20\n      add\n      0x00\n      keccak256\n        /* \"contracts/TaskManager.sol\":1576:1596  tasks[_count] = task */\n      0x00\n      dup3\n      add\n      mload\n      dup2\n      0x00\n      add\n      sstore\n      0x20\n      dup3\n      add\n      mload\n      dup2\n      0x01\n      add\n      exp(0x0100, 0x00)\n      dup2\n      sload\n      dup2\n      0xff\n      mul\n      not\n      and\n      swap1\n      dup4\n      0x02\n      dup2\n      gt\n      iszero\n      tag_50\n      jumpi\n      tag_51\n      tag_30\n      jump\t// in\n    tag_51:\n    tag_50:\n      mul\n      or\n      swap1\n      sstore\n      pop\n      0x40\n      dup3\n      add\n      mload\n      dup2\n      0x02\n      add\n      swap1\n      dup1\n      mload\n      swap1\n      0x20\n      add\n      swap1\n      tag_52\n      swap3\n      swap2\n      swap1\n      tag_34\n      jump\t// in\n    tag_52:\n      pop\n      0x60\n      dup3\n      add\n      mload\n      dup2\n      0x03\n      add\n      sstore\n      0x80\n      dup3\n      add\n      mload\n      dup2\n      0x04\n      add\n      exp(0x0100, 0x00)\n      dup2\n      sload\n      dup2\n      0xff\n      mul\n      not\n      and\n      swap1\n      dup4\n      iszero\n      iszero\n      mul\n      or\n      swap1\n      sstore\n      pop\n      swap1\n      pop\n      pop\n        /* \"contracts/TaskManager.sol\":1490:1604  {\r... */\n      pop\n        /* \"contracts/TaskManager.sol\":1448:1604  function completeTask(uint _count) public {\r... */\n      pop\n      jump\t// out\n        /* \"https://github.com/OpenZeppelin/openzeppelin-contracts/blob/master/contracts/utils/math/SafeMath.sol\":2755:2851  function add(uint256 a, uint256 b) internal pure returns (uint256) {... */\n    tag_36:\n        /* \"https://github.com/OpenZeppelin/openzeppelin-contracts/blob/master/contracts/utils/math/SafeMath.sol\":2813:2820  uint256 */\n      0x00\n        /* \"https://github.com/OpenZeppelin/openzeppelin-contracts/blob/master/contracts/utils/math/SafeMath.sol\":2843:2844  b */\n      dup2\n        /* \"https://github.com/OpenZeppelin/openzeppelin-contracts/blob/master/contracts/utils/math/SafeMath.sol\":2839:2840  a */\n      dup4\n        /* \"https://github.com/OpenZeppelin/openzeppelin-contracts/blob/master/contracts/utils/math/SafeMath.sol\":2839:2844  a + b */\n      tag_54\n      swap2\n      swap1\n      tag_23\n      jump\t// in\n    tag_54:\n        /* \"https://github.com/OpenZeppelin/openzeppelin-contracts/blob/master/contracts/utils/math/SafeMath.sol\":2832:2844  return a + b */\n      swap1\n      pop\n        /* \"https://github.com/OpenZeppelin/openzeppelin-contracts/blob/master/contracts/utils/math/SafeMath.sol\":2755:2851  function add(uint256 a, uint256 b) internal pure returns (uint256) {... */\n      swap3\n      swap2\n      pop\n      pop\n      jump\t// out\n    tag_34:\n      dup3\n      dup1\n      sload\n      tag_55\n      swap1\n      tag_45\n      jump\t// in\n    tag_55:\n      swap1\n      0x00\n      mstore\n      keccak256(0x00, 0x20)\n      swap1\n      0x1f\n      add\n      0x20\n      swap1\n      div\n      dup2\n      add\n      swap3\n      dup3\n      tag_57\n      jumpi\n      0x00\n      dup6\n      sstore\n      jump(tag_56)\n    tag_57:\n      dup3\n      0x1f\n      lt\n      tag_58\n      jumpi\n      dup1\n      mload\n      not(0xff)\n      and\n      dup4\n      dup1\n      add\n      or\n      dup6\n      sstore\n      jump(tag_56)\n    tag_58:\n      dup3\n      dup1\n      add\n      0x01\n      add\n      dup6\n      sstore\n      dup3\n      iszero\n      tag_56\n      jumpi\n      swap2\n      dup3\n      add\n    tag_59:\n      dup3\n      dup2\n      gt\n      iszero\n      tag_60\n      jumpi\n      dup3\n      mload\n      dup3\n      sstore\n      swap2\n      0x20\n      add\n      swap2\n      swap1\n      0x01\n      add\n      swap1\n      jump(tag_59)\n    tag_60:\n    tag_56:\n      pop\n      swap1\n      pop\n      tag_61\n      swap2\n      swap1\n      tag_62\n      jump\t// in\n    tag_61:\n      pop\n      swap1\n      jump\t// out\n    tag_62:\n    tag_63:\n      dup1\n      dup3\n      gt\n      iszero\n      tag_64\n      jumpi\n      0x00\n      dup2\n      0x00\n      swap1\n      sstore\n      pop\n      0x01\n      add\n      jump(tag_63)\n    tag_64:\n      pop\n      swap1\n      jump\t// out\n        /* \"#utility.yul\":7:419   */\n    tag_66:\n        /* \"#utility.yul\":85:90   */\n      0x00\n        /* \"#utility.yul\":110:176   */\n      tag_68\n        /* \"#utility.yul\":126:175   */\n      tag_69\n        /* \"#utility.yul\":168:174   */\n      dup5\n        /* \"#utility.yul\":126:175   */\n      tag_70\n      jump\t// in\n    tag_69:\n        /* \"#utility.yul\":110:176   */\n      tag_71\n      jump\t// in\n    tag_68:\n        /* \"#utility.yul\":101:176   */\n      swap1\n      pop\n        /* \"#utility.yul\":199:205   */\n      dup3\n        /* \"#utility.yul\":192:197   */\n      dup2\n        /* \"#utility.yul\":185:206   */\n      mstore\n        /* \"#utility.yul\":237:241   */\n      0x20\n        /* \"#utility.yul\":230:235   */\n      dup2\n        /* \"#utility.yul\":226:242   */\n      add\n        /* \"#utility.yul\":275:278   */\n      dup5\n        /* \"#utility.yul\":266:272   */\n      dup5\n        /* \"#utility.yul\":261:264   */\n      dup5\n        /* \"#utility.yul\":257:273   */\n      add\n        /* \"#utility.yul\":254:279   */\n      gt\n        /* \"#utility.yul\":251:363   */\n      iszero\n      tag_72\n      jumpi\n        /* \"#utility.yul\":282:361   */\n      tag_73\n      tag_74\n      jump\t// in\n    tag_73:\n        /* \"#utility.yul\":251:363   */\n    tag_72:\n        /* \"#utility.yul\":372:413   */\n      tag_75\n        /* \"#utility.yul\":406:412   */\n      dup5\n        /* \"#utility.yul\":401:404   */\n      dup3\n        /* \"#utility.yul\":396:399   */\n      dup6\n        /* \"#utility.yul\":372:413   */\n      tag_76\n      jump\t// in\n    tag_75:\n        /* \"#utility.yul\":91:419   */\n      pop\n        /* \"#utility.yul\":7:419   */\n      swap4\n      swap3\n      pop\n      pop\n      pop\n      jump\t// out\n        /* \"#utility.yul\":439:779   */\n    tag_77:\n        /* \"#utility.yul\":495:500   */\n      0x00\n        /* \"#utility.yul\":544:547   */\n      dup3\n        /* \"#utility.yul\":537:541   */\n      0x1f\n        /* \"#utility.yul\":529:535   */\n      dup4\n        /* \"#utility.yul\":525:542   */\n      add\n        /* \"#utility.yul\":521:548   */\n      slt\n        /* \"#utility.yul\":511:633   */\n      tag_79\n      jumpi\n        /* \"#utility.yul\":552:631   */\n      tag_80\n      tag_81\n      jump\t// in\n    tag_80:\n        /* \"#utility.yul\":511:633   */\n    tag_79:\n        /* \"#utility.yul\":669:675   */\n      dup2\n        /* \"#utility.yul\":656:676   */\n      calldataload\n        /* \"#utility.yul\":694:773   */\n      tag_82\n        /* \"#utility.yul\":769:772   */\n      dup5\n        /* \"#utility.yul\":761:767   */\n      dup3\n        /* \"#utility.yul\":754:758   */\n      0x20\n        /* \"#utility.yul\":746:752   */\n      dup7\n        /* \"#utility.yul\":742:759   */\n      add\n        /* \"#utility.yul\":694:773   */\n      tag_66\n      jump\t// in\n    tag_82:\n        /* \"#utility.yul\":685:773   */\n      swap2\n      pop\n        /* \"#utility.yul\":501:779   */\n      pop\n        /* \"#utility.yul\":439:779   */\n      swap3\n      swap2\n      pop\n      pop\n      jump\t// out\n        /* \"#utility.yul\":785:924   */\n    tag_83:\n        /* \"#utility.yul\":831:836   */\n      0x00\n        /* \"#utility.yul\":869:875   */\n      dup2\n        /* \"#utility.yul\":856:876   */\n      calldataload\n        /* \"#utility.yul\":847:876   */\n      swap1\n      pop\n        /* \"#utility.yul\":885:918   */\n      tag_85\n        /* \"#utility.yul\":912:917   */\n      dup2\n        /* \"#utility.yul\":885:918   */\n      tag_86\n      jump\t// in\n    tag_85:\n        /* \"#utility.yul\":785:924   */\n      swap3\n      swap2\n      pop\n      pop\n      jump\t// out\n        /* \"#utility.yul\":930:1439   */\n    tag_10:\n        /* \"#utility.yul\":999:1005   */\n      0x00\n        /* \"#utility.yul\":1048:1050   */\n      0x20\n        /* \"#utility.yul\":1036:1045   */\n      dup3\n        /* \"#utility.yul\":1027:1034   */\n      dup5\n        /* \"#utility.yul\":1023:1046   */\n      sub\n        /* \"#utility.yul\":1019:1051   */\n      slt\n        /* \"#utility.yul\":1016:1135   */\n      iszero\n      tag_88\n      jumpi\n        /* \"#utility.yul\":1054:1133   */\n      tag_89\n      tag_90\n      jump\t// in\n    tag_89:\n        /* \"#utility.yul\":1016:1135   */\n    tag_88:\n        /* \"#utility.yul\":1202:1203   */\n      0x00\n        /* \"#utility.yul\":1191:1200   */\n      dup3\n        /* \"#utility.yul\":1187:1204   */\n      add\n        /* \"#utility.yul\":1174:1205   */\n      calldataload\n        /* \"#utility.yul\":1232:1250   */\n      0xffffffffffffffff\n        /* \"#utility.yul\":1224:1230   */\n      dup2\n        /* \"#utility.yul\":1221:1251   */\n      gt\n        /* \"#utility.yul\":1218:1335   */\n      iszero\n      tag_91\n      jumpi\n        /* \"#utility.yul\":1254:1333   */\n      tag_92\n      tag_93\n      jump\t// in\n    tag_92:\n        /* \"#utility.yul\":1218:1335   */\n    tag_91:\n        /* \"#utility.yul\":1359:1422   */\n      tag_94\n        /* \"#utility.yul\":1414:1421   */\n      dup5\n        /* \"#utility.yul\":1405:1411   */\n      dup3\n        /* \"#utility.yul\":1394:1403   */\n      dup6\n        /* \"#utility.yul\":1390:1412   */\n      add\n        /* \"#utility.yul\":1359:1422   */\n      tag_77\n      jump\t// in\n    tag_94:\n        /* \"#utility.yul\":1349:1422   */\n      swap2\n      pop\n        /* \"#utility.yul\":1145:1432   */\n      pop\n        /* \"#utility.yul\":930:1439   */\n      swap3\n      swap2\n      pop\n      pop\n      jump\t// out\n        /* \"#utility.yul\":1445:1774   */\n    tag_15:\n        /* \"#utility.yul\":1504:1510   */\n      0x00\n        /* \"#utility.yul\":1553:1555   */\n      0x20\n        /* \"#utility.yul\":1541:1550   */\n      dup3\n        /* \"#utility.yul\":1532:1539   */\n      dup5\n        /* \"#utility.yul\":1528:1551   */\n      sub\n        /* \"#utility.yul\":1524:1556   */\n      slt\n        /* \"#utility.yul\":1521:1640   */\n      iszero\n      tag_96\n      jumpi\n        /* \"#utility.yul\":1559:1638   */\n      tag_97\n      tag_90\n      jump\t// in\n    tag_97:\n        /* \"#utility.yul\":1521:1640   */\n    tag_96:\n        /* \"#utility.yul\":1679:1680   */\n      0x00\n        /* \"#utility.yul\":1704:1757   */\n      tag_98\n        /* \"#utility.yul\":1749:1756   */\n      dup5\n        /* \"#utility.yul\":1740:1746   */\n      dup3\n        /* \"#utility.yul\":1729:1738   */\n      dup6\n        /* \"#utility.yul\":1725:1747   */\n      add\n        /* \"#utility.yul\":1704:1757   */\n      tag_83\n      jump\t// in\n    tag_98:\n        /* \"#utility.yul\":1694:1757   */\n      swap2\n      pop\n        /* \"#utility.yul\":1650:1767   */\n      pop\n        /* \"#utility.yul\":1445:1774   */\n      swap3\n      swap2\n      pop\n      pop\n      jump\t// out\n        /* \"#utility.yul\":1780:1879   */\n    tag_99:\n        /* \"#utility.yul\":1851:1872   */\n      tag_101\n        /* \"#utility.yul\":1866:1871   */\n      dup2\n        /* \"#utility.yul\":1851:1872   */\n      tag_102\n      jump\t// in\n    tag_101:\n        /* \"#utility.yul\":1846:1849   */\n      dup3\n        /* \"#utility.yul\":1839:1873   */\n      mstore\n        /* \"#utility.yul\":1780:1879   */\n      pop\n      pop\n      jump\t// out\n        /* \"#utility.yul\":1885:2022   */\n    tag_103:\n        /* \"#utility.yul\":1970:2015   */\n      tag_105\n        /* \"#utility.yul\":2009:2014   */\n      dup2\n        /* \"#utility.yul\":1970:2015   */\n      tag_106\n      jump\t// in\n    tag_105:\n        /* \"#utility.yul\":1965:1968   */\n      dup3\n        /* \"#utility.yul\":1958:2016   */\n      mstore\n        /* \"#utility.yul\":1885:2022   */\n      pop\n      pop\n      jump\t// out\n        /* \"#utility.yul\":2028:2372   */\n    tag_107:\n        /* \"#utility.yul\":2106:2109   */\n      0x00\n        /* \"#utility.yul\":2134:2173   */\n      tag_109\n        /* \"#utility.yul\":2167:2172   */\n      dup3\n        /* \"#utility.yul\":2134:2173   */\n      tag_110\n      jump\t// in\n    tag_109:\n        /* \"#utility.yul\":2189:2250   */\n      tag_111\n        /* \"#utility.yul\":2243:2249   */\n      dup2\n        /* \"#utility.yul\":2238:2241   */\n      dup6\n        /* \"#utility.yul\":2189:2250   */\n      tag_112\n      jump\t// in\n    tag_111:\n        /* \"#utility.yul\":2182:2250   */\n      swap4\n      pop\n        /* \"#utility.yul\":2259:2311   */\n      tag_113\n        /* \"#utility.yul\":2304:2310   */\n      dup2\n        /* \"#utility.yul\":2299:2302   */\n      dup6\n        /* \"#utility.yul\":2292:2296   */\n      0x20\n        /* \"#utility.yul\":2285:2290   */\n      dup7\n        /* \"#utility.yul\":2281:2297   */\n      add\n        /* \"#utility.yul\":2259:2311   */\n      tag_114\n      jump\t// in\n    tag_113:\n        /* \"#utility.yul\":2336:2365   */\n      tag_115\n        /* \"#utility.yul\":2358:2364   */\n      dup2\n        /* \"#utility.yul\":2336:2365   */\n      tag_116\n      jump\t// in\n    tag_115:\n        /* \"#utility.yul\":2331:2334   */\n      dup5\n        /* \"#utility.yul\":2327:2366   */\n      add\n        /* \"#utility.yul\":2320:2366   */\n      swap2\n      pop\n        /* \"#utility.yul\":2110:2372   */\n      pop\n        /* \"#utility.yul\":2028:2372   */\n      swap3\n      swap2\n      pop\n      pop\n      jump\t// out\n        /* \"#utility.yul\":2378:2744   */\n    tag_117:\n        /* \"#utility.yul\":2520:2523   */\n      0x00\n        /* \"#utility.yul\":2541:2608   */\n      tag_119\n        /* \"#utility.yul\":2605:2607   */\n      0x29\n        /* \"#utility.yul\":2600:2603   */\n      dup4\n        /* \"#utility.yul\":2541:2608   */\n      tag_120\n      jump\t// in\n    tag_119:\n        /* \"#utility.yul\":2534:2608   */\n      swap2\n      pop\n        /* \"#utility.yul\":2617:2710   */\n      tag_121\n        /* \"#utility.yul\":2706:2709   */\n      dup3\n        /* \"#utility.yul\":2617:2710   */\n      tag_122\n      jump\t// in\n    tag_121:\n        /* \"#utility.yul\":2735:2737   */\n      0x40\n        /* \"#utility.yul\":2730:2733   */\n      dup3\n        /* \"#utility.yul\":2726:2738   */\n      add\n        /* \"#utility.yul\":2719:2738   */\n      swap1\n      pop\n        /* \"#utility.yul\":2378:2744   */\n      swap2\n      swap1\n      pop\n      jump\t// out\n        /* \"#utility.yul\":2750:3116   */\n    tag_123:\n        /* \"#utility.yul\":2892:2895   */\n      0x00\n        /* \"#utility.yul\":2913:2980   */\n      tag_125\n        /* \"#utility.yul\":2977:2979   */\n      0x14\n        /* \"#utility.yul\":2972:2975   */\n      dup4\n        /* \"#utility.yul\":2913:2980   */\n      tag_120\n      jump\t// in\n    tag_125:\n        /* \"#utility.yul\":2906:2980   */\n      swap2\n      pop\n        /* \"#utility.yul\":2989:3082   */\n      tag_126\n        /* \"#utility.yul\":3078:3081   */\n      dup3\n        /* \"#utility.yul\":2989:3082   */\n      tag_127\n      jump\t// in\n    tag_126:\n        /* \"#utility.yul\":3107:3109   */\n      0x20\n        /* \"#utility.yul\":3102:3105   */\n      dup3\n        /* \"#utility.yul\":3098:3110   */\n      add\n        /* \"#utility.yul\":3091:3110   */\n      swap1\n      pop\n        /* \"#utility.yul\":2750:3116   */\n      swap2\n      swap1\n      pop\n      jump\t// out\n        /* \"#utility.yul\":3180:4315   */\n    tag_128:\n        /* \"#utility.yul\":3289:3292   */\n      0x00\n        /* \"#utility.yul\":3325:3329   */\n      0xa0\n        /* \"#utility.yul\":3320:3323   */\n      dup4\n        /* \"#utility.yul\":3316:3330   */\n      add\n        /* \"#utility.yul\":3410:3414   */\n      0x00\n        /* \"#utility.yul\":3403:3408   */\n      dup4\n        /* \"#utility.yul\":3399:3415   */\n      add\n        /* \"#utility.yul\":3393:3416   */\n      mload\n        /* \"#utility.yul\":3429:3492   */\n      tag_130\n        /* \"#utility.yul\":3486:3490   */\n      0x00\n        /* \"#utility.yul\":3481:3484   */\n      dup7\n        /* \"#utility.yul\":3477:3491   */\n      add\n        /* \"#utility.yul\":3463:3475   */\n      dup3\n        /* \"#utility.yul\":3429:3492   */\n      tag_131\n      jump\t// in\n    tag_130:\n        /* \"#utility.yul\":3340:3502   */\n      pop\n        /* \"#utility.yul\":3588:3592   */\n      0x20\n        /* \"#utility.yul\":3581:3586   */\n      dup4\n        /* \"#utility.yul\":3577:3593   */\n      add\n        /* \"#utility.yul\":3571:3594   */\n      mload\n        /* \"#utility.yul\":3607:3678   */\n      tag_132\n        /* \"#utility.yul\":3672:3676   */\n      0x20\n        /* \"#utility.yul\":3667:3670   */\n      dup7\n        /* \"#utility.yul\":3663:3677   */\n      add\n        /* \"#utility.yul\":3649:3661   */\n      dup3\n        /* \"#utility.yul\":3607:3678   */\n      tag_103\n      jump\t// in\n    tag_132:\n        /* \"#utility.yul\":3512:3688   */\n      pop\n        /* \"#utility.yul\":3773:3777   */\n      0x40\n        /* \"#utility.yul\":3766:3771   */\n      dup4\n        /* \"#utility.yul\":3762:3778   */\n      add\n        /* \"#utility.yul\":3756:3779   */\n      mload\n        /* \"#utility.yul\":3826:3829   */\n      dup5\n        /* \"#utility.yul\":3820:3824   */\n      dup3\n        /* \"#utility.yul\":3816:3830   */\n      sub\n        /* \"#utility.yul\":3809:3813   */\n      0x40\n        /* \"#utility.yul\":3804:3807   */\n      dup7\n        /* \"#utility.yul\":3800:3814   */\n      add\n        /* \"#utility.yul\":3793:3831   */\n      mstore\n        /* \"#utility.yul\":3852:3925   */\n      tag_133\n        /* \"#utility.yul\":3920:3924   */\n      dup3\n        /* \"#utility.yul\":3906:3918   */\n      dup3\n        /* \"#utility.yul\":3852:3925   */\n      tag_107\n      jump\t// in\n    tag_133:\n        /* \"#utility.yul\":3844:3925   */\n      swap2\n      pop\n        /* \"#utility.yul\":3698:3936   */\n      pop\n        /* \"#utility.yul\":4023:4027   */\n      0x60\n        /* \"#utility.yul\":4016:4021   */\n      dup4\n        /* \"#utility.yul\":4012:4028   */\n      add\n        /* \"#utility.yul\":4006:4029   */\n      mload\n        /* \"#utility.yul\":4042:4105   */\n      tag_134\n        /* \"#utility.yul\":4099:4103   */\n      0x60\n        /* \"#utility.yul\":4094:4097   */\n      dup7\n        /* \"#utility.yul\":4090:4104   */\n      add\n        /* \"#utility.yul\":4076:4088   */\n      dup3\n        /* \"#utility.yul\":4042:4105   */\n      tag_131\n      jump\t// in\n    tag_134:\n        /* \"#utility.yul\":3946:4115   */\n      pop\n        /* \"#utility.yul\":4202:4206   */\n      0x80\n        /* \"#utility.yul\":4195:4200   */\n      dup4\n        /* \"#utility.yul\":4191:4207   */\n      add\n        /* \"#utility.yul\":4185:4208   */\n      mload\n        /* \"#utility.yul\":4221:4278   */\n      tag_135\n        /* \"#utility.yul\":4272:4276   */\n      0x80\n        /* \"#utility.yul\":4267:4270   */\n      dup7\n        /* \"#utility.yul\":4263:4277   */\n      add\n        /* \"#utility.yul\":4249:4261   */\n      dup3\n        /* \"#utility.yul\":4221:4278   */\n      tag_99\n      jump\t// in\n    tag_135:\n        /* \"#utility.yul\":4125:4288   */\n      pop\n        /* \"#utility.yul\":4305:4309   */\n      dup1\n        /* \"#utility.yul\":4298:4309   */\n      swap2\n      pop\n        /* \"#utility.yul\":3294:4315   */\n      pop\n        /* \"#utility.yul\":3180:4315   */\n      swap3\n      swap2\n      pop\n      pop\n      jump\t// out\n        /* \"#utility.yul\":4321:4429   */\n    tag_131:\n        /* \"#utility.yul\":4398:4422   */\n      tag_137\n        /* \"#utility.yul\":4416:4421   */\n      dup2\n        /* \"#utility.yul\":4398:4422   */\n      tag_138\n      jump\t// in\n    tag_137:\n        /* \"#utility.yul\":4393:4396   */\n      dup3\n        /* \"#utility.yul\":4386:4423   */\n      mstore\n        /* \"#utility.yul\":4321:4429   */\n      pop\n      pop\n      jump\t// out\n        /* \"#utility.yul\":4435:4553   */\n    tag_139:\n        /* \"#utility.yul\":4522:4546   */\n      tag_141\n        /* \"#utility.yul\":4540:4545   */\n      dup2\n        /* \"#utility.yul\":4522:4546   */\n      tag_138\n      jump\t// in\n    tag_141:\n        /* \"#utility.yul\":4517:4520   */\n      dup3\n        /* \"#utility.yul\":4510:4547   */\n      mstore\n        /* \"#utility.yul\":4435:4553   */\n      pop\n      pop\n      jump\t// out\n        /* \"#utility.yul\":4559:4978   */\n    tag_26:\n        /* \"#utility.yul\":4725:4729   */\n      0x00\n        /* \"#utility.yul\":4763:4765   */\n      0x20\n        /* \"#utility.yul\":4752:4761   */\n      dup3\n        /* \"#utility.yul\":4748:4766   */\n      add\n        /* \"#utility.yul\":4740:4766   */\n      swap1\n      pop\n        /* \"#utility.yul\":4812:4821   */\n      dup2\n        /* \"#utility.yul\":4806:4810   */\n      dup2\n        /* \"#utility.yul\":4802:4822   */\n      sub\n        /* \"#utility.yul\":4798:4799   */\n      0x00\n        /* \"#utility.yul\":4787:4796   */\n      dup4\n        /* \"#utility.yul\":4783:4800   */\n      add\n        /* \"#utility.yul\":4776:4823   */\n      mstore\n        /* \"#utility.yul\":4840:4971   */\n      tag_143\n        /* \"#utility.yul\":4966:4970   */\n      dup2\n        /* \"#utility.yul\":4840:4971   */\n      tag_117\n      jump\t// in\n    tag_143:\n        /* \"#utility.yul\":4832:4971   */\n      swap1\n      pop\n        /* \"#utility.yul\":4559:4978   */\n      swap2\n      swap1\n      pop\n      jump\t// out\n        /* \"#utility.yul\":4984:5403   */\n    tag_20:\n        /* \"#utility.yul\":5150:5154   */\n      0x00\n        /* \"#utility.yul\":5188:5190   */\n      0x20\n        /* \"#utility.yul\":5177:5186   */\n      dup3\n        /* \"#utility.yul\":5173:5191   */\n      add\n        /* \"#utility.yul\":5165:5191   */\n      swap1\n      pop\n        /* \"#utility.yul\":5237:5246   */\n      dup2\n        /* \"#utility.yul\":5231:5235   */\n      dup2\n        /* \"#utility.yul\":5227:5247   */\n      sub\n        /* \"#utility.yul\":5223:5224   */\n      0x00\n        /* \"#utility.yul\":5212:5221   */\n      dup4\n        /* \"#utility.yul\":5208:5225   */\n      add\n        /* \"#utility.yul\":5201:5248   */\n      mstore\n        /* \"#utility.yul\":5265:5396   */\n      tag_145\n        /* \"#utility.yul\":5391:5395   */\n      dup2\n        /* \"#utility.yul\":5265:5396   */\n      tag_123\n      jump\t// in\n    tag_145:\n        /* \"#utility.yul\":5257:5396   */\n      swap1\n      pop\n        /* \"#utility.yul\":4984:5403   */\n      swap2\n      swap1\n      pop\n      jump\t// out\n        /* \"#utility.yul\":5409:5872   */\n    tag_38:\n        /* \"#utility.yul\":5570:5574   */\n      0x00\n        /* \"#utility.yul\":5608:5610   */\n      0x40\n        /* \"#utility.yul\":5597:5606   */\n      dup3\n        /* \"#utility.yul\":5593:5611   */\n      add\n        /* \"#utility.yul\":5585:5611   */\n      swap1\n      pop\n        /* \"#utility.yul\":5657:5666   */\n      dup2\n        /* \"#utility.yul\":5651:5655   */\n      dup2\n        /* \"#utility.yul\":5647:5667   */\n      sub\n        /* \"#utility.yul\":5643:5644   */\n      0x00\n        /* \"#utility.yul\":5632:5641   */\n      dup4\n        /* \"#utility.yul\":5628:5645   */\n      add\n        /* \"#utility.yul\":5621:5668   */\n      mstore\n        /* \"#utility.yul\":5685:5783   */\n      tag_147\n        /* \"#utility.yul\":5778:5782   */\n      dup2\n        /* \"#utility.yul\":5769:5775   */\n      dup6\n        /* \"#utility.yul\":5685:5783   */\n      tag_128\n      jump\t// in\n    tag_147:\n        /* \"#utility.yul\":5677:5783   */\n      swap1\n      pop\n        /* \"#utility.yul\":5793:5865   */\n      tag_148\n        /* \"#utility.yul\":5861:5863   */\n      0x20\n        /* \"#utility.yul\":5850:5859   */\n      dup4\n        /* \"#utility.yul\":5846:5864   */\n      add\n        /* \"#utility.yul\":5837:5843   */\n      dup5\n        /* \"#utility.yul\":5793:5865   */\n      tag_139\n      jump\t// in\n    tag_148:\n        /* \"#utility.yul\":5409:5872   */\n      swap4\n      swap3\n      pop\n      pop\n      pop\n      jump\t// out\n        /* \"#utility.yul\":5878:6007   */\n    tag_71:\n        /* \"#utility.yul\":5912:5918   */\n      0x00\n        /* \"#utility.yul\":5939:5959   */\n      tag_150\n      tag_151\n      jump\t// in\n    tag_150:\n        /* \"#utility.yul\":5929:5959   */\n      swap1\n      pop\n        /* \"#utility.yul\":5968:6001   */\n      tag_152\n        /* \"#utility.yul\":5996:6000   */\n      dup3\n        /* \"#utility.yul\":5988:5994   */\n      dup3\n        /* \"#utility.yul\":5968:6001   */\n      tag_153\n      jump\t// in\n    tag_152:\n        /* \"#utility.yul\":5878:6007   */\n      swap2\n      swap1\n      pop\n      jump\t// out\n        /* \"#utility.yul\":6013:6088   */\n    tag_151:\n        /* \"#utility.yul\":6046:6052   */\n      0x00\n        /* \"#utility.yul\":6079:6081   */\n      0x40\n        /* \"#utility.yul\":6073:6082   */\n      mload\n        /* \"#utility.yul\":6063:6082   */\n      swap1\n      pop\n        /* \"#utility.yul\":6013:6088   */\n      swap1\n      jump\t// out\n        /* \"#utility.yul\":6094:6402   */\n    tag_70:\n        /* \"#utility.yul\":6156:6160   */\n      0x00\n        /* \"#utility.yul\":6246:6264   */\n      0xffffffffffffffff\n        /* \"#utility.yul\":6238:6244   */\n      dup3\n        /* \"#utility.yul\":6235:6265   */\n      gt\n        /* \"#utility.yul\":6232:6288   */\n      iszero\n      tag_156\n      jumpi\n        /* \"#utility.yul\":6268:6286   */\n      tag_157\n      tag_158\n      jump\t// in\n    tag_157:\n        /* \"#utility.yul\":6232:6288   */\n    tag_156:\n        /* \"#utility.yul\":6306:6335   */\n      tag_159\n        /* \"#utility.yul\":6328:6334   */\n      dup3\n        /* \"#utility.yul\":6306:6335   */\n      tag_116\n      jump\t// in\n    tag_159:\n        /* \"#utility.yul\":6298:6335   */\n      swap1\n      pop\n        /* \"#utility.yul\":6390:6394   */\n      0x20\n        /* \"#utility.yul\":6384:6388   */\n      dup2\n        /* \"#utility.yul\":6380:6395   */\n      add\n        /* \"#utility.yul\":6372:6395   */\n      swap1\n      pop\n        /* \"#utility.yul\":6094:6402   */\n      swap2\n      swap1\n      pop\n      jump\t// out\n        /* \"#utility.yul\":6408:6507   */\n    tag_110:\n        /* \"#utility.yul\":6460:6466   */\n      0x00\n        /* \"#utility.yul\":6494:6499   */\n      dup2\n        /* \"#utility.yul\":6488:6500   */\n      mload\n        /* \"#utility.yul\":6478:6500   */\n      swap1\n      pop\n        /* \"#utility.yul\":6408:6507   */\n      swap2\n      swap1\n      pop\n      jump\t// out\n        /* \"#utility.yul\":6513:6672   */\n    tag_112:\n        /* \"#utility.yul\":6587:6598   */\n      0x00\n        /* \"#utility.yul\":6621:6627   */\n      dup3\n        /* \"#utility.yul\":6616:6619   */\n      dup3\n        /* \"#utility.yul\":6609:6628   */\n      mstore\n        /* \"#utility.yul\":6661:6665   */\n      0x20\n        /* \"#utility.yul\":6656:6659   */\n      dup3\n        /* \"#utility.yul\":6652:6666   */\n      add\n        /* \"#utility.yul\":6637:6666   */\n      swap1\n      pop\n        /* \"#utility.yul\":6513:6672   */\n      swap3\n      swap2\n      pop\n      pop\n      jump\t// out\n        /* \"#utility.yul\":6678:6847   */\n    tag_120:\n        /* \"#utility.yul\":6762:6773   */\n      0x00\n        /* \"#utility.yul\":6796:6802   */\n      dup3\n        /* \"#utility.yul\":6791:6794   */\n      dup3\n        /* \"#utility.yul\":6784:6803   */\n      mstore\n        /* \"#utility.yul\":6836:6840   */\n      0x20\n        /* \"#utility.yul\":6831:6834   */\n      dup3\n        /* \"#utility.yul\":6827:6841   */\n      add\n        /* \"#utility.yul\":6812:6841   */\n      swap1\n      pop\n        /* \"#utility.yul\":6678:6847   */\n      swap3\n      swap2\n      pop\n      pop\n      jump\t// out\n        /* \"#utility.yul\":6853:7158   */\n    tag_23:\n        /* \"#utility.yul\":6893:6896   */\n      0x00\n        /* \"#utility.yul\":6912:6932   */\n      tag_164\n        /* \"#utility.yul\":6930:6931   */\n      dup3\n        /* \"#utility.yul\":6912:6932   */\n      tag_138\n      jump\t// in\n    tag_164:\n        /* \"#utility.yul\":6907:6932   */\n      swap2\n      pop\n        /* \"#utility.yul\":6946:6966   */\n      tag_165\n        /* \"#utility.yul\":6964:6965   */\n      dup4\n        /* \"#utility.yul\":6946:6966   */\n      tag_138\n      jump\t// in\n    tag_165:\n        /* \"#utility.yul\":6941:6966   */\n      swap3\n      pop\n        /* \"#utility.yul\":7100:7101   */\n      dup3\n        /* \"#utility.yul\":7032:7098   */\n      0xffffffffffffffffffffffffffffffffffffffffffffffffffffffffffffffff\n        /* \"#utility.yul\":7028:7102   */\n      sub\n        /* \"#utility.yul\":7025:7026   */\n      dup3\n        /* \"#utility.yul\":7022:7103   */\n      gt\n        /* \"#utility.yul\":7019:7126   */\n      iszero\n      tag_166\n      jumpi\n        /* \"#utility.yul\":7106:7124   */\n      tag_167\n      tag_168\n      jump\t// in\n    tag_167:\n        /* \"#utility.yul\":7019:7126   */\n    tag_166:\n        /* \"#utility.yul\":7150:7151   */\n      dup3\n        /* \"#utility.yul\":7147:7148   */\n      dup3\n        /* \"#utility.yul\":7143:7152   */\n      add\n        /* \"#utility.yul\":7136:7152   */\n      swap1\n      pop\n        /* \"#utility.yul\":6853:7158   */\n      swap3\n      swap2\n      pop\n      pop\n      jump\t// out\n        /* \"#utility.yul\":7164:7254   */\n    tag_102:\n        /* \"#utility.yul\":7198:7205   */\n      0x00\n        /* \"#utility.yul\":7241:7246   */\n      dup2\n        /* \"#utility.yul\":7234:7247   */\n      iszero\n        /* \"#utility.yul\":7227:7248   */\n      iszero\n        /* \"#utility.yul\":7216:7248   */\n      swap1\n      pop\n        /* \"#utility.yul\":7164:7254   */\n      swap2\n      swap1\n      pop\n      jump\t// out\n        /* \"#utility.yul\":7260:7391   */\n    tag_170:\n        /* \"#utility.yul\":7307:7314   */\n      0x00\n        /* \"#utility.yul\":7336:7341   */\n      dup2\n        /* \"#utility.yul\":7325:7341   */\n      swap1\n      pop\n        /* \"#utility.yul\":7342:7385   */\n      tag_172\n        /* \"#utility.yul\":7379:7384   */\n      dup3\n        /* \"#utility.yul\":7342:7385   */\n      tag_173\n      jump\t// in\n    tag_172:\n        /* \"#utility.yul\":7260:7391   */\n      swap2\n      swap1\n      pop\n      jump\t// out\n        /* \"#utility.yul\":7397:7474   */\n    tag_138:\n        /* \"#utility.yul\":7434:7441   */\n      0x00\n        /* \"#utility.yul\":7463:7468   */\n      dup2\n        /* \"#utility.yul\":7452:7468   */\n      swap1\n      pop\n        /* \"#utility.yul\":7397:7474   */\n      swap2\n      swap1\n      pop\n      jump\t// out\n        /* \"#utility.yul\":7480:7611   */\n    tag_106:\n        /* \"#utility.yul\":7538:7547   */\n      0x00\n        /* \"#utility.yul\":7571:7605   */\n      tag_176\n        /* \"#utility.yul\":7599:7604   */\n      dup3\n        /* \"#utility.yul\":7571:7605   */\n      tag_170\n      jump\t// in\n    tag_176:\n        /* \"#utility.yul\":7558:7605   */\n      swap1\n      pop\n        /* \"#utility.yul\":7480:7611   */\n      swap2\n      swap1\n      pop\n      jump\t// out\n        /* \"#utility.yul\":7617:7771   */\n    tag_76:\n        /* \"#utility.yul\":7701:7707   */\n      dup3\n        /* \"#utility.yul\":7696:7699   */\n      dup2\n        /* \"#utility.yul\":7691:7694   */\n      dup4\n        /* \"#utility.yul\":7678:7708   */\n      calldatacopy\n        /* \"#utility.yul\":7763:7764   */\n      0x00\n        /* \"#utility.yul\":7754:7760   */\n      dup4\n        /* \"#utility.yul\":7749:7752   */\n      dup4\n        /* \"#utility.yul\":7745:7761   */\n      add\n        /* \"#utility.yul\":7738:7765   */\n      mstore\n        /* \"#utility.yul\":7617:7771   */\n      pop\n      pop\n      pop\n      jump\t// out\n        /* \"#utility.yul\":7777:8084   */\n    tag_114:\n        /* \"#utility.yul\":7845:7846   */\n      0x00\n        /* \"#utility.yul\":7855:7968   */\n    tag_179:\n        /* \"#utility.yul\":7869:7875   */\n      dup4\n        /* \"#utility.yul\":7866:7867   */\n      dup2\n        /* \"#utility.yul\":7863:7876   */\n      lt\n        /* \"#utility.yul\":7855:7968   */\n      iszero\n      tag_181\n      jumpi\n        /* \"#utility.yul\":7954:7955   */\n      dup1\n        /* \"#utility.yul\":7949:7952   */\n      dup3\n        /* \"#utility.yul\":7945:7956   */\n      add\n        /* \"#utility.yul\":7939:7957   */\n      mload\n        /* \"#utility.yul\":7935:7936   */\n      dup2\n        /* \"#utility.yul\":7930:7933   */\n      dup5\n        /* \"#utility.yul\":7926:7937   */\n      add\n        /* \"#utility.yul\":7919:7958   */\n      mstore\n        /* \"#utility.yul\":7891:7893   */\n      0x20\n        /* \"#utility.yul\":7888:7889   */\n      dup2\n        /* \"#utility.yul\":7884:7894   */\n      add\n        /* \"#utility.yul\":7879:7894   */\n      swap1\n      pop\n        /* \"#utility.yul\":7855:7968   */\n      jump(tag_179)\n    tag_181:\n        /* \"#utility.yul\":7986:7992   */\n      dup4\n        /* \"#utility.yul\":7983:7984   */\n      dup2\n        /* \"#utility.yul\":7980:7993   */\n      gt\n        /* \"#utility.yul\":7977:8078   */\n      iszero\n      tag_182\n      jumpi\n        /* \"#utility.yul\":8066:8067   */\n      0x00\n        /* \"#utility.yul\":8057:8063   */\n      dup5\n        /* \"#utility.yul\":8052:8055   */\n      dup5\n        /* \"#utility.yul\":8048:8064   */\n      add\n        /* \"#utility.yul\":8041:8068   */\n      mstore\n        /* \"#utility.yul\":7977:8078   */\n    tag_182:\n        /* \"#utility.yul\":7826:8084   */\n      pop\n        /* \"#utility.yul\":7777:8084   */\n      pop\n      pop\n      pop\n      jump\t// out\n        /* \"#utility.yul\":8090:8410   */\n    tag_45:\n        /* \"#utility.yul\":8134:8140   */\n      0x00\n        /* \"#utility.yul\":8171:8172   */\n      0x02\n        /* \"#utility.yul\":8165:8169   */\n      dup3\n        /* \"#utility.yul\":8161:8173   */\n      div\n        /* \"#utility.yul\":8151:8173   */\n      swap1\n      pop\n        /* \"#utility.yul\":8218:8219   */\n      0x01\n        /* \"#utility.yul\":8212:8216   */\n      dup3\n        /* \"#utility.yul\":8208:8220   */\n      and\n        /* \"#utility.yul\":8239:8257   */\n      dup1\n        /* \"#utility.yul\":8229:8310   */\n      tag_184\n      jumpi\n        /* \"#utility.yul\":8295:8299   */\n      0x7f\n        /* \"#utility.yul\":8287:8293   */\n      dup3\n        /* \"#utility.yul\":8283:8300   */\n      and\n        /* \"#utility.yul\":8273:8300   */\n      swap2\n      pop\n        /* \"#utility.yul\":8229:8310   */\n    tag_184:\n        /* \"#utility.yul\":8357:8359   */\n      0x20\n        /* \"#utility.yul\":8349:8355   */\n      dup3\n        /* \"#utility.yul\":8346:8360   */\n      lt\n        /* \"#utility.yul\":8326:8344   */\n      dup2\n        /* \"#utility.yul\":8323:8361   */\n      eq\n        /* \"#utility.yul\":8320:8404   */\n      iszero\n      tag_185\n      jumpi\n        /* \"#utility.yul\":8376:8394   */\n      tag_186\n      tag_187\n      jump\t// in\n    tag_186:\n        /* \"#utility.yul\":8320:8404   */\n    tag_185:\n        /* \"#utility.yul\":8141:8410   */\n      pop\n        /* \"#utility.yul\":8090:8410   */\n      swap2\n      swap1\n      pop\n      jump\t// out\n        /* \"#utility.yul\":8416:8697   */\n    tag_153:\n        /* \"#utility.yul\":8499:8526   */\n      tag_189\n        /* \"#utility.yul\":8521:8525   */\n      dup3\n        /* \"#utility.yul\":8499:8526   */\n      tag_116\n      jump\t// in\n    tag_189:\n        /* \"#utility.yul\":8491:8497   */\n      dup2\n        /* \"#utility.yul\":8487:8527   */\n      add\n        /* \"#utility.yul\":8629:8635   */\n      dup2\n        /* \"#utility.yul\":8617:8627   */\n      dup2\n        /* \"#utility.yul\":8614:8636   */\n      lt\n        /* \"#utility.yul\":8593:8611   */\n      0xffffffffffffffff\n        /* \"#utility.yul\":8581:8591   */\n      dup3\n        /* \"#utility.yul\":8578:8612   */\n      gt\n        /* \"#utility.yul\":8575:8637   */\n      or\n        /* \"#utility.yul\":8572:8660   */\n      iszero\n      tag_190\n      jumpi\n        /* \"#utility.yul\":8640:8658   */\n      tag_191\n      tag_158\n      jump\t// in\n    tag_191:\n        /* \"#utility.yul\":8572:8660   */\n    tag_190:\n        /* \"#utility.yul\":8680:8690   */\n      dup1\n        /* \"#utility.yul\":8676:8678   */\n      0x40\n        /* \"#utility.yul\":8669:8691   */\n      mstore\n        /* \"#utility.yul\":8459:8697   */\n      pop\n        /* \"#utility.yul\":8416:8697   */\n      pop\n      pop\n      jump\t// out\n        /* \"#utility.yul\":8703:8883   */\n    tag_168:\n        /* \"#utility.yul\":8751:8828   */\n      0x4e487b7100000000000000000000000000000000000000000000000000000000\n        /* \"#utility.yul\":8748:8749   */\n      0x00\n        /* \"#utility.yul\":8741:8829   */\n      mstore\n        /* \"#utility.yul\":8848:8852   */\n      0x11\n        /* \"#utility.yul\":8845:8846   */\n      0x04\n        /* \"#utility.yul\":8838:8853   */\n      mstore\n        /* \"#utility.yul\":8872:8876   */\n      0x24\n        /* \"#utility.yul\":8869:8870   */\n      0x00\n        /* \"#utility.yul\":8862:8877   */\n      revert\n        /* \"#utility.yul\":8889:9069   */\n    tag_30:\n        /* \"#utility.yul\":8937:9014   */\n      0x4e487b7100000000000000000000000000000000000000000000000000000000\n        /* \"#utility.yul\":8934:8935   */\n      0x00\n        /* \"#utility.yul\":8927:9015   */\n      mstore\n        /* \"#utility.yul\":9034:9038   */\n      0x21\n        /* \"#utility.yul\":9031:9032   */\n      0x04\n        /* \"#utility.yul\":9024:9039   */\n      mstore\n        /* \"#utility.yul\":9058:9062   */\n      0x24\n        /* \"#utility.yul\":9055:9056   */\n      0x00\n        /* \"#utility.yul\":9048:9063   */\n      revert\n        /* \"#utility.yul\":9075:9255   */\n    tag_187:\n        /* \"#utility.yul\":9123:9200   */\n      0x4e487b7100000000000000000000000000000000000000000000000000000000\n        /* \"#utility.yul\":9120:9121   */\n      0x00\n        /* \"#utility.yul\":9113:9201   */\n      mstore\n        /* \"#utility.yul\":9220:9224   */\n      0x22\n        /* \"#utility.yul\":9217:9218   */\n      0x04\n        /* \"#utility.yul\":9210:9225   */\n      mstore\n        /* \"#utility.yul\":9244:9248   */\n      0x24\n        /* \"#utility.yul\":9241:9242   */\n      0x00\n        /* \"#utility.yul\":9234:9249   */\n      revert\n        /* \"#utility.yul\":9261:9441   */\n    tag_158:\n        /* \"#utility.yul\":9309:9386   */\n      0x4e487b7100000000000000000000000000000000000000000000000000000000\n        /* \"#utility.yul\":9306:9307   */\n      0x00\n        /* \"#utility.yul\":9299:9387   */\n      mstore\n        /* \"#utility.yul\":9406:9410   */\n      0x41\n        /* \"#utility.yul\":9403:9404   */\n      0x04\n        /* \"#utility.yul\":9396:9411   */\n      mstore\n        /* \"#utility.yul\":9430:9434   */\n      0x24\n        /* \"#utility.yul\":9427:9428   */\n      0x00\n        /* \"#utility.yul\":9420:9435   */\n      revert\n        /* \"#utility.yul\":9447:9564   */\n    tag_81:\n        /* \"#utility.yul\":9556:9557   */\n      0x00\n        /* \"#utility.yul\":9553:9554   */\n      dup1\n        /* \"#utility.yul\":9546:9558   */\n      revert\n        /* \"#utility.yul\":9570:9687   */\n    tag_74:\n        /* \"#utility.yul\":9679:9680   */\n      0x00\n        /* \"#utility.yul\":9676:9677   */\n      dup1\n        /* \"#utility.yul\":9669:9681   */\n      revert\n        /* \"#utility.yul\":9693:9810   */\n    tag_93:\n        /* \"#utility.yul\":9802:9803   */\n      0x00\n        /* \"#utility.yul\":9799:9800   */\n      dup1\n        /* \"#utility.yul\":9792:9804   */\n      revert\n        /* \"#utility.yul\":9816:9933   */\n    tag_90:\n        /* \"#utility.yul\":9925:9926   */\n      0x00\n        /* \"#utility.yul\":9922:9923   */\n      dup1\n        /* \"#utility.yul\":9915:9927   */\n      revert\n        /* \"#utility.yul\":9939:10041   */\n    tag_116:\n        /* \"#utility.yul\":9980:9986   */\n      0x00\n        /* \"#utility.yul\":10031:10033   */\n      0x1f\n        /* \"#utility.yul\":10027:10034   */\n      not\n        /* \"#utility.yul\":10022:10024   */\n      0x1f\n        /* \"#utility.yul\":10015:10020   */\n      dup4\n        /* \"#utility.yul\":10011:10025   */\n      add\n        /* \"#utility.yul\":10007:10035   */\n      and\n        /* \"#utility.yul\":9997:10035   */\n      swap1\n      pop\n        /* \"#utility.yul\":9939:10041   */\n      swap2\n      swap1\n      pop\n      jump\t// out\n        /* \"#utility.yul\":10047:10275   */\n    tag_122:\n        /* \"#utility.yul\":10187:10221   */\n      0x506c65617365207570677261646520746f20616464206d6f7265207468616e20\n        /* \"#utility.yul\":10183:10184   */\n      0x00\n        /* \"#utility.yul\":10175:10181   */\n      dup3\n        /* \"#utility.yul\":10171:10185   */\n      add\n        /* \"#utility.yul\":10164:10222   */\n      mstore\n        /* \"#utility.yul\":10256:10267   */\n      0x3130207461736b732e0000000000000000000000000000000000000000000000\n        /* \"#utility.yul\":10251:10253   */\n      0x20\n        /* \"#utility.yul\":10243:10249   */\n      dup3\n        /* \"#utility.yul\":10239:10254   */\n      add\n        /* \"#utility.yul\":10232:10268   */\n      mstore\n        /* \"#utility.yul\":10047:10275   */\n      pop\n      jump\t// out\n        /* \"#utility.yul\":10281:10451   */\n    tag_127:\n        /* \"#utility.yul\":10421:10443   */\n      0x4e6f2073756666696369656e742066756e64732e000000000000000000000000\n        /* \"#utility.yul\":10417:10418   */\n      0x00\n        /* \"#utility.yul\":10409:10415   */\n      dup3\n        /* \"#utility.yul\":10405:10419   */\n      add\n        /* \"#utility.yul\":10398:10444   */\n      mstore\n        /* \"#utility.yul\":10281:10451   */\n      pop\n      jump\t// out\n        /* \"#utility.yul\":10457:10572   */\n    tag_173:\n        /* \"#utility.yul\":10540:10541   */\n      0x03\n        /* \"#utility.yul\":10533:10538   */\n      dup2\n        /* \"#utility.yul\":10530:10542   */\n      lt\n        /* \"#utility.yul\":10520:10566   */\n      tag_204\n      jumpi\n        /* \"#utility.yul\":10546:10564   */\n      tag_205\n      tag_30\n      jump\t// in\n    tag_205:\n        /* \"#utility.yul\":10520:10566   */\n    tag_204:\n        /* \"#utility.yul\":10457:10572   */\n      pop\n      jump\t// out\n        /* \"#utility.yul\":10578:10700   */\n    tag_86:\n        /* \"#utility.yul\":10651:10675   */\n      tag_207\n        /* \"#utility.yul\":10669:10674   */\n      dup2\n        /* \"#utility.yul\":10651:10675   */\n      tag_138\n      jump\t// in\n    tag_207:\n        /* \"#utility.yul\":10644:10649   */\n      dup2\n        /* \"#utility.yul\":10641:10676   */\n      eq\n        /* \"#utility.yul\":10631:10694   */\n      tag_208\n      jumpi\n        /* \"#utility.yul\":10690:10691   */\n      0x00\n        /* \"#utility.yul\":10687:10688   */\n      dup1\n        /* \"#utility.yul\":10680:10692   */\n      revert\n        /* \"#utility.yul\":10631:10694   */\n    tag_208:\n        /* \"#utility.yul\":10578:10700   */\n      pop\n      jump\t// out\n\n    auxdata: 0xa2646970667358221220ab5568956ba1c1b84f55cb9c7f5f520a59ea47059e1942da07caf61a96fadca664736f6c63430008070033\n}\n",
				"bytecode": {
					"linkReferences": {},
					"object": "608060405234801561001057600080fd5b50336000806101000a81548173ffffffffffffffffffffffffffffffffffffffff021916908373ffffffffffffffffffffffffffffffffffffffff1602179055506000600181905550610b44806100686000396000f3fe6080604052600436106100345760003560e01c806304fafc6c146100395780636723856214610043578063e1e295581461006c575b600080fd5b610041610095565b005b34801561004f57600080fd5b5061006a600480360381019061006591906105ba565b610133565b005b34801561007857600080fd5b50610093600480360381019061008e9190610603565b6102b1565b005b60053410156100d9576040517f08c379a00000000000000000000000000000000000000000000000000000000081526004016100d090610781565b60405180910390fd5b6001600360003373ffffffffffffffffffffffffffffffffffffffff1673ffffffffffffffffffffffffffffffffffffffff16815260200190815260200160002060006101000a81548160ff021916908315150217905550565b600a600180546101439190610854565b1115610184576040517f08c379a000000000000000000000000000000000000000000000000000000000815260040161017b90610761565b60405180910390fd5b60006040518060a001604052806001548152602001600060028111156101ad576101ac6109b9565b5b8152602001838152602001428152602001600015158152509050806002600060015481526020019081526020016000206000820151816000015560208201518160010160006101000a81548160ff02191690836002811115610212576102116109b9565b5b02179055506040820151816002019080519060200190610233929190610492565b506060820151816003015560808201518160040160006101000a81548160ff02191690831515021790555090505061026e600154600161047c565b6001819055507f615eb1193ab28532b0958952317b9eefb36e49e4a65bc640cf28f2ec9a93177181426040516102a59291906107a1565b60405180910390a15050565b6000600260008381526020019081526020016000206040518060a0016040529081600082015481526020016001820160009054906101000a900460ff166002811115610300576102ff6109b9565b5b6002811115610312576103116109b9565b5b815260200160028201805461032690610927565b80601f016020809104026020016040519081016040528092919081815260200182805461035290610927565b801561039f5780601f106103745761010080835404028352916020019161039f565b820191906000526020600020905b81548152906001019060200180831161038257829003601f168201915b50505050508152602001600382015481526020016004820160009054906101000a900460ff1615151515815250509050600181608001901515908115158152505080600260008481526020019081526020016000206000820151816000015560208201518160010160006101000a81548160ff02191690836002811115610429576104286109b9565b5b0217905550604082015181600201908051906020019061044a929190610492565b506060820151816003015560808201518160040160006101000a81548160ff0219169083151502179055509050505050565b6000818361048a9190610854565b905092915050565b82805461049e90610927565b90600052602060002090601f0160209004810192826104c05760008555610507565b82601f106104d957805160ff1916838001178555610507565b82800160010185558215610507579182015b828111156105065782518255916020019190600101906104eb565b5b5090506105149190610518565b5090565b5b80821115610531576000816000905550600101610519565b5090565b6000610548610543846107f6565b6107d1565b90508281526020810184848401111561056457610563610a4b565b5b61056f8482856108e5565b509392505050565b600082601f83011261058c5761058b610a46565b5b813561059c848260208601610535565b91505092915050565b6000813590506105b481610af7565b92915050565b6000602082840312156105d0576105cf610a55565b5b600082013567ffffffffffffffff8111156105ee576105ed610a50565b5b6105fa84828501610577565b91505092915050565b60006020828403121561061957610618610a55565b5b6000610627848285016105a5565b91505092915050565b610639816108aa565b82525050565b610648816108d3565b82525050565b600061065982610827565b6106638185610832565b93506106738185602086016108f4565b61067c81610a5a565b840191505092915050565b6000610694602983610843565b915061069f82610a6b565b604082019050919050565b60006106b7601483610843565b91506106c282610aba565b602082019050919050565b600060a0830160008301516106e56000860182610743565b5060208301516106f8602086018261063f565b5060408301518482036040860152610710828261064e565b91505060608301516107256060860182610743565b5060808301516107386080860182610630565b508091505092915050565b61074c816108c9565b82525050565b61075b816108c9565b82525050565b6000602082019050818103600083015261077a81610687565b9050919050565b6000602082019050818103600083015261079a816106aa565b9050919050565b600060408201905081810360008301526107bb81856106cd565b90506107ca6020830184610752565b9392505050565b60006107db6107ec565b90506107e78282610959565b919050565b6000604051905090565b600067ffffffffffffffff82111561081157610810610a17565b5b61081a82610a5a565b9050602081019050919050565b600081519050919050565b600082825260208201905092915050565b600082825260208201905092915050565b600061085f826108c9565b915061086a836108c9565b9250827fffffffffffffffffffffffffffffffffffffffffffffffffffffffffffffffff0382111561089f5761089e61098a565b5b828201905092915050565b60008115159050919050565b60008190506108c482610ae3565b919050565b6000819050919050565b60006108de826108b6565b9050919050565b82818337600083830152505050565b60005b838110156109125780820151818401526020810190506108f7565b83811115610921576000848401525b50505050565b6000600282049050600182168061093f57607f821691505b60208210811415610953576109526109e8565b5b50919050565b61096282610a5a565b810181811067ffffffffffffffff8211171561098157610980610a17565b5b80604052505050565b7f4e487b7100000000000000000000000000000000000000000000000000000000600052601160045260246000fd5b7f4e487b7100000000000000000000000000000000000000000000000000000000600052602160045260246000fd5b7f4e487b7100000000000000000000000000000000000000000000000000000000600052602260045260246000fd5b7f4e487b7100000000000000000000000000000000000000000000000000000000600052604160045260246000fd5b600080fd5b600080fd5b600080fd5b600080fd5b6000601f19601f8301169050919050565b7f506c65617365207570677261646520746f20616464206d6f7265207468616e2060008201527f3130207461736b732e0000000000000000000000000000000000000000000000602082015250565b7f4e6f2073756666696369656e742066756e64732e000000000000000000000000600082015250565b60038110610af457610af36109b9565b5b50565b610b00816108c9565b8114610b0b57600080fd5b5056fea2646970667358221220ab5568956ba1c1b84f55cb9c7f5f520a59ea47059e1942da07caf61a96fadca664736f6c63430008070033",
					"opcodes": "PUSH1 0x80 PUSH1 0x40 MSTORE CALLVALUE DUP1 ISZERO PUSH2 0x10 JUMPI PUSH1 0x0 DUP1 REVERT JUMPDEST POP CALLER PUSH1 0x0 DUP1 PUSH2 0x100 EXP DUP2 SLOAD DUP2 PUSH20 0xFFFFFFFFFFFFFFFFFFFFFFFFFFFFFFFFFFFFFFFF MUL NOT AND SWAP1 DUP4 PUSH20 0xFFFFFFFFFFFFFFFFFFFFFFFFFFFFFFFFFFFFFFFF AND MUL OR SWAP1 SSTORE POP PUSH1 0x0 PUSH1 0x1 DUP2 SWAP1 SSTORE POP PUSH2 0xB44 DUP1 PUSH2 0x68 PUSH1 0x0 CODECOPY PUSH1 0x0 RETURN INVALID PUSH1 0x80 PUSH1 0x40 MSTORE PUSH1 0x4 CALLDATASIZE LT PUSH2 0x34 JUMPI PUSH1 0x0 CALLDATALOAD PUSH1 0xE0 SHR DUP1 PUSH4 0x4FAFC6C EQ PUSH2 0x39 JUMPI DUP1 PUSH4 0x67238562 EQ PUSH2 0x43 JUMPI DUP1 PUSH4 0xE1E29558 EQ PUSH2 0x6C JUMPI JUMPDEST PUSH1 0x0 DUP1 REVERT JUMPDEST PUSH2 0x41 PUSH2 0x95 JUMP JUMPDEST STOP JUMPDEST CALLVALUE DUP1 ISZERO PUSH2 0x4F JUMPI PUSH1 0x0 DUP1 REVERT JUMPDEST POP PUSH2 0x6A PUSH1 0x4 DUP1 CALLDATASIZE SUB DUP2 ADD SWAP1 PUSH2 0x65 SWAP2 SWAP1 PUSH2 0x5BA JUMP JUMPDEST PUSH2 0x133 JUMP JUMPDEST STOP JUMPDEST CALLVALUE DUP1 ISZERO PUSH2 0x78 JUMPI PUSH1 0x0 DUP1 REVERT JUMPDEST POP PUSH2 0x93 PUSH1 0x4 DUP1 CALLDATASIZE SUB DUP2 ADD SWAP1 PUSH2 0x8E SWAP2 SWAP1 PUSH2 0x603 JUMP JUMPDEST PUSH2 0x2B1 JUMP JUMPDEST STOP JUMPDEST PUSH1 0x5 CALLVALUE LT ISZERO PUSH2 0xD9 JUMPI PUSH1 0x40 MLOAD PUSH32 0x8C379A000000000000000000000000000000000000000000000000000000000 DUP2 MSTORE PUSH1 0x4 ADD PUSH2 0xD0 SWAP1 PUSH2 0x781 JUMP JUMPDEST PUSH1 0x40 MLOAD DUP1 SWAP2 SUB SWAP1 REVERT JUMPDEST PUSH1 0x1 PUSH1 0x3 PUSH1 0x0 CALLER PUSH20 0xFFFFFFFFFFFFFFFFFFFFFFFFFFFFFFFFFFFFFFFF AND PUSH20 0xFFFFFFFFFFFFFFFFFFFFFFFFFFFFFFFFFFFFFFFF AND DUP2 MSTORE PUSH1 0x20 ADD SWAP1 DUP2 MSTORE PUSH1 0x20 ADD PUSH1 0x0 KECCAK256 PUSH1 0x0 PUSH2 0x100 EXP DUP2 SLOAD DUP2 PUSH1 0xFF MUL NOT AND SWAP1 DUP4 ISZERO ISZERO MUL OR SWAP1 SSTORE POP JUMP JUMPDEST PUSH1 0xA PUSH1 0x1 DUP1 SLOAD PUSH2 0x143 SWAP2 SWAP1 PUSH2 0x854 JUMP JUMPDEST GT ISZERO PUSH2 0x184 JUMPI PUSH1 0x40 MLOAD PUSH32 0x8C379A000000000000000000000000000000000000000000000000000000000 DUP2 MSTORE PUSH1 0x4 ADD PUSH2 0x17B SWAP1 PUSH2 0x761 JUMP JUMPDEST PUSH1 0x40 MLOAD DUP1 SWAP2 SUB SWAP1 REVERT JUMPDEST PUSH1 0x0 PUSH1 0x40 MLOAD DUP1 PUSH1 0xA0 ADD PUSH1 0x40 MSTORE DUP1 PUSH1 0x1 SLOAD DUP2 MSTORE PUSH1 0x20 ADD PUSH1 0x0 PUSH1 0x2 DUP2 GT ISZERO PUSH2 0x1AD JUMPI PUSH2 0x1AC PUSH2 0x9B9 JUMP JUMPDEST JUMPDEST DUP2 MSTORE PUSH1 0x20 ADD DUP4 DUP2 MSTORE PUSH1 0x20 ADD TIMESTAMP DUP2 MSTORE PUSH1 0x20 ADD PUSH1 0x0 ISZERO ISZERO DUP2 MSTORE POP SWAP1 POP DUP1 PUSH1 0x2 PUSH1 0x0 PUSH1 0x1 SLOAD DUP2 MSTORE PUSH1 0x20 ADD SWAP1 DUP2 MSTORE PUSH1 0x20 ADD PUSH1 0x0 KECCAK256 PUSH1 0x0 DUP3 ADD MLOAD DUP2 PUSH1 0x0 ADD SSTORE PUSH1 0x20 DUP3 ADD MLOAD DUP2 PUSH1 0x1 ADD PUSH1 0x0 PUSH2 0x100 EXP DUP2 SLOAD DUP2 PUSH1 0xFF MUL NOT AND SWAP1 DUP4 PUSH1 0x2 DUP2 GT ISZERO PUSH2 0x212 JUMPI PUSH2 0x211 PUSH2 0x9B9 JUMP JUMPDEST JUMPDEST MUL OR SWAP1 SSTORE POP PUSH1 0x40 DUP3 ADD MLOAD DUP2 PUSH1 0x2 ADD SWAP1 DUP1 MLOAD SWAP1 PUSH1 0x20 ADD SWAP1 PUSH2 0x233 SWAP3 SWAP2 SWAP1 PUSH2 0x492 JUMP JUMPDEST POP PUSH1 0x60 DUP3 ADD MLOAD DUP2 PUSH1 0x3 ADD SSTORE PUSH1 0x80 DUP3 ADD MLOAD DUP2 PUSH1 0x4 ADD PUSH1 0x0 PUSH2 0x100 EXP DUP2 SLOAD DUP2 PUSH1 0xFF MUL NOT AND SWAP1 DUP4 ISZERO ISZERO MUL OR SWAP1 SSTORE POP SWAP1 POP POP PUSH2 0x26E PUSH1 0x1 SLOAD PUSH1 0x1 PUSH2 0x47C JUMP JUMPDEST PUSH1 0x1 DUP2 SWAP1 SSTORE POP PUSH32 0x615EB1193AB28532B0958952317B9EEFB36E49E4A65BC640CF28F2EC9A931771 DUP2 TIMESTAMP PUSH1 0x40 MLOAD PUSH2 0x2A5 SWAP3 SWAP2 SWAP1 PUSH2 0x7A1 JUMP JUMPDEST PUSH1 0x40 MLOAD DUP1 SWAP2 SUB SWAP1 LOG1 POP POP JUMP JUMPDEST PUSH1 0x0 PUSH1 0x2 PUSH1 0x0 DUP4 DUP2 MSTORE PUSH1 0x20 ADD SWAP1 DUP2 MSTORE PUSH1 0x20 ADD PUSH1 0x0 KECCAK256 PUSH1 0x40 MLOAD DUP1 PUSH1 0xA0 ADD PUSH1 0x40 MSTORE SWAP1 DUP2 PUSH1 0x0 DUP3 ADD SLOAD DUP2 MSTORE PUSH1 0x20 ADD PUSH1 0x1 DUP3 ADD PUSH1 0x0 SWAP1 SLOAD SWAP1 PUSH2 0x100 EXP SWAP1 DIV PUSH1 0xFF AND PUSH1 0x2 DUP2 GT ISZERO PUSH2 0x300 JUMPI PUSH2 0x2FF PUSH2 0x9B9 JUMP JUMPDEST JUMPDEST PUSH1 0x2 DUP2 GT ISZERO PUSH2 0x312 JUMPI PUSH2 0x311 PUSH2 0x9B9 JUMP JUMPDEST JUMPDEST DUP2 MSTORE PUSH1 0x20 ADD PUSH1 0x2 DUP3 ADD DUP1 SLOAD PUSH2 0x326 SWAP1 PUSH2 0x927 JUMP JUMPDEST DUP1 PUSH1 0x1F ADD PUSH1 0x20 DUP1 SWAP2 DIV MUL PUSH1 0x20 ADD PUSH1 0x40 MLOAD SWAP1 DUP2 ADD PUSH1 0x40 MSTORE DUP1 SWAP3 SWAP2 SWAP1 DUP2 DUP2 MSTORE PUSH1 0x20 ADD DUP3 DUP1 SLOAD PUSH2 0x352 SWAP1 PUSH2 0x927 JUMP JUMPDEST DUP1 ISZERO PUSH2 0x39F JUMPI DUP1 PUSH1 0x1F LT PUSH2 0x374 JUMPI PUSH2 0x100 DUP1 DUP4 SLOAD DIV MUL DUP4 MSTORE SWAP2 PUSH1 0x20 ADD SWAP2 PUSH2 0x39F JUMP JUMPDEST DUP3 ADD SWAP2 SWAP1 PUSH1 0x0 MSTORE PUSH1 0x20 PUSH1 0x0 KECCAK256 SWAP1 JUMPDEST DUP2 SLOAD DUP2 MSTORE SWAP1 PUSH1 0x1 ADD SWAP1 PUSH1 0x20 ADD DUP1 DUP4 GT PUSH2 0x382 JUMPI DUP3 SWAP1 SUB PUSH1 0x1F AND DUP3 ADD SWAP2 JUMPDEST POP POP POP POP POP DUP2 MSTORE PUSH1 0x20 ADD PUSH1 0x3 DUP3 ADD SLOAD DUP2 MSTORE PUSH1 0x20 ADD PUSH1 0x4 DUP3 ADD PUSH1 0x0 SWAP1 SLOAD SWAP1 PUSH2 0x100 EXP SWAP1 DIV PUSH1 0xFF AND ISZERO ISZERO ISZERO ISZERO DUP2 MSTORE POP POP SWAP1 POP PUSH1 0x1 DUP2 PUSH1 0x80 ADD SWAP1 ISZERO ISZERO SWAP1 DUP2 ISZERO ISZERO DUP2 MSTORE POP POP DUP1 PUSH1 0x2 PUSH1 0x0 DUP5 DUP2 MSTORE PUSH1 0x20 ADD SWAP1 DUP2 MSTORE PUSH1 0x20 ADD PUSH1 0x0 KECCAK256 PUSH1 0x0 DUP3 ADD MLOAD DUP2 PUSH1 0x0 ADD SSTORE PUSH1 0x20 DUP3 ADD MLOAD DUP2 PUSH1 0x1 ADD PUSH1 0x0 PUSH2 0x100 EXP DUP2 SLOAD DUP2 PUSH1 0xFF MUL NOT AND SWAP1 DUP4 PUSH1 0x2 DUP2 GT ISZERO PUSH2 0x429 JUMPI PUSH2 0x428 PUSH2 0x9B9 JUMP JUMPDEST JUMPDEST MUL OR SWAP1 SSTORE POP PUSH1 0x40 DUP3 ADD MLOAD DUP2 PUSH1 0x2 ADD SWAP1 DUP1 MLOAD SWAP1 PUSH1 0x20 ADD SWAP1 PUSH2 0x44A SWAP3 SWAP2 SWAP1 PUSH2 0x492 JUMP JUMPDEST POP PUSH1 0x60 DUP3 ADD MLOAD DUP2 PUSH1 0x3 ADD SSTORE PUSH1 0x80 DUP3 ADD MLOAD DUP2 PUSH1 0x4 ADD PUSH1 0x0 PUSH2 0x100 EXP DUP2 SLOAD DUP2 PUSH1 0xFF MUL NOT AND SWAP1 DUP4 ISZERO ISZERO MUL OR SWAP1 SSTORE POP SWAP1 POP POP POP POP JUMP JUMPDEST PUSH1 0x0 DUP2 DUP4 PUSH2 0x48A SWAP2 SWAP1 PUSH2 0x854 JUMP JUMPDEST SWAP1 POP SWAP3 SWAP2 POP POP JUMP JUMPDEST DUP3 DUP1 SLOAD PUSH2 0x49E SWAP1 PUSH2 0x927 JUMP JUMPDEST SWAP1 PUSH1 0x0 MSTORE PUSH1 0x20 PUSH1 0x0 KECCAK256 SWAP1 PUSH1 0x1F ADD PUSH1 0x20 SWAP1 DIV DUP2 ADD SWAP3 DUP3 PUSH2 0x4C0 JUMPI PUSH1 0x0 DUP6 SSTORE PUSH2 0x507 JUMP JUMPDEST DUP3 PUSH1 0x1F LT PUSH2 0x4D9 JUMPI DUP1 MLOAD PUSH1 0xFF NOT AND DUP4 DUP1 ADD OR DUP6 SSTORE PUSH2 0x507 JUMP JUMPDEST DUP3 DUP1 ADD PUSH1 0x1 ADD DUP6 SSTORE DUP3 ISZERO PUSH2 0x507 JUMPI SWAP2 DUP3 ADD JUMPDEST DUP3 DUP2 GT ISZERO PUSH2 0x506 JUMPI DUP3 MLOAD DUP3 SSTORE SWAP2 PUSH1 0x20 ADD SWAP2 SWAP1 PUSH1 0x1 ADD SWAP1 PUSH2 0x4EB JUMP JUMPDEST JUMPDEST POP SWAP1 POP PUSH2 0x514 SWAP2 SWAP1 PUSH2 0x518 JUMP JUMPDEST POP SWAP1 JUMP JUMPDEST JUMPDEST DUP1 DUP3 GT ISZERO PUSH2 0x531 JUMPI PUSH1 0x0 DUP2 PUSH1 0x0 SWAP1 SSTORE POP PUSH1 0x1 ADD PUSH2 0x519 JUMP JUMPDEST POP SWAP1 JUMP JUMPDEST PUSH1 0x0 PUSH2 0x548 PUSH2 0x543 DUP5 PUSH2 0x7F6 JUMP JUMPDEST PUSH2 0x7D1 JUMP JUMPDEST SWAP1 POP DUP3 DUP2 MSTORE PUSH1 0x20 DUP2 ADD DUP5 DUP5 DUP5 ADD GT ISZERO PUSH2 0x564 JUMPI PUSH2 0x563 PUSH2 0xA4B JUMP JUMPDEST JUMPDEST PUSH2 0x56F DUP5 DUP3 DUP6 PUSH2 0x8E5 JUMP JUMPDEST POP SWAP4 SWAP3 POP POP POP JUMP JUMPDEST PUSH1 0x0 DUP3 PUSH1 0x1F DUP4 ADD SLT PUSH2 0x58C JUMPI PUSH2 0x58B PUSH2 0xA46 JUMP JUMPDEST JUMPDEST DUP2 CALLDATALOAD PUSH2 0x59C DUP5 DUP3 PUSH1 0x20 DUP7 ADD PUSH2 0x535 JUMP JUMPDEST SWAP2 POP POP SWAP3 SWAP2 POP POP JUMP JUMPDEST PUSH1 0x0 DUP2 CALLDATALOAD SWAP1 POP PUSH2 0x5B4 DUP2 PUSH2 0xAF7 JUMP JUMPDEST SWAP3 SWAP2 POP POP JUMP JUMPDEST PUSH1 0x0 PUSH1 0x20 DUP3 DUP5 SUB SLT ISZERO PUSH2 0x5D0 JUMPI PUSH2 0x5CF PUSH2 0xA55 JUMP JUMPDEST JUMPDEST PUSH1 0x0 DUP3 ADD CALLDATALOAD PUSH8 0xFFFFFFFFFFFFFFFF DUP2 GT ISZERO PUSH2 0x5EE JUMPI PUSH2 0x5ED PUSH2 0xA50 JUMP JUMPDEST JUMPDEST PUSH2 0x5FA DUP5 DUP3 DUP6 ADD PUSH2 0x577 JUMP JUMPDEST SWAP2 POP POP SWAP3 SWAP2 POP POP JUMP JUMPDEST PUSH1 0x0 PUSH1 0x20 DUP3 DUP5 SUB SLT ISZERO PUSH2 0x619 JUMPI PUSH2 0x618 PUSH2 0xA55 JUMP JUMPDEST JUMPDEST PUSH1 0x0 PUSH2 0x627 DUP5 DUP3 DUP6 ADD PUSH2 0x5A5 JUMP JUMPDEST SWAP2 POP POP SWAP3 SWAP2 POP POP JUMP JUMPDEST PUSH2 0x639 DUP2 PUSH2 0x8AA JUMP JUMPDEST DUP3 MSTORE POP POP JUMP JUMPDEST PUSH2 0x648 DUP2 PUSH2 0x8D3 JUMP JUMPDEST DUP3 MSTORE POP POP JUMP JUMPDEST PUSH1 0x0 PUSH2 0x659 DUP3 PUSH2 0x827 JUMP JUMPDEST PUSH2 0x663 DUP2 DUP6 PUSH2 0x832 JUMP JUMPDEST SWAP4 POP PUSH2 0x673 DUP2 DUP6 PUSH1 0x20 DUP7 ADD PUSH2 0x8F4 JUMP JUMPDEST PUSH2 0x67C DUP2 PUSH2 0xA5A JUMP JUMPDEST DUP5 ADD SWAP2 POP POP SWAP3 SWAP2 POP POP JUMP JUMPDEST PUSH1 0x0 PUSH2 0x694 PUSH1 0x29 DUP4 PUSH2 0x843 JUMP JUMPDEST SWAP2 POP PUSH2 0x69F DUP3 PUSH2 0xA6B JUMP JUMPDEST PUSH1 0x40 DUP3 ADD SWAP1 POP SWAP2 SWAP1 POP JUMP JUMPDEST PUSH1 0x0 PUSH2 0x6B7 PUSH1 0x14 DUP4 PUSH2 0x843 JUMP JUMPDEST SWAP2 POP PUSH2 0x6C2 DUP3 PUSH2 0xABA JUMP JUMPDEST PUSH1 0x20 DUP3 ADD SWAP1 POP SWAP2 SWAP1 POP JUMP JUMPDEST PUSH1 0x0 PUSH1 0xA0 DUP4 ADD PUSH1 0x0 DUP4 ADD MLOAD PUSH2 0x6E5 PUSH1 0x0 DUP7 ADD DUP3 PUSH2 0x743 JUMP JUMPDEST POP PUSH1 0x20 DUP4 ADD MLOAD PUSH2 0x6F8 PUSH1 0x20 DUP7 ADD DUP3 PUSH2 0x63F JUMP JUMPDEST POP PUSH1 0x40 DUP4 ADD MLOAD DUP5 DUP3 SUB PUSH1 0x40 DUP7 ADD MSTORE PUSH2 0x710 DUP3 DUP3 PUSH2 0x64E JUMP JUMPDEST SWAP2 POP POP PUSH1 0x60 DUP4 ADD MLOAD PUSH2 0x725 PUSH1 0x60 DUP7 ADD DUP3 PUSH2 0x743 JUMP JUMPDEST POP PUSH1 0x80 DUP4 ADD MLOAD PUSH2 0x738 PUSH1 0x80 DUP7 ADD DUP3 PUSH2 0x630 JUMP JUMPDEST POP DUP1 SWAP2 POP POP SWAP3 SWAP2 POP POP JUMP JUMPDEST PUSH2 0x74C DUP2 PUSH2 0x8C9 JUMP JUMPDEST DUP3 MSTORE POP POP JUMP JUMPDEST PUSH2 0x75B DUP2 PUSH2 0x8C9 JUMP JUMPDEST DUP3 MSTORE POP POP JUMP JUMPDEST PUSH1 0x0 PUSH1 0x20 DUP3 ADD SWAP1 POP DUP2 DUP2 SUB PUSH1 0x0 DUP4 ADD MSTORE PUSH2 0x77A DUP2 PUSH2 0x687 JUMP JUMPDEST SWAP1 POP SWAP2 SWAP1 POP JUMP JUMPDEST PUSH1 0x0 PUSH1 0x20 DUP3 ADD SWAP1 POP DUP2 DUP2 SUB PUSH1 0x0 DUP4 ADD MSTORE PUSH2 0x79A DUP2 PUSH2 0x6AA JUMP JUMPDEST SWAP1 POP SWAP2 SWAP1 POP JUMP JUMPDEST PUSH1 0x0 PUSH1 0x40 DUP3 ADD SWAP1 POP DUP2 DUP2 SUB PUSH1 0x0 DUP4 ADD MSTORE PUSH2 0x7BB DUP2 DUP6 PUSH2 0x6CD JUMP JUMPDEST SWAP1 POP PUSH2 0x7CA PUSH1 0x20 DUP4 ADD DUP5 PUSH2 0x752 JUMP JUMPDEST SWAP4 SWAP3 POP POP POP JUMP JUMPDEST PUSH1 0x0 PUSH2 0x7DB PUSH2 0x7EC JUMP JUMPDEST SWAP1 POP PUSH2 0x7E7 DUP3 DUP3 PUSH2 0x959 JUMP JUMPDEST SWAP2 SWAP1 POP JUMP JUMPDEST PUSH1 0x0 PUSH1 0x40 MLOAD SWAP1 POP SWAP1 JUMP JUMPDEST PUSH1 0x0 PUSH8 0xFFFFFFFFFFFFFFFF DUP3 GT ISZERO PUSH2 0x811 JUMPI PUSH2 0x810 PUSH2 0xA17 JUMP JUMPDEST JUMPDEST PUSH2 0x81A DUP3 PUSH2 0xA5A JUMP JUMPDEST SWAP1 POP PUSH1 0x20 DUP2 ADD SWAP1 POP SWAP2 SWAP1 POP JUMP JUMPDEST PUSH1 0x0 DUP2 MLOAD SWAP1 POP SWAP2 SWAP1 POP JUMP JUMPDEST PUSH1 0x0 DUP3 DUP3 MSTORE PUSH1 0x20 DUP3 ADD SWAP1 POP SWAP3 SWAP2 POP POP JUMP JUMPDEST PUSH1 0x0 DUP3 DUP3 MSTORE PUSH1 0x20 DUP3 ADD SWAP1 POP SWAP3 SWAP2 POP POP JUMP JUMPDEST PUSH1 0x0 PUSH2 0x85F DUP3 PUSH2 0x8C9 JUMP JUMPDEST SWAP2 POP PUSH2 0x86A DUP4 PUSH2 0x8C9 JUMP JUMPDEST SWAP3 POP DUP3 PUSH32 0xFFFFFFFFFFFFFFFFFFFFFFFFFFFFFFFFFFFFFFFFFFFFFFFFFFFFFFFFFFFFFFFF SUB DUP3 GT ISZERO PUSH2 0x89F JUMPI PUSH2 0x89E PUSH2 0x98A JUMP JUMPDEST JUMPDEST DUP3 DUP3 ADD SWAP1 POP SWAP3 SWAP2 POP POP JUMP JUMPDEST PUSH1 0x0 DUP2 ISZERO ISZERO SWAP1 POP SWAP2 SWAP1 POP JUMP JUMPDEST PUSH1 0x0 DUP2 SWAP1 POP PUSH2 0x8C4 DUP3 PUSH2 0xAE3 JUMP JUMPDEST SWAP2 SWAP1 POP JUMP JUMPDEST PUSH1 0x0 DUP2 SWAP1 POP SWAP2 SWAP1 POP JUMP JUMPDEST PUSH1 0x0 PUSH2 0x8DE DUP3 PUSH2 0x8B6 JUMP JUMPDEST SWAP1 POP SWAP2 SWAP1 POP JUMP JUMPDEST DUP3 DUP2 DUP4 CALLDATACOPY PUSH1 0x0 DUP4 DUP4 ADD MSTORE POP POP POP JUMP JUMPDEST PUSH1 0x0 JUMPDEST DUP4 DUP2 LT ISZERO PUSH2 0x912 JUMPI DUP1 DUP3 ADD MLOAD DUP2 DUP5 ADD MSTORE PUSH1 0x20 DUP2 ADD SWAP1 POP PUSH2 0x8F7 JUMP JUMPDEST DUP4 DUP2 GT ISZERO PUSH2 0x921 JUMPI PUSH1 0x0 DUP5 DUP5 ADD MSTORE JUMPDEST POP POP POP POP JUMP JUMPDEST PUSH1 0x0 PUSH1 0x2 DUP3 DIV SWAP1 POP PUSH1 0x1 DUP3 AND DUP1 PUSH2 0x93F JUMPI PUSH1 0x7F DUP3 AND SWAP2 POP JUMPDEST PUSH1 0x20 DUP3 LT DUP2 EQ ISZERO PUSH2 0x953 JUMPI PUSH2 0x952 PUSH2 0x9E8 JUMP JUMPDEST JUMPDEST POP SWAP2 SWAP1 POP JUMP JUMPDEST PUSH2 0x962 DUP3 PUSH2 0xA5A JUMP JUMPDEST DUP2 ADD DUP2 DUP2 LT PUSH8 0xFFFFFFFFFFFFFFFF DUP3 GT OR ISZERO PUSH2 0x981 JUMPI PUSH2 0x980 PUSH2 0xA17 JUMP JUMPDEST JUMPDEST DUP1 PUSH1 0x40 MSTORE POP POP POP JUMP JUMPDEST PUSH32 0x4E487B7100000000000000000000000000000000000000000000000000000000 PUSH1 0x0 MSTORE PUSH1 0x11 PUSH1 0x4 MSTORE PUSH1 0x24 PUSH1 0x0 REVERT JUMPDEST PUSH32 0x4E487B7100000000000000000000000000000000000000000000000000000000 PUSH1 0x0 MSTORE PUSH1 0x21 PUSH1 0x4 MSTORE PUSH1 0x24 PUSH1 0x0 REVERT JUMPDEST PUSH32 0x4E487B7100000000000000000000000000000000000000000000000000000000 PUSH1 0x0 MSTORE PUSH1 0x22 PUSH1 0x4 MSTORE PUSH1 0x24 PUSH1 0x0 REVERT JUMPDEST PUSH32 0x4E487B7100000000000000000000000000000000000000000000000000000000 PUSH1 0x0 MSTORE PUSH1 0x41 PUSH1 0x4 MSTORE PUSH1 0x24 PUSH1 0x0 REVERT JUMPDEST PUSH1 0x0 DUP1 REVERT JUMPDEST PUSH1 0x0 DUP1 REVERT JUMPDEST PUSH1 0x0 DUP1 REVERT JUMPDEST PUSH1 0x0 DUP1 REVERT JUMPDEST PUSH1 0x0 PUSH1 0x1F NOT PUSH1 0x1F DUP4 ADD AND SWAP1 POP SWAP2 SWAP1 POP JUMP JUMPDEST PUSH32 0x506C65617365207570677261646520746F20616464206D6F7265207468616E20 PUSH1 0x0 DUP3 ADD MSTORE PUSH32 0x3130207461736B732E0000000000000000000000000000000000000000000000 PUSH1 0x20 DUP3 ADD MSTORE POP JUMP JUMPDEST PUSH32 0x4E6F2073756666696369656E742066756E64732E000000000000000000000000 PUSH1 0x0 DUP3 ADD MSTORE POP JUMP JUMPDEST PUSH1 0x3 DUP2 LT PUSH2 0xAF4 JUMPI PUSH2 0xAF3 PUSH2 0x9B9 JUMP JUMPDEST JUMPDEST POP JUMP JUMPDEST PUSH2 0xB00 DUP2 PUSH2 0x8C9 JUMP JUMPDEST DUP2 EQ PUSH2 0xB0B JUMPI PUSH1 0x0 DUP1 REVERT JUMPDEST POP JUMP INVALID LOG2 PUSH5 0x6970667358 0x22 SLT KECCAK256 0xAB SSTORE PUSH9 0x956BA1C1B84F55CB9C PUSH32 0x5F520A59EA47059E1942DA07CAF61A96FADCA664736F6C634300080700330000 "
				},
				"gasEstimates": {
					"creation": {
						"codeDepositCost": "576800",
						"executionCost": "29893",
						"totalCost": "606693"
					},
					"external": {
						"addTask(string)": "infinite",
						"completeTask(uint256)": "infinite",
						"upgradePlan()": "24479"
					}
				},
				"methodIdentifiers": {
					"addTask(string)": "67238562",
					"completeTask(uint256)": "e1e29558",
					"upgradePlan()": "04fafc6c"
				}
			},
			"storageLayout": {
				"storage": [
					{
						"astId": 23,
						"contract": "contracts/TaskManager.sol:TaskManager",
						"label": "admin",
						"offset": 0,
						"slot": "0",
						"type": "t_address"
					},
					{
						"astId": 25,
						"contract": "contracts/TaskManager.sol:TaskManager",
						"label": "count",
						"offset": 0,
						"slot": "1",
						"type": "t_uint256"
					},
					{
						"astId": 30,
						"contract": "contracts/TaskManager.sol:TaskManager",
						"label": "tasks",
						"offset": 0,
						"slot": "2",
						"type": "t_mapping(t_uint256,t_struct(Task)21_storage)"
					},
					{
						"astId": 34,
						"contract": "contracts/TaskManager.sol:TaskManager",
						"label": "premiums",
						"offset": 0,
						"slot": "3",
						"type": "t_mapping(t_address,t_bool)"
					}
				],
				"types": {
					"t_address": {
						"encoding": "inplace",
						"label": "address",
						"numberOfBytes": "20"
					},
					"t_bool": {
						"encoding": "inplace",
						"label": "bool",
						"numberOfBytes": "1"
					},
					"t_enum(Priority)9": {
						"encoding": "inplace",
						"label": "enum TaskManager.Priority",
						"numberOfBytes": "1"
					},
					"t_mapping(t_address,t_bool)": {
						"encoding": "mapping",
						"key": "t_address",
						"label": "mapping(address => bool)",
						"numberOfBytes": "32",
						"value": "t_bool"
					},
					"t_mapping(t_uint256,t_struct(Task)21_storage)": {
						"encoding": "mapping",
						"key": "t_uint256",
						"label": "mapping(uint256 => struct TaskManager.Task)",
						"numberOfBytes": "32",
						"value": "t_struct(Task)21_storage"
					},
					"t_string_storage": {
						"encoding": "bytes",
						"label": "string",
						"numberOfBytes": "32"
					},
					"t_struct(Task)21_storage": {
						"encoding": "inplace",
						"label": "struct TaskManager.Task",
						"members": [
							{
								"astId": 11,
								"contract": "contracts/TaskManager.sol:TaskManager",
								"label": "id",
								"offset": 0,
								"slot": "0",
								"type": "t_uint256"
							},
							{
								"astId": 14,
								"contract": "contracts/TaskManager.sol:TaskManager",
								"label": "priority",
								"offset": 0,
								"slot": "1",
								"type": "t_enum(Priority)9"
							},
							{
								"astId": 16,
								"contract": "contracts/TaskManager.sol:TaskManager",
								"label": "content",
								"offset": 0,
								"slot": "2",
								"type": "t_string_storage"
							},
							{
								"astId": 18,
								"contract": "contracts/TaskManager.sol:TaskManager",
								"label": "timestamp",
								"offset": 0,
								"slot": "3",
								"type": "t_uint256"
							},
							{
								"astId": 20,
								"contract": "contracts/TaskManager.sol:TaskManager",
								"label": "completed",
								"offset": 0,
								"slot": "4",
								"type": "t_bool"
							}
						],
						"numberOfBytes": "160"
					},
					"t_uint256": {
						"encoding": "inplace",
						"label": "uint256",
						"numberOfBytes": "32"
					}
				}
			},
			"userdoc": {
				"kind": "user",
				"methods": {},
				"version": 1
			}
		}
	}
}