{
	"contracts/Functions.sol": {
		"Functions": {
			"abi": [
				{
					"inputs": [],
					"name": "get",
					"outputs": [
						{
							"internalType": "uint256",
							"name": "num",
							"type": "uint256"
						}
					],
					"stateMutability": "view",
					"type": "function"
				},
				{
					"inputs": [],
					"name": "get_square",
					"outputs": [
						{
							"internalType": "uint256",
							"name": "num",
							"type": "uint256"
						}
					],
					"stateMutability": "view",
					"type": "function"
				},
				{
					"inputs": [],
					"name": "number",
					"outputs": [
						{
							"internalType": "uint256",
							"name": "",
							"type": "uint256"
						}
					],
					"stateMutability": "view",
					"type": "function"
				},
				{
					"inputs": [
						{
							"internalType": "uint256",
							"name": "_num",
							"type": "uint256"
						}
					],
					"name": "set",
					"outputs": [],
					"stateMutability": "nonpayable",
					"type": "function"
				}
			],
			"devdoc": {
				"kind": "dev",
				"methods": {},
				"version": 1
			},
			"evm": {
				"assembly": "    /* \"contracts/Functions.sol\":76:856  contract Functions {\r... */\n  mstore(0x40, 0x80)\n  callvalue\n  dup1\n  iszero\n  tag_1\n  jumpi\n  0x00\n  dup1\n  revert\ntag_1:\n  pop\n  dataSize(sub_0)\n  dup1\n  dataOffset(sub_0)\n  0x00\n  codecopy\n  0x00\n  return\nstop\n\nsub_0: assembly {\n        /* \"contracts/Functions.sol\":76:856  contract Functions {\r... */\n      mstore(0x40, 0x80)\n      callvalue\n      dup1\n      iszero\n      tag_1\n      jumpi\n      0x00\n      dup1\n      revert\n    tag_1:\n      pop\n      jumpi(tag_2, lt(calldatasize, 0x04))\n      shr(0xe0, calldataload(0x00))\n      dup1\n      0x60fe47b1\n      eq\n      tag_3\n      jumpi\n      dup1\n      0x6d4ce63c\n      eq\n      tag_4\n      jumpi\n      dup1\n      0x8381f58a\n      eq\n      tag_5\n      jumpi\n      dup1\n      0xa3d2b1bc\n      eq\n      tag_6\n      jumpi\n    tag_2:\n      0x00\n      dup1\n      revert\n        /* \"contracts/Functions.sol\":132:194  function set(uint256 _num) public {\r... */\n    tag_3:\n      tag_7\n      0x04\n      dup1\n      calldatasize\n      sub\n      dup2\n      add\n      swap1\n      tag_8\n      swap2\n      swap1\n      tag_9\n      jump\t// in\n    tag_8:\n      tag_10\n      jump\t// in\n    tag_7:\n      stop\n        /* \"contracts/Functions.sol\":669:749  function get() view public returns(uint256 num) {\r... */\n    tag_4:\n      tag_11\n      tag_12\n      jump\t// in\n    tag_11:\n      mload(0x40)\n      tag_13\n      swap2\n      swap1\n      tag_14\n      jump\t// in\n    tag_13:\n      mload(0x40)\n      dup1\n      swap2\n      sub\n      swap1\n      return\n        /* \"contracts/Functions.sol\":102:123  uint256 public number */\n    tag_5:\n      tag_15\n      tag_16\n      jump\t// in\n    tag_15:\n      mload(0x40)\n      tag_17\n      swap2\n      swap1\n      tag_14\n      jump\t// in\n    tag_17:\n      mload(0x40)\n      dup1\n      swap2\n      sub\n      swap1\n      return\n        /* \"contracts/Functions.sol\":757:853  function get_square() view public returns(uint256 num) {\r... */\n    tag_6:\n      tag_18\n      tag_19\n      jump\t// in\n    tag_18:\n      mload(0x40)\n      tag_20\n      swap2\n      swap1\n      tag_14\n      jump\t// in\n    tag_20:\n      mload(0x40)\n      dup1\n      swap2\n      sub\n      swap1\n      return\n        /* \"contracts/Functions.sol\":132:194  function set(uint256 _num) public {\r... */\n    tag_10:\n        /* \"contracts/Functions.sol\":177:186  add(_num) */\n      tag_22\n        /* \"contracts/Functions.sol\":181:185  _num */\n      dup2\n        /* \"contracts/Functions.sol\":177:180  add */\n      tag_23\n        /* \"contracts/Functions.sol\":177:186  add(_num) */\n      jump\t// in\n    tag_22:\n        /* \"contracts/Functions.sol\":132:194  function set(uint256 _num) public {\r... */\n      pop\n      jump\t// out\n        /* \"contracts/Functions.sol\":669:749  function get() view public returns(uint256 num) {\r... */\n    tag_12:\n        /* \"contracts/Functions.sol\":704:715  uint256 num */\n      0x00\n        /* \"contracts/Functions.sol\":735:741  number */\n      dup1\n      sload\n        /* \"contracts/Functions.sol\":728:741  return number */\n      swap1\n      pop\n        /* \"contracts/Functions.sol\":669:749  function get() view public returns(uint256 num) {\r... */\n      swap1\n      jump\t// out\n        /* \"contracts/Functions.sol\":102:123  uint256 public number */\n    tag_16:\n      sload(0x00)\n      dup2\n      jump\t// out\n        /* \"contracts/Functions.sol\":757:853  function get_square() view public returns(uint256 num) {\r... */\n    tag_19:\n        /* \"contracts/Functions.sol\":799:810  uint256 num */\n      0x00\n        /* \"contracts/Functions.sol\":839:845  number */\n      dup1\n      sload\n        /* \"contracts/Functions.sol\":830:836  number */\n      sload(0x00)\n        /* \"contracts/Functions.sol\":830:845  number * number */\n      tag_26\n      swap2\n      swap1\n      tag_27\n      jump\t// in\n    tag_26:\n        /* \"contracts/Functions.sol\":823:845  return number * number */\n      swap1\n      pop\n        /* \"contracts/Functions.sol\":757:853  function get_square() view public returns(uint256 num) {\r... */\n      swap1\n      jump\t// out\n        /* \"contracts/Functions.sol\":300:376  function add(uint256 _num) private {\r... */\n    tag_23:\n        /* \"contracts/Functions.sol\":364:368  _num */\n      dup1\n        /* \"contracts/Functions.sol\":355:361  number */\n      sload(0x00)\n        /* \"contracts/Functions.sol\":355:368  number + _num */\n      tag_29\n      swap2\n      swap1\n      tag_30\n      jump\t// in\n    tag_29:\n        /* \"contracts/Functions.sol\":346:352  number */\n      0x00\n        /* \"contracts/Functions.sol\":346:368  number = number + _num */\n      dup2\n      swap1\n      sstore\n      pop\n        /* \"contracts/Functions.sol\":300:376  function add(uint256 _num) private {\r... */\n      pop\n      jump\t// out\n        /* \"#utility.yul\":7:146   */\n    tag_32:\n        /* \"#utility.yul\":53:58   */\n      0x00\n        /* \"#utility.yul\":91:97   */\n      dup2\n        /* \"#utility.yul\":78:98   */\n      calldataload\n        /* \"#utility.yul\":69:98   */\n      swap1\n      pop\n        /* \"#utility.yul\":107:140   */\n      tag_34\n        /* \"#utility.yul\":134:139   */\n      dup2\n        /* \"#utility.yul\":107:140   */\n      tag_35\n      jump\t// in\n    tag_34:\n        /* \"#utility.yul\":7:146   */\n      swap3\n      swap2\n      pop\n      pop\n      jump\t// out\n        /* \"#utility.yul\":152:481   */\n    tag_9:\n        /* \"#utility.yul\":211:217   */\n      0x00\n        /* \"#utility.yul\":260:262   */\n      0x20\n        /* \"#utility.yul\":248:257   */\n      dup3\n        /* \"#utility.yul\":239:246   */\n      dup5\n        /* \"#utility.yul\":235:258   */\n      sub\n        /* \"#utility.yul\":231:263   */\n      slt\n        /* \"#utility.yul\":228:347   */\n      iszero\n      tag_37\n      jumpi\n        /* \"#utility.yul\":266:345   */\n      tag_38\n      tag_39\n      jump\t// in\n    tag_38:\n        /* \"#utility.yul\":228:347   */\n    tag_37:\n        /* \"#utility.yul\":386:387   */\n      0x00\n        /* \"#utility.yul\":411:464   */\n      tag_40\n        /* \"#utility.yul\":456:463   */\n      dup5\n        /* \"#utility.yul\":447:453   */\n      dup3\n        /* \"#utility.yul\":436:445   */\n      dup6\n        /* \"#utility.yul\":432:454   */\n      add\n        /* \"#utility.yul\":411:464   */\n      tag_32\n      jump\t// in\n    tag_40:\n        /* \"#utility.yul\":401:464   */\n      swap2\n      pop\n        /* \"#utility.yul\":357:474   */\n      pop\n        /* \"#utility.yul\":152:481   */\n      swap3\n      swap2\n      pop\n      pop\n      jump\t// out\n        /* \"#utility.yul\":487:605   */\n    tag_41:\n        /* \"#utility.yul\":574:598   */\n      tag_43\n        /* \"#utility.yul\":592:597   */\n      dup2\n        /* \"#utility.yul\":574:598   */\n      tag_44\n      jump\t// in\n    tag_43:\n        /* \"#utility.yul\":569:572   */\n      dup3\n        /* \"#utility.yul\":562:599   */\n      mstore\n        /* \"#utility.yul\":487:605   */\n      pop\n      pop\n      jump\t// out\n        /* \"#utility.yul\":611:833   */\n    tag_14:\n        /* \"#utility.yul\":704:708   */\n      0x00\n        /* \"#utility.yul\":742:744   */\n      0x20\n        /* \"#utility.yul\":731:740   */\n      dup3\n        /* \"#utility.yul\":727:745   */\n      add\n        /* \"#utility.yul\":719:745   */\n      swap1\n      pop\n        /* \"#utility.yul\":755:826   */\n      tag_46\n        /* \"#utility.yul\":823:824   */\n      0x00\n        /* \"#utility.yul\":812:821   */\n      dup4\n        /* \"#utility.yul\":808:825   */\n      add\n        /* \"#utility.yul\":799:805   */\n      dup5\n        /* \"#utility.yul\":755:826   */\n      tag_41\n      jump\t// in\n    tag_46:\n        /* \"#utility.yul\":611:833   */\n      swap3\n      swap2\n      pop\n      pop\n      jump\t// out\n        /* \"#utility.yul\":920:1225   */\n    tag_30:\n        /* \"#utility.yul\":960:963   */\n      0x00\n        /* \"#utility.yul\":979:999   */\n      tag_50\n        /* \"#utility.yul\":997:998   */\n      dup3\n        /* \"#utility.yul\":979:999   */\n      tag_44\n      jump\t// in\n    tag_50:\n        /* \"#utility.yul\":974:999   */\n      swap2\n      pop\n        /* \"#utility.yul\":1013:1033   */\n      tag_51\n        /* \"#utility.yul\":1031:1032   */\n      dup4\n        /* \"#utility.yul\":1013:1033   */\n      tag_44\n      jump\t// in\n    tag_51:\n        /* \"#utility.yul\":1008:1033   */\n      swap3\n      pop\n        /* \"#utility.yul\":1167:1168   */\n      dup3\n        /* \"#utility.yul\":1099:1165   */\n      0xffffffffffffffffffffffffffffffffffffffffffffffffffffffffffffffff\n        /* \"#utility.yul\":1095:1169   */\n      sub\n        /* \"#utility.yul\":1092:1093   */\n      dup3\n        /* \"#utility.yul\":1089:1170   */\n      gt\n        /* \"#utility.yul\":1086:1193   */\n      iszero\n      tag_52\n      jumpi\n        /* \"#utility.yul\":1173:1191   */\n      tag_53\n      tag_54\n      jump\t// in\n    tag_53:\n        /* \"#utility.yul\":1086:1193   */\n    tag_52:\n        /* \"#utility.yul\":1217:1218   */\n      dup3\n        /* \"#utility.yul\":1214:1215   */\n      dup3\n        /* \"#utility.yul\":1210:1219   */\n      add\n        /* \"#utility.yul\":1203:1219   */\n      swap1\n      pop\n        /* \"#utility.yul\":920:1225   */\n      swap3\n      swap2\n      pop\n      pop\n      jump\t// out\n        /* \"#utility.yul\":1231:1579   */\n    tag_27:\n        /* \"#utility.yul\":1271:1278   */\n      0x00\n        /* \"#utility.yul\":1294:1314   */\n      tag_56\n        /* \"#utility.yul\":1312:1313   */\n      dup3\n        /* \"#utility.yul\":1294:1314   */\n      tag_44\n      jump\t// in\n    tag_56:\n        /* \"#utility.yul\":1289:1314   */\n      swap2\n      pop\n        /* \"#utility.yul\":1328:1348   */\n      tag_57\n        /* \"#utility.yul\":1346:1347   */\n      dup4\n        /* \"#utility.yul\":1328:1348   */\n      tag_44\n      jump\t// in\n    tag_57:\n        /* \"#utility.yul\":1323:1348   */\n      swap3\n      pop\n        /* \"#utility.yul\":1516:1517   */\n      dup2\n        /* \"#utility.yul\":1448:1514   */\n      0xffffffffffffffffffffffffffffffffffffffffffffffffffffffffffffffff\n        /* \"#utility.yul\":1444:1518   */\n      div\n        /* \"#utility.yul\":1441:1442   */\n      dup4\n        /* \"#utility.yul\":1438:1519   */\n      gt\n        /* \"#utility.yul\":1433:1434   */\n      dup3\n        /* \"#utility.yul\":1426:1435   */\n      iszero\n        /* \"#utility.yul\":1419:1436   */\n      iszero\n        /* \"#utility.yul\":1415:1520   */\n      and\n        /* \"#utility.yul\":1412:1543   */\n      iszero\n      tag_58\n      jumpi\n        /* \"#utility.yul\":1523:1541   */\n      tag_59\n      tag_54\n      jump\t// in\n    tag_59:\n        /* \"#utility.yul\":1412:1543   */\n    tag_58:\n        /* \"#utility.yul\":1571:1572   */\n      dup3\n        /* \"#utility.yul\":1568:1569   */\n      dup3\n        /* \"#utility.yul\":1564:1573   */\n      mul\n        /* \"#utility.yul\":1553:1573   */\n      swap1\n      pop\n        /* \"#utility.yul\":1231:1579   */\n      swap3\n      swap2\n      pop\n      pop\n      jump\t// out\n        /* \"#utility.yul\":1585:1662   */\n    tag_44:\n        /* \"#utility.yul\":1622:1629   */\n      0x00\n        /* \"#utility.yul\":1651:1656   */\n      dup2\n        /* \"#utility.yul\":1640:1656   */\n      swap1\n      pop\n        /* \"#utility.yul\":1585:1662   */\n      swap2\n      swap1\n      pop\n      jump\t// out\n        /* \"#utility.yul\":1668:1848   */\n    tag_54:\n        /* \"#utility.yul\":1716:1793   */\n      0x4e487b7100000000000000000000000000000000000000000000000000000000\n        /* \"#utility.yul\":1713:1714   */\n      0x00\n        /* \"#utility.yul\":1706:1794   */\n      mstore\n        /* \"#utility.yul\":1813:1817   */\n      0x11\n        /* \"#utility.yul\":1810:1811   */\n      0x04\n        /* \"#utility.yul\":1803:1818   */\n      mstore\n        /* \"#utility.yul\":1837:1841   */\n      0x24\n        /* \"#utility.yul\":1834:1835   */\n      0x00\n        /* \"#utility.yul\":1827:1842   */\n      revert\n        /* \"#utility.yul\":1977:2094   */\n    tag_39:\n        /* \"#utility.yul\":2086:2087   */\n      0x00\n        /* \"#utility.yul\":2083:2084   */\n      dup1\n        /* \"#utility.yul\":2076:2088   */\n      revert\n        /* \"#utility.yul\":2100:2222   */\n    tag_35:\n        /* \"#utility.yul\":2173:2197   */\n      tag_66\n        /* \"#utility.yul\":2191:2196   */\n      dup2\n        /* \"#utility.yul\":2173:2197   */\n      tag_44\n      jump\t// in\n    tag_66:\n        /* \"#utility.yul\":2166:2171   */\n      dup2\n        /* \"#utility.yul\":2163:2198   */\n      eq\n        /* \"#utility.yul\":2153:2216   */\n      tag_67\n      jumpi\n        /* \"#utility.yul\":2212:2213   */\n      0x00\n        /* \"#utility.yul\":2209:2210   */\n      dup1\n        /* \"#utility.yul\":2202:2214   */\n      revert\n        /* \"#utility.yul\":2153:2216   */\n    tag_67:\n        /* \"#utility.yul\":2100:2222   */\n      pop\n      jump\t// out\n\n    auxdata: 0xa264697066735822122048fecf8e8f159560ddb0d538580920616c406353d83fdc2630523263c320829864736f6c63430008070033\n}\n",
				"bytecode": {
					"linkReferences": {},
					"object": "608060405234801561001057600080fd5b506102b6806100206000396000f3fe608060405234801561001057600080fd5b506004361061004c5760003560e01c806360fe47b1146100515780636d4ce63c1461006d5780638381f58a1461008b578063a3d2b1bc146100a9575b600080fd5b61006b60048036038101906100669190610124565b6100c7565b005b6100756100d3565b6040516100829190610160565b60405180910390f35b6100936100dc565b6040516100a09190610160565b60405180910390f35b6100b16100e2565b6040516100be9190610160565b60405180910390f35b6100d0816100f8565b50565b60008054905090565b60005481565b600080546000546100f391906101d1565b905090565b80600054610106919061017b565b60008190555050565b60008135905061011e81610269565b92915050565b60006020828403121561013a57610139610264565b5b60006101488482850161010f565b91505092915050565b61015a8161022b565b82525050565b60006020820190506101756000830184610151565b92915050565b60006101868261022b565b91506101918361022b565b9250827fffffffffffffffffffffffffffffffffffffffffffffffffffffffffffffffff038211156101c6576101c5610235565b5b828201905092915050565b60006101dc8261022b565b91506101e78361022b565b9250817fffffffffffffffffffffffffffffffffffffffffffffffffffffffffffffffff04831182151516156102205761021f610235565b5b828202905092915050565b6000819050919050565b7f4e487b7100000000000000000000000000000000000000000000000000000000600052601160045260246000fd5b600080fd5b6102728161022b565b811461027d57600080fd5b5056fea264697066735822122048fecf8e8f159560ddb0d538580920616c406353d83fdc2630523263c320829864736f6c63430008070033",
					"opcodes": "PUSH1 0x80 PUSH1 0x40 MSTORE CALLVALUE DUP1 ISZERO PUSH2 0x10 JUMPI PUSH1 0x0 DUP1 REVERT JUMPDEST POP PUSH2 0x2B6 DUP1 PUSH2 0x20 PUSH1 0x0 CODECOPY PUSH1 0x0 RETURN INVALID PUSH1 0x80 PUSH1 0x40 MSTORE CALLVALUE DUP1 ISZERO PUSH2 0x10 JUMPI PUSH1 0x0 DUP1 REVERT JUMPDEST POP PUSH1 0x4 CALLDATASIZE LT PUSH2 0x4C JUMPI PUSH1 0x0 CALLDATALOAD PUSH1 0xE0 SHR DUP1 PUSH4 0x60FE47B1 EQ PUSH2 0x51 JUMPI DUP1 PUSH4 0x6D4CE63C EQ PUSH2 0x6D JUMPI DUP1 PUSH4 0x8381F58A EQ PUSH2 0x8B JUMPI DUP1 PUSH4 0xA3D2B1BC EQ PUSH2 0xA9 JUMPI JUMPDEST PUSH1 0x0 DUP1 REVERT JUMPDEST PUSH2 0x6B PUSH1 0x4 DUP1 CALLDATASIZE SUB DUP2 ADD SWAP1 PUSH2 0x66 SWAP2 SWAP1 PUSH2 0x124 JUMP JUMPDEST PUSH2 0xC7 JUMP JUMPDEST STOP JUMPDEST PUSH2 0x75 PUSH2 0xD3 JUMP JUMPDEST PUSH1 0x40 MLOAD PUSH2 0x82 SWAP2 SWAP1 PUSH2 0x160 JUMP JUMPDEST PUSH1 0x40 MLOAD DUP1 SWAP2 SUB SWAP1 RETURN JUMPDEST PUSH2 0x93 PUSH2 0xDC JUMP JUMPDEST PUSH1 0x40 MLOAD PUSH2 0xA0 SWAP2 SWAP1 PUSH2 0x160 JUMP JUMPDEST PUSH1 0x40 MLOAD DUP1 SWAP2 SUB SWAP1 RETURN JUMPDEST PUSH2 0xB1 PUSH2 0xE2 JUMP JUMPDEST PUSH1 0x40 MLOAD PUSH2 0xBE SWAP2 SWAP1 PUSH2 0x160 JUMP JUMPDEST PUSH1 0x40 MLOAD DUP1 SWAP2 SUB SWAP1 RETURN JUMPDEST PUSH2 0xD0 DUP2 PUSH2 0xF8 JUMP JUMPDEST POP JUMP JUMPDEST PUSH1 0x0 DUP1 SLOAD SWAP1 POP SWAP1 JUMP JUMPDEST PUSH1 0x0 SLOAD DUP2 JUMP JUMPDEST PUSH1 0x0 DUP1 SLOAD PUSH1 0x0 SLOAD PUSH2 0xF3 SWAP2 SWAP1 PUSH2 0x1D1 JUMP JUMPDEST SWAP1 POP SWAP1 JUMP JUMPDEST DUP1 PUSH1 0x0 SLOAD PUSH2 0x106 SWAP2 SWAP1 PUSH2 0x17B JUMP JUMPDEST PUSH1 0x0 DUP2 SWAP1 SSTORE POP POP JUMP JUMPDEST PUSH1 0x0 DUP2 CALLDATALOAD SWAP1 POP PUSH2 0x11E DUP2 PUSH2 0x269 JUMP JUMPDEST SWAP3 SWAP2 POP POP JUMP JUMPDEST PUSH1 0x0 PUSH1 0x20 DUP3 DUP5 SUB SLT ISZERO PUSH2 0x13A JUMPI PUSH2 0x139 PUSH2 0x264 JUMP JUMPDEST JUMPDEST PUSH1 0x0 PUSH2 0x148 DUP5 DUP3 DUP6 ADD PUSH2 0x10F JUMP JUMPDEST SWAP2 POP POP SWAP3 SWAP2 POP POP JUMP JUMPDEST PUSH2 0x15A DUP2 PUSH2 0x22B JUMP JUMPDEST DUP3 MSTORE POP POP JUMP JUMPDEST PUSH1 0x0 PUSH1 0x20 DUP3 ADD SWAP1 POP PUSH2 0x175 PUSH1 0x0 DUP4 ADD DUP5 PUSH2 0x151 JUMP JUMPDEST SWAP3 SWAP2 POP POP JUMP JUMPDEST PUSH1 0x0 PUSH2 0x186 DUP3 PUSH2 0x22B JUMP JUMPDEST SWAP2 POP PUSH2 0x191 DUP4 PUSH2 0x22B JUMP JUMPDEST SWAP3 POP DUP3 PUSH32 0xFFFFFFFFFFFFFFFFFFFFFFFFFFFFFFFFFFFFFFFFFFFFFFFFFFFFFFFFFFFFFFFF SUB DUP3 GT ISZERO PUSH2 0x1C6 JUMPI PUSH2 0x1C5 PUSH2 0x235 JUMP JUMPDEST JUMPDEST DUP3 DUP3 ADD SWAP1 POP SWAP3 SWAP2 POP POP JUMP JUMPDEST PUSH1 0x0 PUSH2 0x1DC DUP3 PUSH2 0x22B JUMP JUMPDEST SWAP2 POP PUSH2 0x1E7 DUP4 PUSH2 0x22B JUMP JUMPDEST SWAP3 POP DUP2 PUSH32 0xFFFFFFFFFFFFFFFFFFFFFFFFFFFFFFFFFFFFFFFFFFFFFFFFFFFFFFFFFFFFFFFF DIV DUP4 GT DUP3 ISZERO ISZERO AND ISZERO PUSH2 0x220 JUMPI PUSH2 0x21F PUSH2 0x235 JUMP JUMPDEST JUMPDEST DUP3 DUP3 MUL SWAP1 POP SWAP3 SWAP2 POP POP JUMP JUMPDEST PUSH1 0x0 DUP2 SWAP1 POP SWAP2 SWAP1 POP JUMP JUMPDEST PUSH32 0x4E487B7100000000000000000000000000000000000000000000000000000000 PUSH1 0x0 MSTORE PUSH1 0x11 PUSH1 0x4 MSTORE PUSH1 0x24 PUSH1 0x0 REVERT JUMPDEST PUSH1 0x0 DUP1 REVERT JUMPDEST PUSH2 0x272 DUP2 PUSH2 0x22B JUMP JUMPDEST DUP2 EQ PUSH2 0x27D JUMPI PUSH1 0x0 DUP1 REVERT JUMPDEST POP JUMP INVALID LOG2 PUSH5 0x6970667358 0x22 SLT KECCAK256 BASEFEE INVALID 0xCF DUP15 DUP16 ISZERO SWAP6 PUSH1 0xDD 0xB0 0xD5 CODESIZE PC MULMOD KECCAK256 PUSH2 0x6C40 PUSH4 0x53D83FDC 0x26 ADDRESS MSTORE ORIGIN PUSH4 0xC3208298 PUSH5 0x736F6C6343 STOP ADDMOD SMOD STOP CALLER "
				},
				"gasEstimates": {
					"creation": {
						"codeDepositCost": "138800",
						"executionCost": "183",
						"totalCost": "138983"
					},
					"external": {
						"get()": "2437",
						"get_square()": "infinite",
						"number()": "2451",
						"set(uint256)": "infinite"
					},
					"internal": {
						"add(uint256)": "infinite"
					}
				},
				"methodIdentifiers": {
					"get()": "6d4ce63c",
					"get_square()": "a3d2b1bc",
					"number()": "8381f58a",
					"set(uint256)": "60fe47b1"
				}
			},
			"storageLayout": {
				"storage": [
					{
						"astId": 3,
						"contract": "contracts/Functions.sol:Functions",
						"label": "number",
						"offset": 0,
						"slot": "0",
						"type": "t_uint256"
					}
				],
				"types": {
					"t_uint256": {
						"encoding": "inplace",
						"label": "uint256",
						"numberOfBytes": "32"
					}
				}
			},
			"userdoc": {
				"kind": "user",
				"methods": {},
				"version": 1
			}
		}
	}
}