{
	"contracts/Counter.sol": {
		"Counter": {
			"abi": [
				{
					"inputs": [],
					"name": "count",
					"outputs": [
						{
							"internalType": "uint256",
							"name": "",
							"type": "uint256"
						}
					],
					"stateMutability": "view",
					"type": "function"
				},
				{
					"inputs": [],
					"name": "decrement",
					"outputs": [],
					"stateMutability": "nonpayable",
					"type": "function"
				},
				{
					"inputs": [],
					"name": "increment",
					"outputs": [],
					"stateMutability": "nonpayable",
					"type": "function"
				}
			],
			"devdoc": {
				"kind": "dev",
				"methods": {},
				"version": 1
			},
			"evm": {
				"assembly": "    /* \"contracts/Counter.sol\":76:428  contract Counter {\r... */\n  mstore(0x40, 0x80)\n  callvalue\n  dup1\n  iszero\n  tag_1\n  jumpi\n  0x00\n  dup1\n  revert\ntag_1:\n  pop\n  dataSize(sub_0)\n  dup1\n  dataOffset(sub_0)\n  0x00\n  codecopy\n  0x00\n  return\nstop\n\nsub_0: assembly {\n        /* \"contracts/Counter.sol\":76:428  contract Counter {\r... */\n      mstore(0x40, 0x80)\n      callvalue\n      dup1\n      iszero\n      tag_1\n      jumpi\n      0x00\n      dup1\n      revert\n    tag_1:\n      pop\n      jumpi(tag_2, lt(calldatasize, 0x04))\n      shr(0xe0, calldataload(0x00))\n      dup1\n      0x06661abd\n      eq\n      tag_3\n      jumpi\n      dup1\n      0x2baeceb7\n      eq\n      tag_4\n      jumpi\n      dup1\n      0xd09de08a\n      eq\n      tag_5\n      jumpi\n    tag_2:\n      0x00\n      dup1\n      revert\n        /* \"contracts/Counter.sol\":100:120  uint256 public count */\n    tag_3:\n      tag_6\n      tag_7\n      jump\t// in\n    tag_6:\n      mload(0x40)\n      tag_8\n      swap2\n      swap1\n      tag_9\n      jump\t// in\n    tag_8:\n      mload(0x40)\n      dup1\n      swap2\n      sub\n      swap1\n      return\n        /* \"contracts/Counter.sol\":201:425  function decrement() public {\r... */\n    tag_4:\n      tag_10\n      tag_11\n      jump\t// in\n    tag_10:\n      stop\n        /* \"contracts/Counter.sol\":129:193  function increment() public {\r... */\n    tag_5:\n      tag_12\n      tag_13\n      jump\t// in\n    tag_12:\n      stop\n        /* \"contracts/Counter.sol\":100:120  uint256 public count */\n    tag_7:\n      sload(0x00)\n      dup2\n      jump\t// out\n        /* \"contracts/Counter.sol\":201:425  function decrement() public {\r... */\n    tag_11:\n        /* \"contracts/Counter.sol\":358:359  1 */\n      0x01\n        /* \"contracts/Counter.sol\":349:354  count */\n      sload(0x00)\n        /* \"contracts/Counter.sol\":349:359  count >= 1 */\n      lt\n      iszero\n        /* \"contracts/Counter.sol\":341:389  require(count >= 1, 'Count cannot be negative.') */\n      tag_15\n      jumpi\n      mload(0x40)\n      0x08c379a000000000000000000000000000000000000000000000000000000000\n      dup2\n      mstore\n      0x04\n      add\n      tag_16\n      swap1\n      tag_17\n      jump\t// in\n    tag_16:\n      mload(0x40)\n      dup1\n      swap2\n      sub\n      swap1\n      revert\n    tag_15:\n        /* \"contracts/Counter.sol\":416:417  1 */\n      0x01\n        /* \"contracts/Counter.sol\":408:413  count */\n      sload(0x00)\n        /* \"contracts/Counter.sol\":408:417  count - 1 */\n      tag_18\n      swap2\n      swap1\n      tag_19\n      jump\t// in\n    tag_18:\n        /* \"contracts/Counter.sol\":400:405  count */\n      0x00\n        /* \"contracts/Counter.sol\":400:417  count = count - 1 */\n      dup2\n      swap1\n      sstore\n      pop\n        /* \"contracts/Counter.sol\":201:425  function decrement() public {\r... */\n      jump\t// out\n        /* \"contracts/Counter.sol\":129:193  function increment() public {\r... */\n    tag_13:\n        /* \"contracts/Counter.sol\":184:185  1 */\n      0x01\n        /* \"contracts/Counter.sol\":176:181  count */\n      sload(0x00)\n        /* \"contracts/Counter.sol\":176:185  count + 1 */\n      tag_21\n      swap2\n      swap1\n      tag_22\n      jump\t// in\n    tag_21:\n        /* \"contracts/Counter.sol\":168:173  count */\n      0x00\n        /* \"contracts/Counter.sol\":168:185  count = count + 1 */\n      dup2\n      swap1\n      sstore\n      pop\n        /* \"contracts/Counter.sol\":129:193  function increment() public {\r... */\n      jump\t// out\n        /* \"#utility.yul\":7:373   */\n    tag_24:\n        /* \"#utility.yul\":149:152   */\n      0x00\n        /* \"#utility.yul\":170:237   */\n      tag_26\n        /* \"#utility.yul\":234:236   */\n      0x19\n        /* \"#utility.yul\":229:232   */\n      dup4\n        /* \"#utility.yul\":170:237   */\n      tag_27\n      jump\t// in\n    tag_26:\n        /* \"#utility.yul\":163:237   */\n      swap2\n      pop\n        /* \"#utility.yul\":246:339   */\n      tag_28\n        /* \"#utility.yul\":335:338   */\n      dup3\n        /* \"#utility.yul\":246:339   */\n      tag_29\n      jump\t// in\n    tag_28:\n        /* \"#utility.yul\":364:366   */\n      0x20\n        /* \"#utility.yul\":359:362   */\n      dup3\n        /* \"#utility.yul\":355:367   */\n      add\n        /* \"#utility.yul\":348:367   */\n      swap1\n      pop\n        /* \"#utility.yul\":7:373   */\n      swap2\n      swap1\n      pop\n      jump\t// out\n        /* \"#utility.yul\":379:497   */\n    tag_30:\n        /* \"#utility.yul\":466:490   */\n      tag_32\n        /* \"#utility.yul\":484:489   */\n      dup2\n        /* \"#utility.yul\":466:490   */\n      tag_33\n      jump\t// in\n    tag_32:\n        /* \"#utility.yul\":461:464   */\n      dup3\n        /* \"#utility.yul\":454:491   */\n      mstore\n        /* \"#utility.yul\":379:497   */\n      pop\n      pop\n      jump\t// out\n        /* \"#utility.yul\":503:922   */\n    tag_17:\n        /* \"#utility.yul\":669:673   */\n      0x00\n        /* \"#utility.yul\":707:709   */\n      0x20\n        /* \"#utility.yul\":696:705   */\n      dup3\n        /* \"#utility.yul\":692:710   */\n      add\n        /* \"#utility.yul\":684:710   */\n      swap1\n      pop\n        /* \"#utility.yul\":756:765   */\n      dup2\n        /* \"#utility.yul\":750:754   */\n      dup2\n        /* \"#utility.yul\":746:766   */\n      sub\n        /* \"#utility.yul\":742:743   */\n      0x00\n        /* \"#utility.yul\":731:740   */\n      dup4\n        /* \"#utility.yul\":727:744   */\n      add\n        /* \"#utility.yul\":720:767   */\n      mstore\n        /* \"#utility.yul\":784:915   */\n      tag_35\n        /* \"#utility.yul\":910:914   */\n      dup2\n        /* \"#utility.yul\":784:915   */\n      tag_24\n      jump\t// in\n    tag_35:\n        /* \"#utility.yul\":776:915   */\n      swap1\n      pop\n        /* \"#utility.yul\":503:922   */\n      swap2\n      swap1\n      pop\n      jump\t// out\n        /* \"#utility.yul\":928:1150   */\n    tag_9:\n        /* \"#utility.yul\":1021:1025   */\n      0x00\n        /* \"#utility.yul\":1059:1061   */\n      0x20\n        /* \"#utility.yul\":1048:1057   */\n      dup3\n        /* \"#utility.yul\":1044:1062   */\n      add\n        /* \"#utility.yul\":1036:1062   */\n      swap1\n      pop\n        /* \"#utility.yul\":1072:1143   */\n      tag_37\n        /* \"#utility.yul\":1140:1141   */\n      0x00\n        /* \"#utility.yul\":1129:1138   */\n      dup4\n        /* \"#utility.yul\":1125:1142   */\n      add\n        /* \"#utility.yul\":1116:1122   */\n      dup5\n        /* \"#utility.yul\":1072:1143   */\n      tag_30\n      jump\t// in\n    tag_37:\n        /* \"#utility.yul\":928:1150   */\n      swap3\n      swap2\n      pop\n      pop\n      jump\t// out\n        /* \"#utility.yul\":1156:1325   */\n    tag_27:\n        /* \"#utility.yul\":1240:1251   */\n      0x00\n        /* \"#utility.yul\":1274:1280   */\n      dup3\n        /* \"#utility.yul\":1269:1272   */\n      dup3\n        /* \"#utility.yul\":1262:1281   */\n      mstore\n        /* \"#utility.yul\":1314:1318   */\n      0x20\n        /* \"#utility.yul\":1309:1312   */\n      dup3\n        /* \"#utility.yul\":1305:1319   */\n      add\n        /* \"#utility.yul\":1290:1319   */\n      swap1\n      pop\n        /* \"#utility.yul\":1156:1325   */\n      swap3\n      swap2\n      pop\n      pop\n      jump\t// out\n        /* \"#utility.yul\":1331:1636   */\n    tag_22:\n        /* \"#utility.yul\":1371:1374   */\n      0x00\n        /* \"#utility.yul\":1390:1410   */\n      tag_40\n        /* \"#utility.yul\":1408:1409   */\n      dup3\n        /* \"#utility.yul\":1390:1410   */\n      tag_33\n      jump\t// in\n    tag_40:\n        /* \"#utility.yul\":1385:1410   */\n      swap2\n      pop\n        /* \"#utility.yul\":1424:1444   */\n      tag_41\n        /* \"#utility.yul\":1442:1443   */\n      dup4\n        /* \"#utility.yul\":1424:1444   */\n      tag_33\n      jump\t// in\n    tag_41:\n        /* \"#utility.yul\":1419:1444   */\n      swap3\n      pop\n        /* \"#utility.yul\":1578:1579   */\n      dup3\n        /* \"#utility.yul\":1510:1576   */\n      0xffffffffffffffffffffffffffffffffffffffffffffffffffffffffffffffff\n        /* \"#utility.yul\":1506:1580   */\n      sub\n        /* \"#utility.yul\":1503:1504   */\n      dup3\n        /* \"#utility.yul\":1500:1581   */\n      gt\n        /* \"#utility.yul\":1497:1604   */\n      iszero\n      tag_42\n      jumpi\n        /* \"#utility.yul\":1584:1602   */\n      tag_43\n      tag_44\n      jump\t// in\n    tag_43:\n        /* \"#utility.yul\":1497:1604   */\n    tag_42:\n        /* \"#utility.yul\":1628:1629   */\n      dup3\n        /* \"#utility.yul\":1625:1626   */\n      dup3\n        /* \"#utility.yul\":1621:1630   */\n      add\n        /* \"#utility.yul\":1614:1630   */\n      swap1\n      pop\n        /* \"#utility.yul\":1331:1636   */\n      swap3\n      swap2\n      pop\n      pop\n      jump\t// out\n        /* \"#utility.yul\":1642:1833   */\n    tag_19:\n        /* \"#utility.yul\":1682:1686   */\n      0x00\n        /* \"#utility.yul\":1702:1722   */\n      tag_46\n        /* \"#utility.yul\":1720:1721   */\n      dup3\n        /* \"#utility.yul\":1702:1722   */\n      tag_33\n      jump\t// in\n    tag_46:\n        /* \"#utility.yul\":1697:1722   */\n      swap2\n      pop\n        /* \"#utility.yul\":1736:1756   */\n      tag_47\n        /* \"#utility.yul\":1754:1755   */\n      dup4\n        /* \"#utility.yul\":1736:1756   */\n      tag_33\n      jump\t// in\n    tag_47:\n        /* \"#utility.yul\":1731:1756   */\n      swap3\n      pop\n        /* \"#utility.yul\":1775:1776   */\n      dup3\n        /* \"#utility.yul\":1772:1773   */\n      dup3\n        /* \"#utility.yul\":1769:1777   */\n      lt\n        /* \"#utility.yul\":1766:1800   */\n      iszero\n      tag_48\n      jumpi\n        /* \"#utility.yul\":1780:1798   */\n      tag_49\n      tag_44\n      jump\t// in\n    tag_49:\n        /* \"#utility.yul\":1766:1800   */\n    tag_48:\n        /* \"#utility.yul\":1825:1826   */\n      dup3\n        /* \"#utility.yul\":1822:1823   */\n      dup3\n        /* \"#utility.yul\":1818:1827   */\n      sub\n        /* \"#utility.yul\":1810:1827   */\n      swap1\n      pop\n        /* \"#utility.yul\":1642:1833   */\n      swap3\n      swap2\n      pop\n      pop\n      jump\t// out\n        /* \"#utility.yul\":1839:1916   */\n    tag_33:\n        /* \"#utility.yul\":1876:1883   */\n      0x00\n        /* \"#utility.yul\":1905:1910   */\n      dup2\n        /* \"#utility.yul\":1894:1910   */\n      swap1\n      pop\n        /* \"#utility.yul\":1839:1916   */\n      swap2\n      swap1\n      pop\n      jump\t// out\n        /* \"#utility.yul\":1922:2102   */\n    tag_44:\n        /* \"#utility.yul\":1970:2047   */\n      0x4e487b7100000000000000000000000000000000000000000000000000000000\n        /* \"#utility.yul\":1967:1968   */\n      0x00\n        /* \"#utility.yul\":1960:2048   */\n      mstore\n        /* \"#utility.yul\":2067:2071   */\n      0x11\n        /* \"#utility.yul\":2064:2065   */\n      0x04\n        /* \"#utility.yul\":2057:2072   */\n      mstore\n        /* \"#utility.yul\":2091:2095   */\n      0x24\n        /* \"#utility.yul\":2088:2089   */\n      0x00\n        /* \"#utility.yul\":2081:2096   */\n      revert\n        /* \"#utility.yul\":2108:2283   */\n    tag_29:\n        /* \"#utility.yul\":2248:2275   */\n      0x436f756e742063616e6e6f74206265206e656761746976652e00000000000000\n        /* \"#utility.yul\":2244:2245   */\n      0x00\n        /* \"#utility.yul\":2236:2242   */\n      dup3\n        /* \"#utility.yul\":2232:2246   */\n      add\n        /* \"#utility.yul\":2225:2276   */\n      mstore\n        /* \"#utility.yul\":2108:2283   */\n      pop\n      jump\t// out\n\n    auxdata: 0xa26469706673582212200ab1d659f4a7aa2ee6c0ffe4d288df7e3e3fc138137ba46d27665b2b2204db1c64736f6c63430008070033\n}\n",
				"bytecode": {
					"linkReferences": {},
					"object": "608060405234801561001057600080fd5b50610292806100206000396000f3fe608060405234801561001057600080fd5b50600436106100415760003560e01c806306661abd146100465780632baeceb714610064578063d09de08a1461006e575b600080fd5b61004e610078565b60405161005b9190610144565b60405180910390f35b61006c61007e565b005b6100766100db565b005b60005481565b600160005410156100c4576040517f08c379a00000000000000000000000000000000000000000000000000000000081526004016100bb90610124565b60405180910390fd5b60016000546100d391906101c6565b600081905550565b60016000546100ea9190610170565b600081905550565b60006100ff60198361015f565b915061010a82610233565b602082019050919050565b61011e816101fa565b82525050565b6000602082019050818103600083015261013d816100f2565b9050919050565b60006020820190506101596000830184610115565b92915050565b600082825260208201905092915050565b600061017b826101fa565b9150610186836101fa565b9250827fffffffffffffffffffffffffffffffffffffffffffffffffffffffffffffffff038211156101bb576101ba610204565b5b828201905092915050565b60006101d1826101fa565b91506101dc836101fa565b9250828210156101ef576101ee610204565b5b828203905092915050565b6000819050919050565b7f4e487b7100000000000000000000000000000000000000000000000000000000600052601160045260246000fd5b7f436f756e742063616e6e6f74206265206e656761746976652e0000000000000060008201525056fea26469706673582212200ab1d659f4a7aa2ee6c0ffe4d288df7e3e3fc138137ba46d27665b2b2204db1c64736f6c63430008070033",
					"opcodes": "PUSH1 0x80 PUSH1 0x40 MSTORE CALLVALUE DUP1 ISZERO PUSH2 0x10 JUMPI PUSH1 0x0 DUP1 REVERT JUMPDEST POP PUSH2 0x292 DUP1 PUSH2 0x20 PUSH1 0x0 CODECOPY PUSH1 0x0 RETURN INVALID PUSH1 0x80 PUSH1 0x40 MSTORE CALLVALUE DUP1 ISZERO PUSH2 0x10 JUMPI PUSH1 0x0 DUP1 REVERT JUMPDEST POP PUSH1 0x4 CALLDATASIZE LT PUSH2 0x41 JUMPI PUSH1 0x0 CALLDATALOAD PUSH1 0xE0 SHR DUP1 PUSH4 0x6661ABD EQ PUSH2 0x46 JUMPI DUP1 PUSH4 0x2BAECEB7 EQ PUSH2 0x64 JUMPI DUP1 PUSH4 0xD09DE08A EQ PUSH2 0x6E JUMPI JUMPDEST PUSH1 0x0 DUP1 REVERT JUMPDEST PUSH2 0x4E PUSH2 0x78 JUMP JUMPDEST PUSH1 0x40 MLOAD PUSH2 0x5B SWAP2 SWAP1 PUSH2 0x144 JUMP JUMPDEST PUSH1 0x40 MLOAD DUP1 SWAP2 SUB SWAP1 RETURN JUMPDEST PUSH2 0x6C PUSH2 0x7E JUMP JUMPDEST STOP JUMPDEST PUSH2 0x76 PUSH2 0xDB JUMP JUMPDEST STOP JUMPDEST PUSH1 0x0 SLOAD DUP2 JUMP JUMPDEST PUSH1 0x1 PUSH1 0x0 SLOAD LT ISZERO PUSH2 0xC4 JUMPI PUSH1 0x40 MLOAD PUSH32 0x8C379A000000000000000000000000000000000000000000000000000000000 DUP2 MSTORE PUSH1 0x4 ADD PUSH2 0xBB SWAP1 PUSH2 0x124 JUMP JUMPDEST PUSH1 0x40 MLOAD DUP1 SWAP2 SUB SWAP1 REVERT JUMPDEST PUSH1 0x1 PUSH1 0x0 SLOAD PUSH2 0xD3 SWAP2 SWAP1 PUSH2 0x1C6 JUMP JUMPDEST PUSH1 0x0 DUP2 SWAP1 SSTORE POP JUMP JUMPDEST PUSH1 0x1 PUSH1 0x0 SLOAD PUSH2 0xEA SWAP2 SWAP1 PUSH2 0x170 JUMP JUMPDEST PUSH1 0x0 DUP2 SWAP1 SSTORE POP JUMP JUMPDEST PUSH1 0x0 PUSH2 0xFF PUSH1 0x19 DUP4 PUSH2 0x15F JUMP JUMPDEST SWAP2 POP PUSH2 0x10A DUP3 PUSH2 0x233 JUMP JUMPDEST PUSH1 0x20 DUP3 ADD SWAP1 POP SWAP2 SWAP1 POP JUMP JUMPDEST PUSH2 0x11E DUP2 PUSH2 0x1FA JUMP JUMPDEST DUP3 MSTORE POP POP JUMP JUMPDEST PUSH1 0x0 PUSH1 0x20 DUP3 ADD SWAP1 POP DUP2 DUP2 SUB PUSH1 0x0 DUP4 ADD MSTORE PUSH2 0x13D DUP2 PUSH2 0xF2 JUMP JUMPDEST SWAP1 POP SWAP2 SWAP1 POP JUMP JUMPDEST PUSH1 0x0 PUSH1 0x20 DUP3 ADD SWAP1 POP PUSH2 0x159 PUSH1 0x0 DUP4 ADD DUP5 PUSH2 0x115 JUMP JUMPDEST SWAP3 SWAP2 POP POP JUMP JUMPDEST PUSH1 0x0 DUP3 DUP3 MSTORE PUSH1 0x20 DUP3 ADD SWAP1 POP SWAP3 SWAP2 POP POP JUMP JUMPDEST PUSH1 0x0 PUSH2 0x17B DUP3 PUSH2 0x1FA JUMP JUMPDEST SWAP2 POP PUSH2 0x186 DUP4 PUSH2 0x1FA JUMP JUMPDEST SWAP3 POP DUP3 PUSH32 0xFFFFFFFFFFFFFFFFFFFFFFFFFFFFFFFFFFFFFFFFFFFFFFFFFFFFFFFFFFFFFFFF SUB DUP3 GT ISZERO PUSH2 0x1BB JUMPI PUSH2 0x1BA PUSH2 0x204 JUMP JUMPDEST JUMPDEST DUP3 DUP3 ADD SWAP1 POP SWAP3 SWAP2 POP POP JUMP JUMPDEST PUSH1 0x0 PUSH2 0x1D1 DUP3 PUSH2 0x1FA JUMP JUMPDEST SWAP2 POP PUSH2 0x1DC DUP4 PUSH2 0x1FA JUMP JUMPDEST SWAP3 POP DUP3 DUP3 LT ISZERO PUSH2 0x1EF JUMPI PUSH2 0x1EE PUSH2 0x204 JUMP JUMPDEST JUMPDEST DUP3 DUP3 SUB SWAP1 POP SWAP3 SWAP2 POP POP JUMP JUMPDEST PUSH1 0x0 DUP2 SWAP1 POP SWAP2 SWAP1 POP JUMP JUMPDEST PUSH32 0x4E487B7100000000000000000000000000000000000000000000000000000000 PUSH1 0x0 MSTORE PUSH1 0x11 PUSH1 0x4 MSTORE PUSH1 0x24 PUSH1 0x0 REVERT JUMPDEST PUSH32 0x436F756E742063616E6E6F74206265206E656761746976652E00000000000000 PUSH1 0x0 DUP3 ADD MSTORE POP JUMP INVALID LOG2 PUSH5 0x6970667358 0x22 SLT KECCAK256 EXP 0xB1 0xD6 MSIZE DELEGATECALL 0xA7 0xAA 0x2E 0xE6 0xC0 SELFDESTRUCT 0xE4 0xD2 DUP9 0xDF PUSH31 0x3E3FC138137BA46D27665B2B2204DB1C64736F6C6343000807003300000000 "
				},
				"gasEstimates": {
					"creation": {
						"codeDepositCost": "131600",
						"executionCost": "177",
						"totalCost": "131777"
					},
					"external": {
						"count()": "2407",
						"decrement()": "infinite",
						"increment()": "infinite"
					}
				},
				"methodIdentifiers": {
					"count()": "06661abd",
					"decrement()": "2baeceb7",
					"increment()": "d09de08a"
				}
			},
			"storageLayout": {
				"storage": [
					{
						"astId": 3,
						"contract": "contracts/Counter.sol:Counter",
						"label": "count",
						"offset": 0,
						"slot": "0",
						"type": "t_uint256"
					}
				],
				"types": {
					"t_uint256": {
						"encoding": "inplace",
						"label": "uint256",
						"numberOfBytes": "32"
					}
				}
			},
			"userdoc": {
				"kind": "user",
				"methods": {},
				"version": 1
			}
		}
	}
}