{
	"contracts/Types.sol": {
		"Types": {
			"abi": [
				{
					"inputs": [],
					"stateMutability": "nonpayable",
					"type": "constructor"
				},
				{
					"inputs": [],
					"name": "decrement",
					"outputs": [],
					"stateMutability": "nonpayable",
					"type": "function"
				},
				{
					"inputs": [],
					"name": "increment",
					"outputs": [],
					"stateMutability": "nonpayable",
					"type": "function"
				},
				{
					"inputs": [],
					"name": "message",
					"outputs": [
						{
							"internalType": "string",
							"name": "",
							"type": "string"
						}
					],
					"stateMutability": "view",
					"type": "function"
				}
			],
			"devdoc": {
				"kind": "dev",
				"methods": {},
				"version": 1
			},
			"evm": {
				"assembly": "    /* \"contracts/Types.sol\":76:401  contract Types {\r... */\n  mstore(0x40, 0x80)\n    /* \"contracts/Types.sol\":160:165  false */\n  0x00\n    /* \"contracts/Types.sol\":146:165  bool below1 = false */\n  0x02\n  exp(0x0100, 0x00)\n  dup2\n  sload\n  dup2\n  0xff\n  mul\n  not\n  and\n  swap1\n  dup4\n  iszero\n  iszero\n  mul\n  or\n  swap1\n  sstore\n  pop\n    /* \"contracts/Types.sol\":174:254  constructor() {\r... */\n  callvalue\n  dup1\n  iszero\n  tag_1\n  jumpi\n  0x00\n  dup1\n  revert\ntag_1:\n  pop\n    /* \"contracts/Types.sol\":199:246  message = \"Contract to increment or decrement.\" */\n  mload(0x40)\n  dup1\n  0x60\n  add\n  0x40\n  mstore\n  dup1\n  0x23\n  dup2\n  mstore\n  0x20\n  add\n  data_604fc6c69618783f88ada2ca10c18e0e3df0778dcc1f7b67293346311eea0ac3\n  0x23\n  swap2\n  codecopy\n    /* \"contracts/Types.sol\":199:206  message */\n  0x01\n    /* \"contracts/Types.sol\":199:246  message = \"Contract to increment or decrement.\" */\n  swap1\n  dup1\n  mload\n  swap1\n  0x20\n  add\n  swap1\n  tag_4\n  swap3\n  swap2\n  swap1\n  tag_5\n  jump\t// in\ntag_4:\n  pop\n    /* \"contracts/Types.sol\":76:401  contract Types {\r... */\n  jump(tag_6)\ntag_5:\n  dup3\n  dup1\n  sload\n  tag_7\n  swap1\n  tag_8\n  jump\t// in\ntag_7:\n  swap1\n  0x00\n  mstore\n  keccak256(0x00, 0x20)\n  swap1\n  0x1f\n  add\n  0x20\n  swap1\n  div\n  dup2\n  add\n  swap3\n  dup3\n  tag_10\n  jumpi\n  0x00\n  dup6\n  sstore\n  jump(tag_9)\ntag_10:\n  dup3\n  0x1f\n  lt\n  tag_11\n  jumpi\n  dup1\n  mload\n  not(0xff)\n  and\n  dup4\n  dup1\n  add\n  or\n  dup6\n  sstore\n  jump(tag_9)\ntag_11:\n  dup3\n  dup1\n  add\n  0x01\n  add\n  dup6\n  sstore\n  dup3\n  iszero\n  tag_9\n  jumpi\n  swap2\n  dup3\n  add\ntag_12:\n  dup3\n  dup2\n  gt\n  iszero\n  tag_13\n  jumpi\n  dup3\n  mload\n  dup3\n  sstore\n  swap2\n  0x20\n  add\n  swap2\n  swap1\n  0x01\n  add\n  swap1\n  jump(tag_12)\ntag_13:\ntag_9:\n  pop\n  swap1\n  pop\n  tag_14\n  swap2\n  swap1\n  tag_15\n  jump\t// in\ntag_14:\n  pop\n  swap1\n  jump\t// out\ntag_15:\ntag_16:\n  dup1\n  dup3\n  gt\n  iszero\n  tag_17\n  jumpi\n  0x00\n  dup2\n  0x00\n  swap1\n  sstore\n  pop\n  0x01\n  add\n  jump(tag_16)\ntag_17:\n  pop\n  swap1\n  jump\t// out\n    /* \"#utility.yul\":7:327   */\ntag_8:\n    /* \"#utility.yul\":51:57   */\n  0x00\n    /* \"#utility.yul\":88:89   */\n  0x02\n    /* \"#utility.yul\":82:86   */\n  dup3\n    /* \"#utility.yul\":78:90   */\n  div\n    /* \"#utility.yul\":68:90   */\n  swap1\n  pop\n    /* \"#utility.yul\":135:136   */\n  0x01\n    /* \"#utility.yul\":129:133   */\n  dup3\n    /* \"#utility.yul\":125:137   */\n  and\n    /* \"#utility.yul\":156:174   */\n  dup1\n    /* \"#utility.yul\":146:227   */\n  tag_20\n  jumpi\n    /* \"#utility.yul\":212:216   */\n  0x7f\n    /* \"#utility.yul\":204:210   */\n  dup3\n    /* \"#utility.yul\":200:217   */\n  and\n    /* \"#utility.yul\":190:217   */\n  swap2\n  pop\n    /* \"#utility.yul\":146:227   */\ntag_20:\n    /* \"#utility.yul\":274:276   */\n  0x20\n    /* \"#utility.yul\":266:272   */\n  dup3\n    /* \"#utility.yul\":263:277   */\n  lt\n    /* \"#utility.yul\":243:261   */\n  dup2\n    /* \"#utility.yul\":240:278   */\n  eq\n    /* \"#utility.yul\":237:321   */\n  iszero\n  tag_21\n  jumpi\n    /* \"#utility.yul\":293:311   */\n  tag_22\n  tag_23\n  jump\t// in\ntag_22:\n    /* \"#utility.yul\":237:321   */\ntag_21:\n    /* \"#utility.yul\":58:327   */\n  pop\n    /* \"#utility.yul\":7:327   */\n  swap2\n  swap1\n  pop\n  jump\t// out\n    /* \"#utility.yul\":333:513   */\ntag_23:\n    /* \"#utility.yul\":381:458   */\n  0x4e487b7100000000000000000000000000000000000000000000000000000000\n    /* \"#utility.yul\":378:379   */\n  0x00\n    /* \"#utility.yul\":371:459   */\n  mstore\n    /* \"#utility.yul\":478:482   */\n  0x22\n    /* \"#utility.yul\":475:476   */\n  0x04\n    /* \"#utility.yul\":468:483   */\n  mstore\n    /* \"#utility.yul\":502:506   */\n  0x24\n    /* \"#utility.yul\":499:500   */\n  0x00\n    /* \"#utility.yul\":492:507   */\n  revert\n    /* \"contracts/Types.sol\":76:401  contract Types {\r... */\ntag_6:\n  dataSize(sub_0)\n  dup1\n  dataOffset(sub_0)\n  0x00\n  codecopy\n  0x00\n  return\nstop\ndata_604fc6c69618783f88ada2ca10c18e0e3df0778dcc1f7b67293346311eea0ac3 436f6e747261637420746f20696e6372656d656e74206f722064656372656d656e742e\n\nsub_0: assembly {\n        /* \"contracts/Types.sol\":76:401  contract Types {\r... */\n      mstore(0x40, 0x80)\n      callvalue\n      dup1\n      iszero\n      tag_1\n      jumpi\n      0x00\n      dup1\n      revert\n    tag_1:\n      pop\n      jumpi(tag_2, lt(calldatasize, 0x04))\n      shr(0xe0, calldataload(0x00))\n      dup1\n      0x2baeceb7\n      eq\n      tag_3\n      jumpi\n      dup1\n      0xd09de08a\n      eq\n      tag_4\n      jumpi\n      dup1\n      0xe21f37ce\n      eq\n      tag_5\n      jumpi\n    tag_2:\n      0x00\n      dup1\n      revert\n        /* \"contracts/Types.sol\":334:398  function decrement() public {\r... */\n    tag_3:\n      tag_6\n      tag_7\n      jump\t// in\n    tag_6:\n      stop\n        /* \"contracts/Types.sol\":262:326  function increment() public {\r... */\n    tag_4:\n      tag_8\n      tag_9\n      jump\t// in\n    tag_8:\n      stop\n        /* \"contracts/Types.sol\":118:139  string public message */\n    tag_5:\n      tag_10\n      tag_11\n      jump\t// in\n    tag_10:\n      mload(0x40)\n      tag_12\n      swap2\n      swap1\n      tag_13\n      jump\t// in\n    tag_12:\n      mload(0x40)\n      dup1\n      swap2\n      sub\n      swap1\n      return\n        /* \"contracts/Types.sol\":334:398  function decrement() public {\r... */\n    tag_7:\n        /* \"contracts/Types.sol\":389:390  1 */\n      0x01\n        /* \"contracts/Types.sol\":381:386  count */\n      sload(0x00)\n        /* \"contracts/Types.sol\":381:390  count - 1 */\n      tag_15\n      swap2\n      swap1\n      tag_16\n      jump\t// in\n    tag_15:\n        /* \"contracts/Types.sol\":373:378  count */\n      0x00\n        /* \"contracts/Types.sol\":373:390  count = count - 1 */\n      dup2\n      swap1\n      sstore\n      pop\n        /* \"contracts/Types.sol\":334:398  function decrement() public {\r... */\n      jump\t// out\n        /* \"contracts/Types.sol\":262:326  function increment() public {\r... */\n    tag_9:\n        /* \"contracts/Types.sol\":317:318  1 */\n      0x01\n        /* \"contracts/Types.sol\":309:314  count */\n      sload(0x00)\n        /* \"contracts/Types.sol\":309:318  count + 1 */\n      tag_18\n      swap2\n      swap1\n      tag_19\n      jump\t// in\n    tag_18:\n        /* \"contracts/Types.sol\":301:306  count */\n      0x00\n        /* \"contracts/Types.sol\":301:318  count = count + 1 */\n      dup2\n      swap1\n      sstore\n      pop\n        /* \"contracts/Types.sol\":262:326  function increment() public {\r... */\n      jump\t// out\n        /* \"contracts/Types.sol\":118:139  string public message */\n    tag_11:\n      0x01\n      dup1\n      sload\n      tag_20\n      swap1\n      tag_21\n      jump\t// in\n    tag_20:\n      dup1\n      0x1f\n      add\n      0x20\n      dup1\n      swap2\n      div\n      mul\n      0x20\n      add\n      mload(0x40)\n      swap1\n      dup2\n      add\n      0x40\n      mstore\n      dup1\n      swap3\n      swap2\n      swap1\n      dup2\n      dup2\n      mstore\n      0x20\n      add\n      dup3\n      dup1\n      sload\n      tag_22\n      swap1\n      tag_21\n      jump\t// in\n    tag_22:\n      dup1\n      iszero\n      tag_23\n      jumpi\n      dup1\n      0x1f\n      lt\n      tag_24\n      jumpi\n      0x0100\n      dup1\n      dup4\n      sload\n      div\n      mul\n      dup4\n      mstore\n      swap2\n      0x20\n      add\n      swap2\n      jump(tag_23)\n    tag_24:\n      dup3\n      add\n      swap2\n      swap1\n      0x00\n      mstore\n      keccak256(0x00, 0x20)\n      swap1\n    tag_25:\n      dup2\n      sload\n      dup2\n      mstore\n      swap1\n      0x01\n      add\n      swap1\n      0x20\n      add\n      dup1\n      dup4\n      gt\n      tag_25\n      jumpi\n      dup3\n      swap1\n      sub\n      0x1f\n      and\n      dup3\n      add\n      swap2\n    tag_23:\n      pop\n      pop\n      pop\n      pop\n      pop\n      dup2\n      jump\t// out\n        /* \"#utility.yul\":7:371   */\n    tag_27:\n        /* \"#utility.yul\":95:98   */\n      0x00\n        /* \"#utility.yul\":123:162   */\n      tag_29\n        /* \"#utility.yul\":156:161   */\n      dup3\n        /* \"#utility.yul\":123:162   */\n      tag_30\n      jump\t// in\n    tag_29:\n        /* \"#utility.yul\":178:249   */\n      tag_31\n        /* \"#utility.yul\":242:248   */\n      dup2\n        /* \"#utility.yul\":237:240   */\n      dup6\n        /* \"#utility.yul\":178:249   */\n      tag_32\n      jump\t// in\n    tag_31:\n        /* \"#utility.yul\":171:249   */\n      swap4\n      pop\n        /* \"#utility.yul\":258:310   */\n      tag_33\n        /* \"#utility.yul\":303:309   */\n      dup2\n        /* \"#utility.yul\":298:301   */\n      dup6\n        /* \"#utility.yul\":291:295   */\n      0x20\n        /* \"#utility.yul\":284:289   */\n      dup7\n        /* \"#utility.yul\":280:296   */\n      add\n        /* \"#utility.yul\":258:310   */\n      tag_34\n      jump\t// in\n    tag_33:\n        /* \"#utility.yul\":335:364   */\n      tag_35\n        /* \"#utility.yul\":357:363   */\n      dup2\n        /* \"#utility.yul\":335:364   */\n      tag_36\n      jump\t// in\n    tag_35:\n        /* \"#utility.yul\":330:333   */\n      dup5\n        /* \"#utility.yul\":326:365   */\n      add\n        /* \"#utility.yul\":319:365   */\n      swap2\n      pop\n        /* \"#utility.yul\":99:371   */\n      pop\n        /* \"#utility.yul\":7:371   */\n      swap3\n      swap2\n      pop\n      pop\n      jump\t// out\n        /* \"#utility.yul\":377:690   */\n    tag_13:\n        /* \"#utility.yul\":490:494   */\n      0x00\n        /* \"#utility.yul\":528:530   */\n      0x20\n        /* \"#utility.yul\":517:526   */\n      dup3\n        /* \"#utility.yul\":513:531   */\n      add\n        /* \"#utility.yul\":505:531   */\n      swap1\n      pop\n        /* \"#utility.yul\":577:586   */\n      dup2\n        /* \"#utility.yul\":571:575   */\n      dup2\n        /* \"#utility.yul\":567:587   */\n      sub\n        /* \"#utility.yul\":563:564   */\n      0x00\n        /* \"#utility.yul\":552:561   */\n      dup4\n        /* \"#utility.yul\":548:565   */\n      add\n        /* \"#utility.yul\":541:588   */\n      mstore\n        /* \"#utility.yul\":605:683   */\n      tag_38\n        /* \"#utility.yul\":678:682   */\n      dup2\n        /* \"#utility.yul\":669:675   */\n      dup5\n        /* \"#utility.yul\":605:683   */\n      tag_27\n      jump\t// in\n    tag_38:\n        /* \"#utility.yul\":597:683   */\n      swap1\n      pop\n        /* \"#utility.yul\":377:690   */\n      swap3\n      swap2\n      pop\n      pop\n      jump\t// out\n        /* \"#utility.yul\":696:795   */\n    tag_30:\n        /* \"#utility.yul\":748:754   */\n      0x00\n        /* \"#utility.yul\":782:787   */\n      dup2\n        /* \"#utility.yul\":776:788   */\n      mload\n        /* \"#utility.yul\":766:788   */\n      swap1\n      pop\n        /* \"#utility.yul\":696:795   */\n      swap2\n      swap1\n      pop\n      jump\t// out\n        /* \"#utility.yul\":801:970   */\n    tag_32:\n        /* \"#utility.yul\":885:896   */\n      0x00\n        /* \"#utility.yul\":919:925   */\n      dup3\n        /* \"#utility.yul\":914:917   */\n      dup3\n        /* \"#utility.yul\":907:926   */\n      mstore\n        /* \"#utility.yul\":959:963   */\n      0x20\n        /* \"#utility.yul\":954:957   */\n      dup3\n        /* \"#utility.yul\":950:964   */\n      add\n        /* \"#utility.yul\":935:964   */\n      swap1\n      pop\n        /* \"#utility.yul\":801:970   */\n      swap3\n      swap2\n      pop\n      pop\n      jump\t// out\n        /* \"#utility.yul\":976:1281   */\n    tag_19:\n        /* \"#utility.yul\":1016:1019   */\n      0x00\n        /* \"#utility.yul\":1035:1055   */\n      tag_42\n        /* \"#utility.yul\":1053:1054   */\n      dup3\n        /* \"#utility.yul\":1035:1055   */\n      tag_43\n      jump\t// in\n    tag_42:\n        /* \"#utility.yul\":1030:1055   */\n      swap2\n      pop\n        /* \"#utility.yul\":1069:1089   */\n      tag_44\n        /* \"#utility.yul\":1087:1088   */\n      dup4\n        /* \"#utility.yul\":1069:1089   */\n      tag_43\n      jump\t// in\n    tag_44:\n        /* \"#utility.yul\":1064:1089   */\n      swap3\n      pop\n        /* \"#utility.yul\":1223:1224   */\n      dup3\n        /* \"#utility.yul\":1155:1221   */\n      0xffffffffffffffffffffffffffffffffffffffffffffffffffffffffffffffff\n        /* \"#utility.yul\":1151:1225   */\n      sub\n        /* \"#utility.yul\":1148:1149   */\n      dup3\n        /* \"#utility.yul\":1145:1226   */\n      gt\n        /* \"#utility.yul\":1142:1249   */\n      iszero\n      tag_45\n      jumpi\n        /* \"#utility.yul\":1229:1247   */\n      tag_46\n      tag_47\n      jump\t// in\n    tag_46:\n        /* \"#utility.yul\":1142:1249   */\n    tag_45:\n        /* \"#utility.yul\":1273:1274   */\n      dup3\n        /* \"#utility.yul\":1270:1271   */\n      dup3\n        /* \"#utility.yul\":1266:1275   */\n      add\n        /* \"#utility.yul\":1259:1275   */\n      swap1\n      pop\n        /* \"#utility.yul\":976:1281   */\n      swap3\n      swap2\n      pop\n      pop\n      jump\t// out\n        /* \"#utility.yul\":1287:1478   */\n    tag_16:\n        /* \"#utility.yul\":1327:1331   */\n      0x00\n        /* \"#utility.yul\":1347:1367   */\n      tag_49\n        /* \"#utility.yul\":1365:1366   */\n      dup3\n        /* \"#utility.yul\":1347:1367   */\n      tag_43\n      jump\t// in\n    tag_49:\n        /* \"#utility.yul\":1342:1367   */\n      swap2\n      pop\n        /* \"#utility.yul\":1381:1401   */\n      tag_50\n        /* \"#utility.yul\":1399:1400   */\n      dup4\n        /* \"#utility.yul\":1381:1401   */\n      tag_43\n      jump\t// in\n    tag_50:\n        /* \"#utility.yul\":1376:1401   */\n      swap3\n      pop\n        /* \"#utility.yul\":1420:1421   */\n      dup3\n        /* \"#utility.yul\":1417:1418   */\n      dup3\n        /* \"#utility.yul\":1414:1422   */\n      lt\n        /* \"#utility.yul\":1411:1445   */\n      iszero\n      tag_51\n      jumpi\n        /* \"#utility.yul\":1425:1443   */\n      tag_52\n      tag_47\n      jump\t// in\n    tag_52:\n        /* \"#utility.yul\":1411:1445   */\n    tag_51:\n        /* \"#utility.yul\":1470:1471   */\n      dup3\n        /* \"#utility.yul\":1467:1468   */\n      dup3\n        /* \"#utility.yul\":1463:1472   */\n      sub\n        /* \"#utility.yul\":1455:1472   */\n      swap1\n      pop\n        /* \"#utility.yul\":1287:1478   */\n      swap3\n      swap2\n      pop\n      pop\n      jump\t// out\n        /* \"#utility.yul\":1484:1561   */\n    tag_43:\n        /* \"#utility.yul\":1521:1528   */\n      0x00\n        /* \"#utility.yul\":1550:1555   */\n      dup2\n        /* \"#utility.yul\":1539:1555   */\n      swap1\n      pop\n        /* \"#utility.yul\":1484:1561   */\n      swap2\n      swap1\n      pop\n      jump\t// out\n        /* \"#utility.yul\":1567:1874   */\n    tag_34:\n        /* \"#utility.yul\":1635:1636   */\n      0x00\n        /* \"#utility.yul\":1645:1758   */\n    tag_55:\n        /* \"#utility.yul\":1659:1665   */\n      dup4\n        /* \"#utility.yul\":1656:1657   */\n      dup2\n        /* \"#utility.yul\":1653:1666   */\n      lt\n        /* \"#utility.yul\":1645:1758   */\n      iszero\n      tag_57\n      jumpi\n        /* \"#utility.yul\":1744:1745   */\n      dup1\n        /* \"#utility.yul\":1739:1742   */\n      dup3\n        /* \"#utility.yul\":1735:1746   */\n      add\n        /* \"#utility.yul\":1729:1747   */\n      mload\n        /* \"#utility.yul\":1725:1726   */\n      dup2\n        /* \"#utility.yul\":1720:1723   */\n      dup5\n        /* \"#utility.yul\":1716:1727   */\n      add\n        /* \"#utility.yul\":1709:1748   */\n      mstore\n        /* \"#utility.yul\":1681:1683   */\n      0x20\n        /* \"#utility.yul\":1678:1679   */\n      dup2\n        /* \"#utility.yul\":1674:1684   */\n      add\n        /* \"#utility.yul\":1669:1684   */\n      swap1\n      pop\n        /* \"#utility.yul\":1645:1758   */\n      jump(tag_55)\n    tag_57:\n        /* \"#utility.yul\":1776:1782   */\n      dup4\n        /* \"#utility.yul\":1773:1774   */\n      dup2\n        /* \"#utility.yul\":1770:1783   */\n      gt\n        /* \"#utility.yul\":1767:1868   */\n      iszero\n      tag_58\n      jumpi\n        /* \"#utility.yul\":1856:1857   */\n      0x00\n        /* \"#utility.yul\":1847:1853   */\n      dup5\n        /* \"#utility.yul\":1842:1845   */\n      dup5\n        /* \"#utility.yul\":1838:1854   */\n      add\n        /* \"#utility.yul\":1831:1858   */\n      mstore\n        /* \"#utility.yul\":1767:1868   */\n    tag_58:\n        /* \"#utility.yul\":1616:1874   */\n      pop\n        /* \"#utility.yul\":1567:1874   */\n      pop\n      pop\n      pop\n      jump\t// out\n        /* \"#utility.yul\":1880:2200   */\n    tag_21:\n        /* \"#utility.yul\":1924:1930   */\n      0x00\n        /* \"#utility.yul\":1961:1962   */\n      0x02\n        /* \"#utility.yul\":1955:1959   */\n      dup3\n        /* \"#utility.yul\":1951:1963   */\n      div\n        /* \"#utility.yul\":1941:1963   */\n      swap1\n      pop\n        /* \"#utility.yul\":2008:2009   */\n      0x01\n        /* \"#utility.yul\":2002:2006   */\n      dup3\n        /* \"#utility.yul\":1998:2010   */\n      and\n        /* \"#utility.yul\":2029:2047   */\n      dup1\n        /* \"#utility.yul\":2019:2100   */\n      tag_60\n      jumpi\n        /* \"#utility.yul\":2085:2089   */\n      0x7f\n        /* \"#utility.yul\":2077:2083   */\n      dup3\n        /* \"#utility.yul\":2073:2090   */\n      and\n        /* \"#utility.yul\":2063:2090   */\n      swap2\n      pop\n        /* \"#utility.yul\":2019:2100   */\n    tag_60:\n        /* \"#utility.yul\":2147:2149   */\n      0x20\n        /* \"#utility.yul\":2139:2145   */\n      dup3\n        /* \"#utility.yul\":2136:2150   */\n      lt\n        /* \"#utility.yul\":2116:2134   */\n      dup2\n        /* \"#utility.yul\":2113:2151   */\n      eq\n        /* \"#utility.yul\":2110:2194   */\n      iszero\n      tag_61\n      jumpi\n        /* \"#utility.yul\":2166:2184   */\n      tag_62\n      tag_63\n      jump\t// in\n    tag_62:\n        /* \"#utility.yul\":2110:2194   */\n    tag_61:\n        /* \"#utility.yul\":1931:2200   */\n      pop\n        /* \"#utility.yul\":1880:2200   */\n      swap2\n      swap1\n      pop\n      jump\t// out\n        /* \"#utility.yul\":2206:2386   */\n    tag_47:\n        /* \"#utility.yul\":2254:2331   */\n      0x4e487b7100000000000000000000000000000000000000000000000000000000\n        /* \"#utility.yul\":2251:2252   */\n      0x00\n        /* \"#utility.yul\":2244:2332   */\n      mstore\n        /* \"#utility.yul\":2351:2355   */\n      0x11\n        /* \"#utility.yul\":2348:2349   */\n      0x04\n        /* \"#utility.yul\":2341:2356   */\n      mstore\n        /* \"#utility.yul\":2375:2379   */\n      0x24\n        /* \"#utility.yul\":2372:2373   */\n      0x00\n        /* \"#utility.yul\":2365:2380   */\n      revert\n        /* \"#utility.yul\":2392:2572   */\n    tag_63:\n        /* \"#utility.yul\":2440:2517   */\n      0x4e487b7100000000000000000000000000000000000000000000000000000000\n        /* \"#utility.yul\":2437:2438   */\n      0x00\n        /* \"#utility.yul\":2430:2518   */\n      mstore\n        /* \"#utility.yul\":2537:2541   */\n      0x22\n        /* \"#utility.yul\":2534:2535   */\n      0x04\n        /* \"#utility.yul\":2527:2542   */\n      mstore\n        /* \"#utility.yul\":2561:2565   */\n      0x24\n        /* \"#utility.yul\":2558:2559   */\n      0x00\n        /* \"#utility.yul\":2551:2566   */\n      revert\n        /* \"#utility.yul\":2578:2680   */\n    tag_36:\n        /* \"#utility.yul\":2619:2625   */\n      0x00\n        /* \"#utility.yul\":2670:2672   */\n      0x1f\n        /* \"#utility.yul\":2666:2673   */\n      not\n        /* \"#utility.yul\":2661:2663   */\n      0x1f\n        /* \"#utility.yul\":2654:2659   */\n      dup4\n        /* \"#utility.yul\":2650:2664   */\n      add\n        /* \"#utility.yul\":2646:2674   */\n      and\n        /* \"#utility.yul\":2636:2674   */\n      swap1\n      pop\n        /* \"#utility.yul\":2578:2680   */\n      swap2\n      swap1\n      pop\n      jump\t// out\n\n    auxdata: 0xa2646970667358221220b3b129a45f30b7d600e9cd7929afb836d3c8334872ceddcc2dc73699e7e5b62b64736f6c63430008070033\n}\n",
				"bytecode": {
					"linkReferences": {},
					"object": "60806040526000600260006101000a81548160ff02191690831515021790555034801561002b57600080fd5b506040518060600160405280602381526020016104bc602391396001908051906020019061005a929190610060565b50610164565b82805461006c90610103565b90600052602060002090601f01602090048101928261008e57600085556100d5565b82601f106100a757805160ff19168380011785556100d5565b828001600101855582156100d5579182015b828111156100d45782518255916020019190600101906100b9565b5b5090506100e291906100e6565b5090565b5b808211156100ff5760008160009055506001016100e7565b5090565b6000600282049050600182168061011b57607f821691505b6020821081141561012f5761012e610135565b5b50919050565b7f4e487b7100000000000000000000000000000000000000000000000000000000600052602260045260246000fd5b610349806101736000396000f3fe608060405234801561001057600080fd5b50600436106100415760003560e01c80632baeceb714610046578063d09de08a14610050578063e21f37ce1461005a575b600080fd5b61004e610078565b005b61005861008f565b005b6100626100a6565b60405161006f919061016d565b60405180910390f35b60016000546100879190610201565b600081905550565b600160005461009e91906101ab565b600081905550565b600180546100b390610272565b80601f01602080910402602001604051908101604052809291908181526020018280546100df90610272565b801561012c5780601f106101015761010080835404028352916020019161012c565b820191906000526020600020905b81548152906001019060200180831161010f57829003601f168201915b505050505081565b600061013f8261018f565b610149818561019a565b935061015981856020860161023f565b61016281610302565b840191505092915050565b600060208201905081810360008301526101878184610134565b905092915050565b600081519050919050565b600082825260208201905092915050565b60006101b682610235565b91506101c183610235565b9250827fffffffffffffffffffffffffffffffffffffffffffffffffffffffffffffffff038211156101f6576101f56102a4565b5b828201905092915050565b600061020c82610235565b915061021783610235565b92508282101561022a576102296102a4565b5b828203905092915050565b6000819050919050565b60005b8381101561025d578082015181840152602081019050610242565b8381111561026c576000848401525b50505050565b6000600282049050600182168061028a57607f821691505b6020821081141561029e5761029d6102d3565b5b50919050565b7f4e487b7100000000000000000000000000000000000000000000000000000000600052601160045260246000fd5b7f4e487b7100000000000000000000000000000000000000000000000000000000600052602260045260246000fd5b6000601f19601f830116905091905056fea2646970667358221220b3b129a45f30b7d600e9cd7929afb836d3c8334872ceddcc2dc73699e7e5b62b64736f6c63430008070033436f6e747261637420746f20696e6372656d656e74206f722064656372656d656e742e",
					"opcodes": "PUSH1 0x80 PUSH1 0x40 MSTORE PUSH1 0x0 PUSH1 0x2 PUSH1 0x0 PUSH2 0x100 EXP DUP2 SLOAD DUP2 PUSH1 0xFF MUL NOT AND SWAP1 DUP4 ISZERO ISZERO MUL OR SWAP1 SSTORE POP CALLVALUE DUP1 ISZERO PUSH2 0x2B JUMPI PUSH1 0x0 DUP1 REVERT JUMPDEST POP PUSH1 0x40 MLOAD DUP1 PUSH1 0x60 ADD PUSH1 0x40 MSTORE DUP1 PUSH1 0x23 DUP2 MSTORE PUSH1 0x20 ADD PUSH2 0x4BC PUSH1 0x23 SWAP2 CODECOPY PUSH1 0x1 SWAP1 DUP1 MLOAD SWAP1 PUSH1 0x20 ADD SWAP1 PUSH2 0x5A SWAP3 SWAP2 SWAP1 PUSH2 0x60 JUMP JUMPDEST POP PUSH2 0x164 JUMP JUMPDEST DUP3 DUP1 SLOAD PUSH2 0x6C SWAP1 PUSH2 0x103 JUMP JUMPDEST SWAP1 PUSH1 0x0 MSTORE PUSH1 0x20 PUSH1 0x0 KECCAK256 SWAP1 PUSH1 0x1F ADD PUSH1 0x20 SWAP1 DIV DUP2 ADD SWAP3 DUP3 PUSH2 0x8E JUMPI PUSH1 0x0 DUP6 SSTORE PUSH2 0xD5 JUMP JUMPDEST DUP3 PUSH1 0x1F LT PUSH2 0xA7 JUMPI DUP1 MLOAD PUSH1 0xFF NOT AND DUP4 DUP1 ADD OR DUP6 SSTORE PUSH2 0xD5 JUMP JUMPDEST DUP3 DUP1 ADD PUSH1 0x1 ADD DUP6 SSTORE DUP3 ISZERO PUSH2 0xD5 JUMPI SWAP2 DUP3 ADD JUMPDEST DUP3 DUP2 GT ISZERO PUSH2 0xD4 JUMPI DUP3 MLOAD DUP3 SSTORE SWAP2 PUSH1 0x20 ADD SWAP2 SWAP1 PUSH1 0x1 ADD SWAP1 PUSH2 0xB9 JUMP JUMPDEST JUMPDEST POP SWAP1 POP PUSH2 0xE2 SWAP2 SWAP1 PUSH2 0xE6 JUMP JUMPDEST POP SWAP1 JUMP JUMPDEST JUMPDEST DUP1 DUP3 GT ISZERO PUSH2 0xFF JUMPI PUSH1 0x0 DUP2 PUSH1 0x0 SWAP1 SSTORE POP PUSH1 0x1 ADD PUSH2 0xE7 JUMP JUMPDEST POP SWAP1 JUMP JUMPDEST PUSH1 0x0 PUSH1 0x2 DUP3 DIV SWAP1 POP PUSH1 0x1 DUP3 AND DUP1 PUSH2 0x11B JUMPI PUSH1 0x7F DUP3 AND SWAP2 POP JUMPDEST PUSH1 0x20 DUP3 LT DUP2 EQ ISZERO PUSH2 0x12F JUMPI PUSH2 0x12E PUSH2 0x135 JUMP JUMPDEST JUMPDEST POP SWAP2 SWAP1 POP JUMP JUMPDEST PUSH32 0x4E487B7100000000000000000000000000000000000000000000000000000000 PUSH1 0x0 MSTORE PUSH1 0x22 PUSH1 0x4 MSTORE PUSH1 0x24 PUSH1 0x0 REVERT JUMPDEST PUSH2 0x349 DUP1 PUSH2 0x173 PUSH1 0x0 CODECOPY PUSH1 0x0 RETURN INVALID PUSH1 0x80 PUSH1 0x40 MSTORE CALLVALUE DUP1 ISZERO PUSH2 0x10 JUMPI PUSH1 0x0 DUP1 REVERT JUMPDEST POP PUSH1 0x4 CALLDATASIZE LT PUSH2 0x41 JUMPI PUSH1 0x0 CALLDATALOAD PUSH1 0xE0 SHR DUP1 PUSH4 0x2BAECEB7 EQ PUSH2 0x46 JUMPI DUP1 PUSH4 0xD09DE08A EQ PUSH2 0x50 JUMPI DUP1 PUSH4 0xE21F37CE EQ PUSH2 0x5A JUMPI JUMPDEST PUSH1 0x0 DUP1 REVERT JUMPDEST PUSH2 0x4E PUSH2 0x78 JUMP JUMPDEST STOP JUMPDEST PUSH2 0x58 PUSH2 0x8F JUMP JUMPDEST STOP JUMPDEST PUSH2 0x62 PUSH2 0xA6 JUMP JUMPDEST PUSH1 0x40 MLOAD PUSH2 0x6F SWAP2 SWAP1 PUSH2 0x16D JUMP JUMPDEST PUSH1 0x40 MLOAD DUP1 SWAP2 SUB SWAP1 RETURN JUMPDEST PUSH1 0x1 PUSH1 0x0 SLOAD PUSH2 0x87 SWAP2 SWAP1 PUSH2 0x201 JUMP JUMPDEST PUSH1 0x0 DUP2 SWAP1 SSTORE POP JUMP JUMPDEST PUSH1 0x1 PUSH1 0x0 SLOAD PUSH2 0x9E SWAP2 SWAP1 PUSH2 0x1AB JUMP JUMPDEST PUSH1 0x0 DUP2 SWAP1 SSTORE POP JUMP JUMPDEST PUSH1 0x1 DUP1 SLOAD PUSH2 0xB3 SWAP1 PUSH2 0x272 JUMP JUMPDEST DUP1 PUSH1 0x1F ADD PUSH1 0x20 DUP1 SWAP2 DIV MUL PUSH1 0x20 ADD PUSH1 0x40 MLOAD SWAP1 DUP2 ADD PUSH1 0x40 MSTORE DUP1 SWAP3 SWAP2 SWAP1 DUP2 DUP2 MSTORE PUSH1 0x20 ADD DUP3 DUP1 SLOAD PUSH2 0xDF SWAP1 PUSH2 0x272 JUMP JUMPDEST DUP1 ISZERO PUSH2 0x12C JUMPI DUP1 PUSH1 0x1F LT PUSH2 0x101 JUMPI PUSH2 0x100 DUP1 DUP4 SLOAD DIV MUL DUP4 MSTORE SWAP2 PUSH1 0x20 ADD SWAP2 PUSH2 0x12C JUMP JUMPDEST DUP3 ADD SWAP2 SWAP1 PUSH1 0x0 MSTORE PUSH1 0x20 PUSH1 0x0 KECCAK256 SWAP1 JUMPDEST DUP2 SLOAD DUP2 MSTORE SWAP1 PUSH1 0x1 ADD SWAP1 PUSH1 0x20 ADD DUP1 DUP4 GT PUSH2 0x10F JUMPI DUP3 SWAP1 SUB PUSH1 0x1F AND DUP3 ADD SWAP2 JUMPDEST POP POP POP POP POP DUP2 JUMP JUMPDEST PUSH1 0x0 PUSH2 0x13F DUP3 PUSH2 0x18F JUMP JUMPDEST PUSH2 0x149 DUP2 DUP6 PUSH2 0x19A JUMP JUMPDEST SWAP4 POP PUSH2 0x159 DUP2 DUP6 PUSH1 0x20 DUP7 ADD PUSH2 0x23F JUMP JUMPDEST PUSH2 0x162 DUP2 PUSH2 0x302 JUMP JUMPDEST DUP5 ADD SWAP2 POP POP SWAP3 SWAP2 POP POP JUMP JUMPDEST PUSH1 0x0 PUSH1 0x20 DUP3 ADD SWAP1 POP DUP2 DUP2 SUB PUSH1 0x0 DUP4 ADD MSTORE PUSH2 0x187 DUP2 DUP5 PUSH2 0x134 JUMP JUMPDEST SWAP1 POP SWAP3 SWAP2 POP POP JUMP JUMPDEST PUSH1 0x0 DUP2 MLOAD SWAP1 POP SWAP2 SWAP1 POP JUMP JUMPDEST PUSH1 0x0 DUP3 DUP3 MSTORE PUSH1 0x20 DUP3 ADD SWAP1 POP SWAP3 SWAP2 POP POP JUMP JUMPDEST PUSH1 0x0 PUSH2 0x1B6 DUP3 PUSH2 0x235 JUMP JUMPDEST SWAP2 POP PUSH2 0x1C1 DUP4 PUSH2 0x235 JUMP JUMPDEST SWAP3 POP DUP3 PUSH32 0xFFFFFFFFFFFFFFFFFFFFFFFFFFFFFFFFFFFFFFFFFFFFFFFFFFFFFFFFFFFFFFFF SUB DUP3 GT ISZERO PUSH2 0x1F6 JUMPI PUSH2 0x1F5 PUSH2 0x2A4 JUMP JUMPDEST JUMPDEST DUP3 DUP3 ADD SWAP1 POP SWAP3 SWAP2 POP POP JUMP JUMPDEST PUSH1 0x0 PUSH2 0x20C DUP3 PUSH2 0x235 JUMP JUMPDEST SWAP2 POP PUSH2 0x217 DUP4 PUSH2 0x235 JUMP JUMPDEST SWAP3 POP DUP3 DUP3 LT ISZERO PUSH2 0x22A JUMPI PUSH2 0x229 PUSH2 0x2A4 JUMP JUMPDEST JUMPDEST DUP3 DUP3 SUB SWAP1 POP SWAP3 SWAP2 POP POP JUMP JUMPDEST PUSH1 0x0 DUP2 SWAP1 POP SWAP2 SWAP1 POP JUMP JUMPDEST PUSH1 0x0 JUMPDEST DUP4 DUP2 LT ISZERO PUSH2 0x25D JUMPI DUP1 DUP3 ADD MLOAD DUP2 DUP5 ADD MSTORE PUSH1 0x20 DUP2 ADD SWAP1 POP PUSH2 0x242 JUMP JUMPDEST DUP4 DUP2 GT ISZERO PUSH2 0x26C JUMPI PUSH1 0x0 DUP5 DUP5 ADD MSTORE JUMPDEST POP POP POP POP JUMP JUMPDEST PUSH1 0x0 PUSH1 0x2 DUP3 DIV SWAP1 POP PUSH1 0x1 DUP3 AND DUP1 PUSH2 0x28A JUMPI PUSH1 0x7F DUP3 AND SWAP2 POP JUMPDEST PUSH1 0x20 DUP3 LT DUP2 EQ ISZERO PUSH2 0x29E JUMPI PUSH2 0x29D PUSH2 0x2D3 JUMP JUMPDEST JUMPDEST POP SWAP2 SWAP1 POP JUMP JUMPDEST PUSH32 0x4E487B7100000000000000000000000000000000000000000000000000000000 PUSH1 0x0 MSTORE PUSH1 0x11 PUSH1 0x4 MSTORE PUSH1 0x24 PUSH1 0x0 REVERT JUMPDEST PUSH32 0x4E487B7100000000000000000000000000000000000000000000000000000000 PUSH1 0x0 MSTORE PUSH1 0x22 PUSH1 0x4 MSTORE PUSH1 0x24 PUSH1 0x0 REVERT JUMPDEST PUSH1 0x0 PUSH1 0x1F NOT PUSH1 0x1F DUP4 ADD AND SWAP1 POP SWAP2 SWAP1 POP JUMP INVALID LOG2 PUSH5 0x6970667358 0x22 SLT KECCAK256 0xB3 0xB1 0x29 LOG4 0x5F ADDRESS 0xB7 0xD6 STOP 0xE9 0xCD PUSH26 0x29AFB836D3C8334872CEDDCC2DC73699E7E5B62B64736F6C6343 STOP ADDMOD SMOD STOP CALLER NUMBER PUSH16 0x6E747261637420746F20696E6372656D PUSH6 0x6E74206F7220 PUSH5 0x656372656D PUSH6 0x6E742E000000 "
				},
				"gasEstimates": {
					"creation": {
						"codeDepositCost": "168200",
						"executionCost": "infinite",
						"totalCost": "infinite"
					},
					"external": {
						"decrement()": "infinite",
						"increment()": "infinite",
						"message()": "infinite"
					}
				},
				"methodIdentifiers": {
					"decrement()": "2baeceb7",
					"increment()": "d09de08a",
					"message()": "e21f37ce"
				}
			},
			"storageLayout": {
				"storage": [
					{
						"astId": 3,
						"contract": "contracts/Types.sol:Types",
						"label": "count",
						"offset": 0,
						"slot": "0",
						"type": "t_uint256"
					},
					{
						"astId": 5,
						"contract": "contracts/Types.sol:Types",
						"label": "message",
						"offset": 0,
						"slot": "1",
						"type": "t_string_storage"
					},
					{
						"astId": 8,
						"contract": "contracts/Types.sol:Types",
						"label": "below1",
						"offset": 0,
						"slot": "2",
						"type": "t_bool"
					}
				],
				"types": {
					"t_bool": {
						"encoding": "inplace",
						"label": "bool",
						"numberOfBytes": "1"
					},
					"t_string_storage": {
						"encoding": "bytes",
						"label": "string",
						"numberOfBytes": "32"
					},
					"t_uint256": {
						"encoding": "inplace",
						"label": "uint256",
						"numberOfBytes": "32"
					}
				}
			},
			"userdoc": {
				"kind": "user",
				"methods": {},
				"version": 1
			}
		}
	}
}