{
	"contracts/Counter.sol": {
		"Counter": {
			"abi": [
				{
					"inputs": [],
					"name": "count",
					"outputs": [
						{
							"internalType": "uint256",
							"name": "",
							"type": "uint256"
						}
					],
					"stateMutability": "view",
					"type": "function"
				},
				{
					"inputs": [
						{
							"internalType": "uint256",
							"name": "value",
							"type": "uint256"
						}
					],
					"name": "decrement",
					"outputs": [],
					"stateMutability": "nonpayable",
					"type": "function"
				},
				{
					"inputs": [
						{
							"internalType": "uint256",
							"name": "value",
							"type": "uint256"
						}
					],
					"name": "increment",
					"outputs": [],
					"stateMutability": "nonpayable",
					"type": "function"
				}
			],
			"devdoc": {
				"kind": "dev",
				"methods": {},
				"version": 1
			},
			"evm": {
				"assembly": "    /* \"contracts/Counter.sol\":76:878  contract Counter {\r... */\n  mstore(0x40, 0x80)\n  callvalue\n  dup1\n  iszero\n  tag_1\n  jumpi\n  0x00\n  dup1\n  revert\ntag_1:\n  pop\n  dataSize(sub_0)\n  dup1\n  dataOffset(sub_0)\n  0x00\n  codecopy\n  0x00\n  return\nstop\n\nsub_0: assembly {\n        /* \"contracts/Counter.sol\":76:878  contract Counter {\r... */\n      mstore(0x40, 0x80)\n      callvalue\n      dup1\n      iszero\n      tag_1\n      jumpi\n      0x00\n      dup1\n      revert\n    tag_1:\n      pop\n      jumpi(tag_2, lt(calldatasize, 0x04))\n      shr(0xe0, calldataload(0x00))\n      dup1\n      0x06661abd\n      eq\n      tag_3\n      jumpi\n      dup1\n      0x3a9ebefd\n      eq\n      tag_4\n      jumpi\n      dup1\n      0x7cf5dab0\n      eq\n      tag_5\n      jumpi\n    tag_2:\n      0x00\n      dup1\n      revert\n        /* \"contracts/Counter.sol\":100:120  uint256 public count */\n    tag_3:\n      tag_6\n      tag_7\n      jump\t// in\n    tag_6:\n      mload(0x40)\n      tag_8\n      swap2\n      swap1\n      tag_9\n      jump\t// in\n    tag_8:\n      mload(0x40)\n      dup1\n      swap2\n      sub\n      swap1\n      return\n        /* \"contracts/Counter.sol\":332:433  function decrement(uint256 value) public isLessThan10(value) {\r... */\n    tag_4:\n      tag_10\n      0x04\n      dup1\n      calldatasize\n      sub\n      dup2\n      add\n      swap1\n      tag_11\n      swap2\n      swap1\n      tag_12\n      jump\t// in\n    tag_11:\n      tag_13\n      jump\t// in\n    tag_10:\n      stop\n        /* \"contracts/Counter.sol\":129:230  function increment(uint256 value) public isLessThan10(value) {\r... */\n    tag_5:\n      tag_14\n      0x04\n      dup1\n      calldatasize\n      sub\n      dup2\n      add\n      swap1\n      tag_15\n      swap2\n      swap1\n      tag_12\n      jump\t// in\n    tag_15:\n      tag_16\n      jump\t// in\n    tag_14:\n      stop\n        /* \"contracts/Counter.sol\":100:120  uint256 public count */\n    tag_7:\n      sload(0x00)\n      dup2\n      jump\t// out\n        /* \"contracts/Counter.sol\":332:433  function decrement(uint256 value) public isLessThan10(value) {\r... */\n    tag_13:\n        /* \"contracts/Counter.sol\":386:391  value */\n      dup1\n        /* \"contracts/Counter.sol\":751:753  10 */\n      0x0a\n        /* \"contracts/Counter.sol\":742:747  value */\n      dup2\n        /* \"contracts/Counter.sol\":742:753  value <= 10 */\n      gt\n      iszero\n        /* \"contracts/Counter.sol\":734:787  require(value <= 10, 'value cannot be more than 10.') */\n      tag_18\n      jumpi\n      mload(0x40)\n      0x08c379a000000000000000000000000000000000000000000000000000000000\n      dup2\n      mstore\n      0x04\n      add\n      tag_19\n      swap1\n      tag_20\n      jump\t// in\n    tag_19:\n      mload(0x40)\n      dup1\n      swap2\n      sub\n      swap1\n      revert\n    tag_18:\n        /* \"contracts/Counter.sol\":420:425  value */\n      dup2\n        /* \"contracts/Counter.sol\":412:417  count */\n      sload(0x00)\n        /* \"contracts/Counter.sol\":412:425  count - value */\n      tag_22\n      swap2\n      swap1\n      tag_23\n      jump\t// in\n    tag_22:\n        /* \"contracts/Counter.sol\":404:409  count */\n      0x00\n        /* \"contracts/Counter.sol\":404:425  count = count - value */\n      dup2\n      swap1\n      sstore\n      pop\n        /* \"contracts/Counter.sol\":332:433  function decrement(uint256 value) public isLessThan10(value) {\r... */\n      pop\n      pop\n      jump\t// out\n        /* \"contracts/Counter.sol\":129:230  function increment(uint256 value) public isLessThan10(value) {\r... */\n    tag_16:\n        /* \"contracts/Counter.sol\":183:188  value */\n      dup1\n        /* \"contracts/Counter.sol\":751:753  10 */\n      0x0a\n        /* \"contracts/Counter.sol\":742:747  value */\n      dup2\n        /* \"contracts/Counter.sol\":742:753  value <= 10 */\n      gt\n      iszero\n        /* \"contracts/Counter.sol\":734:787  require(value <= 10, 'value cannot be more than 10.') */\n      tag_25\n      jumpi\n      mload(0x40)\n      0x08c379a000000000000000000000000000000000000000000000000000000000\n      dup2\n      mstore\n      0x04\n      add\n      tag_26\n      swap1\n      tag_20\n      jump\t// in\n    tag_26:\n      mload(0x40)\n      dup1\n      swap2\n      sub\n      swap1\n      revert\n    tag_25:\n        /* \"contracts/Counter.sol\":217:222  value */\n      dup2\n        /* \"contracts/Counter.sol\":209:214  count */\n      sload(0x00)\n        /* \"contracts/Counter.sol\":209:222  count + value */\n      tag_28\n      swap2\n      swap1\n      tag_29\n      jump\t// in\n    tag_28:\n        /* \"contracts/Counter.sol\":201:206  count */\n      0x00\n        /* \"contracts/Counter.sol\":201:222  count = count + value */\n      dup2\n      swap1\n      sstore\n      pop\n        /* \"contracts/Counter.sol\":129:230  function increment(uint256 value) public isLessThan10(value) {\r... */\n      pop\n      pop\n      jump\t// out\n        /* \"#utility.yul\":7:146   */\n    tag_31:\n        /* \"#utility.yul\":53:58   */\n      0x00\n        /* \"#utility.yul\":91:97   */\n      dup2\n        /* \"#utility.yul\":78:98   */\n      calldataload\n        /* \"#utility.yul\":69:98   */\n      swap1\n      pop\n        /* \"#utility.yul\":107:140   */\n      tag_33\n        /* \"#utility.yul\":134:139   */\n      dup2\n        /* \"#utility.yul\":107:140   */\n      tag_34\n      jump\t// in\n    tag_33:\n        /* \"#utility.yul\":7:146   */\n      swap3\n      swap2\n      pop\n      pop\n      jump\t// out\n        /* \"#utility.yul\":152:481   */\n    tag_12:\n        /* \"#utility.yul\":211:217   */\n      0x00\n        /* \"#utility.yul\":260:262   */\n      0x20\n        /* \"#utility.yul\":248:257   */\n      dup3\n        /* \"#utility.yul\":239:246   */\n      dup5\n        /* \"#utility.yul\":235:258   */\n      sub\n        /* \"#utility.yul\":231:263   */\n      slt\n        /* \"#utility.yul\":228:347   */\n      iszero\n      tag_36\n      jumpi\n        /* \"#utility.yul\":266:345   */\n      tag_37\n      tag_38\n      jump\t// in\n    tag_37:\n        /* \"#utility.yul\":228:347   */\n    tag_36:\n        /* \"#utility.yul\":386:387   */\n      0x00\n        /* \"#utility.yul\":411:464   */\n      tag_39\n        /* \"#utility.yul\":456:463   */\n      dup5\n        /* \"#utility.yul\":447:453   */\n      dup3\n        /* \"#utility.yul\":436:445   */\n      dup6\n        /* \"#utility.yul\":432:454   */\n      add\n        /* \"#utility.yul\":411:464   */\n      tag_31\n      jump\t// in\n    tag_39:\n        /* \"#utility.yul\":401:464   */\n      swap2\n      pop\n        /* \"#utility.yul\":357:474   */\n      pop\n        /* \"#utility.yul\":152:481   */\n      swap3\n      swap2\n      pop\n      pop\n      jump\t// out\n        /* \"#utility.yul\":487:853   */\n    tag_40:\n        /* \"#utility.yul\":629:632   */\n      0x00\n        /* \"#utility.yul\":650:717   */\n      tag_42\n        /* \"#utility.yul\":714:716   */\n      0x1d\n        /* \"#utility.yul\":709:712   */\n      dup4\n        /* \"#utility.yul\":650:717   */\n      tag_43\n      jump\t// in\n    tag_42:\n        /* \"#utility.yul\":643:717   */\n      swap2\n      pop\n        /* \"#utility.yul\":726:819   */\n      tag_44\n        /* \"#utility.yul\":815:818   */\n      dup3\n        /* \"#utility.yul\":726:819   */\n      tag_45\n      jump\t// in\n    tag_44:\n        /* \"#utility.yul\":844:846   */\n      0x20\n        /* \"#utility.yul\":839:842   */\n      dup3\n        /* \"#utility.yul\":835:847   */\n      add\n        /* \"#utility.yul\":828:847   */\n      swap1\n      pop\n        /* \"#utility.yul\":487:853   */\n      swap2\n      swap1\n      pop\n      jump\t// out\n        /* \"#utility.yul\":859:977   */\n    tag_46:\n        /* \"#utility.yul\":946:970   */\n      tag_48\n        /* \"#utility.yul\":964:969   */\n      dup2\n        /* \"#utility.yul\":946:970   */\n      tag_49\n      jump\t// in\n    tag_48:\n        /* \"#utility.yul\":941:944   */\n      dup3\n        /* \"#utility.yul\":934:971   */\n      mstore\n        /* \"#utility.yul\":859:977   */\n      pop\n      pop\n      jump\t// out\n        /* \"#utility.yul\":983:1402   */\n    tag_20:\n        /* \"#utility.yul\":1149:1153   */\n      0x00\n        /* \"#utility.yul\":1187:1189   */\n      0x20\n        /* \"#utility.yul\":1176:1185   */\n      dup3\n        /* \"#utility.yul\":1172:1190   */\n      add\n        /* \"#utility.yul\":1164:1190   */\n      swap1\n      pop\n        /* \"#utility.yul\":1236:1245   */\n      dup2\n        /* \"#utility.yul\":1230:1234   */\n      dup2\n        /* \"#utility.yul\":1226:1246   */\n      sub\n        /* \"#utility.yul\":1222:1223   */\n      0x00\n        /* \"#utility.yul\":1211:1220   */\n      dup4\n        /* \"#utility.yul\":1207:1224   */\n      add\n        /* \"#utility.yul\":1200:1247   */\n      mstore\n        /* \"#utility.yul\":1264:1395   */\n      tag_51\n        /* \"#utility.yul\":1390:1394   */\n      dup2\n        /* \"#utility.yul\":1264:1395   */\n      tag_40\n      jump\t// in\n    tag_51:\n        /* \"#utility.yul\":1256:1395   */\n      swap1\n      pop\n        /* \"#utility.yul\":983:1402   */\n      swap2\n      swap1\n      pop\n      jump\t// out\n        /* \"#utility.yul\":1408:1630   */\n    tag_9:\n        /* \"#utility.yul\":1501:1505   */\n      0x00\n        /* \"#utility.yul\":1539:1541   */\n      0x20\n        /* \"#utility.yul\":1528:1537   */\n      dup3\n        /* \"#utility.yul\":1524:1542   */\n      add\n        /* \"#utility.yul\":1516:1542   */\n      swap1\n      pop\n        /* \"#utility.yul\":1552:1623   */\n      tag_53\n        /* \"#utility.yul\":1620:1621   */\n      0x00\n        /* \"#utility.yul\":1609:1618   */\n      dup4\n        /* \"#utility.yul\":1605:1622   */\n      add\n        /* \"#utility.yul\":1596:1602   */\n      dup5\n        /* \"#utility.yul\":1552:1623   */\n      tag_46\n      jump\t// in\n    tag_53:\n        /* \"#utility.yul\":1408:1630   */\n      swap3\n      swap2\n      pop\n      pop\n      jump\t// out\n        /* \"#utility.yul\":1717:1886   */\n    tag_43:\n        /* \"#utility.yul\":1801:1812   */\n      0x00\n        /* \"#utility.yul\":1835:1841   */\n      dup3\n        /* \"#utility.yul\":1830:1833   */\n      dup3\n        /* \"#utility.yul\":1823:1842   */\n      mstore\n        /* \"#utility.yul\":1875:1879   */\n      0x20\n        /* \"#utility.yul\":1870:1873   */\n      dup3\n        /* \"#utility.yul\":1866:1880   */\n      add\n        /* \"#utility.yul\":1851:1880   */\n      swap1\n      pop\n        /* \"#utility.yul\":1717:1886   */\n      swap3\n      swap2\n      pop\n      pop\n      jump\t// out\n        /* \"#utility.yul\":1892:2197   */\n    tag_29:\n        /* \"#utility.yul\":1932:1935   */\n      0x00\n        /* \"#utility.yul\":1951:1971   */\n      tag_58\n        /* \"#utility.yul\":1969:1970   */\n      dup3\n        /* \"#utility.yul\":1951:1971   */\n      tag_49\n      jump\t// in\n    tag_58:\n        /* \"#utility.yul\":1946:1971   */\n      swap2\n      pop\n        /* \"#utility.yul\":1985:2005   */\n      tag_59\n        /* \"#utility.yul\":2003:2004   */\n      dup4\n        /* \"#utility.yul\":1985:2005   */\n      tag_49\n      jump\t// in\n    tag_59:\n        /* \"#utility.yul\":1980:2005   */\n      swap3\n      pop\n        /* \"#utility.yul\":2139:2140   */\n      dup3\n        /* \"#utility.yul\":2071:2137   */\n      0xffffffffffffffffffffffffffffffffffffffffffffffffffffffffffffffff\n        /* \"#utility.yul\":2067:2141   */\n      sub\n        /* \"#utility.yul\":2064:2065   */\n      dup3\n        /* \"#utility.yul\":2061:2142   */\n      gt\n        /* \"#utility.yul\":2058:2165   */\n      iszero\n      tag_60\n      jumpi\n        /* \"#utility.yul\":2145:2163   */\n      tag_61\n      tag_62\n      jump\t// in\n    tag_61:\n        /* \"#utility.yul\":2058:2165   */\n    tag_60:\n        /* \"#utility.yul\":2189:2190   */\n      dup3\n        /* \"#utility.yul\":2186:2187   */\n      dup3\n        /* \"#utility.yul\":2182:2191   */\n      add\n        /* \"#utility.yul\":2175:2191   */\n      swap1\n      pop\n        /* \"#utility.yul\":1892:2197   */\n      swap3\n      swap2\n      pop\n      pop\n      jump\t// out\n        /* \"#utility.yul\":2203:2394   */\n    tag_23:\n        /* \"#utility.yul\":2243:2247   */\n      0x00\n        /* \"#utility.yul\":2263:2283   */\n      tag_64\n        /* \"#utility.yul\":2281:2282   */\n      dup3\n        /* \"#utility.yul\":2263:2283   */\n      tag_49\n      jump\t// in\n    tag_64:\n        /* \"#utility.yul\":2258:2283   */\n      swap2\n      pop\n        /* \"#utility.yul\":2297:2317   */\n      tag_65\n        /* \"#utility.yul\":2315:2316   */\n      dup4\n        /* \"#utility.yul\":2297:2317   */\n      tag_49\n      jump\t// in\n    tag_65:\n        /* \"#utility.yul\":2292:2317   */\n      swap3\n      pop\n        /* \"#utility.yul\":2336:2337   */\n      dup3\n        /* \"#utility.yul\":2333:2334   */\n      dup3\n        /* \"#utility.yul\":2330:2338   */\n      lt\n        /* \"#utility.yul\":2327:2361   */\n      iszero\n      tag_66\n      jumpi\n        /* \"#utility.yul\":2341:2359   */\n      tag_67\n      tag_62\n      jump\t// in\n    tag_67:\n        /* \"#utility.yul\":2327:2361   */\n    tag_66:\n        /* \"#utility.yul\":2386:2387   */\n      dup3\n        /* \"#utility.yul\":2383:2384   */\n      dup3\n        /* \"#utility.yul\":2379:2388   */\n      sub\n        /* \"#utility.yul\":2371:2388   */\n      swap1\n      pop\n        /* \"#utility.yul\":2203:2394   */\n      swap3\n      swap2\n      pop\n      pop\n      jump\t// out\n        /* \"#utility.yul\":2400:2477   */\n    tag_49:\n        /* \"#utility.yul\":2437:2444   */\n      0x00\n        /* \"#utility.yul\":2466:2471   */\n      dup2\n        /* \"#utility.yul\":2455:2471   */\n      swap1\n      pop\n        /* \"#utility.yul\":2400:2477   */\n      swap2\n      swap1\n      pop\n      jump\t// out\n        /* \"#utility.yul\":2483:2663   */\n    tag_62:\n        /* \"#utility.yul\":2531:2608   */\n      0x4e487b7100000000000000000000000000000000000000000000000000000000\n        /* \"#utility.yul\":2528:2529   */\n      0x00\n        /* \"#utility.yul\":2521:2609   */\n      mstore\n        /* \"#utility.yul\":2628:2632   */\n      0x11\n        /* \"#utility.yul\":2625:2626   */\n      0x04\n        /* \"#utility.yul\":2618:2633   */\n      mstore\n        /* \"#utility.yul\":2652:2656   */\n      0x24\n        /* \"#utility.yul\":2649:2650   */\n      0x00\n        /* \"#utility.yul\":2642:2657   */\n      revert\n        /* \"#utility.yul\":2792:2909   */\n    tag_38:\n        /* \"#utility.yul\":2901:2902   */\n      0x00\n        /* \"#utility.yul\":2898:2899   */\n      dup1\n        /* \"#utility.yul\":2891:2903   */\n      revert\n        /* \"#utility.yul\":2915:3094   */\n    tag_45:\n        /* \"#utility.yul\":3055:3086   */\n      0x76616c75652063616e6e6f74206265206d6f7265207468616e2031302e000000\n        /* \"#utility.yul\":3051:3052   */\n      0x00\n        /* \"#utility.yul\":3043:3049   */\n      dup3\n        /* \"#utility.yul\":3039:3053   */\n      add\n        /* \"#utility.yul\":3032:3087   */\n      mstore\n        /* \"#utility.yul\":2915:3094   */\n      pop\n      jump\t// out\n        /* \"#utility.yul\":3100:3222   */\n    tag_34:\n        /* \"#utility.yul\":3173:3197   */\n      tag_75\n        /* \"#utility.yul\":3191:3196   */\n      dup2\n        /* \"#utility.yul\":3173:3197   */\n      tag_49\n      jump\t// in\n    tag_75:\n        /* \"#utility.yul\":3166:3171   */\n      dup2\n        /* \"#utility.yul\":3163:3198   */\n      eq\n        /* \"#utility.yul\":3153:3216   */\n      tag_76\n      jumpi\n        /* \"#utility.yul\":3212:3213   */\n      0x00\n        /* \"#utility.yul\":3209:3210   */\n      dup1\n        /* \"#utility.yul\":3202:3214   */\n      revert\n        /* \"#utility.yul\":3153:3216   */\n    tag_76:\n        /* \"#utility.yul\":3100:3222   */\n      pop\n      jump\t// out\n\n    auxdata: 0xa264697066735822122060188812dc55c8649226678c529f44bf8e6a520850af0487bfc37d32b481777364736f6c63430008070033\n}\n",
				"bytecode": {
					"linkReferences": {},
					"object": "608060405234801561001057600080fd5b5061035a806100206000396000f3fe608060405234801561001057600080fd5b50600436106100415760003560e01c806306661abd146100465780633a9ebefd146100645780637cf5dab014610080575b600080fd5b61004e61009c565b60405161005b91906101f0565b60405180910390f35b61007e60048036038101906100799190610171565b6100a2565b005b61009a60048036038101906100959190610171565b6100ff565b005b60005481565b80600a8111156100e7576040517f08c379a00000000000000000000000000000000000000000000000000000000081526004016100de906101d0565b60405180910390fd5b816000546100f59190610272565b6000819055505050565b80600a811115610144576040517f08c379a000000000000000000000000000000000000000000000000000000000815260040161013b906101d0565b60405180910390fd5b81600054610152919061021c565b6000819055505050565b60008135905061016b8161030d565b92915050565b600060208284031215610187576101866102df565b5b60006101958482850161015c565b91505092915050565b60006101ab601d8361020b565b91506101b6826102e4565b602082019050919050565b6101ca816102a6565b82525050565b600060208201905081810360008301526101e98161019e565b9050919050565b600060208201905061020560008301846101c1565b92915050565b600082825260208201905092915050565b6000610227826102a6565b9150610232836102a6565b9250827fffffffffffffffffffffffffffffffffffffffffffffffffffffffffffffffff03821115610267576102666102b0565b5b828201905092915050565b600061027d826102a6565b9150610288836102a6565b92508282101561029b5761029a6102b0565b5b828203905092915050565b6000819050919050565b7f4e487b7100000000000000000000000000000000000000000000000000000000600052601160045260246000fd5b600080fd5b7f76616c75652063616e6e6f74206265206d6f7265207468616e2031302e000000600082015250565b610316816102a6565b811461032157600080fd5b5056fea264697066735822122060188812dc55c8649226678c529f44bf8e6a520850af0487bfc37d32b481777364736f6c63430008070033",
					"opcodes": "PUSH1 0x80 PUSH1 0x40 MSTORE CALLVALUE DUP1 ISZERO PUSH2 0x10 JUMPI PUSH1 0x0 DUP1 REVERT JUMPDEST POP PUSH2 0x35A DUP1 PUSH2 0x20 PUSH1 0x0 CODECOPY PUSH1 0x0 RETURN INVALID PUSH1 0x80 PUSH1 0x40 MSTORE CALLVALUE DUP1 ISZERO PUSH2 0x10 JUMPI PUSH1 0x0 DUP1 REVERT JUMPDEST POP PUSH1 0x4 CALLDATASIZE LT PUSH2 0x41 JUMPI PUSH1 0x0 CALLDATALOAD PUSH1 0xE0 SHR DUP1 PUSH4 0x6661ABD EQ PUSH2 0x46 JUMPI DUP1 PUSH4 0x3A9EBEFD EQ PUSH2 0x64 JUMPI DUP1 PUSH4 0x7CF5DAB0 EQ PUSH2 0x80 JUMPI JUMPDEST PUSH1 0x0 DUP1 REVERT JUMPDEST PUSH2 0x4E PUSH2 0x9C JUMP JUMPDEST PUSH1 0x40 MLOAD PUSH2 0x5B SWAP2 SWAP1 PUSH2 0x1F0 JUMP JUMPDEST PUSH1 0x40 MLOAD DUP1 SWAP2 SUB SWAP1 RETURN JUMPDEST PUSH2 0x7E PUSH1 0x4 DUP1 CALLDATASIZE SUB DUP2 ADD SWAP1 PUSH2 0x79 SWAP2 SWAP1 PUSH2 0x171 JUMP JUMPDEST PUSH2 0xA2 JUMP JUMPDEST STOP JUMPDEST PUSH2 0x9A PUSH1 0x4 DUP1 CALLDATASIZE SUB DUP2 ADD SWAP1 PUSH2 0x95 SWAP2 SWAP1 PUSH2 0x171 JUMP JUMPDEST PUSH2 0xFF JUMP JUMPDEST STOP JUMPDEST PUSH1 0x0 SLOAD DUP2 JUMP JUMPDEST DUP1 PUSH1 0xA DUP2 GT ISZERO PUSH2 0xE7 JUMPI PUSH1 0x40 MLOAD PUSH32 0x8C379A000000000000000000000000000000000000000000000000000000000 DUP2 MSTORE PUSH1 0x4 ADD PUSH2 0xDE SWAP1 PUSH2 0x1D0 JUMP JUMPDEST PUSH1 0x40 MLOAD DUP1 SWAP2 SUB SWAP1 REVERT JUMPDEST DUP2 PUSH1 0x0 SLOAD PUSH2 0xF5 SWAP2 SWAP1 PUSH2 0x272 JUMP JUMPDEST PUSH1 0x0 DUP2 SWAP1 SSTORE POP POP POP JUMP JUMPDEST DUP1 PUSH1 0xA DUP2 GT ISZERO PUSH2 0x144 JUMPI PUSH1 0x40 MLOAD PUSH32 0x8C379A000000000000000000000000000000000000000000000000000000000 DUP2 MSTORE PUSH1 0x4 ADD PUSH2 0x13B SWAP1 PUSH2 0x1D0 JUMP JUMPDEST PUSH1 0x40 MLOAD DUP1 SWAP2 SUB SWAP1 REVERT JUMPDEST DUP2 PUSH1 0x0 SLOAD PUSH2 0x152 SWAP2 SWAP1 PUSH2 0x21C JUMP JUMPDEST PUSH1 0x0 DUP2 SWAP1 SSTORE POP POP POP JUMP JUMPDEST PUSH1 0x0 DUP2 CALLDATALOAD SWAP1 POP PUSH2 0x16B DUP2 PUSH2 0x30D JUMP JUMPDEST SWAP3 SWAP2 POP POP JUMP JUMPDEST PUSH1 0x0 PUSH1 0x20 DUP3 DUP5 SUB SLT ISZERO PUSH2 0x187 JUMPI PUSH2 0x186 PUSH2 0x2DF JUMP JUMPDEST JUMPDEST PUSH1 0x0 PUSH2 0x195 DUP5 DUP3 DUP6 ADD PUSH2 0x15C JUMP JUMPDEST SWAP2 POP POP SWAP3 SWAP2 POP POP JUMP JUMPDEST PUSH1 0x0 PUSH2 0x1AB PUSH1 0x1D DUP4 PUSH2 0x20B JUMP JUMPDEST SWAP2 POP PUSH2 0x1B6 DUP3 PUSH2 0x2E4 JUMP JUMPDEST PUSH1 0x20 DUP3 ADD SWAP1 POP SWAP2 SWAP1 POP JUMP JUMPDEST PUSH2 0x1CA DUP2 PUSH2 0x2A6 JUMP JUMPDEST DUP3 MSTORE POP POP JUMP JUMPDEST PUSH1 0x0 PUSH1 0x20 DUP3 ADD SWAP1 POP DUP2 DUP2 SUB PUSH1 0x0 DUP4 ADD MSTORE PUSH2 0x1E9 DUP2 PUSH2 0x19E JUMP JUMPDEST SWAP1 POP SWAP2 SWAP1 POP JUMP JUMPDEST PUSH1 0x0 PUSH1 0x20 DUP3 ADD SWAP1 POP PUSH2 0x205 PUSH1 0x0 DUP4 ADD DUP5 PUSH2 0x1C1 JUMP JUMPDEST SWAP3 SWAP2 POP POP JUMP JUMPDEST PUSH1 0x0 DUP3 DUP3 MSTORE PUSH1 0x20 DUP3 ADD SWAP1 POP SWAP3 SWAP2 POP POP JUMP JUMPDEST PUSH1 0x0 PUSH2 0x227 DUP3 PUSH2 0x2A6 JUMP JUMPDEST SWAP2 POP PUSH2 0x232 DUP4 PUSH2 0x2A6 JUMP JUMPDEST SWAP3 POP DUP3 PUSH32 0xFFFFFFFFFFFFFFFFFFFFFFFFFFFFFFFFFFFFFFFFFFFFFFFFFFFFFFFFFFFFFFFF SUB DUP3 GT ISZERO PUSH2 0x267 JUMPI PUSH2 0x266 PUSH2 0x2B0 JUMP JUMPDEST JUMPDEST DUP3 DUP3 ADD SWAP1 POP SWAP3 SWAP2 POP POP JUMP JUMPDEST PUSH1 0x0 PUSH2 0x27D DUP3 PUSH2 0x2A6 JUMP JUMPDEST SWAP2 POP PUSH2 0x288 DUP4 PUSH2 0x2A6 JUMP JUMPDEST SWAP3 POP DUP3 DUP3 LT ISZERO PUSH2 0x29B JUMPI PUSH2 0x29A PUSH2 0x2B0 JUMP JUMPDEST JUMPDEST DUP3 DUP3 SUB SWAP1 POP SWAP3 SWAP2 POP POP JUMP JUMPDEST PUSH1 0x0 DUP2 SWAP1 POP SWAP2 SWAP1 POP JUMP JUMPDEST PUSH32 0x4E487B7100000000000000000000000000000000000000000000000000000000 PUSH1 0x0 MSTORE PUSH1 0x11 PUSH1 0x4 MSTORE PUSH1 0x24 PUSH1 0x0 REVERT JUMPDEST PUSH1 0x0 DUP1 REVERT JUMPDEST PUSH32 0x76616C75652063616E6E6F74206265206D6F7265207468616E2031302E000000 PUSH1 0x0 DUP3 ADD MSTORE POP JUMP JUMPDEST PUSH2 0x316 DUP2 PUSH2 0x2A6 JUMP JUMPDEST DUP2 EQ PUSH2 0x321 JUMPI PUSH1 0x0 DUP1 REVERT JUMPDEST POP JUMP INVALID LOG2 PUSH5 0x6970667358 0x22 SLT KECCAK256 PUSH1 0x18 DUP9 SLT 0xDC SSTORE 0xC8 PUSH5 0x9226678C52 SWAP16 DIFFICULTY 0xBF DUP15 PUSH11 0x520850AF0487BFC37D32B4 DUP2 PUSH24 0x7364736F6C63430008070033000000000000000000000000 "
				},
				"gasEstimates": {
					"creation": {
						"codeDepositCost": "171600",
						"executionCost": "214",
						"totalCost": "171814"
					},
					"external": {
						"count()": "2407",
						"decrement(uint256)": "infinite",
						"increment(uint256)": "infinite"
					}
				},
				"methodIdentifiers": {
					"count()": "06661abd",
					"decrement(uint256)": "3a9ebefd",
					"increment(uint256)": "7cf5dab0"
				}
			},
			"storageLayout": {
				"storage": [
					{
						"astId": 3,
						"contract": "contracts/Counter.sol:Counter",
						"label": "count",
						"offset": 0,
						"slot": "0",
						"type": "t_uint256"
					}
				],
				"types": {
					"t_uint256": {
						"encoding": "inplace",
						"label": "uint256",
						"numberOfBytes": "32"
					}
				}
			},
			"userdoc": {
				"kind": "user",
				"methods": {},
				"version": 1
			}
		}
	}
}