{
	"contracts/Types.sol": {
		"Types": {
			"abi": [
				{
					"inputs": [],
					"stateMutability": "nonpayable",
					"type": "constructor"
				},
				{
					"inputs": [],
					"name": "below1",
					"outputs": [
						{
							"internalType": "bool",
							"name": "",
							"type": "bool"
						}
					],
					"stateMutability": "view",
					"type": "function"
				},
				{
					"inputs": [],
					"name": "count",
					"outputs": [
						{
							"internalType": "uint256",
							"name": "",
							"type": "uint256"
						}
					],
					"stateMutability": "view",
					"type": "function"
				},
				{
					"inputs": [],
					"name": "decrement",
					"outputs": [],
					"stateMutability": "nonpayable",
					"type": "function"
				},
				{
					"inputs": [],
					"name": "increment",
					"outputs": [],
					"stateMutability": "nonpayable",
					"type": "function"
				},
				{
					"inputs": [],
					"name": "message",
					"outputs": [
						{
							"internalType": "string",
							"name": "",
							"type": "string"
						}
					],
					"stateMutability": "view",
					"type": "function"
				}
			],
			"devdoc": {
				"kind": "dev",
				"methods": {},
				"version": 1
			},
			"evm": {
				"assembly": "    /* \"contracts/Types.sol\":77:474  contract Types {\r... */\n  mstore(0x40, 0x80)\n    /* \"contracts/Types.sol\":175:180  false */\n  0x00\n    /* \"contracts/Types.sol\":154:180  bool public below1 = false */\n  0x02\n  exp(0x0100, 0x00)\n  dup2\n  sload\n  dup2\n  0xff\n  mul\n  not\n  and\n  swap1\n  dup4\n  iszero\n  iszero\n  mul\n  or\n  swap1\n  sstore\n  pop\n    /* \"contracts/Types.sol\":189:269  constructor() {\r... */\n  callvalue\n  dup1\n  iszero\n  tag_1\n  jumpi\n  0x00\n  dup1\n  revert\ntag_1:\n  pop\n    /* \"contracts/Types.sol\":214:261  message = \"Contract to increment or decrement.\" */\n  mload(0x40)\n  dup1\n  0x60\n  add\n  0x40\n  mstore\n  dup1\n  0x23\n  dup2\n  mstore\n  0x20\n  add\n  data_604fc6c69618783f88ada2ca10c18e0e3df0778dcc1f7b67293346311eea0ac3\n  0x23\n  swap2\n  codecopy\n    /* \"contracts/Types.sol\":214:221  message */\n  0x01\n    /* \"contracts/Types.sol\":214:261  message = \"Contract to increment or decrement.\" */\n  swap1\n  dup1\n  mload\n  swap1\n  0x20\n  add\n  swap1\n  tag_4\n  swap3\n  swap2\n  swap1\n  tag_5\n  jump\t// in\ntag_4:\n  pop\n    /* \"contracts/Types.sol\":77:474  contract Types {\r... */\n  jump(tag_6)\ntag_5:\n  dup3\n  dup1\n  sload\n  tag_7\n  swap1\n  tag_8\n  jump\t// in\ntag_7:\n  swap1\n  0x00\n  mstore\n  keccak256(0x00, 0x20)\n  swap1\n  0x1f\n  add\n  0x20\n  swap1\n  div\n  dup2\n  add\n  swap3\n  dup3\n  tag_10\n  jumpi\n  0x00\n  dup6\n  sstore\n  jump(tag_9)\ntag_10:\n  dup3\n  0x1f\n  lt\n  tag_11\n  jumpi\n  dup1\n  mload\n  not(0xff)\n  and\n  dup4\n  dup1\n  add\n  or\n  dup6\n  sstore\n  jump(tag_9)\ntag_11:\n  dup3\n  dup1\n  add\n  0x01\n  add\n  dup6\n  sstore\n  dup3\n  iszero\n  tag_9\n  jumpi\n  swap2\n  dup3\n  add\ntag_12:\n  dup3\n  dup2\n  gt\n  iszero\n  tag_13\n  jumpi\n  dup3\n  mload\n  dup3\n  sstore\n  swap2\n  0x20\n  add\n  swap2\n  swap1\n  0x01\n  add\n  swap1\n  jump(tag_12)\ntag_13:\ntag_9:\n  pop\n  swap1\n  pop\n  tag_14\n  swap2\n  swap1\n  tag_15\n  jump\t// in\ntag_14:\n  pop\n  swap1\n  jump\t// out\ntag_15:\ntag_16:\n  dup1\n  dup3\n  gt\n  iszero\n  tag_17\n  jumpi\n  0x00\n  dup2\n  0x00\n  swap1\n  sstore\n  pop\n  0x01\n  add\n  jump(tag_16)\ntag_17:\n  pop\n  swap1\n  jump\t// out\n    /* \"#utility.yul\":7:327   */\ntag_8:\n    /* \"#utility.yul\":51:57   */\n  0x00\n    /* \"#utility.yul\":88:89   */\n  0x02\n    /* \"#utility.yul\":82:86   */\n  dup3\n    /* \"#utility.yul\":78:90   */\n  div\n    /* \"#utility.yul\":68:90   */\n  swap1\n  pop\n    /* \"#utility.yul\":135:136   */\n  0x01\n    /* \"#utility.yul\":129:133   */\n  dup3\n    /* \"#utility.yul\":125:137   */\n  and\n    /* \"#utility.yul\":156:174   */\n  dup1\n    /* \"#utility.yul\":146:227   */\n  tag_20\n  jumpi\n    /* \"#utility.yul\":212:216   */\n  0x7f\n    /* \"#utility.yul\":204:210   */\n  dup3\n    /* \"#utility.yul\":200:217   */\n  and\n    /* \"#utility.yul\":190:217   */\n  swap2\n  pop\n    /* \"#utility.yul\":146:227   */\ntag_20:\n    /* \"#utility.yul\":274:276   */\n  0x20\n    /* \"#utility.yul\":266:272   */\n  dup3\n    /* \"#utility.yul\":263:277   */\n  lt\n    /* \"#utility.yul\":243:261   */\n  dup2\n    /* \"#utility.yul\":240:278   */\n  eq\n    /* \"#utility.yul\":237:321   */\n  iszero\n  tag_21\n  jumpi\n    /* \"#utility.yul\":293:311   */\n  tag_22\n  tag_23\n  jump\t// in\ntag_22:\n    /* \"#utility.yul\":237:321   */\ntag_21:\n    /* \"#utility.yul\":58:327   */\n  pop\n    /* \"#utility.yul\":7:327   */\n  swap2\n  swap1\n  pop\n  jump\t// out\n    /* \"#utility.yul\":333:513   */\ntag_23:\n    /* \"#utility.yul\":381:458   */\n  0x4e487b7100000000000000000000000000000000000000000000000000000000\n    /* \"#utility.yul\":378:379   */\n  0x00\n    /* \"#utility.yul\":371:459   */\n  mstore\n    /* \"#utility.yul\":478:482   */\n  0x22\n    /* \"#utility.yul\":475:476   */\n  0x04\n    /* \"#utility.yul\":468:483   */\n  mstore\n    /* \"#utility.yul\":502:506   */\n  0x24\n    /* \"#utility.yul\":499:500   */\n  0x00\n    /* \"#utility.yul\":492:507   */\n  revert\n    /* \"contracts/Types.sol\":77:474  contract Types {\r... */\ntag_6:\n  dataSize(sub_0)\n  dup1\n  dataOffset(sub_0)\n  0x00\n  codecopy\n  0x00\n  return\nstop\ndata_604fc6c69618783f88ada2ca10c18e0e3df0778dcc1f7b67293346311eea0ac3 436f6e747261637420746f20696e6372656d656e74206f722064656372656d656e742e\n\nsub_0: assembly {\n        /* \"contracts/Types.sol\":77:474  contract Types {\r... */\n      mstore(0x40, 0x80)\n      callvalue\n      dup1\n      iszero\n      tag_1\n      jumpi\n      0x00\n      dup1\n      revert\n    tag_1:\n      pop\n      jumpi(tag_2, lt(calldatasize, 0x04))\n      shr(0xe0, calldataload(0x00))\n      dup1\n      0x06661abd\n      eq\n      tag_3\n      jumpi\n      dup1\n      0x2baeceb7\n      eq\n      tag_4\n      jumpi\n      dup1\n      0xd09de08a\n      eq\n      tag_5\n      jumpi\n      dup1\n      0xe21f37ce\n      eq\n      tag_6\n      jumpi\n      dup1\n      0xe400597a\n      eq\n      tag_7\n      jumpi\n    tag_2:\n      0x00\n      dup1\n      revert\n        /* \"contracts/Types.sol\":99:119  uint256 public count */\n    tag_3:\n      tag_8\n      tag_9\n      jump\t// in\n    tag_8:\n      mload(0x40)\n      tag_10\n      swap2\n      swap1\n      tag_11\n      jump\t// in\n    tag_10:\n      mload(0x40)\n      dup1\n      swap2\n      sub\n      swap1\n      return\n        /* \"contracts/Types.sol\":378:471  function decrement() public {\r... */\n    tag_4:\n      tag_12\n      tag_13\n      jump\t// in\n    tag_12:\n      stop\n        /* \"contracts/Types.sol\":277:370  function increment() public {\r... */\n    tag_5:\n      tag_14\n      tag_15\n      jump\t// in\n    tag_14:\n      stop\n        /* \"contracts/Types.sol\":126:147  string public message */\n    tag_6:\n      tag_16\n      tag_17\n      jump\t// in\n    tag_16:\n      mload(0x40)\n      tag_18\n      swap2\n      swap1\n      tag_19\n      jump\t// in\n    tag_18:\n      mload(0x40)\n      dup1\n      swap2\n      sub\n      swap1\n      return\n        /* \"contracts/Types.sol\":154:180  bool public below1 = false */\n    tag_7:\n      tag_20\n      tag_21\n      jump\t// in\n    tag_20:\n      mload(0x40)\n      tag_22\n      swap2\n      swap1\n      tag_23\n      jump\t// in\n    tag_22:\n      mload(0x40)\n      dup1\n      swap2\n      sub\n      swap1\n      return\n        /* \"contracts/Types.sol\":99:119  uint256 public count */\n    tag_9:\n      sload(0x00)\n      dup2\n      jump\t// out\n        /* \"contracts/Types.sol\":378:471  function decrement() public {\r... */\n    tag_13:\n        /* \"contracts/Types.sol\":433:434  1 */\n      0x01\n        /* \"contracts/Types.sol\":425:430  count */\n      sload(0x00)\n        /* \"contracts/Types.sol\":425:434  count - 1 */\n      tag_25\n      swap2\n      swap1\n      tag_26\n      jump\t// in\n    tag_25:\n        /* \"contracts/Types.sol\":417:422  count */\n      0x00\n        /* \"contracts/Types.sol\":417:434  count = count - 1 */\n      dup2\n      swap1\n      sstore\n      pop\n        /* \"contracts/Types.sol\":462:463  1 */\n      0x01\n        /* \"contracts/Types.sol\":454:459  count */\n      sload(0x00)\n        /* \"contracts/Types.sol\":454:463  count < 1 */\n      lt\n        /* \"contracts/Types.sol\":445:451  below1 */\n      0x02\n      0x00\n        /* \"contracts/Types.sol\":445:463  below1 = count < 1 */\n      0x0100\n      exp\n      dup2\n      sload\n      dup2\n      0xff\n      mul\n      not\n      and\n      swap1\n      dup4\n      iszero\n      iszero\n      mul\n      or\n      swap1\n      sstore\n      pop\n        /* \"contracts/Types.sol\":378:471  function decrement() public {\r... */\n      jump\t// out\n        /* \"contracts/Types.sol\":277:370  function increment() public {\r... */\n    tag_15:\n        /* \"contracts/Types.sol\":332:333  1 */\n      0x01\n        /* \"contracts/Types.sol\":324:329  count */\n      sload(0x00)\n        /* \"contracts/Types.sol\":324:333  count + 1 */\n      tag_28\n      swap2\n      swap1\n      tag_29\n      jump\t// in\n    tag_28:\n        /* \"contracts/Types.sol\":316:321  count */\n      0x00\n        /* \"contracts/Types.sol\":316:333  count = count + 1 */\n      dup2\n      swap1\n      sstore\n      pop\n        /* \"contracts/Types.sol\":361:362  1 */\n      0x01\n        /* \"contracts/Types.sol\":353:358  count */\n      sload(0x00)\n        /* \"contracts/Types.sol\":353:362  count < 1 */\n      lt\n        /* \"contracts/Types.sol\":344:350  below1 */\n      0x02\n      0x00\n        /* \"contracts/Types.sol\":344:362  below1 = count < 1 */\n      0x0100\n      exp\n      dup2\n      sload\n      dup2\n      0xff\n      mul\n      not\n      and\n      swap1\n      dup4\n      iszero\n      iszero\n      mul\n      or\n      swap1\n      sstore\n      pop\n        /* \"contracts/Types.sol\":277:370  function increment() public {\r... */\n      jump\t// out\n        /* \"contracts/Types.sol\":126:147  string public message */\n    tag_17:\n      0x01\n      dup1\n      sload\n      tag_30\n      swap1\n      tag_31\n      jump\t// in\n    tag_30:\n      dup1\n      0x1f\n      add\n      0x20\n      dup1\n      swap2\n      div\n      mul\n      0x20\n      add\n      mload(0x40)\n      swap1\n      dup2\n      add\n      0x40\n      mstore\n      dup1\n      swap3\n      swap2\n      swap1\n      dup2\n      dup2\n      mstore\n      0x20\n      add\n      dup3\n      dup1\n      sload\n      tag_32\n      swap1\n      tag_31\n      jump\t// in\n    tag_32:\n      dup1\n      iszero\n      tag_33\n      jumpi\n      dup1\n      0x1f\n      lt\n      tag_34\n      jumpi\n      0x0100\n      dup1\n      dup4\n      sload\n      div\n      mul\n      dup4\n      mstore\n      swap2\n      0x20\n      add\n      swap2\n      jump(tag_33)\n    tag_34:\n      dup3\n      add\n      swap2\n      swap1\n      0x00\n      mstore\n      keccak256(0x00, 0x20)\n      swap1\n    tag_35:\n      dup2\n      sload\n      dup2\n      mstore\n      swap1\n      0x01\n      add\n      swap1\n      0x20\n      add\n      dup1\n      dup4\n      gt\n      tag_35\n      jumpi\n      dup3\n      swap1\n      sub\n      0x1f\n      and\n      dup3\n      add\n      swap2\n    tag_33:\n      pop\n      pop\n      pop\n      pop\n      pop\n      dup2\n      jump\t// out\n        /* \"contracts/Types.sol\":154:180  bool public below1 = false */\n    tag_21:\n      0x02\n      0x00\n      swap1\n      sload\n      swap1\n      0x0100\n      exp\n      swap1\n      div\n      0xff\n      and\n      dup2\n      jump\t// out\n        /* \"#utility.yul\":7:116   */\n    tag_37:\n        /* \"#utility.yul\":88:109   */\n      tag_39\n        /* \"#utility.yul\":103:108   */\n      dup2\n        /* \"#utility.yul\":88:109   */\n      tag_40\n      jump\t// in\n    tag_39:\n        /* \"#utility.yul\":83:86   */\n      dup3\n        /* \"#utility.yul\":76:110   */\n      mstore\n        /* \"#utility.yul\":7:116   */\n      pop\n      pop\n      jump\t// out\n        /* \"#utility.yul\":122:486   */\n    tag_41:\n        /* \"#utility.yul\":210:213   */\n      0x00\n        /* \"#utility.yul\":238:277   */\n      tag_43\n        /* \"#utility.yul\":271:276   */\n      dup3\n        /* \"#utility.yul\":238:277   */\n      tag_44\n      jump\t// in\n    tag_43:\n        /* \"#utility.yul\":293:364   */\n      tag_45\n        /* \"#utility.yul\":357:363   */\n      dup2\n        /* \"#utility.yul\":352:355   */\n      dup6\n        /* \"#utility.yul\":293:364   */\n      tag_46\n      jump\t// in\n    tag_45:\n        /* \"#utility.yul\":286:364   */\n      swap4\n      pop\n        /* \"#utility.yul\":373:425   */\n      tag_47\n        /* \"#utility.yul\":418:424   */\n      dup2\n        /* \"#utility.yul\":413:416   */\n      dup6\n        /* \"#utility.yul\":406:410   */\n      0x20\n        /* \"#utility.yul\":399:404   */\n      dup7\n        /* \"#utility.yul\":395:411   */\n      add\n        /* \"#utility.yul\":373:425   */\n      tag_48\n      jump\t// in\n    tag_47:\n        /* \"#utility.yul\":450:479   */\n      tag_49\n        /* \"#utility.yul\":472:478   */\n      dup2\n        /* \"#utility.yul\":450:479   */\n      tag_50\n      jump\t// in\n    tag_49:\n        /* \"#utility.yul\":445:448   */\n      dup5\n        /* \"#utility.yul\":441:480   */\n      add\n        /* \"#utility.yul\":434:480   */\n      swap2\n      pop\n        /* \"#utility.yul\":214:486   */\n      pop\n        /* \"#utility.yul\":122:486   */\n      swap3\n      swap2\n      pop\n      pop\n      jump\t// out\n        /* \"#utility.yul\":492:610   */\n    tag_51:\n        /* \"#utility.yul\":579:603   */\n      tag_53\n        /* \"#utility.yul\":597:602   */\n      dup2\n        /* \"#utility.yul\":579:603   */\n      tag_54\n      jump\t// in\n    tag_53:\n        /* \"#utility.yul\":574:577   */\n      dup3\n        /* \"#utility.yul\":567:604   */\n      mstore\n        /* \"#utility.yul\":492:610   */\n      pop\n      pop\n      jump\t// out\n        /* \"#utility.yul\":616:826   */\n    tag_23:\n        /* \"#utility.yul\":703:707   */\n      0x00\n        /* \"#utility.yul\":741:743   */\n      0x20\n        /* \"#utility.yul\":730:739   */\n      dup3\n        /* \"#utility.yul\":726:744   */\n      add\n        /* \"#utility.yul\":718:744   */\n      swap1\n      pop\n        /* \"#utility.yul\":754:819   */\n      tag_56\n        /* \"#utility.yul\":816:817   */\n      0x00\n        /* \"#utility.yul\":805:814   */\n      dup4\n        /* \"#utility.yul\":801:818   */\n      add\n        /* \"#utility.yul\":792:798   */\n      dup5\n        /* \"#utility.yul\":754:819   */\n      tag_37\n      jump\t// in\n    tag_56:\n        /* \"#utility.yul\":616:826   */\n      swap3\n      swap2\n      pop\n      pop\n      jump\t// out\n        /* \"#utility.yul\":832:1145   */\n    tag_19:\n        /* \"#utility.yul\":945:949   */\n      0x00\n        /* \"#utility.yul\":983:985   */\n      0x20\n        /* \"#utility.yul\":972:981   */\n      dup3\n        /* \"#utility.yul\":968:986   */\n      add\n        /* \"#utility.yul\":960:986   */\n      swap1\n      pop\n        /* \"#utility.yul\":1032:1041   */\n      dup2\n        /* \"#utility.yul\":1026:1030   */\n      dup2\n        /* \"#utility.yul\":1022:1042   */\n      sub\n        /* \"#utility.yul\":1018:1019   */\n      0x00\n        /* \"#utility.yul\":1007:1016   */\n      dup4\n        /* \"#utility.yul\":1003:1020   */\n      add\n        /* \"#utility.yul\":996:1043   */\n      mstore\n        /* \"#utility.yul\":1060:1138   */\n      tag_58\n        /* \"#utility.yul\":1133:1137   */\n      dup2\n        /* \"#utility.yul\":1124:1130   */\n      dup5\n        /* \"#utility.yul\":1060:1138   */\n      tag_41\n      jump\t// in\n    tag_58:\n        /* \"#utility.yul\":1052:1138   */\n      swap1\n      pop\n        /* \"#utility.yul\":832:1145   */\n      swap3\n      swap2\n      pop\n      pop\n      jump\t// out\n        /* \"#utility.yul\":1151:1373   */\n    tag_11:\n        /* \"#utility.yul\":1244:1248   */\n      0x00\n        /* \"#utility.yul\":1282:1284   */\n      0x20\n        /* \"#utility.yul\":1271:1280   */\n      dup3\n        /* \"#utility.yul\":1267:1285   */\n      add\n        /* \"#utility.yul\":1259:1285   */\n      swap1\n      pop\n        /* \"#utility.yul\":1295:1366   */\n      tag_60\n        /* \"#utility.yul\":1363:1364   */\n      0x00\n        /* \"#utility.yul\":1352:1361   */\n      dup4\n        /* \"#utility.yul\":1348:1365   */\n      add\n        /* \"#utility.yul\":1339:1345   */\n      dup5\n        /* \"#utility.yul\":1295:1366   */\n      tag_51\n      jump\t// in\n    tag_60:\n        /* \"#utility.yul\":1151:1373   */\n      swap3\n      swap2\n      pop\n      pop\n      jump\t// out\n        /* \"#utility.yul\":1379:1478   */\n    tag_44:\n        /* \"#utility.yul\":1431:1437   */\n      0x00\n        /* \"#utility.yul\":1465:1470   */\n      dup2\n        /* \"#utility.yul\":1459:1471   */\n      mload\n        /* \"#utility.yul\":1449:1471   */\n      swap1\n      pop\n        /* \"#utility.yul\":1379:1478   */\n      swap2\n      swap1\n      pop\n      jump\t// out\n        /* \"#utility.yul\":1484:1653   */\n    tag_46:\n        /* \"#utility.yul\":1568:1579   */\n      0x00\n        /* \"#utility.yul\":1602:1608   */\n      dup3\n        /* \"#utility.yul\":1597:1600   */\n      dup3\n        /* \"#utility.yul\":1590:1609   */\n      mstore\n        /* \"#utility.yul\":1642:1646   */\n      0x20\n        /* \"#utility.yul\":1637:1640   */\n      dup3\n        /* \"#utility.yul\":1633:1647   */\n      add\n        /* \"#utility.yul\":1618:1647   */\n      swap1\n      pop\n        /* \"#utility.yul\":1484:1653   */\n      swap3\n      swap2\n      pop\n      pop\n      jump\t// out\n        /* \"#utility.yul\":1659:1964   */\n    tag_29:\n        /* \"#utility.yul\":1699:1702   */\n      0x00\n        /* \"#utility.yul\":1718:1738   */\n      tag_64\n        /* \"#utility.yul\":1736:1737   */\n      dup3\n        /* \"#utility.yul\":1718:1738   */\n      tag_54\n      jump\t// in\n    tag_64:\n        /* \"#utility.yul\":1713:1738   */\n      swap2\n      pop\n        /* \"#utility.yul\":1752:1772   */\n      tag_65\n        /* \"#utility.yul\":1770:1771   */\n      dup4\n        /* \"#utility.yul\":1752:1772   */\n      tag_54\n      jump\t// in\n    tag_65:\n        /* \"#utility.yul\":1747:1772   */\n      swap3\n      pop\n        /* \"#utility.yul\":1906:1907   */\n      dup3\n        /* \"#utility.yul\":1838:1904   */\n      0xffffffffffffffffffffffffffffffffffffffffffffffffffffffffffffffff\n        /* \"#utility.yul\":1834:1908   */\n      sub\n        /* \"#utility.yul\":1831:1832   */\n      dup3\n        /* \"#utility.yul\":1828:1909   */\n      gt\n        /* \"#utility.yul\":1825:1932   */\n      iszero\n      tag_66\n      jumpi\n        /* \"#utility.yul\":1912:1930   */\n      tag_67\n      tag_68\n      jump\t// in\n    tag_67:\n        /* \"#utility.yul\":1825:1932   */\n    tag_66:\n        /* \"#utility.yul\":1956:1957   */\n      dup3\n        /* \"#utility.yul\":1953:1954   */\n      dup3\n        /* \"#utility.yul\":1949:1958   */\n      add\n        /* \"#utility.yul\":1942:1958   */\n      swap1\n      pop\n        /* \"#utility.yul\":1659:1964   */\n      swap3\n      swap2\n      pop\n      pop\n      jump\t// out\n        /* \"#utility.yul\":1970:2161   */\n    tag_26:\n        /* \"#utility.yul\":2010:2014   */\n      0x00\n        /* \"#utility.yul\":2030:2050   */\n      tag_70\n        /* \"#utility.yul\":2048:2049   */\n      dup3\n        /* \"#utility.yul\":2030:2050   */\n      tag_54\n      jump\t// in\n    tag_70:\n        /* \"#utility.yul\":2025:2050   */\n      swap2\n      pop\n        /* \"#utility.yul\":2064:2084   */\n      tag_71\n        /* \"#utility.yul\":2082:2083   */\n      dup4\n        /* \"#utility.yul\":2064:2084   */\n      tag_54\n      jump\t// in\n    tag_71:\n        /* \"#utility.yul\":2059:2084   */\n      swap3\n      pop\n        /* \"#utility.yul\":2103:2104   */\n      dup3\n        /* \"#utility.yul\":2100:2101   */\n      dup3\n        /* \"#utility.yul\":2097:2105   */\n      lt\n        /* \"#utility.yul\":2094:2128   */\n      iszero\n      tag_72\n      jumpi\n        /* \"#utility.yul\":2108:2126   */\n      tag_73\n      tag_68\n      jump\t// in\n    tag_73:\n        /* \"#utility.yul\":2094:2128   */\n    tag_72:\n        /* \"#utility.yul\":2153:2154   */\n      dup3\n        /* \"#utility.yul\":2150:2151   */\n      dup3\n        /* \"#utility.yul\":2146:2155   */\n      sub\n        /* \"#utility.yul\":2138:2155   */\n      swap1\n      pop\n        /* \"#utility.yul\":1970:2161   */\n      swap3\n      swap2\n      pop\n      pop\n      jump\t// out\n        /* \"#utility.yul\":2167:2257   */\n    tag_40:\n        /* \"#utility.yul\":2201:2208   */\n      0x00\n        /* \"#utility.yul\":2244:2249   */\n      dup2\n        /* \"#utility.yul\":2237:2250   */\n      iszero\n        /* \"#utility.yul\":2230:2251   */\n      iszero\n        /* \"#utility.yul\":2219:2251   */\n      swap1\n      pop\n        /* \"#utility.yul\":2167:2257   */\n      swap2\n      swap1\n      pop\n      jump\t// out\n        /* \"#utility.yul\":2263:2340   */\n    tag_54:\n        /* \"#utility.yul\":2300:2307   */\n      0x00\n        /* \"#utility.yul\":2329:2334   */\n      dup2\n        /* \"#utility.yul\":2318:2334   */\n      swap1\n      pop\n        /* \"#utility.yul\":2263:2340   */\n      swap2\n      swap1\n      pop\n      jump\t// out\n        /* \"#utility.yul\":2346:2653   */\n    tag_48:\n        /* \"#utility.yul\":2414:2415   */\n      0x00\n        /* \"#utility.yul\":2424:2537   */\n    tag_77:\n        /* \"#utility.yul\":2438:2444   */\n      dup4\n        /* \"#utility.yul\":2435:2436   */\n      dup2\n        /* \"#utility.yul\":2432:2445   */\n      lt\n        /* \"#utility.yul\":2424:2537   */\n      iszero\n      tag_79\n      jumpi\n        /* \"#utility.yul\":2523:2524   */\n      dup1\n        /* \"#utility.yul\":2518:2521   */\n      dup3\n        /* \"#utility.yul\":2514:2525   */\n      add\n        /* \"#utility.yul\":2508:2526   */\n      mload\n        /* \"#utility.yul\":2504:2505   */\n      dup2\n        /* \"#utility.yul\":2499:2502   */\n      dup5\n        /* \"#utility.yul\":2495:2506   */\n      add\n        /* \"#utility.yul\":2488:2527   */\n      mstore\n        /* \"#utility.yul\":2460:2462   */\n      0x20\n        /* \"#utility.yul\":2457:2458   */\n      dup2\n        /* \"#utility.yul\":2453:2463   */\n      add\n        /* \"#utility.yul\":2448:2463   */\n      swap1\n      pop\n        /* \"#utility.yul\":2424:2537   */\n      jump(tag_77)\n    tag_79:\n        /* \"#utility.yul\":2555:2561   */\n      dup4\n        /* \"#utility.yul\":2552:2553   */\n      dup2\n        /* \"#utility.yul\":2549:2562   */\n      gt\n        /* \"#utility.yul\":2546:2647   */\n      iszero\n      tag_80\n      jumpi\n        /* \"#utility.yul\":2635:2636   */\n      0x00\n        /* \"#utility.yul\":2626:2632   */\n      dup5\n        /* \"#utility.yul\":2621:2624   */\n      dup5\n        /* \"#utility.yul\":2617:2633   */\n      add\n        /* \"#utility.yul\":2610:2637   */\n      mstore\n        /* \"#utility.yul\":2546:2647   */\n    tag_80:\n        /* \"#utility.yul\":2395:2653   */\n      pop\n        /* \"#utility.yul\":2346:2653   */\n      pop\n      pop\n      pop\n      jump\t// out\n        /* \"#utility.yul\":2659:2979   */\n    tag_31:\n        /* \"#utility.yul\":2703:2709   */\n      0x00\n        /* \"#utility.yul\":2740:2741   */\n      0x02\n        /* \"#utility.yul\":2734:2738   */\n      dup3\n        /* \"#utility.yul\":2730:2742   */\n      div\n        /* \"#utility.yul\":2720:2742   */\n      swap1\n      pop\n        /* \"#utility.yul\":2787:2788   */\n      0x01\n        /* \"#utility.yul\":2781:2785   */\n      dup3\n        /* \"#utility.yul\":2777:2789   */\n      and\n        /* \"#utility.yul\":2808:2826   */\n      dup1\n        /* \"#utility.yul\":2798:2879   */\n      tag_82\n      jumpi\n        /* \"#utility.yul\":2864:2868   */\n      0x7f\n        /* \"#utility.yul\":2856:2862   */\n      dup3\n        /* \"#utility.yul\":2852:2869   */\n      and\n        /* \"#utility.yul\":2842:2869   */\n      swap2\n      pop\n        /* \"#utility.yul\":2798:2879   */\n    tag_82:\n        /* \"#utility.yul\":2926:2928   */\n      0x20\n        /* \"#utility.yul\":2918:2924   */\n      dup3\n        /* \"#utility.yul\":2915:2929   */\n      lt\n        /* \"#utility.yul\":2895:2913   */\n      dup2\n        /* \"#utility.yul\":2892:2930   */\n      eq\n        /* \"#utility.yul\":2889:2973   */\n      iszero\n      tag_83\n      jumpi\n        /* \"#utility.yul\":2945:2963   */\n      tag_84\n      tag_85\n      jump\t// in\n    tag_84:\n        /* \"#utility.yul\":2889:2973   */\n    tag_83:\n        /* \"#utility.yul\":2710:2979   */\n      pop\n        /* \"#utility.yul\":2659:2979   */\n      swap2\n      swap1\n      pop\n      jump\t// out\n        /* \"#utility.yul\":2985:3165   */\n    tag_68:\n        /* \"#utility.yul\":3033:3110   */\n      0x4e487b7100000000000000000000000000000000000000000000000000000000\n        /* \"#utility.yul\":3030:3031   */\n      0x00\n        /* \"#utility.yul\":3023:3111   */\n      mstore\n        /* \"#utility.yul\":3130:3134   */\n      0x11\n        /* \"#utility.yul\":3127:3128   */\n      0x04\n        /* \"#utility.yul\":3120:3135   */\n      mstore\n        /* \"#utility.yul\":3154:3158   */\n      0x24\n        /* \"#utility.yul\":3151:3152   */\n      0x00\n        /* \"#utility.yul\":3144:3159   */\n      revert\n        /* \"#utility.yul\":3171:3351   */\n    tag_85:\n        /* \"#utility.yul\":3219:3296   */\n      0x4e487b7100000000000000000000000000000000000000000000000000000000\n        /* \"#utility.yul\":3216:3217   */\n      0x00\n        /* \"#utility.yul\":3209:3297   */\n      mstore\n        /* \"#utility.yul\":3316:3320   */\n      0x22\n        /* \"#utility.yul\":3313:3314   */\n      0x04\n        /* \"#utility.yul\":3306:3321   */\n      mstore\n        /* \"#utility.yul\":3340:3344   */\n      0x24\n        /* \"#utility.yul\":3337:3338   */\n      0x00\n        /* \"#utility.yul\":3330:3345   */\n      revert\n        /* \"#utility.yul\":3357:3459   */\n    tag_50:\n        /* \"#utility.yul\":3398:3404   */\n      0x00\n        /* \"#utility.yul\":3449:3451   */\n      0x1f\n        /* \"#utility.yul\":3445:3452   */\n      not\n        /* \"#utility.yul\":3440:3442   */\n      0x1f\n        /* \"#utility.yul\":3433:3438   */\n      dup4\n        /* \"#utility.yul\":3429:3443   */\n      add\n        /* \"#utility.yul\":3425:3453   */\n      and\n        /* \"#utility.yul\":3415:3453   */\n      swap1\n      pop\n        /* \"#utility.yul\":3357:3459   */\n      swap2\n      swap1\n      pop\n      jump\t// out\n\n    auxdata: 0xa2646970667358221220573893a2381f414b907ea9b3a99839ee53a98bc71e0cb6044e1366605f35f22964736f6c63430008070033\n}\n",
				"bytecode": {
					"linkReferences": {},
					"object": "60806040526000600260006101000a81548160ff02191690831515021790555034801561002b57600080fd5b506040518060600160405280602381526020016105c5602391396001908051906020019061005a929190610060565b50610164565b82805461006c90610103565b90600052602060002090601f01602090048101928261008e57600085556100d5565b82601f106100a757805160ff19168380011785556100d5565b828001600101855582156100d5579182015b828111156100d45782518255916020019190600101906100b9565b5b5090506100e291906100e6565b5090565b5b808211156100ff5760008160009055506001016100e7565b5090565b6000600282049050600182168061011b57607f821691505b6020821081141561012f5761012e610135565b5b50919050565b7f4e487b7100000000000000000000000000000000000000000000000000000000600052602260045260246000fd5b610452806101736000396000f3fe608060405234801561001057600080fd5b50600436106100575760003560e01c806306661abd1461005c5780632baeceb71461007a578063d09de08a14610084578063e21f37ce1461008e578063e400597a146100ac575b600080fd5b6100646100ca565b6040516100719190610271565b60405180910390f35b6100826100d0565b005b61008c610106565b005b61009661013c565b6040516100a3919061024f565b60405180910390f35b6100b46101ca565b6040516100c19190610234565b60405180910390f35b60005481565b60016000546100df91906102fe565b600081905550600160005410600260006101000a81548160ff021916908315150217905550565b600160005461011591906102a8565b600081905550600160005410600260006101000a81548160ff021916908315150217905550565b600180546101499061037b565b80601f01602080910402602001604051908101604052809291908181526020018280546101759061037b565b80156101c25780601f10610197576101008083540402835291602001916101c2565b820191906000526020600020905b8154815290600101906020018083116101a557829003601f168201915b505050505081565b600260009054906101000a900460ff1681565b6101e681610332565b82525050565b60006101f78261028c565b6102018185610297565b9350610211818560208601610348565b61021a8161040b565b840191505092915050565b61022e8161033e565b82525050565b600060208201905061024960008301846101dd565b92915050565b6000602082019050818103600083015261026981846101ec565b905092915050565b60006020820190506102866000830184610225565b92915050565b600081519050919050565b600082825260208201905092915050565b60006102b38261033e565b91506102be8361033e565b9250827fffffffffffffffffffffffffffffffffffffffffffffffffffffffffffffffff038211156102f3576102f26103ad565b5b828201905092915050565b60006103098261033e565b91506103148361033e565b925082821015610327576103266103ad565b5b828203905092915050565b60008115159050919050565b6000819050919050565b60005b8381101561036657808201518184015260208101905061034b565b83811115610375576000848401525b50505050565b6000600282049050600182168061039357607f821691505b602082108114156103a7576103a66103dc565b5b50919050565b7f4e487b7100000000000000000000000000000000000000000000000000000000600052601160045260246000fd5b7f4e487b7100000000000000000000000000000000000000000000000000000000600052602260045260246000fd5b6000601f19601f830116905091905056fea2646970667358221220573893a2381f414b907ea9b3a99839ee53a98bc71e0cb6044e1366605f35f22964736f6c63430008070033436f6e747261637420746f20696e6372656d656e74206f722064656372656d656e742e",
					"opcodes": "PUSH1 0x80 PUSH1 0x40 MSTORE PUSH1 0x0 PUSH1 0x2 PUSH1 0x0 PUSH2 0x100 EXP DUP2 SLOAD DUP2 PUSH1 0xFF MUL NOT AND SWAP1 DUP4 ISZERO ISZERO MUL OR SWAP1 SSTORE POP CALLVALUE DUP1 ISZERO PUSH2 0x2B JUMPI PUSH1 0x0 DUP1 REVERT JUMPDEST POP PUSH1 0x40 MLOAD DUP1 PUSH1 0x60 ADD PUSH1 0x40 MSTORE DUP1 PUSH1 0x23 DUP2 MSTORE PUSH1 0x20 ADD PUSH2 0x5C5 PUSH1 0x23 SWAP2 CODECOPY PUSH1 0x1 SWAP1 DUP1 MLOAD SWAP1 PUSH1 0x20 ADD SWAP1 PUSH2 0x5A SWAP3 SWAP2 SWAP1 PUSH2 0x60 JUMP JUMPDEST POP PUSH2 0x164 JUMP JUMPDEST DUP3 DUP1 SLOAD PUSH2 0x6C SWAP1 PUSH2 0x103 JUMP JUMPDEST SWAP1 PUSH1 0x0 MSTORE PUSH1 0x20 PUSH1 0x0 KECCAK256 SWAP1 PUSH1 0x1F ADD PUSH1 0x20 SWAP1 DIV DUP2 ADD SWAP3 DUP3 PUSH2 0x8E JUMPI PUSH1 0x0 DUP6 SSTORE PUSH2 0xD5 JUMP JUMPDEST DUP3 PUSH1 0x1F LT PUSH2 0xA7 JUMPI DUP1 MLOAD PUSH1 0xFF NOT AND DUP4 DUP1 ADD OR DUP6 SSTORE PUSH2 0xD5 JUMP JUMPDEST DUP3 DUP1 ADD PUSH1 0x1 ADD DUP6 SSTORE DUP3 ISZERO PUSH2 0xD5 JUMPI SWAP2 DUP3 ADD JUMPDEST DUP3 DUP2 GT ISZERO PUSH2 0xD4 JUMPI DUP3 MLOAD DUP3 SSTORE SWAP2 PUSH1 0x20 ADD SWAP2 SWAP1 PUSH1 0x1 ADD SWAP1 PUSH2 0xB9 JUMP JUMPDEST JUMPDEST POP SWAP1 POP PUSH2 0xE2 SWAP2 SWAP1 PUSH2 0xE6 JUMP JUMPDEST POP SWAP1 JUMP JUMPDEST JUMPDEST DUP1 DUP3 GT ISZERO PUSH2 0xFF JUMPI PUSH1 0x0 DUP2 PUSH1 0x0 SWAP1 SSTORE POP PUSH1 0x1 ADD PUSH2 0xE7 JUMP JUMPDEST POP SWAP1 JUMP JUMPDEST PUSH1 0x0 PUSH1 0x2 DUP3 DIV SWAP1 POP PUSH1 0x1 DUP3 AND DUP1 PUSH2 0x11B JUMPI PUSH1 0x7F DUP3 AND SWAP2 POP JUMPDEST PUSH1 0x20 DUP3 LT DUP2 EQ ISZERO PUSH2 0x12F JUMPI PUSH2 0x12E PUSH2 0x135 JUMP JUMPDEST JUMPDEST POP SWAP2 SWAP1 POP JUMP JUMPDEST PUSH32 0x4E487B7100000000000000000000000000000000000000000000000000000000 PUSH1 0x0 MSTORE PUSH1 0x22 PUSH1 0x4 MSTORE PUSH1 0x24 PUSH1 0x0 REVERT JUMPDEST PUSH2 0x452 DUP1 PUSH2 0x173 PUSH1 0x0 CODECOPY PUSH1 0x0 RETURN INVALID PUSH1 0x80 PUSH1 0x40 MSTORE CALLVALUE DUP1 ISZERO PUSH2 0x10 JUMPI PUSH1 0x0 DUP1 REVERT JUMPDEST POP PUSH1 0x4 CALLDATASIZE LT PUSH2 0x57 JUMPI PUSH1 0x0 CALLDATALOAD PUSH1 0xE0 SHR DUP1 PUSH4 0x6661ABD EQ PUSH2 0x5C JUMPI DUP1 PUSH4 0x2BAECEB7 EQ PUSH2 0x7A JUMPI DUP1 PUSH4 0xD09DE08A EQ PUSH2 0x84 JUMPI DUP1 PUSH4 0xE21F37CE EQ PUSH2 0x8E JUMPI DUP1 PUSH4 0xE400597A EQ PUSH2 0xAC JUMPI JUMPDEST PUSH1 0x0 DUP1 REVERT JUMPDEST PUSH2 0x64 PUSH2 0xCA JUMP JUMPDEST PUSH1 0x40 MLOAD PUSH2 0x71 SWAP2 SWAP1 PUSH2 0x271 JUMP JUMPDEST PUSH1 0x40 MLOAD DUP1 SWAP2 SUB SWAP1 RETURN JUMPDEST PUSH2 0x82 PUSH2 0xD0 JUMP JUMPDEST STOP JUMPDEST PUSH2 0x8C PUSH2 0x106 JUMP JUMPDEST STOP JUMPDEST PUSH2 0x96 PUSH2 0x13C JUMP JUMPDEST PUSH1 0x40 MLOAD PUSH2 0xA3 SWAP2 SWAP1 PUSH2 0x24F JUMP JUMPDEST PUSH1 0x40 MLOAD DUP1 SWAP2 SUB SWAP1 RETURN JUMPDEST PUSH2 0xB4 PUSH2 0x1CA JUMP JUMPDEST PUSH1 0x40 MLOAD PUSH2 0xC1 SWAP2 SWAP1 PUSH2 0x234 JUMP JUMPDEST PUSH1 0x40 MLOAD DUP1 SWAP2 SUB SWAP1 RETURN JUMPDEST PUSH1 0x0 SLOAD DUP2 JUMP JUMPDEST PUSH1 0x1 PUSH1 0x0 SLOAD PUSH2 0xDF SWAP2 SWAP1 PUSH2 0x2FE JUMP JUMPDEST PUSH1 0x0 DUP2 SWAP1 SSTORE POP PUSH1 0x1 PUSH1 0x0 SLOAD LT PUSH1 0x2 PUSH1 0x0 PUSH2 0x100 EXP DUP2 SLOAD DUP2 PUSH1 0xFF MUL NOT AND SWAP1 DUP4 ISZERO ISZERO MUL OR SWAP1 SSTORE POP JUMP JUMPDEST PUSH1 0x1 PUSH1 0x0 SLOAD PUSH2 0x115 SWAP2 SWAP1 PUSH2 0x2A8 JUMP JUMPDEST PUSH1 0x0 DUP2 SWAP1 SSTORE POP PUSH1 0x1 PUSH1 0x0 SLOAD LT PUSH1 0x2 PUSH1 0x0 PUSH2 0x100 EXP DUP2 SLOAD DUP2 PUSH1 0xFF MUL NOT AND SWAP1 DUP4 ISZERO ISZERO MUL OR SWAP1 SSTORE POP JUMP JUMPDEST PUSH1 0x1 DUP1 SLOAD PUSH2 0x149 SWAP1 PUSH2 0x37B JUMP JUMPDEST DUP1 PUSH1 0x1F ADD PUSH1 0x20 DUP1 SWAP2 DIV MUL PUSH1 0x20 ADD PUSH1 0x40 MLOAD SWAP1 DUP2 ADD PUSH1 0x40 MSTORE DUP1 SWAP3 SWAP2 SWAP1 DUP2 DUP2 MSTORE PUSH1 0x20 ADD DUP3 DUP1 SLOAD PUSH2 0x175 SWAP1 PUSH2 0x37B JUMP JUMPDEST DUP1 ISZERO PUSH2 0x1C2 JUMPI DUP1 PUSH1 0x1F LT PUSH2 0x197 JUMPI PUSH2 0x100 DUP1 DUP4 SLOAD DIV MUL DUP4 MSTORE SWAP2 PUSH1 0x20 ADD SWAP2 PUSH2 0x1C2 JUMP JUMPDEST DUP3 ADD SWAP2 SWAP1 PUSH1 0x0 MSTORE PUSH1 0x20 PUSH1 0x0 KECCAK256 SWAP1 JUMPDEST DUP2 SLOAD DUP2 MSTORE SWAP1 PUSH1 0x1 ADD SWAP1 PUSH1 0x20 ADD DUP1 DUP4 GT PUSH2 0x1A5 JUMPI DUP3 SWAP1 SUB PUSH1 0x1F AND DUP3 ADD SWAP2 JUMPDEST POP POP POP POP POP DUP2 JUMP JUMPDEST PUSH1 0x2 PUSH1 0x0 SWAP1 SLOAD SWAP1 PUSH2 0x100 EXP SWAP1 DIV PUSH1 0xFF AND DUP2 JUMP JUMPDEST PUSH2 0x1E6 DUP2 PUSH2 0x332 JUMP JUMPDEST DUP3 MSTORE POP POP JUMP JUMPDEST PUSH1 0x0 PUSH2 0x1F7 DUP3 PUSH2 0x28C JUMP JUMPDEST PUSH2 0x201 DUP2 DUP6 PUSH2 0x297 JUMP JUMPDEST SWAP4 POP PUSH2 0x211 DUP2 DUP6 PUSH1 0x20 DUP7 ADD PUSH2 0x348 JUMP JUMPDEST PUSH2 0x21A DUP2 PUSH2 0x40B JUMP JUMPDEST DUP5 ADD SWAP2 POP POP SWAP3 SWAP2 POP POP JUMP JUMPDEST PUSH2 0x22E DUP2 PUSH2 0x33E JUMP JUMPDEST DUP3 MSTORE POP POP JUMP JUMPDEST PUSH1 0x0 PUSH1 0x20 DUP3 ADD SWAP1 POP PUSH2 0x249 PUSH1 0x0 DUP4 ADD DUP5 PUSH2 0x1DD JUMP JUMPDEST SWAP3 SWAP2 POP POP JUMP JUMPDEST PUSH1 0x0 PUSH1 0x20 DUP3 ADD SWAP1 POP DUP2 DUP2 SUB PUSH1 0x0 DUP4 ADD MSTORE PUSH2 0x269 DUP2 DUP5 PUSH2 0x1EC JUMP JUMPDEST SWAP1 POP SWAP3 SWAP2 POP POP JUMP JUMPDEST PUSH1 0x0 PUSH1 0x20 DUP3 ADD SWAP1 POP PUSH2 0x286 PUSH1 0x0 DUP4 ADD DUP5 PUSH2 0x225 JUMP JUMPDEST SWAP3 SWAP2 POP POP JUMP JUMPDEST PUSH1 0x0 DUP2 MLOAD SWAP1 POP SWAP2 SWAP1 POP JUMP JUMPDEST PUSH1 0x0 DUP3 DUP3 MSTORE PUSH1 0x20 DUP3 ADD SWAP1 POP SWAP3 SWAP2 POP POP JUMP JUMPDEST PUSH1 0x0 PUSH2 0x2B3 DUP3 PUSH2 0x33E JUMP JUMPDEST SWAP2 POP PUSH2 0x2BE DUP4 PUSH2 0x33E JUMP JUMPDEST SWAP3 POP DUP3 PUSH32 0xFFFFFFFFFFFFFFFFFFFFFFFFFFFFFFFFFFFFFFFFFFFFFFFFFFFFFFFFFFFFFFFF SUB DUP3 GT ISZERO PUSH2 0x2F3 JUMPI PUSH2 0x2F2 PUSH2 0x3AD JUMP JUMPDEST JUMPDEST DUP3 DUP3 ADD SWAP1 POP SWAP3 SWAP2 POP POP JUMP JUMPDEST PUSH1 0x0 PUSH2 0x309 DUP3 PUSH2 0x33E JUMP JUMPDEST SWAP2 POP PUSH2 0x314 DUP4 PUSH2 0x33E JUMP JUMPDEST SWAP3 POP DUP3 DUP3 LT ISZERO PUSH2 0x327 JUMPI PUSH2 0x326 PUSH2 0x3AD JUMP JUMPDEST JUMPDEST DUP3 DUP3 SUB SWAP1 POP SWAP3 SWAP2 POP POP JUMP JUMPDEST PUSH1 0x0 DUP2 ISZERO ISZERO SWAP1 POP SWAP2 SWAP1 POP JUMP JUMPDEST PUSH1 0x0 DUP2 SWAP1 POP SWAP2 SWAP1 POP JUMP JUMPDEST PUSH1 0x0 JUMPDEST DUP4 DUP2 LT ISZERO PUSH2 0x366 JUMPI DUP1 DUP3 ADD MLOAD DUP2 DUP5 ADD MSTORE PUSH1 0x20 DUP2 ADD SWAP1 POP PUSH2 0x34B JUMP JUMPDEST DUP4 DUP2 GT ISZERO PUSH2 0x375 JUMPI PUSH1 0x0 DUP5 DUP5 ADD MSTORE JUMPDEST POP POP POP POP JUMP JUMPDEST PUSH1 0x0 PUSH1 0x2 DUP3 DIV SWAP1 POP PUSH1 0x1 DUP3 AND DUP1 PUSH2 0x393 JUMPI PUSH1 0x7F DUP3 AND SWAP2 POP JUMPDEST PUSH1 0x20 DUP3 LT DUP2 EQ ISZERO PUSH2 0x3A7 JUMPI PUSH2 0x3A6 PUSH2 0x3DC JUMP JUMPDEST JUMPDEST POP SWAP2 SWAP1 POP JUMP JUMPDEST PUSH32 0x4E487B7100000000000000000000000000000000000000000000000000000000 PUSH1 0x0 MSTORE PUSH1 0x11 PUSH1 0x4 MSTORE PUSH1 0x24 PUSH1 0x0 REVERT JUMPDEST PUSH32 0x4E487B7100000000000000000000000000000000000000000000000000000000 PUSH1 0x0 MSTORE PUSH1 0x22 PUSH1 0x4 MSTORE PUSH1 0x24 PUSH1 0x0 REVERT JUMPDEST PUSH1 0x0 PUSH1 0x1F NOT PUSH1 0x1F DUP4 ADD AND SWAP1 POP SWAP2 SWAP1 POP JUMP INVALID LOG2 PUSH5 0x6970667358 0x22 SLT KECCAK256 JUMPI CODESIZE SWAP4 LOG2 CODESIZE 0x1F COINBASE 0x4B SWAP1 PUSH31 0xA9B3A99839EE53A98BC71E0CB6044E1366605F35F22964736F6C6343000807 STOP CALLER NUMBER PUSH16 0x6E747261637420746F20696E6372656D PUSH6 0x6E74206F7220 PUSH5 0x656372656D PUSH6 0x6E742E000000 "
				},
				"gasEstimates": {
					"creation": {
						"codeDepositCost": "221200",
						"executionCost": "infinite",
						"totalCost": "infinite"
					},
					"external": {
						"below1()": "2537",
						"count()": "2407",
						"decrement()": "infinite",
						"increment()": "infinite",
						"message()": "infinite"
					}
				},
				"methodIdentifiers": {
					"below1()": "e400597a",
					"count()": "06661abd",
					"decrement()": "2baeceb7",
					"increment()": "d09de08a",
					"message()": "e21f37ce"
				}
			},
			"storageLayout": {
				"storage": [
					{
						"astId": 3,
						"contract": "contracts/Types.sol:Types",
						"label": "count",
						"offset": 0,
						"slot": "0",
						"type": "t_uint256"
					},
					{
						"astId": 5,
						"contract": "contracts/Types.sol:Types",
						"label": "message",
						"offset": 0,
						"slot": "1",
						"type": "t_string_storage"
					},
					{
						"astId": 8,
						"contract": "contracts/Types.sol:Types",
						"label": "below1",
						"offset": 0,
						"slot": "2",
						"type": "t_bool"
					}
				],
				"types": {
					"t_bool": {
						"encoding": "inplace",
						"label": "bool",
						"numberOfBytes": "1"
					},
					"t_string_storage": {
						"encoding": "bytes",
						"label": "string",
						"numberOfBytes": "32"
					},
					"t_uint256": {
						"encoding": "inplace",
						"label": "uint256",
						"numberOfBytes": "32"
					}
				}
			},
			"userdoc": {
				"kind": "user",
				"methods": {},
				"version": 1
			}
		}
	}
}