{
	"contracts/Types.sol": {
		"Types": {
			"abi": [
				{
					"inputs": [],
					"stateMutability": "nonpayable",
					"type": "constructor"
				},
				{
					"inputs": [],
					"name": "below1",
					"outputs": [
						{
							"internalType": "bool",
							"name": "",
							"type": "bool"
						}
					],
					"stateMutability": "view",
					"type": "function"
				},
				{
					"inputs": [],
					"name": "decrement",
					"outputs": [],
					"stateMutability": "nonpayable",
					"type": "function"
				},
				{
					"inputs": [],
					"name": "increment",
					"outputs": [],
					"stateMutability": "nonpayable",
					"type": "function"
				},
				{
					"inputs": [],
					"name": "message",
					"outputs": [
						{
							"internalType": "string",
							"name": "",
							"type": "string"
						}
					],
					"stateMutability": "view",
					"type": "function"
				}
			],
			"devdoc": {
				"kind": "dev",
				"methods": {},
				"version": 1
			},
			"evm": {
				"assembly": "    /* \"contracts/Types.sol\":76:408  contract Types {\r... */\n  mstore(0x40, 0x80)\n    /* \"contracts/Types.sol\":167:172  false */\n  0x00\n    /* \"contracts/Types.sol\":146:172  bool public below1 = false */\n  0x02\n  exp(0x0100, 0x00)\n  dup2\n  sload\n  dup2\n  0xff\n  mul\n  not\n  and\n  swap1\n  dup4\n  iszero\n  iszero\n  mul\n  or\n  swap1\n  sstore\n  pop\n    /* \"contracts/Types.sol\":181:261  constructor() {\r... */\n  callvalue\n  dup1\n  iszero\n  tag_1\n  jumpi\n  0x00\n  dup1\n  revert\ntag_1:\n  pop\n    /* \"contracts/Types.sol\":206:253  message = \"Contract to increment or decrement.\" */\n  mload(0x40)\n  dup1\n  0x60\n  add\n  0x40\n  mstore\n  dup1\n  0x23\n  dup2\n  mstore\n  0x20\n  add\n  data_604fc6c69618783f88ada2ca10c18e0e3df0778dcc1f7b67293346311eea0ac3\n  0x23\n  swap2\n  codecopy\n    /* \"contracts/Types.sol\":206:213  message */\n  0x01\n    /* \"contracts/Types.sol\":206:253  message = \"Contract to increment or decrement.\" */\n  swap1\n  dup1\n  mload\n  swap1\n  0x20\n  add\n  swap1\n  tag_4\n  swap3\n  swap2\n  swap1\n  tag_5\n  jump\t// in\ntag_4:\n  pop\n    /* \"contracts/Types.sol\":76:408  contract Types {\r... */\n  jump(tag_6)\ntag_5:\n  dup3\n  dup1\n  sload\n  tag_7\n  swap1\n  tag_8\n  jump\t// in\ntag_7:\n  swap1\n  0x00\n  mstore\n  keccak256(0x00, 0x20)\n  swap1\n  0x1f\n  add\n  0x20\n  swap1\n  div\n  dup2\n  add\n  swap3\n  dup3\n  tag_10\n  jumpi\n  0x00\n  dup6\n  sstore\n  jump(tag_9)\ntag_10:\n  dup3\n  0x1f\n  lt\n  tag_11\n  jumpi\n  dup1\n  mload\n  not(0xff)\n  and\n  dup4\n  dup1\n  add\n  or\n  dup6\n  sstore\n  jump(tag_9)\ntag_11:\n  dup3\n  dup1\n  add\n  0x01\n  add\n  dup6\n  sstore\n  dup3\n  iszero\n  tag_9\n  jumpi\n  swap2\n  dup3\n  add\ntag_12:\n  dup3\n  dup2\n  gt\n  iszero\n  tag_13\n  jumpi\n  dup3\n  mload\n  dup3\n  sstore\n  swap2\n  0x20\n  add\n  swap2\n  swap1\n  0x01\n  add\n  swap1\n  jump(tag_12)\ntag_13:\ntag_9:\n  pop\n  swap1\n  pop\n  tag_14\n  swap2\n  swap1\n  tag_15\n  jump\t// in\ntag_14:\n  pop\n  swap1\n  jump\t// out\ntag_15:\ntag_16:\n  dup1\n  dup3\n  gt\n  iszero\n  tag_17\n  jumpi\n  0x00\n  dup2\n  0x00\n  swap1\n  sstore\n  pop\n  0x01\n  add\n  jump(tag_16)\ntag_17:\n  pop\n  swap1\n  jump\t// out\n    /* \"#utility.yul\":7:327   */\ntag_8:\n    /* \"#utility.yul\":51:57   */\n  0x00\n    /* \"#utility.yul\":88:89   */\n  0x02\n    /* \"#utility.yul\":82:86   */\n  dup3\n    /* \"#utility.yul\":78:90   */\n  div\n    /* \"#utility.yul\":68:90   */\n  swap1\n  pop\n    /* \"#utility.yul\":135:136   */\n  0x01\n    /* \"#utility.yul\":129:133   */\n  dup3\n    /* \"#utility.yul\":125:137   */\n  and\n    /* \"#utility.yul\":156:174   */\n  dup1\n    /* \"#utility.yul\":146:227   */\n  tag_20\n  jumpi\n    /* \"#utility.yul\":212:216   */\n  0x7f\n    /* \"#utility.yul\":204:210   */\n  dup3\n    /* \"#utility.yul\":200:217   */\n  and\n    /* \"#utility.yul\":190:217   */\n  swap2\n  pop\n    /* \"#utility.yul\":146:227   */\ntag_20:\n    /* \"#utility.yul\":274:276   */\n  0x20\n    /* \"#utility.yul\":266:272   */\n  dup3\n    /* \"#utility.yul\":263:277   */\n  lt\n    /* \"#utility.yul\":243:261   */\n  dup2\n    /* \"#utility.yul\":240:278   */\n  eq\n    /* \"#utility.yul\":237:321   */\n  iszero\n  tag_21\n  jumpi\n    /* \"#utility.yul\":293:311   */\n  tag_22\n  tag_23\n  jump\t// in\ntag_22:\n    /* \"#utility.yul\":237:321   */\ntag_21:\n    /* \"#utility.yul\":58:327   */\n  pop\n    /* \"#utility.yul\":7:327   */\n  swap2\n  swap1\n  pop\n  jump\t// out\n    /* \"#utility.yul\":333:513   */\ntag_23:\n    /* \"#utility.yul\":381:458   */\n  0x4e487b7100000000000000000000000000000000000000000000000000000000\n    /* \"#utility.yul\":378:379   */\n  0x00\n    /* \"#utility.yul\":371:459   */\n  mstore\n    /* \"#utility.yul\":478:482   */\n  0x22\n    /* \"#utility.yul\":475:476   */\n  0x04\n    /* \"#utility.yul\":468:483   */\n  mstore\n    /* \"#utility.yul\":502:506   */\n  0x24\n    /* \"#utility.yul\":499:500   */\n  0x00\n    /* \"#utility.yul\":492:507   */\n  revert\n    /* \"contracts/Types.sol\":76:408  contract Types {\r... */\ntag_6:\n  dataSize(sub_0)\n  dup1\n  dataOffset(sub_0)\n  0x00\n  codecopy\n  0x00\n  return\nstop\ndata_604fc6c69618783f88ada2ca10c18e0e3df0778dcc1f7b67293346311eea0ac3 436f6e747261637420746f20696e6372656d656e74206f722064656372656d656e742e\n\nsub_0: assembly {\n        /* \"contracts/Types.sol\":76:408  contract Types {\r... */\n      mstore(0x40, 0x80)\n      callvalue\n      dup1\n      iszero\n      tag_1\n      jumpi\n      0x00\n      dup1\n      revert\n    tag_1:\n      pop\n      jumpi(tag_2, lt(calldatasize, 0x04))\n      shr(0xe0, calldataload(0x00))\n      dup1\n      0x2baeceb7\n      eq\n      tag_3\n      jumpi\n      dup1\n      0xd09de08a\n      eq\n      tag_4\n      jumpi\n      dup1\n      0xe21f37ce\n      eq\n      tag_5\n      jumpi\n      dup1\n      0xe400597a\n      eq\n      tag_6\n      jumpi\n    tag_2:\n      0x00\n      dup1\n      revert\n        /* \"contracts/Types.sol\":341:405  function decrement() public {\r... */\n    tag_3:\n      tag_7\n      tag_8\n      jump\t// in\n    tag_7:\n      stop\n        /* \"contracts/Types.sol\":269:333  function increment() public {\r... */\n    tag_4:\n      tag_9\n      tag_10\n      jump\t// in\n    tag_9:\n      stop\n        /* \"contracts/Types.sol\":118:139  string public message */\n    tag_5:\n      tag_11\n      tag_12\n      jump\t// in\n    tag_11:\n      mload(0x40)\n      tag_13\n      swap2\n      swap1\n      tag_14\n      jump\t// in\n    tag_13:\n      mload(0x40)\n      dup1\n      swap2\n      sub\n      swap1\n      return\n        /* \"contracts/Types.sol\":146:172  bool public below1 = false */\n    tag_6:\n      tag_15\n      tag_16\n      jump\t// in\n    tag_15:\n      mload(0x40)\n      tag_17\n      swap2\n      swap1\n      tag_18\n      jump\t// in\n    tag_17:\n      mload(0x40)\n      dup1\n      swap2\n      sub\n      swap1\n      return\n        /* \"contracts/Types.sol\":341:405  function decrement() public {\r... */\n    tag_8:\n        /* \"contracts/Types.sol\":396:397  1 */\n      0x01\n        /* \"contracts/Types.sol\":388:393  count */\n      sload(0x00)\n        /* \"contracts/Types.sol\":388:397  count - 1 */\n      tag_20\n      swap2\n      swap1\n      tag_21\n      jump\t// in\n    tag_20:\n        /* \"contracts/Types.sol\":380:385  count */\n      0x00\n        /* \"contracts/Types.sol\":380:397  count = count - 1 */\n      dup2\n      swap1\n      sstore\n      pop\n        /* \"contracts/Types.sol\":341:405  function decrement() public {\r... */\n      jump\t// out\n        /* \"contracts/Types.sol\":269:333  function increment() public {\r... */\n    tag_10:\n        /* \"contracts/Types.sol\":324:325  1 */\n      0x01\n        /* \"contracts/Types.sol\":316:321  count */\n      sload(0x00)\n        /* \"contracts/Types.sol\":316:325  count + 1 */\n      tag_23\n      swap2\n      swap1\n      tag_24\n      jump\t// in\n    tag_23:\n        /* \"contracts/Types.sol\":308:313  count */\n      0x00\n        /* \"contracts/Types.sol\":308:325  count = count + 1 */\n      dup2\n      swap1\n      sstore\n      pop\n        /* \"contracts/Types.sol\":269:333  function increment() public {\r... */\n      jump\t// out\n        /* \"contracts/Types.sol\":118:139  string public message */\n    tag_12:\n      0x01\n      dup1\n      sload\n      tag_25\n      swap1\n      tag_26\n      jump\t// in\n    tag_25:\n      dup1\n      0x1f\n      add\n      0x20\n      dup1\n      swap2\n      div\n      mul\n      0x20\n      add\n      mload(0x40)\n      swap1\n      dup2\n      add\n      0x40\n      mstore\n      dup1\n      swap3\n      swap2\n      swap1\n      dup2\n      dup2\n      mstore\n      0x20\n      add\n      dup3\n      dup1\n      sload\n      tag_27\n      swap1\n      tag_26\n      jump\t// in\n    tag_27:\n      dup1\n      iszero\n      tag_28\n      jumpi\n      dup1\n      0x1f\n      lt\n      tag_29\n      jumpi\n      0x0100\n      dup1\n      dup4\n      sload\n      div\n      mul\n      dup4\n      mstore\n      swap2\n      0x20\n      add\n      swap2\n      jump(tag_28)\n    tag_29:\n      dup3\n      add\n      swap2\n      swap1\n      0x00\n      mstore\n      keccak256(0x00, 0x20)\n      swap1\n    tag_30:\n      dup2\n      sload\n      dup2\n      mstore\n      swap1\n      0x01\n      add\n      swap1\n      0x20\n      add\n      dup1\n      dup4\n      gt\n      tag_30\n      jumpi\n      dup3\n      swap1\n      sub\n      0x1f\n      and\n      dup3\n      add\n      swap2\n    tag_28:\n      pop\n      pop\n      pop\n      pop\n      pop\n      dup2\n      jump\t// out\n        /* \"contracts/Types.sol\":146:172  bool public below1 = false */\n    tag_16:\n      0x02\n      0x00\n      swap1\n      sload\n      swap1\n      0x0100\n      exp\n      swap1\n      div\n      0xff\n      and\n      dup2\n      jump\t// out\n        /* \"#utility.yul\":7:116   */\n    tag_32:\n        /* \"#utility.yul\":88:109   */\n      tag_34\n        /* \"#utility.yul\":103:108   */\n      dup2\n        /* \"#utility.yul\":88:109   */\n      tag_35\n      jump\t// in\n    tag_34:\n        /* \"#utility.yul\":83:86   */\n      dup3\n        /* \"#utility.yul\":76:110   */\n      mstore\n        /* \"#utility.yul\":7:116   */\n      pop\n      pop\n      jump\t// out\n        /* \"#utility.yul\":122:486   */\n    tag_36:\n        /* \"#utility.yul\":210:213   */\n      0x00\n        /* \"#utility.yul\":238:277   */\n      tag_38\n        /* \"#utility.yul\":271:276   */\n      dup3\n        /* \"#utility.yul\":238:277   */\n      tag_39\n      jump\t// in\n    tag_38:\n        /* \"#utility.yul\":293:364   */\n      tag_40\n        /* \"#utility.yul\":357:363   */\n      dup2\n        /* \"#utility.yul\":352:355   */\n      dup6\n        /* \"#utility.yul\":293:364   */\n      tag_41\n      jump\t// in\n    tag_40:\n        /* \"#utility.yul\":286:364   */\n      swap4\n      pop\n        /* \"#utility.yul\":373:425   */\n      tag_42\n        /* \"#utility.yul\":418:424   */\n      dup2\n        /* \"#utility.yul\":413:416   */\n      dup6\n        /* \"#utility.yul\":406:410   */\n      0x20\n        /* \"#utility.yul\":399:404   */\n      dup7\n        /* \"#utility.yul\":395:411   */\n      add\n        /* \"#utility.yul\":373:425   */\n      tag_43\n      jump\t// in\n    tag_42:\n        /* \"#utility.yul\":450:479   */\n      tag_44\n        /* \"#utility.yul\":472:478   */\n      dup2\n        /* \"#utility.yul\":450:479   */\n      tag_45\n      jump\t// in\n    tag_44:\n        /* \"#utility.yul\":445:448   */\n      dup5\n        /* \"#utility.yul\":441:480   */\n      add\n        /* \"#utility.yul\":434:480   */\n      swap2\n      pop\n        /* \"#utility.yul\":214:486   */\n      pop\n        /* \"#utility.yul\":122:486   */\n      swap3\n      swap2\n      pop\n      pop\n      jump\t// out\n        /* \"#utility.yul\":492:702   */\n    tag_18:\n        /* \"#utility.yul\":579:583   */\n      0x00\n        /* \"#utility.yul\":617:619   */\n      0x20\n        /* \"#utility.yul\":606:615   */\n      dup3\n        /* \"#utility.yul\":602:620   */\n      add\n        /* \"#utility.yul\":594:620   */\n      swap1\n      pop\n        /* \"#utility.yul\":630:695   */\n      tag_47\n        /* \"#utility.yul\":692:693   */\n      0x00\n        /* \"#utility.yul\":681:690   */\n      dup4\n        /* \"#utility.yul\":677:694   */\n      add\n        /* \"#utility.yul\":668:674   */\n      dup5\n        /* \"#utility.yul\":630:695   */\n      tag_32\n      jump\t// in\n    tag_47:\n        /* \"#utility.yul\":492:702   */\n      swap3\n      swap2\n      pop\n      pop\n      jump\t// out\n        /* \"#utility.yul\":708:1021   */\n    tag_14:\n        /* \"#utility.yul\":821:825   */\n      0x00\n        /* \"#utility.yul\":859:861   */\n      0x20\n        /* \"#utility.yul\":848:857   */\n      dup3\n        /* \"#utility.yul\":844:862   */\n      add\n        /* \"#utility.yul\":836:862   */\n      swap1\n      pop\n        /* \"#utility.yul\":908:917   */\n      dup2\n        /* \"#utility.yul\":902:906   */\n      dup2\n        /* \"#utility.yul\":898:918   */\n      sub\n        /* \"#utility.yul\":894:895   */\n      0x00\n        /* \"#utility.yul\":883:892   */\n      dup4\n        /* \"#utility.yul\":879:896   */\n      add\n        /* \"#utility.yul\":872:919   */\n      mstore\n        /* \"#utility.yul\":936:1014   */\n      tag_49\n        /* \"#utility.yul\":1009:1013   */\n      dup2\n        /* \"#utility.yul\":1000:1006   */\n      dup5\n        /* \"#utility.yul\":936:1014   */\n      tag_36\n      jump\t// in\n    tag_49:\n        /* \"#utility.yul\":928:1014   */\n      swap1\n      pop\n        /* \"#utility.yul\":708:1021   */\n      swap3\n      swap2\n      pop\n      pop\n      jump\t// out\n        /* \"#utility.yul\":1027:1126   */\n    tag_39:\n        /* \"#utility.yul\":1079:1085   */\n      0x00\n        /* \"#utility.yul\":1113:1118   */\n      dup2\n        /* \"#utility.yul\":1107:1119   */\n      mload\n        /* \"#utility.yul\":1097:1119   */\n      swap1\n      pop\n        /* \"#utility.yul\":1027:1126   */\n      swap2\n      swap1\n      pop\n      jump\t// out\n        /* \"#utility.yul\":1132:1301   */\n    tag_41:\n        /* \"#utility.yul\":1216:1227   */\n      0x00\n        /* \"#utility.yul\":1250:1256   */\n      dup3\n        /* \"#utility.yul\":1245:1248   */\n      dup3\n        /* \"#utility.yul\":1238:1257   */\n      mstore\n        /* \"#utility.yul\":1290:1294   */\n      0x20\n        /* \"#utility.yul\":1285:1288   */\n      dup3\n        /* \"#utility.yul\":1281:1295   */\n      add\n        /* \"#utility.yul\":1266:1295   */\n      swap1\n      pop\n        /* \"#utility.yul\":1132:1301   */\n      swap3\n      swap2\n      pop\n      pop\n      jump\t// out\n        /* \"#utility.yul\":1307:1612   */\n    tag_24:\n        /* \"#utility.yul\":1347:1350   */\n      0x00\n        /* \"#utility.yul\":1366:1386   */\n      tag_53\n        /* \"#utility.yul\":1384:1385   */\n      dup3\n        /* \"#utility.yul\":1366:1386   */\n      tag_54\n      jump\t// in\n    tag_53:\n        /* \"#utility.yul\":1361:1386   */\n      swap2\n      pop\n        /* \"#utility.yul\":1400:1420   */\n      tag_55\n        /* \"#utility.yul\":1418:1419   */\n      dup4\n        /* \"#utility.yul\":1400:1420   */\n      tag_54\n      jump\t// in\n    tag_55:\n        /* \"#utility.yul\":1395:1420   */\n      swap3\n      pop\n        /* \"#utility.yul\":1554:1555   */\n      dup3\n        /* \"#utility.yul\":1486:1552   */\n      0xffffffffffffffffffffffffffffffffffffffffffffffffffffffffffffffff\n        /* \"#utility.yul\":1482:1556   */\n      sub\n        /* \"#utility.yul\":1479:1480   */\n      dup3\n        /* \"#utility.yul\":1476:1557   */\n      gt\n        /* \"#utility.yul\":1473:1580   */\n      iszero\n      tag_56\n      jumpi\n        /* \"#utility.yul\":1560:1578   */\n      tag_57\n      tag_58\n      jump\t// in\n    tag_57:\n        /* \"#utility.yul\":1473:1580   */\n    tag_56:\n        /* \"#utility.yul\":1604:1605   */\n      dup3\n        /* \"#utility.yul\":1601:1602   */\n      dup3\n        /* \"#utility.yul\":1597:1606   */\n      add\n        /* \"#utility.yul\":1590:1606   */\n      swap1\n      pop\n        /* \"#utility.yul\":1307:1612   */\n      swap3\n      swap2\n      pop\n      pop\n      jump\t// out\n        /* \"#utility.yul\":1618:1809   */\n    tag_21:\n        /* \"#utility.yul\":1658:1662   */\n      0x00\n        /* \"#utility.yul\":1678:1698   */\n      tag_60\n        /* \"#utility.yul\":1696:1697   */\n      dup3\n        /* \"#utility.yul\":1678:1698   */\n      tag_54\n      jump\t// in\n    tag_60:\n        /* \"#utility.yul\":1673:1698   */\n      swap2\n      pop\n        /* \"#utility.yul\":1712:1732   */\n      tag_61\n        /* \"#utility.yul\":1730:1731   */\n      dup4\n        /* \"#utility.yul\":1712:1732   */\n      tag_54\n      jump\t// in\n    tag_61:\n        /* \"#utility.yul\":1707:1732   */\n      swap3\n      pop\n        /* \"#utility.yul\":1751:1752   */\n      dup3\n        /* \"#utility.yul\":1748:1749   */\n      dup3\n        /* \"#utility.yul\":1745:1753   */\n      lt\n        /* \"#utility.yul\":1742:1776   */\n      iszero\n      tag_62\n      jumpi\n        /* \"#utility.yul\":1756:1774   */\n      tag_63\n      tag_58\n      jump\t// in\n    tag_63:\n        /* \"#utility.yul\":1742:1776   */\n    tag_62:\n        /* \"#utility.yul\":1801:1802   */\n      dup3\n        /* \"#utility.yul\":1798:1799   */\n      dup3\n        /* \"#utility.yul\":1794:1803   */\n      sub\n        /* \"#utility.yul\":1786:1803   */\n      swap1\n      pop\n        /* \"#utility.yul\":1618:1809   */\n      swap3\n      swap2\n      pop\n      pop\n      jump\t// out\n        /* \"#utility.yul\":1815:1905   */\n    tag_35:\n        /* \"#utility.yul\":1849:1856   */\n      0x00\n        /* \"#utility.yul\":1892:1897   */\n      dup2\n        /* \"#utility.yul\":1885:1898   */\n      iszero\n        /* \"#utility.yul\":1878:1899   */\n      iszero\n        /* \"#utility.yul\":1867:1899   */\n      swap1\n      pop\n        /* \"#utility.yul\":1815:1905   */\n      swap2\n      swap1\n      pop\n      jump\t// out\n        /* \"#utility.yul\":1911:1988   */\n    tag_54:\n        /* \"#utility.yul\":1948:1955   */\n      0x00\n        /* \"#utility.yul\":1977:1982   */\n      dup2\n        /* \"#utility.yul\":1966:1982   */\n      swap1\n      pop\n        /* \"#utility.yul\":1911:1988   */\n      swap2\n      swap1\n      pop\n      jump\t// out\n        /* \"#utility.yul\":1994:2301   */\n    tag_43:\n        /* \"#utility.yul\":2062:2063   */\n      0x00\n        /* \"#utility.yul\":2072:2185   */\n    tag_67:\n        /* \"#utility.yul\":2086:2092   */\n      dup4\n        /* \"#utility.yul\":2083:2084   */\n      dup2\n        /* \"#utility.yul\":2080:2093   */\n      lt\n        /* \"#utility.yul\":2072:2185   */\n      iszero\n      tag_69\n      jumpi\n        /* \"#utility.yul\":2171:2172   */\n      dup1\n        /* \"#utility.yul\":2166:2169   */\n      dup3\n        /* \"#utility.yul\":2162:2173   */\n      add\n        /* \"#utility.yul\":2156:2174   */\n      mload\n        /* \"#utility.yul\":2152:2153   */\n      dup2\n        /* \"#utility.yul\":2147:2150   */\n      dup5\n        /* \"#utility.yul\":2143:2154   */\n      add\n        /* \"#utility.yul\":2136:2175   */\n      mstore\n        /* \"#utility.yul\":2108:2110   */\n      0x20\n        /* \"#utility.yul\":2105:2106   */\n      dup2\n        /* \"#utility.yul\":2101:2111   */\n      add\n        /* \"#utility.yul\":2096:2111   */\n      swap1\n      pop\n        /* \"#utility.yul\":2072:2185   */\n      jump(tag_67)\n    tag_69:\n        /* \"#utility.yul\":2203:2209   */\n      dup4\n        /* \"#utility.yul\":2200:2201   */\n      dup2\n        /* \"#utility.yul\":2197:2210   */\n      gt\n        /* \"#utility.yul\":2194:2295   */\n      iszero\n      tag_70\n      jumpi\n        /* \"#utility.yul\":2283:2284   */\n      0x00\n        /* \"#utility.yul\":2274:2280   */\n      dup5\n        /* \"#utility.yul\":2269:2272   */\n      dup5\n        /* \"#utility.yul\":2265:2281   */\n      add\n        /* \"#utility.yul\":2258:2285   */\n      mstore\n        /* \"#utility.yul\":2194:2295   */\n    tag_70:\n        /* \"#utility.yul\":2043:2301   */\n      pop\n        /* \"#utility.yul\":1994:2301   */\n      pop\n      pop\n      pop\n      jump\t// out\n        /* \"#utility.yul\":2307:2627   */\n    tag_26:\n        /* \"#utility.yul\":2351:2357   */\n      0x00\n        /* \"#utility.yul\":2388:2389   */\n      0x02\n        /* \"#utility.yul\":2382:2386   */\n      dup3\n        /* \"#utility.yul\":2378:2390   */\n      div\n        /* \"#utility.yul\":2368:2390   */\n      swap1\n      pop\n        /* \"#utility.yul\":2435:2436   */\n      0x01\n        /* \"#utility.yul\":2429:2433   */\n      dup3\n        /* \"#utility.yul\":2425:2437   */\n      and\n        /* \"#utility.yul\":2456:2474   */\n      dup1\n        /* \"#utility.yul\":2446:2527   */\n      tag_72\n      jumpi\n        /* \"#utility.yul\":2512:2516   */\n      0x7f\n        /* \"#utility.yul\":2504:2510   */\n      dup3\n        /* \"#utility.yul\":2500:2517   */\n      and\n        /* \"#utility.yul\":2490:2517   */\n      swap2\n      pop\n        /* \"#utility.yul\":2446:2527   */\n    tag_72:\n        /* \"#utility.yul\":2574:2576   */\n      0x20\n        /* \"#utility.yul\":2566:2572   */\n      dup3\n        /* \"#utility.yul\":2563:2577   */\n      lt\n        /* \"#utility.yul\":2543:2561   */\n      dup2\n        /* \"#utility.yul\":2540:2578   */\n      eq\n        /* \"#utility.yul\":2537:2621   */\n      iszero\n      tag_73\n      jumpi\n        /* \"#utility.yul\":2593:2611   */\n      tag_74\n      tag_75\n      jump\t// in\n    tag_74:\n        /* \"#utility.yul\":2537:2621   */\n    tag_73:\n        /* \"#utility.yul\":2358:2627   */\n      pop\n        /* \"#utility.yul\":2307:2627   */\n      swap2\n      swap1\n      pop\n      jump\t// out\n        /* \"#utility.yul\":2633:2813   */\n    tag_58:\n        /* \"#utility.yul\":2681:2758   */\n      0x4e487b7100000000000000000000000000000000000000000000000000000000\n        /* \"#utility.yul\":2678:2679   */\n      0x00\n        /* \"#utility.yul\":2671:2759   */\n      mstore\n        /* \"#utility.yul\":2778:2782   */\n      0x11\n        /* \"#utility.yul\":2775:2776   */\n      0x04\n        /* \"#utility.yul\":2768:2783   */\n      mstore\n        /* \"#utility.yul\":2802:2806   */\n      0x24\n        /* \"#utility.yul\":2799:2800   */\n      0x00\n        /* \"#utility.yul\":2792:2807   */\n      revert\n        /* \"#utility.yul\":2819:2999   */\n    tag_75:\n        /* \"#utility.yul\":2867:2944   */\n      0x4e487b7100000000000000000000000000000000000000000000000000000000\n        /* \"#utility.yul\":2864:2865   */\n      0x00\n        /* \"#utility.yul\":2857:2945   */\n      mstore\n        /* \"#utility.yul\":2964:2968   */\n      0x22\n        /* \"#utility.yul\":2961:2962   */\n      0x04\n        /* \"#utility.yul\":2954:2969   */\n      mstore\n        /* \"#utility.yul\":2988:2992   */\n      0x24\n        /* \"#utility.yul\":2985:2986   */\n      0x00\n        /* \"#utility.yul\":2978:2993   */\n      revert\n        /* \"#utility.yul\":3005:3107   */\n    tag_45:\n        /* \"#utility.yul\":3046:3052   */\n      0x00\n        /* \"#utility.yul\":3097:3099   */\n      0x1f\n        /* \"#utility.yul\":3093:3100   */\n      not\n        /* \"#utility.yul\":3088:3090   */\n      0x1f\n        /* \"#utility.yul\":3081:3086   */\n      dup4\n        /* \"#utility.yul\":3077:3091   */\n      add\n        /* \"#utility.yul\":3073:3101   */\n      and\n        /* \"#utility.yul\":3063:3101   */\n      swap1\n      pop\n        /* \"#utility.yul\":3005:3107   */\n      swap2\n      swap1\n      pop\n      jump\t// out\n\n    auxdata: 0xa264697066735822122089c36bd6607dac637c018f0e8afe799705231aa35b86d30cf173885a73c30c3964736f6c63430008070033\n}\n",
				"bytecode": {
					"linkReferences": {},
					"object": "60806040526000600260006101000a81548160ff02191690831515021790555034801561002b57600080fd5b5060405180606001604052806023815260200161052e602391396001908051906020019061005a929190610060565b50610164565b82805461006c90610103565b90600052602060002090601f01602090048101928261008e57600085556100d5565b82601f106100a757805160ff19168380011785556100d5565b828001600101855582156100d5579182015b828111156100d45782518255916020019190600101906100b9565b5b5090506100e291906100e6565b5090565b5b808211156100ff5760008160009055506001016100e7565b5090565b6000600282049050600182168061011b57607f821691505b6020821081141561012f5761012e610135565b5b50919050565b7f4e487b7100000000000000000000000000000000000000000000000000000000600052602260045260246000fd5b6103bb806101736000396000f3fe608060405234801561001057600080fd5b506004361061004c5760003560e01c80632baeceb714610051578063d09de08a1461005b578063e21f37ce14610065578063e400597a14610083575b600080fd5b6100596100a1565b005b6100636100b8565b005b61006d6100cf565b60405161007a91906101d3565b60405180910390f35b61008b61015d565b60405161009891906101b8565b60405180910390f35b60016000546100b09190610267565b600081905550565b60016000546100c79190610211565b600081905550565b600180546100dc906102e4565b80601f0160208091040260200160405190810160405280929190818152602001828054610108906102e4565b80156101555780601f1061012a57610100808354040283529160200191610155565b820191906000526020600020905b81548152906001019060200180831161013857829003601f168201915b505050505081565b600260009054906101000a900460ff1681565b6101798161029b565b82525050565b600061018a826101f5565b6101948185610200565b93506101a48185602086016102b1565b6101ad81610374565b840191505092915050565b60006020820190506101cd6000830184610170565b92915050565b600060208201905081810360008301526101ed818461017f565b905092915050565b600081519050919050565b600082825260208201905092915050565b600061021c826102a7565b9150610227836102a7565b9250827fffffffffffffffffffffffffffffffffffffffffffffffffffffffffffffffff0382111561025c5761025b610316565b5b828201905092915050565b6000610272826102a7565b915061027d836102a7565b9250828210156102905761028f610316565b5b828203905092915050565b60008115159050919050565b6000819050919050565b60005b838110156102cf5780820151818401526020810190506102b4565b838111156102de576000848401525b50505050565b600060028204905060018216806102fc57607f821691505b602082108114156103105761030f610345565b5b50919050565b7f4e487b7100000000000000000000000000000000000000000000000000000000600052601160045260246000fd5b7f4e487b7100000000000000000000000000000000000000000000000000000000600052602260045260246000fd5b6000601f19601f830116905091905056fea264697066735822122089c36bd6607dac637c018f0e8afe799705231aa35b86d30cf173885a73c30c3964736f6c63430008070033436f6e747261637420746f20696e6372656d656e74206f722064656372656d656e742e",
					"opcodes": "PUSH1 0x80 PUSH1 0x40 MSTORE PUSH1 0x0 PUSH1 0x2 PUSH1 0x0 PUSH2 0x100 EXP DUP2 SLOAD DUP2 PUSH1 0xFF MUL NOT AND SWAP1 DUP4 ISZERO ISZERO MUL OR SWAP1 SSTORE POP CALLVALUE DUP1 ISZERO PUSH2 0x2B JUMPI PUSH1 0x0 DUP1 REVERT JUMPDEST POP PUSH1 0x40 MLOAD DUP1 PUSH1 0x60 ADD PUSH1 0x40 MSTORE DUP1 PUSH1 0x23 DUP2 MSTORE PUSH1 0x20 ADD PUSH2 0x52E PUSH1 0x23 SWAP2 CODECOPY PUSH1 0x1 SWAP1 DUP1 MLOAD SWAP1 PUSH1 0x20 ADD SWAP1 PUSH2 0x5A SWAP3 SWAP2 SWAP1 PUSH2 0x60 JUMP JUMPDEST POP PUSH2 0x164 JUMP JUMPDEST DUP3 DUP1 SLOAD PUSH2 0x6C SWAP1 PUSH2 0x103 JUMP JUMPDEST SWAP1 PUSH1 0x0 MSTORE PUSH1 0x20 PUSH1 0x0 KECCAK256 SWAP1 PUSH1 0x1F ADD PUSH1 0x20 SWAP1 DIV DUP2 ADD SWAP3 DUP3 PUSH2 0x8E JUMPI PUSH1 0x0 DUP6 SSTORE PUSH2 0xD5 JUMP JUMPDEST DUP3 PUSH1 0x1F LT PUSH2 0xA7 JUMPI DUP1 MLOAD PUSH1 0xFF NOT AND DUP4 DUP1 ADD OR DUP6 SSTORE PUSH2 0xD5 JUMP JUMPDEST DUP3 DUP1 ADD PUSH1 0x1 ADD DUP6 SSTORE DUP3 ISZERO PUSH2 0xD5 JUMPI SWAP2 DUP3 ADD JUMPDEST DUP3 DUP2 GT ISZERO PUSH2 0xD4 JUMPI DUP3 MLOAD DUP3 SSTORE SWAP2 PUSH1 0x20 ADD SWAP2 SWAP1 PUSH1 0x1 ADD SWAP1 PUSH2 0xB9 JUMP JUMPDEST JUMPDEST POP SWAP1 POP PUSH2 0xE2 SWAP2 SWAP1 PUSH2 0xE6 JUMP JUMPDEST POP SWAP1 JUMP JUMPDEST JUMPDEST DUP1 DUP3 GT ISZERO PUSH2 0xFF JUMPI PUSH1 0x0 DUP2 PUSH1 0x0 SWAP1 SSTORE POP PUSH1 0x1 ADD PUSH2 0xE7 JUMP JUMPDEST POP SWAP1 JUMP JUMPDEST PUSH1 0x0 PUSH1 0x2 DUP3 DIV SWAP1 POP PUSH1 0x1 DUP3 AND DUP1 PUSH2 0x11B JUMPI PUSH1 0x7F DUP3 AND SWAP2 POP JUMPDEST PUSH1 0x20 DUP3 LT DUP2 EQ ISZERO PUSH2 0x12F JUMPI PUSH2 0x12E PUSH2 0x135 JUMP JUMPDEST JUMPDEST POP SWAP2 SWAP1 POP JUMP JUMPDEST PUSH32 0x4E487B7100000000000000000000000000000000000000000000000000000000 PUSH1 0x0 MSTORE PUSH1 0x22 PUSH1 0x4 MSTORE PUSH1 0x24 PUSH1 0x0 REVERT JUMPDEST PUSH2 0x3BB DUP1 PUSH2 0x173 PUSH1 0x0 CODECOPY PUSH1 0x0 RETURN INVALID PUSH1 0x80 PUSH1 0x40 MSTORE CALLVALUE DUP1 ISZERO PUSH2 0x10 JUMPI PUSH1 0x0 DUP1 REVERT JUMPDEST POP PUSH1 0x4 CALLDATASIZE LT PUSH2 0x4C JUMPI PUSH1 0x0 CALLDATALOAD PUSH1 0xE0 SHR DUP1 PUSH4 0x2BAECEB7 EQ PUSH2 0x51 JUMPI DUP1 PUSH4 0xD09DE08A EQ PUSH2 0x5B JUMPI DUP1 PUSH4 0xE21F37CE EQ PUSH2 0x65 JUMPI DUP1 PUSH4 0xE400597A EQ PUSH2 0x83 JUMPI JUMPDEST PUSH1 0x0 DUP1 REVERT JUMPDEST PUSH2 0x59 PUSH2 0xA1 JUMP JUMPDEST STOP JUMPDEST PUSH2 0x63 PUSH2 0xB8 JUMP JUMPDEST STOP JUMPDEST PUSH2 0x6D PUSH2 0xCF JUMP JUMPDEST PUSH1 0x40 MLOAD PUSH2 0x7A SWAP2 SWAP1 PUSH2 0x1D3 JUMP JUMPDEST PUSH1 0x40 MLOAD DUP1 SWAP2 SUB SWAP1 RETURN JUMPDEST PUSH2 0x8B PUSH2 0x15D JUMP JUMPDEST PUSH1 0x40 MLOAD PUSH2 0x98 SWAP2 SWAP1 PUSH2 0x1B8 JUMP JUMPDEST PUSH1 0x40 MLOAD DUP1 SWAP2 SUB SWAP1 RETURN JUMPDEST PUSH1 0x1 PUSH1 0x0 SLOAD PUSH2 0xB0 SWAP2 SWAP1 PUSH2 0x267 JUMP JUMPDEST PUSH1 0x0 DUP2 SWAP1 SSTORE POP JUMP JUMPDEST PUSH1 0x1 PUSH1 0x0 SLOAD PUSH2 0xC7 SWAP2 SWAP1 PUSH2 0x211 JUMP JUMPDEST PUSH1 0x0 DUP2 SWAP1 SSTORE POP JUMP JUMPDEST PUSH1 0x1 DUP1 SLOAD PUSH2 0xDC SWAP1 PUSH2 0x2E4 JUMP JUMPDEST DUP1 PUSH1 0x1F ADD PUSH1 0x20 DUP1 SWAP2 DIV MUL PUSH1 0x20 ADD PUSH1 0x40 MLOAD SWAP1 DUP2 ADD PUSH1 0x40 MSTORE DUP1 SWAP3 SWAP2 SWAP1 DUP2 DUP2 MSTORE PUSH1 0x20 ADD DUP3 DUP1 SLOAD PUSH2 0x108 SWAP1 PUSH2 0x2E4 JUMP JUMPDEST DUP1 ISZERO PUSH2 0x155 JUMPI DUP1 PUSH1 0x1F LT PUSH2 0x12A JUMPI PUSH2 0x100 DUP1 DUP4 SLOAD DIV MUL DUP4 MSTORE SWAP2 PUSH1 0x20 ADD SWAP2 PUSH2 0x155 JUMP JUMPDEST DUP3 ADD SWAP2 SWAP1 PUSH1 0x0 MSTORE PUSH1 0x20 PUSH1 0x0 KECCAK256 SWAP1 JUMPDEST DUP2 SLOAD DUP2 MSTORE SWAP1 PUSH1 0x1 ADD SWAP1 PUSH1 0x20 ADD DUP1 DUP4 GT PUSH2 0x138 JUMPI DUP3 SWAP1 SUB PUSH1 0x1F AND DUP3 ADD SWAP2 JUMPDEST POP POP POP POP POP DUP2 JUMP JUMPDEST PUSH1 0x2 PUSH1 0x0 SWAP1 SLOAD SWAP1 PUSH2 0x100 EXP SWAP1 DIV PUSH1 0xFF AND DUP2 JUMP JUMPDEST PUSH2 0x179 DUP2 PUSH2 0x29B JUMP JUMPDEST DUP3 MSTORE POP POP JUMP JUMPDEST PUSH1 0x0 PUSH2 0x18A DUP3 PUSH2 0x1F5 JUMP JUMPDEST PUSH2 0x194 DUP2 DUP6 PUSH2 0x200 JUMP JUMPDEST SWAP4 POP PUSH2 0x1A4 DUP2 DUP6 PUSH1 0x20 DUP7 ADD PUSH2 0x2B1 JUMP JUMPDEST PUSH2 0x1AD DUP2 PUSH2 0x374 JUMP JUMPDEST DUP5 ADD SWAP2 POP POP SWAP3 SWAP2 POP POP JUMP JUMPDEST PUSH1 0x0 PUSH1 0x20 DUP3 ADD SWAP1 POP PUSH2 0x1CD PUSH1 0x0 DUP4 ADD DUP5 PUSH2 0x170 JUMP JUMPDEST SWAP3 SWAP2 POP POP JUMP JUMPDEST PUSH1 0x0 PUSH1 0x20 DUP3 ADD SWAP1 POP DUP2 DUP2 SUB PUSH1 0x0 DUP4 ADD MSTORE PUSH2 0x1ED DUP2 DUP5 PUSH2 0x17F JUMP JUMPDEST SWAP1 POP SWAP3 SWAP2 POP POP JUMP JUMPDEST PUSH1 0x0 DUP2 MLOAD SWAP1 POP SWAP2 SWAP1 POP JUMP JUMPDEST PUSH1 0x0 DUP3 DUP3 MSTORE PUSH1 0x20 DUP3 ADD SWAP1 POP SWAP3 SWAP2 POP POP JUMP JUMPDEST PUSH1 0x0 PUSH2 0x21C DUP3 PUSH2 0x2A7 JUMP JUMPDEST SWAP2 POP PUSH2 0x227 DUP4 PUSH2 0x2A7 JUMP JUMPDEST SWAP3 POP DUP3 PUSH32 0xFFFFFFFFFFFFFFFFFFFFFFFFFFFFFFFFFFFFFFFFFFFFFFFFFFFFFFFFFFFFFFFF SUB DUP3 GT ISZERO PUSH2 0x25C JUMPI PUSH2 0x25B PUSH2 0x316 JUMP JUMPDEST JUMPDEST DUP3 DUP3 ADD SWAP1 POP SWAP3 SWAP2 POP POP JUMP JUMPDEST PUSH1 0x0 PUSH2 0x272 DUP3 PUSH2 0x2A7 JUMP JUMPDEST SWAP2 POP PUSH2 0x27D DUP4 PUSH2 0x2A7 JUMP JUMPDEST SWAP3 POP DUP3 DUP3 LT ISZERO PUSH2 0x290 JUMPI PUSH2 0x28F PUSH2 0x316 JUMP JUMPDEST JUMPDEST DUP3 DUP3 SUB SWAP1 POP SWAP3 SWAP2 POP POP JUMP JUMPDEST PUSH1 0x0 DUP2 ISZERO ISZERO SWAP1 POP SWAP2 SWAP1 POP JUMP JUMPDEST PUSH1 0x0 DUP2 SWAP1 POP SWAP2 SWAP1 POP JUMP JUMPDEST PUSH1 0x0 JUMPDEST DUP4 DUP2 LT ISZERO PUSH2 0x2CF JUMPI DUP1 DUP3 ADD MLOAD DUP2 DUP5 ADD MSTORE PUSH1 0x20 DUP2 ADD SWAP1 POP PUSH2 0x2B4 JUMP JUMPDEST DUP4 DUP2 GT ISZERO PUSH2 0x2DE JUMPI PUSH1 0x0 DUP5 DUP5 ADD MSTORE JUMPDEST POP POP POP POP JUMP JUMPDEST PUSH1 0x0 PUSH1 0x2 DUP3 DIV SWAP1 POP PUSH1 0x1 DUP3 AND DUP1 PUSH2 0x2FC JUMPI PUSH1 0x7F DUP3 AND SWAP2 POP JUMPDEST PUSH1 0x20 DUP3 LT DUP2 EQ ISZERO PUSH2 0x310 JUMPI PUSH2 0x30F PUSH2 0x345 JUMP JUMPDEST JUMPDEST POP SWAP2 SWAP1 POP JUMP JUMPDEST PUSH32 0x4E487B7100000000000000000000000000000000000000000000000000000000 PUSH1 0x0 MSTORE PUSH1 0x11 PUSH1 0x4 MSTORE PUSH1 0x24 PUSH1 0x0 REVERT JUMPDEST PUSH32 0x4E487B7100000000000000000000000000000000000000000000000000000000 PUSH1 0x0 MSTORE PUSH1 0x22 PUSH1 0x4 MSTORE PUSH1 0x24 PUSH1 0x0 REVERT JUMPDEST PUSH1 0x0 PUSH1 0x1F NOT PUSH1 0x1F DUP4 ADD AND SWAP1 POP SWAP2 SWAP1 POP JUMP INVALID LOG2 PUSH5 0x6970667358 0x22 SLT KECCAK256 DUP10 0xC3 PUSH12 0xD6607DAC637C018F0E8AFE79 SWAP8 SDIV 0x23 BYTE LOG3 JUMPDEST DUP7 0xD3 0xC CALL PUSH20 0x885A73C30C3964736F6C63430008070033436F6E PUSH21 0x7261637420746F20696E6372656D656E74206F7220 PUSH5 0x656372656D PUSH6 0x6E742E000000 "
				},
				"gasEstimates": {
					"creation": {
						"codeDepositCost": "191000",
						"executionCost": "infinite",
						"totalCost": "infinite"
					},
					"external": {
						"below1()": "2515",
						"decrement()": "infinite",
						"increment()": "infinite",
						"message()": "infinite"
					}
				},
				"methodIdentifiers": {
					"below1()": "e400597a",
					"decrement()": "2baeceb7",
					"increment()": "d09de08a",
					"message()": "e21f37ce"
				}
			},
			"storageLayout": {
				"storage": [
					{
						"astId": 3,
						"contract": "contracts/Types.sol:Types",
						"label": "count",
						"offset": 0,
						"slot": "0",
						"type": "t_uint256"
					},
					{
						"astId": 5,
						"contract": "contracts/Types.sol:Types",
						"label": "message",
						"offset": 0,
						"slot": "1",
						"type": "t_string_storage"
					},
					{
						"astId": 8,
						"contract": "contracts/Types.sol:Types",
						"label": "below1",
						"offset": 0,
						"slot": "2",
						"type": "t_bool"
					}
				],
				"types": {
					"t_bool": {
						"encoding": "inplace",
						"label": "bool",
						"numberOfBytes": "1"
					},
					"t_string_storage": {
						"encoding": "bytes",
						"label": "string",
						"numberOfBytes": "32"
					},
					"t_uint256": {
						"encoding": "inplace",
						"label": "uint256",
						"numberOfBytes": "32"
					}
				}
			},
			"userdoc": {
				"kind": "user",
				"methods": {},
				"version": 1
			}
		}
	}
}