{
	"contracts/TaskManager.sol": {
		"TaskManager": {
			"abi": [
				{
					"inputs": [],
					"stateMutability": "nonpayable",
					"type": "constructor"
				},
				{
					"anonymous": false,
					"inputs": [
						{
							"components": [
								{
									"internalType": "uint256",
									"name": "id",
									"type": "uint256"
								},
								{
									"internalType": "enum TaskManager.Priority",
									"name": "priority",
									"type": "uint8"
								},
								{
									"internalType": "string",
									"name": "content",
									"type": "string"
								},
								{
									"internalType": "uint256",
									"name": "timestamp",
									"type": "uint256"
								},
								{
									"internalType": "bool",
									"name": "completed",
									"type": "bool"
								}
							],
							"indexed": false,
							"internalType": "struct TaskManager.Task",
							"name": "task",
							"type": "tuple"
						},
						{
							"indexed": false,
							"internalType": "uint256",
							"name": "time",
							"type": "uint256"
						}
					],
					"name": "NewTask",
					"type": "event"
				},
				{
					"inputs": [
						{
							"internalType": "string",
							"name": "content",
							"type": "string"
						}
					],
					"name": "addTask",
					"outputs": [],
					"stateMutability": "nonpayable",
					"type": "function"
				},
				{
					"inputs": [
						{
							"internalType": "uint256",
							"name": "_count",
							"type": "uint256"
						}
					],
					"name": "completeTask",
					"outputs": [],
					"stateMutability": "nonpayable",
					"type": "function"
				},
				{
					"inputs": [],
					"name": "getTasksCount",
					"outputs": [
						{
							"internalType": "uint256",
							"name": "countTasks",
							"type": "uint256"
						}
					],
					"stateMutability": "view",
					"type": "function"
				},
				{
					"inputs": [
						{
							"internalType": "address",
							"name": "",
							"type": "address"
						}
					],
					"name": "premiums",
					"outputs": [
						{
							"internalType": "bool",
							"name": "",
							"type": "bool"
						}
					],
					"stateMutability": "view",
					"type": "function"
				},
				{
					"inputs": [],
					"name": "upgradePlan",
					"outputs": [],
					"stateMutability": "payable",
					"type": "function"
				}
			],
			"devdoc": {
				"kind": "dev",
				"methods": {},
				"version": 1
			},
			"evm": {
				"assembly": "    /* \"contracts/TaskManager.sol\":295:2233  contract TaskManager {\r... */\n  mstore(0x40, 0x80)\n    /* \"contracts/TaskManager.sol\":1027:1098  constructor() {\r... */\n  callvalue\n  dup1\n  iszero\n  tag_1\n  jumpi\n  0x00\n  dup1\n  revert\ntag_1:\n  pop\n    /* \"contracts/TaskManager.sol\":1060:1070  msg.sender */\n  caller\n    /* \"contracts/TaskManager.sol\":1052:1057  admin */\n  0x00\n  dup1\n    /* \"contracts/TaskManager.sol\":1052:1070  admin = msg.sender */\n  0x0100\n  exp\n  dup2\n  sload\n  dup2\n  0xffffffffffffffffffffffffffffffffffffffff\n  mul\n  not\n  and\n  swap1\n  dup4\n  0xffffffffffffffffffffffffffffffffffffffff\n  and\n  mul\n  or\n  swap1\n  sstore\n  pop\n    /* \"contracts/TaskManager.sol\":1089:1090  0 */\n  0x00\n    /* \"contracts/TaskManager.sol\":1081:1086  count */\n  0x01\n    /* \"contracts/TaskManager.sol\":1081:1090  count = 0 */\n  dup2\n  swap1\n  sstore\n  pop\n    /* \"contracts/TaskManager.sol\":295:2233  contract TaskManager {\r... */\n  dataSize(sub_0)\n  dup1\n  dataOffset(sub_0)\n  0x00\n  codecopy\n  0x00\n  return\nstop\n\nsub_0: assembly {\n        /* \"contracts/TaskManager.sol\":295:2233  contract TaskManager {\r... */\n      mstore(0x40, 0x80)\n      jumpi(tag_1, lt(calldatasize, 0x04))\n      shr(0xe0, calldataload(0x00))\n      dup1\n      0x04fafc6c\n      eq\n      tag_2\n      jumpi\n      dup1\n      0x67238562\n      eq\n      tag_3\n      jumpi\n      dup1\n      0x9bddb69a\n      eq\n      tag_4\n      jumpi\n      dup1\n      0x9f899273\n      eq\n      tag_5\n      jumpi\n      dup1\n      0xe1e29558\n      eq\n      tag_6\n      jumpi\n    tag_1:\n      0x00\n      dup1\n      revert\n        /* \"contracts/TaskManager.sol\":1724:1870  function upgradePlan() public payable {\r... */\n    tag_2:\n      tag_7\n      tag_8\n      jump\t// in\n    tag_7:\n      stop\n        /* \"contracts/TaskManager.sol\":1231:1552  function addTask(string memory content) public isPremium {\r... */\n    tag_3:\n      callvalue\n      dup1\n      iszero\n      tag_9\n      jumpi\n      0x00\n      dup1\n      revert\n    tag_9:\n      pop\n      tag_10\n      0x04\n      dup1\n      calldatasize\n      sub\n      dup2\n      add\n      swap1\n      tag_11\n      swap2\n      swap1\n      tag_12\n      jump\t// in\n    tag_11:\n      tag_13\n      jump\t// in\n    tag_10:\n      stop\n        /* \"contracts/TaskManager.sol\":823:863  mapping(address => bool) public premiums */\n    tag_4:\n      callvalue\n      dup1\n      iszero\n      tag_14\n      jumpi\n      0x00\n      dup1\n      revert\n    tag_14:\n      pop\n      tag_15\n      0x04\n      dup1\n      calldatasize\n      sub\n      dup2\n      add\n      swap1\n      tag_16\n      swap2\n      swap1\n      tag_17\n      jump\t// in\n    tag_16:\n      tag_18\n      jump\t// in\n    tag_15:\n      mload(0x40)\n      tag_19\n      swap2\n      swap1\n      tag_20\n      jump\t// in\n    tag_19:\n      mload(0x40)\n      dup1\n      swap2\n      sub\n      swap1\n      return\n        /* \"contracts/TaskManager.sol\":1878:1970  function getTasksCount() view public returns(uint countTasks){\r... */\n    tag_5:\n      callvalue\n      dup1\n      iszero\n      tag_21\n      jumpi\n      0x00\n      dup1\n      revert\n    tag_21:\n      pop\n      tag_22\n      tag_23\n      jump\t// in\n    tag_22:\n      mload(0x40)\n      tag_24\n      swap2\n      swap1\n      tag_25\n      jump\t// in\n    tag_24:\n      mload(0x40)\n      dup1\n      swap2\n      sub\n      swap1\n      return\n        /* \"contracts/TaskManager.sol\":1560:1716  function completeTask(uint _count) public {\r... */\n    tag_6:\n      callvalue\n      dup1\n      iszero\n      tag_26\n      jumpi\n      0x00\n      dup1\n      revert\n    tag_26:\n      pop\n      tag_27\n      0x04\n      dup1\n      calldatasize\n      sub\n      dup2\n      add\n      swap1\n      tag_28\n      swap2\n      swap1\n      tag_29\n      jump\t// in\n    tag_28:\n      tag_30\n      jump\t// in\n    tag_27:\n      stop\n        /* \"contracts/TaskManager.sol\":1724:1870  function upgradePlan() public payable {\r... */\n    tag_8:\n        /* \"contracts/TaskManager.sol\":1794:1799  5 wei */\n      0x05\n        /* \"contracts/TaskManager.sol\":1781:1790  msg.value */\n      callvalue\n        /* \"contracts/TaskManager.sol\":1781:1799  msg.value >= 5 wei */\n      lt\n      iszero\n        /* \"contracts/TaskManager.sol\":1773:1824  require(msg.value >= 5 wei, 'No sufficient funds.') */\n      tag_32\n      jumpi\n      mload(0x40)\n      0x08c379a000000000000000000000000000000000000000000000000000000000\n      dup2\n      mstore\n      0x04\n      add\n      tag_33\n      swap1\n      tag_34\n      jump\t// in\n    tag_33:\n      mload(0x40)\n      dup1\n      swap2\n      sub\n      swap1\n      revert\n    tag_32:\n        /* \"contracts/TaskManager.sol\":1858:1862  true */\n      0x01\n        /* \"contracts/TaskManager.sol\":1835:1843  premiums */\n      0x03\n        /* \"contracts/TaskManager.sol\":1835:1855  premiums[msg.sender] */\n      0x00\n        /* \"contracts/TaskManager.sol\":1844:1854  msg.sender */\n      caller\n        /* \"contracts/TaskManager.sol\":1835:1855  premiums[msg.sender] */\n      0xffffffffffffffffffffffffffffffffffffffff\n      and\n      0xffffffffffffffffffffffffffffffffffffffff\n      and\n      dup2\n      mstore\n      0x20\n      add\n      swap1\n      dup2\n      mstore\n      0x20\n      add\n      0x00\n      keccak256\n      0x00\n        /* \"contracts/TaskManager.sol\":1835:1862  premiums[msg.sender] = true */\n      0x0100\n      exp\n      dup2\n      sload\n      dup2\n      0xff\n      mul\n      not\n      and\n      swap1\n      dup4\n      iszero\n      iszero\n      mul\n      or\n      swap1\n      sstore\n      pop\n        /* \"contracts/TaskManager.sol\":1724:1870  function upgradePlan() public payable {\r... */\n      jump\t// out\n        /* \"contracts/TaskManager.sol\":1231:1552  function addTask(string memory content) public isPremium {\r... */\n    tag_13:\n        /* \"contracts/TaskManager.sol\":2138:2140  10 */\n      0x0a\n        /* \"contracts/TaskManager.sol\":2133:2134  1 */\n      0x01\n        /* \"contracts/TaskManager.sol\":2125:2130  count */\n      dup1\n      sload\n        /* \"contracts/TaskManager.sol\":2125:2134  count + 1 */\n      tag_36\n      swap2\n      swap1\n      tag_37\n      jump\t// in\n    tag_36:\n        /* \"contracts/TaskManager.sol\":2125:2140  count + 1 <= 10 */\n      gt\n      iszero\n        /* \"contracts/TaskManager.sol\":2125:2164  count + 1 <= 10 || premiums[msg.sender] */\n      dup1\n      tag_38\n      jumpi\n      pop\n        /* \"contracts/TaskManager.sol\":2144:2152  premiums */\n      0x03\n        /* \"contracts/TaskManager.sol\":2144:2164  premiums[msg.sender] */\n      0x00\n        /* \"contracts/TaskManager.sol\":2153:2163  msg.sender */\n      caller\n        /* \"contracts/TaskManager.sol\":2144:2164  premiums[msg.sender] */\n      0xffffffffffffffffffffffffffffffffffffffff\n      and\n      0xffffffffffffffffffffffffffffffffffffffff\n      and\n      dup2\n      mstore\n      0x20\n      add\n      swap1\n      dup2\n      mstore\n      0x20\n      add\n      0x00\n      keccak256\n      0x00\n      swap1\n      sload\n      swap1\n      0x0100\n      exp\n      swap1\n      div\n      0xff\n      and\n        /* \"contracts/TaskManager.sol\":2125:2164  count + 1 <= 10 || premiums[msg.sender] */\n    tag_38:\n        /* \"contracts/TaskManager.sol\":2117:2210  require(count + 1 <= 10 || premiums[msg.sender], 'Please upgrade to add more than 10 tasks.') */\n      tag_39\n      jumpi\n      mload(0x40)\n      0x08c379a000000000000000000000000000000000000000000000000000000000\n      dup2\n      mstore\n      0x04\n      add\n      tag_40\n      swap1\n      tag_41\n      jump\t// in\n    tag_40:\n      mload(0x40)\n      dup1\n      swap2\n      sub\n      swap1\n      revert\n    tag_39:\n        /* \"contracts/TaskManager.sol\":1299:1315  Task memory task */\n      0x00\n        /* \"contracts/TaskManager.sol\":1318:1376  Task(count, Priority.LOW, content, block.timestamp, false) */\n      mload(0x40)\n      dup1\n      0xa0\n      add\n      0x40\n      mstore\n      dup1\n        /* \"contracts/TaskManager.sol\":1323:1328  count */\n      sload(0x01)\n        /* \"contracts/TaskManager.sol\":1318:1376  Task(count, Priority.LOW, content, block.timestamp, false) */\n      dup2\n      mstore\n      0x20\n      add\n        /* \"contracts/TaskManager.sol\":1330:1342  Priority.LOW */\n      0x00\n        /* \"contracts/TaskManager.sol\":1318:1376  Task(count, Priority.LOW, content, block.timestamp, false) */\n      0x02\n      dup2\n      gt\n      iszero\n      tag_43\n      jumpi\n      tag_44\n      tag_45\n      jump\t// in\n    tag_44:\n    tag_43:\n      dup2\n      mstore\n      0x20\n      add\n        /* \"contracts/TaskManager.sol\":1344:1351  content */\n      dup4\n        /* \"contracts/TaskManager.sol\":1318:1376  Task(count, Priority.LOW, content, block.timestamp, false) */\n      dup2\n      mstore\n      0x20\n      add\n        /* \"contracts/TaskManager.sol\":1353:1368  block.timestamp */\n      timestamp\n        /* \"contracts/TaskManager.sol\":1318:1376  Task(count, Priority.LOW, content, block.timestamp, false) */\n      dup2\n      mstore\n      0x20\n      add\n        /* \"contracts/TaskManager.sol\":1370:1375  false */\n      0x00\n        /* \"contracts/TaskManager.sol\":1318:1376  Task(count, Priority.LOW, content, block.timestamp, false) */\n      iszero\n      iszero\n      dup2\n      mstore\n      pop\n        /* \"contracts/TaskManager.sol\":1299:1376  Task memory task = Task(count, Priority.LOW, content, block.timestamp, false) */\n      swap1\n      pop\n        /* \"contracts/TaskManager.sol\":1402:1406  task */\n      dup1\n        /* \"contracts/TaskManager.sol\":1387:1392  tasks */\n      0x02\n        /* \"contracts/TaskManager.sol\":1387:1399  tasks[count] */\n      0x00\n        /* \"contracts/TaskManager.sol\":1393:1398  count */\n      sload(0x01)\n        /* \"contracts/TaskManager.sol\":1387:1399  tasks[count] */\n      dup2\n      mstore\n      0x20\n      add\n      swap1\n      dup2\n      mstore\n      0x20\n      add\n      0x00\n      keccak256\n        /* \"contracts/TaskManager.sol\":1387:1406  tasks[count] = task */\n      0x00\n      dup3\n      add\n      mload\n      dup2\n      0x00\n      add\n      sstore\n      0x20\n      dup3\n      add\n      mload\n      dup2\n      0x01\n      add\n      exp(0x0100, 0x00)\n      dup2\n      sload\n      dup2\n      0xff\n      mul\n      not\n      and\n      swap1\n      dup4\n      0x02\n      dup2\n      gt\n      iszero\n      tag_46\n      jumpi\n      tag_47\n      tag_45\n      jump\t// in\n    tag_47:\n    tag_46:\n      mul\n      or\n      swap1\n      sstore\n      pop\n      0x40\n      dup3\n      add\n      mload\n      dup2\n      0x02\n      add\n      swap1\n      dup1\n      mload\n      swap1\n      0x20\n      add\n      swap1\n      tag_48\n      swap3\n      swap2\n      swap1\n      tag_49\n      jump\t// in\n    tag_48:\n      pop\n      0x60\n      dup3\n      add\n      mload\n      dup2\n      0x03\n      add\n      sstore\n      0x80\n      dup3\n      add\n      mload\n      dup2\n      0x04\n      add\n      exp(0x0100, 0x00)\n      dup2\n      sload\n      dup2\n      0xff\n      mul\n      not\n      and\n      swap1\n      dup4\n      iszero\n      iszero\n      mul\n      or\n      swap1\n      sstore\n      pop\n      swap1\n      pop\n      pop\n        /* \"contracts/TaskManager.sol\":1425:1447  SafeMath.add(count, 1) */\n      tag_50\n        /* \"contracts/TaskManager.sol\":1438:1443  count */\n      sload(0x01)\n        /* \"contracts/TaskManager.sol\":1445:1446  1 */\n      0x01\n        /* \"contracts/TaskManager.sol\":1425:1437  SafeMath.add */\n      tag_51\n        /* \"contracts/TaskManager.sol\":1425:1447  SafeMath.add(count, 1) */\n      jump\t// in\n    tag_50:\n        /* \"contracts/TaskManager.sol\":1417:1422  count */\n      0x01\n        /* \"contracts/TaskManager.sol\":1417:1447  count = SafeMath.add(count, 1) */\n      dup2\n      swap1\n      sstore\n      pop\n        /* \"contracts/TaskManager.sol\":1514:1544  NewTask(task, block.timestamp) */\n      0x615eb1193ab28532b0958952317b9eefb36e49e4a65bc640cf28f2ec9a931771\n        /* \"contracts/TaskManager.sol\":1522:1526  task */\n      dup2\n        /* \"contracts/TaskManager.sol\":1528:1543  block.timestamp */\n      timestamp\n        /* \"contracts/TaskManager.sol\":1514:1544  NewTask(task, block.timestamp) */\n      mload(0x40)\n      tag_52\n      swap3\n      swap2\n      swap1\n      tag_53\n      jump\t// in\n    tag_52:\n      mload(0x40)\n      dup1\n      swap2\n      sub\n      swap1\n      log1\n        /* \"contracts/TaskManager.sol\":1288:1552  {\r... */\n      pop\n        /* \"contracts/TaskManager.sol\":1231:1552  function addTask(string memory content) public isPremium {\r... */\n      pop\n      jump\t// out\n        /* \"contracts/TaskManager.sol\":823:863  mapping(address => bool) public premiums */\n    tag_18:\n      mstore(0x20, 0x03)\n      dup1\n      0x00\n      mstore\n      keccak256(0x00, 0x40)\n      0x00\n      swap2\n      pop\n      sload\n      swap1\n      0x0100\n      exp\n      swap1\n      div\n      0xff\n      and\n      dup2\n      jump\t// out\n        /* \"contracts/TaskManager.sol\":1878:1970  function getTasksCount() view public returns(uint countTasks){\r... */\n    tag_23:\n        /* \"contracts/TaskManager.sol\":1923:1938  uint countTasks */\n      0x00\n        /* \"contracts/TaskManager.sol\":1957:1962  count */\n      sload(0x01)\n        /* \"contracts/TaskManager.sol\":1950:1962  return count */\n      swap1\n      pop\n        /* \"contracts/TaskManager.sol\":1878:1970  function getTasksCount() view public returns(uint countTasks){\r... */\n      swap1\n      jump\t// out\n        /* \"contracts/TaskManager.sol\":1560:1716  function completeTask(uint _count) public {\r... */\n    tag_30:\n        /* \"contracts/TaskManager.sol\":1613:1629  Task memory task */\n      0x00\n        /* \"contracts/TaskManager.sol\":1632:1637  tasks */\n      0x02\n        /* \"contracts/TaskManager.sol\":1632:1645  tasks[_count] */\n      0x00\n        /* \"contracts/TaskManager.sol\":1638:1644  _count */\n      dup4\n        /* \"contracts/TaskManager.sol\":1632:1645  tasks[_count] */\n      dup2\n      mstore\n      0x20\n      add\n      swap1\n      dup2\n      mstore\n      0x20\n      add\n      0x00\n      keccak256\n        /* \"contracts/TaskManager.sol\":1613:1645  Task memory task = tasks[_count] */\n      mload(0x40)\n      dup1\n      0xa0\n      add\n      0x40\n      mstore\n      swap1\n      dup2\n      0x00\n      dup3\n      add\n      sload\n      dup2\n      mstore\n      0x20\n      add\n      0x01\n      dup3\n      add\n      0x00\n      swap1\n      sload\n      swap1\n      0x0100\n      exp\n      swap1\n      div\n      0xff\n      and\n      0x02\n      dup2\n      gt\n      iszero\n      tag_56\n      jumpi\n      tag_57\n      tag_45\n      jump\t// in\n    tag_57:\n    tag_56:\n      0x02\n      dup2\n      gt\n      iszero\n      tag_58\n      jumpi\n      tag_59\n      tag_45\n      jump\t// in\n    tag_59:\n    tag_58:\n      dup2\n      mstore\n      0x20\n      add\n      0x02\n      dup3\n      add\n      dup1\n      sload\n      tag_60\n      swap1\n      tag_61\n      jump\t// in\n    tag_60:\n      dup1\n      0x1f\n      add\n      0x20\n      dup1\n      swap2\n      div\n      mul\n      0x20\n      add\n      mload(0x40)\n      swap1\n      dup2\n      add\n      0x40\n      mstore\n      dup1\n      swap3\n      swap2\n      swap1\n      dup2\n      dup2\n      mstore\n      0x20\n      add\n      dup3\n      dup1\n      sload\n      tag_62\n      swap1\n      tag_61\n      jump\t// in\n    tag_62:\n      dup1\n      iszero\n      tag_63\n      jumpi\n      dup1\n      0x1f\n      lt\n      tag_64\n      jumpi\n      0x0100\n      dup1\n      dup4\n      sload\n      div\n      mul\n      dup4\n      mstore\n      swap2\n      0x20\n      add\n      swap2\n      jump(tag_63)\n    tag_64:\n      dup3\n      add\n      swap2\n      swap1\n      0x00\n      mstore\n      keccak256(0x00, 0x20)\n      swap1\n    tag_65:\n      dup2\n      sload\n      dup2\n      mstore\n      swap1\n      0x01\n      add\n      swap1\n      0x20\n      add\n      dup1\n      dup4\n      gt\n      tag_65\n      jumpi\n      dup3\n      swap1\n      sub\n      0x1f\n      and\n      dup3\n      add\n      swap2\n    tag_63:\n      pop\n      pop\n      pop\n      pop\n      pop\n      dup2\n      mstore\n      0x20\n      add\n      0x03\n      dup3\n      add\n      sload\n      dup2\n      mstore\n      0x20\n      add\n      0x04\n      dup3\n      add\n      0x00\n      swap1\n      sload\n      swap1\n      0x0100\n      exp\n      swap1\n      div\n      0xff\n      and\n      iszero\n      iszero\n      iszero\n      iszero\n      dup2\n      mstore\n      pop\n      pop\n      swap1\n      pop\n        /* \"contracts/TaskManager.sol\":1673:1677  true */\n      0x01\n        /* \"contracts/TaskManager.sol\":1656:1660  task */\n      dup2\n        /* \"contracts/TaskManager.sol\":1656:1670  task.completed */\n      0x80\n      add\n        /* \"contracts/TaskManager.sol\":1656:1677  task.completed = true */\n      swap1\n      iszero\n      iszero\n      swap1\n      dup2\n      iszero\n      iszero\n      dup2\n      mstore\n      pop\n      pop\n        /* \"contracts/TaskManager.sol\":1704:1708  task */\n      dup1\n        /* \"contracts/TaskManager.sol\":1688:1693  tasks */\n      0x02\n        /* \"contracts/TaskManager.sol\":1688:1701  tasks[_count] */\n      0x00\n        /* \"contracts/TaskManager.sol\":1694:1700  _count */\n      dup5\n        /* \"contracts/TaskManager.sol\":1688:1701  tasks[_count] */\n      dup2\n      mstore\n      0x20\n      add\n      swap1\n      dup2\n      mstore\n      0x20\n      add\n      0x00\n      keccak256\n        /* \"contracts/TaskManager.sol\":1688:1708  tasks[_count] = task */\n      0x00\n      dup3\n      add\n      mload\n      dup2\n      0x00\n      add\n      sstore\n      0x20\n      dup3\n      add\n      mload\n      dup2\n      0x01\n      add\n      exp(0x0100, 0x00)\n      dup2\n      sload\n      dup2\n      0xff\n      mul\n      not\n      and\n      swap1\n      dup4\n      0x02\n      dup2\n      gt\n      iszero\n      tag_66\n      jumpi\n      tag_67\n      tag_45\n      jump\t// in\n    tag_67:\n    tag_66:\n      mul\n      or\n      swap1\n      sstore\n      pop\n      0x40\n      dup3\n      add\n      mload\n      dup2\n      0x02\n      add\n      swap1\n      dup1\n      mload\n      swap1\n      0x20\n      add\n      swap1\n      tag_68\n      swap3\n      swap2\n      swap1\n      tag_49\n      jump\t// in\n    tag_68:\n      pop\n      0x60\n      dup3\n      add\n      mload\n      dup2\n      0x03\n      add\n      sstore\n      0x80\n      dup3\n      add\n      mload\n      dup2\n      0x04\n      add\n      exp(0x0100, 0x00)\n      dup2\n      sload\n      dup2\n      0xff\n      mul\n      not\n      and\n      swap1\n      dup4\n      iszero\n      iszero\n      mul\n      or\n      swap1\n      sstore\n      pop\n      swap1\n      pop\n      pop\n        /* \"contracts/TaskManager.sol\":1602:1716  {\r... */\n      pop\n        /* \"contracts/TaskManager.sol\":1560:1716  function completeTask(uint _count) public {\r... */\n      pop\n      jump\t// out\n        /* \"https://github.com/OpenZeppelin/openzeppelin-contracts/blob/master/contracts/utils/math/SafeMath.sol\":2755:2851  function add(uint256 a, uint256 b) internal pure returns (uint256) {... */\n    tag_51:\n        /* \"https://github.com/OpenZeppelin/openzeppelin-contracts/blob/master/contracts/utils/math/SafeMath.sol\":2813:2820  uint256 */\n      0x00\n        /* \"https://github.com/OpenZeppelin/openzeppelin-contracts/blob/master/contracts/utils/math/SafeMath.sol\":2843:2844  b */\n      dup2\n        /* \"https://github.com/OpenZeppelin/openzeppelin-contracts/blob/master/contracts/utils/math/SafeMath.sol\":2839:2840  a */\n      dup4\n        /* \"https://github.com/OpenZeppelin/openzeppelin-contracts/blob/master/contracts/utils/math/SafeMath.sol\":2839:2844  a + b */\n      tag_70\n      swap2\n      swap1\n      tag_37\n      jump\t// in\n    tag_70:\n        /* \"https://github.com/OpenZeppelin/openzeppelin-contracts/blob/master/contracts/utils/math/SafeMath.sol\":2832:2844  return a + b */\n      swap1\n      pop\n        /* \"https://github.com/OpenZeppelin/openzeppelin-contracts/blob/master/contracts/utils/math/SafeMath.sol\":2755:2851  function add(uint256 a, uint256 b) internal pure returns (uint256) {... */\n      swap3\n      swap2\n      pop\n      pop\n      jump\t// out\n    tag_49:\n      dup3\n      dup1\n      sload\n      tag_71\n      swap1\n      tag_61\n      jump\t// in\n    tag_71:\n      swap1\n      0x00\n      mstore\n      keccak256(0x00, 0x20)\n      swap1\n      0x1f\n      add\n      0x20\n      swap1\n      div\n      dup2\n      add\n      swap3\n      dup3\n      tag_73\n      jumpi\n      0x00\n      dup6\n      sstore\n      jump(tag_72)\n    tag_73:\n      dup3\n      0x1f\n      lt\n      tag_74\n      jumpi\n      dup1\n      mload\n      not(0xff)\n      and\n      dup4\n      dup1\n      add\n      or\n      dup6\n      sstore\n      jump(tag_72)\n    tag_74:\n      dup3\n      dup1\n      add\n      0x01\n      add\n      dup6\n      sstore\n      dup3\n      iszero\n      tag_72\n      jumpi\n      swap2\n      dup3\n      add\n    tag_75:\n      dup3\n      dup2\n      gt\n      iszero\n      tag_76\n      jumpi\n      dup3\n      mload\n      dup3\n      sstore\n      swap2\n      0x20\n      add\n      swap2\n      swap1\n      0x01\n      add\n      swap1\n      jump(tag_75)\n    tag_76:\n    tag_72:\n      pop\n      swap1\n      pop\n      tag_77\n      swap2\n      swap1\n      tag_78\n      jump\t// in\n    tag_77:\n      pop\n      swap1\n      jump\t// out\n    tag_78:\n    tag_79:\n      dup1\n      dup3\n      gt\n      iszero\n      tag_80\n      jumpi\n      0x00\n      dup2\n      0x00\n      swap1\n      sstore\n      pop\n      0x01\n      add\n      jump(tag_79)\n    tag_80:\n      pop\n      swap1\n      jump\t// out\n        /* \"#utility.yul\":7:419   */\n    tag_82:\n        /* \"#utility.yul\":85:90   */\n      0x00\n        /* \"#utility.yul\":110:176   */\n      tag_84\n        /* \"#utility.yul\":126:175   */\n      tag_85\n        /* \"#utility.yul\":168:174   */\n      dup5\n        /* \"#utility.yul\":126:175   */\n      tag_86\n      jump\t// in\n    tag_85:\n        /* \"#utility.yul\":110:176   */\n      tag_87\n      jump\t// in\n    tag_84:\n        /* \"#utility.yul\":101:176   */\n      swap1\n      pop\n        /* \"#utility.yul\":199:205   */\n      dup3\n        /* \"#utility.yul\":192:197   */\n      dup2\n        /* \"#utility.yul\":185:206   */\n      mstore\n        /* \"#utility.yul\":237:241   */\n      0x20\n        /* \"#utility.yul\":230:235   */\n      dup2\n        /* \"#utility.yul\":226:242   */\n      add\n        /* \"#utility.yul\":275:278   */\n      dup5\n        /* \"#utility.yul\":266:272   */\n      dup5\n        /* \"#utility.yul\":261:264   */\n      dup5\n        /* \"#utility.yul\":257:273   */\n      add\n        /* \"#utility.yul\":254:279   */\n      gt\n        /* \"#utility.yul\":251:363   */\n      iszero\n      tag_88\n      jumpi\n        /* \"#utility.yul\":282:361   */\n      tag_89\n      tag_90\n      jump\t// in\n    tag_89:\n        /* \"#utility.yul\":251:363   */\n    tag_88:\n        /* \"#utility.yul\":372:413   */\n      tag_91\n        /* \"#utility.yul\":406:412   */\n      dup5\n        /* \"#utility.yul\":401:404   */\n      dup3\n        /* \"#utility.yul\":396:399   */\n      dup6\n        /* \"#utility.yul\":372:413   */\n      tag_92\n      jump\t// in\n    tag_91:\n        /* \"#utility.yul\":91:419   */\n      pop\n        /* \"#utility.yul\":7:419   */\n      swap4\n      swap3\n      pop\n      pop\n      pop\n      jump\t// out\n        /* \"#utility.yul\":425:564   */\n    tag_93:\n        /* \"#utility.yul\":471:476   */\n      0x00\n        /* \"#utility.yul\":509:515   */\n      dup2\n        /* \"#utility.yul\":496:516   */\n      calldataload\n        /* \"#utility.yul\":487:516   */\n      swap1\n      pop\n        /* \"#utility.yul\":525:558   */\n      tag_95\n        /* \"#utility.yul\":552:557   */\n      dup2\n        /* \"#utility.yul\":525:558   */\n      tag_96\n      jump\t// in\n    tag_95:\n        /* \"#utility.yul\":425:564   */\n      swap3\n      swap2\n      pop\n      pop\n      jump\t// out\n        /* \"#utility.yul\":584:924   */\n    tag_97:\n        /* \"#utility.yul\":640:645   */\n      0x00\n        /* \"#utility.yul\":689:692   */\n      dup3\n        /* \"#utility.yul\":682:686   */\n      0x1f\n        /* \"#utility.yul\":674:680   */\n      dup4\n        /* \"#utility.yul\":670:687   */\n      add\n        /* \"#utility.yul\":666:693   */\n      slt\n        /* \"#utility.yul\":656:778   */\n      tag_99\n      jumpi\n        /* \"#utility.yul\":697:776   */\n      tag_100\n      tag_101\n      jump\t// in\n    tag_100:\n        /* \"#utility.yul\":656:778   */\n    tag_99:\n        /* \"#utility.yul\":814:820   */\n      dup2\n        /* \"#utility.yul\":801:821   */\n      calldataload\n        /* \"#utility.yul\":839:918   */\n      tag_102\n        /* \"#utility.yul\":914:917   */\n      dup5\n        /* \"#utility.yul\":906:912   */\n      dup3\n        /* \"#utility.yul\":899:903   */\n      0x20\n        /* \"#utility.yul\":891:897   */\n      dup7\n        /* \"#utility.yul\":887:904   */\n      add\n        /* \"#utility.yul\":839:918   */\n      tag_82\n      jump\t// in\n    tag_102:\n        /* \"#utility.yul\":830:918   */\n      swap2\n      pop\n        /* \"#utility.yul\":646:924   */\n      pop\n        /* \"#utility.yul\":584:924   */\n      swap3\n      swap2\n      pop\n      pop\n      jump\t// out\n        /* \"#utility.yul\":930:1069   */\n    tag_103:\n        /* \"#utility.yul\":976:981   */\n      0x00\n        /* \"#utility.yul\":1014:1020   */\n      dup2\n        /* \"#utility.yul\":1001:1021   */\n      calldataload\n        /* \"#utility.yul\":992:1021   */\n      swap1\n      pop\n        /* \"#utility.yul\":1030:1063   */\n      tag_105\n        /* \"#utility.yul\":1057:1062   */\n      dup2\n        /* \"#utility.yul\":1030:1063   */\n      tag_106\n      jump\t// in\n    tag_105:\n        /* \"#utility.yul\":930:1069   */\n      swap3\n      swap2\n      pop\n      pop\n      jump\t// out\n        /* \"#utility.yul\":1075:1404   */\n    tag_17:\n        /* \"#utility.yul\":1134:1140   */\n      0x00\n        /* \"#utility.yul\":1183:1185   */\n      0x20\n        /* \"#utility.yul\":1171:1180   */\n      dup3\n        /* \"#utility.yul\":1162:1169   */\n      dup5\n        /* \"#utility.yul\":1158:1181   */\n      sub\n        /* \"#utility.yul\":1154:1186   */\n      slt\n        /* \"#utility.yul\":1151:1270   */\n      iszero\n      tag_108\n      jumpi\n        /* \"#utility.yul\":1189:1268   */\n      tag_109\n      tag_110\n      jump\t// in\n    tag_109:\n        /* \"#utility.yul\":1151:1270   */\n    tag_108:\n        /* \"#utility.yul\":1309:1310   */\n      0x00\n        /* \"#utility.yul\":1334:1387   */\n      tag_111\n        /* \"#utility.yul\":1379:1386   */\n      dup5\n        /* \"#utility.yul\":1370:1376   */\n      dup3\n        /* \"#utility.yul\":1359:1368   */\n      dup6\n        /* \"#utility.yul\":1355:1377   */\n      add\n        /* \"#utility.yul\":1334:1387   */\n      tag_93\n      jump\t// in\n    tag_111:\n        /* \"#utility.yul\":1324:1387   */\n      swap2\n      pop\n        /* \"#utility.yul\":1280:1397   */\n      pop\n        /* \"#utility.yul\":1075:1404   */\n      swap3\n      swap2\n      pop\n      pop\n      jump\t// out\n        /* \"#utility.yul\":1410:1919   */\n    tag_12:\n        /* \"#utility.yul\":1479:1485   */\n      0x00\n        /* \"#utility.yul\":1528:1530   */\n      0x20\n        /* \"#utility.yul\":1516:1525   */\n      dup3\n        /* \"#utility.yul\":1507:1514   */\n      dup5\n        /* \"#utility.yul\":1503:1526   */\n      sub\n        /* \"#utility.yul\":1499:1531   */\n      slt\n        /* \"#utility.yul\":1496:1615   */\n      iszero\n      tag_113\n      jumpi\n        /* \"#utility.yul\":1534:1613   */\n      tag_114\n      tag_110\n      jump\t// in\n    tag_114:\n        /* \"#utility.yul\":1496:1615   */\n    tag_113:\n        /* \"#utility.yul\":1682:1683   */\n      0x00\n        /* \"#utility.yul\":1671:1680   */\n      dup3\n        /* \"#utility.yul\":1667:1684   */\n      add\n        /* \"#utility.yul\":1654:1685   */\n      calldataload\n        /* \"#utility.yul\":1712:1730   */\n      0xffffffffffffffff\n        /* \"#utility.yul\":1704:1710   */\n      dup2\n        /* \"#utility.yul\":1701:1731   */\n      gt\n        /* \"#utility.yul\":1698:1815   */\n      iszero\n      tag_115\n      jumpi\n        /* \"#utility.yul\":1734:1813   */\n      tag_116\n      tag_117\n      jump\t// in\n    tag_116:\n        /* \"#utility.yul\":1698:1815   */\n    tag_115:\n        /* \"#utility.yul\":1839:1902   */\n      tag_118\n        /* \"#utility.yul\":1894:1901   */\n      dup5\n        /* \"#utility.yul\":1885:1891   */\n      dup3\n        /* \"#utility.yul\":1874:1883   */\n      dup6\n        /* \"#utility.yul\":1870:1892   */\n      add\n        /* \"#utility.yul\":1839:1902   */\n      tag_97\n      jump\t// in\n    tag_118:\n        /* \"#utility.yul\":1829:1902   */\n      swap2\n      pop\n        /* \"#utility.yul\":1625:1912   */\n      pop\n        /* \"#utility.yul\":1410:1919   */\n      swap3\n      swap2\n      pop\n      pop\n      jump\t// out\n        /* \"#utility.yul\":1925:2254   */\n    tag_29:\n        /* \"#utility.yul\":1984:1990   */\n      0x00\n        /* \"#utility.yul\":2033:2035   */\n      0x20\n        /* \"#utility.yul\":2021:2030   */\n      dup3\n        /* \"#utility.yul\":2012:2019   */\n      dup5\n        /* \"#utility.yul\":2008:2031   */\n      sub\n        /* \"#utility.yul\":2004:2036   */\n      slt\n        /* \"#utility.yul\":2001:2120   */\n      iszero\n      tag_120\n      jumpi\n        /* \"#utility.yul\":2039:2118   */\n      tag_121\n      tag_110\n      jump\t// in\n    tag_121:\n        /* \"#utility.yul\":2001:2120   */\n    tag_120:\n        /* \"#utility.yul\":2159:2160   */\n      0x00\n        /* \"#utility.yul\":2184:2237   */\n      tag_122\n        /* \"#utility.yul\":2229:2236   */\n      dup5\n        /* \"#utility.yul\":2220:2226   */\n      dup3\n        /* \"#utility.yul\":2209:2218   */\n      dup6\n        /* \"#utility.yul\":2205:2227   */\n      add\n        /* \"#utility.yul\":2184:2237   */\n      tag_103\n      jump\t// in\n    tag_122:\n        /* \"#utility.yul\":2174:2237   */\n      swap2\n      pop\n        /* \"#utility.yul\":2130:2247   */\n      pop\n        /* \"#utility.yul\":1925:2254   */\n      swap3\n      swap2\n      pop\n      pop\n      jump\t// out\n        /* \"#utility.yul\":2260:2359   */\n    tag_123:\n        /* \"#utility.yul\":2331:2352   */\n      tag_125\n        /* \"#utility.yul\":2346:2351   */\n      dup2\n        /* \"#utility.yul\":2331:2352   */\n      tag_126\n      jump\t// in\n    tag_125:\n        /* \"#utility.yul\":2326:2329   */\n      dup3\n        /* \"#utility.yul\":2319:2353   */\n      mstore\n        /* \"#utility.yul\":2260:2359   */\n      pop\n      pop\n      jump\t// out\n        /* \"#utility.yul\":2365:2474   */\n    tag_127:\n        /* \"#utility.yul\":2446:2467   */\n      tag_129\n        /* \"#utility.yul\":2461:2466   */\n      dup2\n        /* \"#utility.yul\":2446:2467   */\n      tag_126\n      jump\t// in\n    tag_129:\n        /* \"#utility.yul\":2441:2444   */\n      dup3\n        /* \"#utility.yul\":2434:2468   */\n      mstore\n        /* \"#utility.yul\":2365:2474   */\n      pop\n      pop\n      jump\t// out\n        /* \"#utility.yul\":2480:2617   */\n    tag_130:\n        /* \"#utility.yul\":2565:2610   */\n      tag_132\n        /* \"#utility.yul\":2604:2609   */\n      dup2\n        /* \"#utility.yul\":2565:2610   */\n      tag_133\n      jump\t// in\n    tag_132:\n        /* \"#utility.yul\":2560:2563   */\n      dup3\n        /* \"#utility.yul\":2553:2611   */\n      mstore\n        /* \"#utility.yul\":2480:2617   */\n      pop\n      pop\n      jump\t// out\n        /* \"#utility.yul\":2623:2967   */\n    tag_134:\n        /* \"#utility.yul\":2701:2704   */\n      0x00\n        /* \"#utility.yul\":2729:2768   */\n      tag_136\n        /* \"#utility.yul\":2762:2767   */\n      dup3\n        /* \"#utility.yul\":2729:2768   */\n      tag_137\n      jump\t// in\n    tag_136:\n        /* \"#utility.yul\":2784:2845   */\n      tag_138\n        /* \"#utility.yul\":2838:2844   */\n      dup2\n        /* \"#utility.yul\":2833:2836   */\n      dup6\n        /* \"#utility.yul\":2784:2845   */\n      tag_139\n      jump\t// in\n    tag_138:\n        /* \"#utility.yul\":2777:2845   */\n      swap4\n      pop\n        /* \"#utility.yul\":2854:2906   */\n      tag_140\n        /* \"#utility.yul\":2899:2905   */\n      dup2\n        /* \"#utility.yul\":2894:2897   */\n      dup6\n        /* \"#utility.yul\":2887:2891   */\n      0x20\n        /* \"#utility.yul\":2880:2885   */\n      dup7\n        /* \"#utility.yul\":2876:2892   */\n      add\n        /* \"#utility.yul\":2854:2906   */\n      tag_141\n      jump\t// in\n    tag_140:\n        /* \"#utility.yul\":2931:2960   */\n      tag_142\n        /* \"#utility.yul\":2953:2959   */\n      dup2\n        /* \"#utility.yul\":2931:2960   */\n      tag_143\n      jump\t// in\n    tag_142:\n        /* \"#utility.yul\":2926:2929   */\n      dup5\n        /* \"#utility.yul\":2922:2961   */\n      add\n        /* \"#utility.yul\":2915:2961   */\n      swap2\n      pop\n        /* \"#utility.yul\":2705:2967   */\n      pop\n        /* \"#utility.yul\":2623:2967   */\n      swap3\n      swap2\n      pop\n      pop\n      jump\t// out\n        /* \"#utility.yul\":2973:3339   */\n    tag_144:\n        /* \"#utility.yul\":3115:3118   */\n      0x00\n        /* \"#utility.yul\":3136:3203   */\n      tag_146\n        /* \"#utility.yul\":3200:3202   */\n      0x29\n        /* \"#utility.yul\":3195:3198   */\n      dup4\n        /* \"#utility.yul\":3136:3203   */\n      tag_147\n      jump\t// in\n    tag_146:\n        /* \"#utility.yul\":3129:3203   */\n      swap2\n      pop\n        /* \"#utility.yul\":3212:3305   */\n      tag_148\n        /* \"#utility.yul\":3301:3304   */\n      dup3\n        /* \"#utility.yul\":3212:3305   */\n      tag_149\n      jump\t// in\n    tag_148:\n        /* \"#utility.yul\":3330:3332   */\n      0x40\n        /* \"#utility.yul\":3325:3328   */\n      dup3\n        /* \"#utility.yul\":3321:3333   */\n      add\n        /* \"#utility.yul\":3314:3333   */\n      swap1\n      pop\n        /* \"#utility.yul\":2973:3339   */\n      swap2\n      swap1\n      pop\n      jump\t// out\n        /* \"#utility.yul\":3345:3711   */\n    tag_150:\n        /* \"#utility.yul\":3487:3490   */\n      0x00\n        /* \"#utility.yul\":3508:3575   */\n      tag_152\n        /* \"#utility.yul\":3572:3574   */\n      0x14\n        /* \"#utility.yul\":3567:3570   */\n      dup4\n        /* \"#utility.yul\":3508:3575   */\n      tag_147\n      jump\t// in\n    tag_152:\n        /* \"#utility.yul\":3501:3575   */\n      swap2\n      pop\n        /* \"#utility.yul\":3584:3677   */\n      tag_153\n        /* \"#utility.yul\":3673:3676   */\n      dup3\n        /* \"#utility.yul\":3584:3677   */\n      tag_154\n      jump\t// in\n    tag_153:\n        /* \"#utility.yul\":3702:3704   */\n      0x20\n        /* \"#utility.yul\":3697:3700   */\n      dup3\n        /* \"#utility.yul\":3693:3705   */\n      add\n        /* \"#utility.yul\":3686:3705   */\n      swap1\n      pop\n        /* \"#utility.yul\":3345:3711   */\n      swap2\n      swap1\n      pop\n      jump\t// out\n        /* \"#utility.yul\":3775:4910   */\n    tag_155:\n        /* \"#utility.yul\":3884:3887   */\n      0x00\n        /* \"#utility.yul\":3920:3924   */\n      0xa0\n        /* \"#utility.yul\":3915:3918   */\n      dup4\n        /* \"#utility.yul\":3911:3925   */\n      add\n        /* \"#utility.yul\":4005:4009   */\n      0x00\n        /* \"#utility.yul\":3998:4003   */\n      dup4\n        /* \"#utility.yul\":3994:4010   */\n      add\n        /* \"#utility.yul\":3988:4011   */\n      mload\n        /* \"#utility.yul\":4024:4087   */\n      tag_157\n        /* \"#utility.yul\":4081:4085   */\n      0x00\n        /* \"#utility.yul\":4076:4079   */\n      dup7\n        /* \"#utility.yul\":4072:4086   */\n      add\n        /* \"#utility.yul\":4058:4070   */\n      dup3\n        /* \"#utility.yul\":4024:4087   */\n      tag_158\n      jump\t// in\n    tag_157:\n        /* \"#utility.yul\":3935:4097   */\n      pop\n        /* \"#utility.yul\":4183:4187   */\n      0x20\n        /* \"#utility.yul\":4176:4181   */\n      dup4\n        /* \"#utility.yul\":4172:4188   */\n      add\n        /* \"#utility.yul\":4166:4189   */\n      mload\n        /* \"#utility.yul\":4202:4273   */\n      tag_159\n        /* \"#utility.yul\":4267:4271   */\n      0x20\n        /* \"#utility.yul\":4262:4265   */\n      dup7\n        /* \"#utility.yul\":4258:4272   */\n      add\n        /* \"#utility.yul\":4244:4256   */\n      dup3\n        /* \"#utility.yul\":4202:4273   */\n      tag_130\n      jump\t// in\n    tag_159:\n        /* \"#utility.yul\":4107:4283   */\n      pop\n        /* \"#utility.yul\":4368:4372   */\n      0x40\n        /* \"#utility.yul\":4361:4366   */\n      dup4\n        /* \"#utility.yul\":4357:4373   */\n      add\n        /* \"#utility.yul\":4351:4374   */\n      mload\n        /* \"#utility.yul\":4421:4424   */\n      dup5\n        /* \"#utility.yul\":4415:4419   */\n      dup3\n        /* \"#utility.yul\":4411:4425   */\n      sub\n        /* \"#utility.yul\":4404:4408   */\n      0x40\n        /* \"#utility.yul\":4399:4402   */\n      dup7\n        /* \"#utility.yul\":4395:4409   */\n      add\n        /* \"#utility.yul\":4388:4426   */\n      mstore\n        /* \"#utility.yul\":4447:4520   */\n      tag_160\n        /* \"#utility.yul\":4515:4519   */\n      dup3\n        /* \"#utility.yul\":4501:4513   */\n      dup3\n        /* \"#utility.yul\":4447:4520   */\n      tag_134\n      jump\t// in\n    tag_160:\n        /* \"#utility.yul\":4439:4520   */\n      swap2\n      pop\n        /* \"#utility.yul\":4293:4531   */\n      pop\n        /* \"#utility.yul\":4618:4622   */\n      0x60\n        /* \"#utility.yul\":4611:4616   */\n      dup4\n        /* \"#utility.yul\":4607:4623   */\n      add\n        /* \"#utility.yul\":4601:4624   */\n      mload\n        /* \"#utility.yul\":4637:4700   */\n      tag_161\n        /* \"#utility.yul\":4694:4698   */\n      0x60\n        /* \"#utility.yul\":4689:4692   */\n      dup7\n        /* \"#utility.yul\":4685:4699   */\n      add\n        /* \"#utility.yul\":4671:4683   */\n      dup3\n        /* \"#utility.yul\":4637:4700   */\n      tag_158\n      jump\t// in\n    tag_161:\n        /* \"#utility.yul\":4541:4710   */\n      pop\n        /* \"#utility.yul\":4797:4801   */\n      0x80\n        /* \"#utility.yul\":4790:4795   */\n      dup4\n        /* \"#utility.yul\":4786:4802   */\n      add\n        /* \"#utility.yul\":4780:4803   */\n      mload\n        /* \"#utility.yul\":4816:4873   */\n      tag_162\n        /* \"#utility.yul\":4867:4871   */\n      0x80\n        /* \"#utility.yul\":4862:4865   */\n      dup7\n        /* \"#utility.yul\":4858:4872   */\n      add\n        /* \"#utility.yul\":4844:4856   */\n      dup3\n        /* \"#utility.yul\":4816:4873   */\n      tag_123\n      jump\t// in\n    tag_162:\n        /* \"#utility.yul\":4720:4883   */\n      pop\n        /* \"#utility.yul\":4900:4904   */\n      dup1\n        /* \"#utility.yul\":4893:4904   */\n      swap2\n      pop\n        /* \"#utility.yul\":3889:4910   */\n      pop\n        /* \"#utility.yul\":3775:4910   */\n      swap3\n      swap2\n      pop\n      pop\n      jump\t// out\n        /* \"#utility.yul\":4916:5024   */\n    tag_158:\n        /* \"#utility.yul\":4993:5017   */\n      tag_164\n        /* \"#utility.yul\":5011:5016   */\n      dup2\n        /* \"#utility.yul\":4993:5017   */\n      tag_165\n      jump\t// in\n    tag_164:\n        /* \"#utility.yul\":4988:4991   */\n      dup3\n        /* \"#utility.yul\":4981:5018   */\n      mstore\n        /* \"#utility.yul\":4916:5024   */\n      pop\n      pop\n      jump\t// out\n        /* \"#utility.yul\":5030:5148   */\n    tag_166:\n        /* \"#utility.yul\":5117:5141   */\n      tag_168\n        /* \"#utility.yul\":5135:5140   */\n      dup2\n        /* \"#utility.yul\":5117:5141   */\n      tag_165\n      jump\t// in\n    tag_168:\n        /* \"#utility.yul\":5112:5115   */\n      dup3\n        /* \"#utility.yul\":5105:5142   */\n      mstore\n        /* \"#utility.yul\":5030:5148   */\n      pop\n      pop\n      jump\t// out\n        /* \"#utility.yul\":5154:5364   */\n    tag_20:\n        /* \"#utility.yul\":5241:5245   */\n      0x00\n        /* \"#utility.yul\":5279:5281   */\n      0x20\n        /* \"#utility.yul\":5268:5277   */\n      dup3\n        /* \"#utility.yul\":5264:5282   */\n      add\n        /* \"#utility.yul\":5256:5282   */\n      swap1\n      pop\n        /* \"#utility.yul\":5292:5357   */\n      tag_170\n        /* \"#utility.yul\":5354:5355   */\n      0x00\n        /* \"#utility.yul\":5343:5352   */\n      dup4\n        /* \"#utility.yul\":5339:5356   */\n      add\n        /* \"#utility.yul\":5330:5336   */\n      dup5\n        /* \"#utility.yul\":5292:5357   */\n      tag_127\n      jump\t// in\n    tag_170:\n        /* \"#utility.yul\":5154:5364   */\n      swap3\n      swap2\n      pop\n      pop\n      jump\t// out\n        /* \"#utility.yul\":5370:5789   */\n    tag_41:\n        /* \"#utility.yul\":5536:5540   */\n      0x00\n        /* \"#utility.yul\":5574:5576   */\n      0x20\n        /* \"#utility.yul\":5563:5572   */\n      dup3\n        /* \"#utility.yul\":5559:5577   */\n      add\n        /* \"#utility.yul\":5551:5577   */\n      swap1\n      pop\n        /* \"#utility.yul\":5623:5632   */\n      dup2\n        /* \"#utility.yul\":5617:5621   */\n      dup2\n        /* \"#utility.yul\":5613:5633   */\n      sub\n        /* \"#utility.yul\":5609:5610   */\n      0x00\n        /* \"#utility.yul\":5598:5607   */\n      dup4\n        /* \"#utility.yul\":5594:5611   */\n      add\n        /* \"#utility.yul\":5587:5634   */\n      mstore\n        /* \"#utility.yul\":5651:5782   */\n      tag_172\n        /* \"#utility.yul\":5777:5781   */\n      dup2\n        /* \"#utility.yul\":5651:5782   */\n      tag_144\n      jump\t// in\n    tag_172:\n        /* \"#utility.yul\":5643:5782   */\n      swap1\n      pop\n        /* \"#utility.yul\":5370:5789   */\n      swap2\n      swap1\n      pop\n      jump\t// out\n        /* \"#utility.yul\":5795:6214   */\n    tag_34:\n        /* \"#utility.yul\":5961:5965   */\n      0x00\n        /* \"#utility.yul\":5999:6001   */\n      0x20\n        /* \"#utility.yul\":5988:5997   */\n      dup3\n        /* \"#utility.yul\":5984:6002   */\n      add\n        /* \"#utility.yul\":5976:6002   */\n      swap1\n      pop\n        /* \"#utility.yul\":6048:6057   */\n      dup2\n        /* \"#utility.yul\":6042:6046   */\n      dup2\n        /* \"#utility.yul\":6038:6058   */\n      sub\n        /* \"#utility.yul\":6034:6035   */\n      0x00\n        /* \"#utility.yul\":6023:6032   */\n      dup4\n        /* \"#utility.yul\":6019:6036   */\n      add\n        /* \"#utility.yul\":6012:6059   */\n      mstore\n        /* \"#utility.yul\":6076:6207   */\n      tag_174\n        /* \"#utility.yul\":6202:6206   */\n      dup2\n        /* \"#utility.yul\":6076:6207   */\n      tag_150\n      jump\t// in\n    tag_174:\n        /* \"#utility.yul\":6068:6207   */\n      swap1\n      pop\n        /* \"#utility.yul\":5795:6214   */\n      swap2\n      swap1\n      pop\n      jump\t// out\n        /* \"#utility.yul\":6220:6683   */\n    tag_53:\n        /* \"#utility.yul\":6381:6385   */\n      0x00\n        /* \"#utility.yul\":6419:6421   */\n      0x40\n        /* \"#utility.yul\":6408:6417   */\n      dup3\n        /* \"#utility.yul\":6404:6422   */\n      add\n        /* \"#utility.yul\":6396:6422   */\n      swap1\n      pop\n        /* \"#utility.yul\":6468:6477   */\n      dup2\n        /* \"#utility.yul\":6462:6466   */\n      dup2\n        /* \"#utility.yul\":6458:6478   */\n      sub\n        /* \"#utility.yul\":6454:6455   */\n      0x00\n        /* \"#utility.yul\":6443:6452   */\n      dup4\n        /* \"#utility.yul\":6439:6456   */\n      add\n        /* \"#utility.yul\":6432:6479   */\n      mstore\n        /* \"#utility.yul\":6496:6594   */\n      tag_176\n        /* \"#utility.yul\":6589:6593   */\n      dup2\n        /* \"#utility.yul\":6580:6586   */\n      dup6\n        /* \"#utility.yul\":6496:6594   */\n      tag_155\n      jump\t// in\n    tag_176:\n        /* \"#utility.yul\":6488:6594   */\n      swap1\n      pop\n        /* \"#utility.yul\":6604:6676   */\n      tag_177\n        /* \"#utility.yul\":6672:6674   */\n      0x20\n        /* \"#utility.yul\":6661:6670   */\n      dup4\n        /* \"#utility.yul\":6657:6675   */\n      add\n        /* \"#utility.yul\":6648:6654   */\n      dup5\n        /* \"#utility.yul\":6604:6676   */\n      tag_166\n      jump\t// in\n    tag_177:\n        /* \"#utility.yul\":6220:6683   */\n      swap4\n      swap3\n      pop\n      pop\n      pop\n      jump\t// out\n        /* \"#utility.yul\":6689:6911   */\n    tag_25:\n        /* \"#utility.yul\":6782:6786   */\n      0x00\n        /* \"#utility.yul\":6820:6822   */\n      0x20\n        /* \"#utility.yul\":6809:6818   */\n      dup3\n        /* \"#utility.yul\":6805:6823   */\n      add\n        /* \"#utility.yul\":6797:6823   */\n      swap1\n      pop\n        /* \"#utility.yul\":6833:6904   */\n      tag_179\n        /* \"#utility.yul\":6901:6902   */\n      0x00\n        /* \"#utility.yul\":6890:6899   */\n      dup4\n        /* \"#utility.yul\":6886:6903   */\n      add\n        /* \"#utility.yul\":6877:6883   */\n      dup5\n        /* \"#utility.yul\":6833:6904   */\n      tag_166\n      jump\t// in\n    tag_179:\n        /* \"#utility.yul\":6689:6911   */\n      swap3\n      swap2\n      pop\n      pop\n      jump\t// out\n        /* \"#utility.yul\":6917:7046   */\n    tag_87:\n        /* \"#utility.yul\":6951:6957   */\n      0x00\n        /* \"#utility.yul\":6978:6998   */\n      tag_181\n      tag_182\n      jump\t// in\n    tag_181:\n        /* \"#utility.yul\":6968:6998   */\n      swap1\n      pop\n        /* \"#utility.yul\":7007:7040   */\n      tag_183\n        /* \"#utility.yul\":7035:7039   */\n      dup3\n        /* \"#utility.yul\":7027:7033   */\n      dup3\n        /* \"#utility.yul\":7007:7040   */\n      tag_184\n      jump\t// in\n    tag_183:\n        /* \"#utility.yul\":6917:7046   */\n      swap2\n      swap1\n      pop\n      jump\t// out\n        /* \"#utility.yul\":7052:7127   */\n    tag_182:\n        /* \"#utility.yul\":7085:7091   */\n      0x00\n        /* \"#utility.yul\":7118:7120   */\n      0x40\n        /* \"#utility.yul\":7112:7121   */\n      mload\n        /* \"#utility.yul\":7102:7121   */\n      swap1\n      pop\n        /* \"#utility.yul\":7052:7127   */\n      swap1\n      jump\t// out\n        /* \"#utility.yul\":7133:7441   */\n    tag_86:\n        /* \"#utility.yul\":7195:7199   */\n      0x00\n        /* \"#utility.yul\":7285:7303   */\n      0xffffffffffffffff\n        /* \"#utility.yul\":7277:7283   */\n      dup3\n        /* \"#utility.yul\":7274:7304   */\n      gt\n        /* \"#utility.yul\":7271:7327   */\n      iszero\n      tag_187\n      jumpi\n        /* \"#utility.yul\":7307:7325   */\n      tag_188\n      tag_189\n      jump\t// in\n    tag_188:\n        /* \"#utility.yul\":7271:7327   */\n    tag_187:\n        /* \"#utility.yul\":7345:7374   */\n      tag_190\n        /* \"#utility.yul\":7367:7373   */\n      dup3\n        /* \"#utility.yul\":7345:7374   */\n      tag_143\n      jump\t// in\n    tag_190:\n        /* \"#utility.yul\":7337:7374   */\n      swap1\n      pop\n        /* \"#utility.yul\":7429:7433   */\n      0x20\n        /* \"#utility.yul\":7423:7427   */\n      dup2\n        /* \"#utility.yul\":7419:7434   */\n      add\n        /* \"#utility.yul\":7411:7434   */\n      swap1\n      pop\n        /* \"#utility.yul\":7133:7441   */\n      swap2\n      swap1\n      pop\n      jump\t// out\n        /* \"#utility.yul\":7447:7546   */\n    tag_137:\n        /* \"#utility.yul\":7499:7505   */\n      0x00\n        /* \"#utility.yul\":7533:7538   */\n      dup2\n        /* \"#utility.yul\":7527:7539   */\n      mload\n        /* \"#utility.yul\":7517:7539   */\n      swap1\n      pop\n        /* \"#utility.yul\":7447:7546   */\n      swap2\n      swap1\n      pop\n      jump\t// out\n        /* \"#utility.yul\":7552:7711   */\n    tag_139:\n        /* \"#utility.yul\":7626:7637   */\n      0x00\n        /* \"#utility.yul\":7660:7666   */\n      dup3\n        /* \"#utility.yul\":7655:7658   */\n      dup3\n        /* \"#utility.yul\":7648:7667   */\n      mstore\n        /* \"#utility.yul\":7700:7704   */\n      0x20\n        /* \"#utility.yul\":7695:7698   */\n      dup3\n        /* \"#utility.yul\":7691:7705   */\n      add\n        /* \"#utility.yul\":7676:7705   */\n      swap1\n      pop\n        /* \"#utility.yul\":7552:7711   */\n      swap3\n      swap2\n      pop\n      pop\n      jump\t// out\n        /* \"#utility.yul\":7717:7886   */\n    tag_147:\n        /* \"#utility.yul\":7801:7812   */\n      0x00\n        /* \"#utility.yul\":7835:7841   */\n      dup3\n        /* \"#utility.yul\":7830:7833   */\n      dup3\n        /* \"#utility.yul\":7823:7842   */\n      mstore\n        /* \"#utility.yul\":7875:7879   */\n      0x20\n        /* \"#utility.yul\":7870:7873   */\n      dup3\n        /* \"#utility.yul\":7866:7880   */\n      add\n        /* \"#utility.yul\":7851:7880   */\n      swap1\n      pop\n        /* \"#utility.yul\":7717:7886   */\n      swap3\n      swap2\n      pop\n      pop\n      jump\t// out\n        /* \"#utility.yul\":7892:8197   */\n    tag_37:\n        /* \"#utility.yul\":7932:7935   */\n      0x00\n        /* \"#utility.yul\":7951:7971   */\n      tag_195\n        /* \"#utility.yul\":7969:7970   */\n      dup3\n        /* \"#utility.yul\":7951:7971   */\n      tag_165\n      jump\t// in\n    tag_195:\n        /* \"#utility.yul\":7946:7971   */\n      swap2\n      pop\n        /* \"#utility.yul\":7985:8005   */\n      tag_196\n        /* \"#utility.yul\":8003:8004   */\n      dup4\n        /* \"#utility.yul\":7985:8005   */\n      tag_165\n      jump\t// in\n    tag_196:\n        /* \"#utility.yul\":7980:8005   */\n      swap3\n      pop\n        /* \"#utility.yul\":8139:8140   */\n      dup3\n        /* \"#utility.yul\":8071:8137   */\n      0xffffffffffffffffffffffffffffffffffffffffffffffffffffffffffffffff\n        /* \"#utility.yul\":8067:8141   */\n      sub\n        /* \"#utility.yul\":8064:8065   */\n      dup3\n        /* \"#utility.yul\":8061:8142   */\n      gt\n        /* \"#utility.yul\":8058:8165   */\n      iszero\n      tag_197\n      jumpi\n        /* \"#utility.yul\":8145:8163   */\n      tag_198\n      tag_199\n      jump\t// in\n    tag_198:\n        /* \"#utility.yul\":8058:8165   */\n    tag_197:\n        /* \"#utility.yul\":8189:8190   */\n      dup3\n        /* \"#utility.yul\":8186:8187   */\n      dup3\n        /* \"#utility.yul\":8182:8191   */\n      add\n        /* \"#utility.yul\":8175:8191   */\n      swap1\n      pop\n        /* \"#utility.yul\":7892:8197   */\n      swap3\n      swap2\n      pop\n      pop\n      jump\t// out\n        /* \"#utility.yul\":8203:8299   */\n    tag_200:\n        /* \"#utility.yul\":8240:8247   */\n      0x00\n        /* \"#utility.yul\":8269:8293   */\n      tag_202\n        /* \"#utility.yul\":8287:8292   */\n      dup3\n        /* \"#utility.yul\":8269:8293   */\n      tag_203\n      jump\t// in\n    tag_202:\n        /* \"#utility.yul\":8258:8293   */\n      swap1\n      pop\n        /* \"#utility.yul\":8203:8299   */\n      swap2\n      swap1\n      pop\n      jump\t// out\n        /* \"#utility.yul\":8305:8395   */\n    tag_126:\n        /* \"#utility.yul\":8339:8346   */\n      0x00\n        /* \"#utility.yul\":8382:8387   */\n      dup2\n        /* \"#utility.yul\":8375:8388   */\n      iszero\n        /* \"#utility.yul\":8368:8389   */\n      iszero\n        /* \"#utility.yul\":8357:8389   */\n      swap1\n      pop\n        /* \"#utility.yul\":8305:8395   */\n      swap2\n      swap1\n      pop\n      jump\t// out\n        /* \"#utility.yul\":8401:8532   */\n    tag_205:\n        /* \"#utility.yul\":8448:8455   */\n      0x00\n        /* \"#utility.yul\":8477:8482   */\n      dup2\n        /* \"#utility.yul\":8466:8482   */\n      swap1\n      pop\n        /* \"#utility.yul\":8483:8526   */\n      tag_207\n        /* \"#utility.yul\":8520:8525   */\n      dup3\n        /* \"#utility.yul\":8483:8526   */\n      tag_208\n      jump\t// in\n    tag_207:\n        /* \"#utility.yul\":8401:8532   */\n      swap2\n      swap1\n      pop\n      jump\t// out\n        /* \"#utility.yul\":8538:8664   */\n    tag_203:\n        /* \"#utility.yul\":8575:8582   */\n      0x00\n        /* \"#utility.yul\":8615:8657   */\n      0xffffffffffffffffffffffffffffffffffffffff\n        /* \"#utility.yul\":8608:8613   */\n      dup3\n        /* \"#utility.yul\":8604:8658   */\n      and\n        /* \"#utility.yul\":8593:8658   */\n      swap1\n      pop\n        /* \"#utility.yul\":8538:8664   */\n      swap2\n      swap1\n      pop\n      jump\t// out\n        /* \"#utility.yul\":8670:8747   */\n    tag_165:\n        /* \"#utility.yul\":8707:8714   */\n      0x00\n        /* \"#utility.yul\":8736:8741   */\n      dup2\n        /* \"#utility.yul\":8725:8741   */\n      swap1\n      pop\n        /* \"#utility.yul\":8670:8747   */\n      swap2\n      swap1\n      pop\n      jump\t// out\n        /* \"#utility.yul\":8753:8884   */\n    tag_133:\n        /* \"#utility.yul\":8811:8820   */\n      0x00\n        /* \"#utility.yul\":8844:8878   */\n      tag_212\n        /* \"#utility.yul\":8872:8877   */\n      dup3\n        /* \"#utility.yul\":8844:8878   */\n      tag_205\n      jump\t// in\n    tag_212:\n        /* \"#utility.yul\":8831:8878   */\n      swap1\n      pop\n        /* \"#utility.yul\":8753:8884   */\n      swap2\n      swap1\n      pop\n      jump\t// out\n        /* \"#utility.yul\":8890:9044   */\n    tag_92:\n        /* \"#utility.yul\":8974:8980   */\n      dup3\n        /* \"#utility.yul\":8969:8972   */\n      dup2\n        /* \"#utility.yul\":8964:8967   */\n      dup4\n        /* \"#utility.yul\":8951:8981   */\n      calldatacopy\n        /* \"#utility.yul\":9036:9037   */\n      0x00\n        /* \"#utility.yul\":9027:9033   */\n      dup4\n        /* \"#utility.yul\":9022:9025   */\n      dup4\n        /* \"#utility.yul\":9018:9034   */\n      add\n        /* \"#utility.yul\":9011:9038   */\n      mstore\n        /* \"#utility.yul\":8890:9044   */\n      pop\n      pop\n      pop\n      jump\t// out\n        /* \"#utility.yul\":9050:9357   */\n    tag_141:\n        /* \"#utility.yul\":9118:9119   */\n      0x00\n        /* \"#utility.yul\":9128:9241   */\n    tag_215:\n        /* \"#utility.yul\":9142:9148   */\n      dup4\n        /* \"#utility.yul\":9139:9140   */\n      dup2\n        /* \"#utility.yul\":9136:9149   */\n      lt\n        /* \"#utility.yul\":9128:9241   */\n      iszero\n      tag_217\n      jumpi\n        /* \"#utility.yul\":9227:9228   */\n      dup1\n        /* \"#utility.yul\":9222:9225   */\n      dup3\n        /* \"#utility.yul\":9218:9229   */\n      add\n        /* \"#utility.yul\":9212:9230   */\n      mload\n        /* \"#utility.yul\":9208:9209   */\n      dup2\n        /* \"#utility.yul\":9203:9206   */\n      dup5\n        /* \"#utility.yul\":9199:9210   */\n      add\n        /* \"#utility.yul\":9192:9231   */\n      mstore\n        /* \"#utility.yul\":9164:9166   */\n      0x20\n        /* \"#utility.yul\":9161:9162   */\n      dup2\n        /* \"#utility.yul\":9157:9167   */\n      add\n        /* \"#utility.yul\":9152:9167   */\n      swap1\n      pop\n        /* \"#utility.yul\":9128:9241   */\n      jump(tag_215)\n    tag_217:\n        /* \"#utility.yul\":9259:9265   */\n      dup4\n        /* \"#utility.yul\":9256:9257   */\n      dup2\n        /* \"#utility.yul\":9253:9266   */\n      gt\n        /* \"#utility.yul\":9250:9351   */\n      iszero\n      tag_218\n      jumpi\n        /* \"#utility.yul\":9339:9340   */\n      0x00\n        /* \"#utility.yul\":9330:9336   */\n      dup5\n        /* \"#utility.yul\":9325:9328   */\n      dup5\n        /* \"#utility.yul\":9321:9337   */\n      add\n        /* \"#utility.yul\":9314:9341   */\n      mstore\n        /* \"#utility.yul\":9250:9351   */\n    tag_218:\n        /* \"#utility.yul\":9099:9357   */\n      pop\n        /* \"#utility.yul\":9050:9357   */\n      pop\n      pop\n      pop\n      jump\t// out\n        /* \"#utility.yul\":9363:9683   */\n    tag_61:\n        /* \"#utility.yul\":9407:9413   */\n      0x00\n        /* \"#utility.yul\":9444:9445   */\n      0x02\n        /* \"#utility.yul\":9438:9442   */\n      dup3\n        /* \"#utility.yul\":9434:9446   */\n      div\n        /* \"#utility.yul\":9424:9446   */\n      swap1\n      pop\n        /* \"#utility.yul\":9491:9492   */\n      0x01\n        /* \"#utility.yul\":9485:9489   */\n      dup3\n        /* \"#utility.yul\":9481:9493   */\n      and\n        /* \"#utility.yul\":9512:9530   */\n      dup1\n        /* \"#utility.yul\":9502:9583   */\n      tag_220\n      jumpi\n        /* \"#utility.yul\":9568:9572   */\n      0x7f\n        /* \"#utility.yul\":9560:9566   */\n      dup3\n        /* \"#utility.yul\":9556:9573   */\n      and\n        /* \"#utility.yul\":9546:9573   */\n      swap2\n      pop\n        /* \"#utility.yul\":9502:9583   */\n    tag_220:\n        /* \"#utility.yul\":9630:9632   */\n      0x20\n        /* \"#utility.yul\":9622:9628   */\n      dup3\n        /* \"#utility.yul\":9619:9633   */\n      lt\n        /* \"#utility.yul\":9599:9617   */\n      dup2\n        /* \"#utility.yul\":9596:9634   */\n      eq\n        /* \"#utility.yul\":9593:9677   */\n      iszero\n      tag_221\n      jumpi\n        /* \"#utility.yul\":9649:9667   */\n      tag_222\n      tag_223\n      jump\t// in\n    tag_222:\n        /* \"#utility.yul\":9593:9677   */\n    tag_221:\n        /* \"#utility.yul\":9414:9683   */\n      pop\n        /* \"#utility.yul\":9363:9683   */\n      swap2\n      swap1\n      pop\n      jump\t// out\n        /* \"#utility.yul\":9689:9970   */\n    tag_184:\n        /* \"#utility.yul\":9772:9799   */\n      tag_225\n        /* \"#utility.yul\":9794:9798   */\n      dup3\n        /* \"#utility.yul\":9772:9799   */\n      tag_143\n      jump\t// in\n    tag_225:\n        /* \"#utility.yul\":9764:9770   */\n      dup2\n        /* \"#utility.yul\":9760:9800   */\n      add\n        /* \"#utility.yul\":9902:9908   */\n      dup2\n        /* \"#utility.yul\":9890:9900   */\n      dup2\n        /* \"#utility.yul\":9887:9909   */\n      lt\n        /* \"#utility.yul\":9866:9884   */\n      0xffffffffffffffff\n        /* \"#utility.yul\":9854:9864   */\n      dup3\n        /* \"#utility.yul\":9851:9885   */\n      gt\n        /* \"#utility.yul\":9848:9910   */\n      or\n        /* \"#utility.yul\":9845:9933   */\n      iszero\n      tag_226\n      jumpi\n        /* \"#utility.yul\":9913:9931   */\n      tag_227\n      tag_189\n      jump\t// in\n    tag_227:\n        /* \"#utility.yul\":9845:9933   */\n    tag_226:\n        /* \"#utility.yul\":9953:9963   */\n      dup1\n        /* \"#utility.yul\":9949:9951   */\n      0x40\n        /* \"#utility.yul\":9942:9964   */\n      mstore\n        /* \"#utility.yul\":9732:9970   */\n      pop\n        /* \"#utility.yul\":9689:9970   */\n      pop\n      pop\n      jump\t// out\n        /* \"#utility.yul\":9976:10156   */\n    tag_199:\n        /* \"#utility.yul\":10024:10101   */\n      0x4e487b7100000000000000000000000000000000000000000000000000000000\n        /* \"#utility.yul\":10021:10022   */\n      0x00\n        /* \"#utility.yul\":10014:10102   */\n      mstore\n        /* \"#utility.yul\":10121:10125   */\n      0x11\n        /* \"#utility.yul\":10118:10119   */\n      0x04\n        /* \"#utility.yul\":10111:10126   */\n      mstore\n        /* \"#utility.yul\":10145:10149   */\n      0x24\n        /* \"#utility.yul\":10142:10143   */\n      0x00\n        /* \"#utility.yul\":10135:10150   */\n      revert\n        /* \"#utility.yul\":10162:10342   */\n    tag_45:\n        /* \"#utility.yul\":10210:10287   */\n      0x4e487b7100000000000000000000000000000000000000000000000000000000\n        /* \"#utility.yul\":10207:10208   */\n      0x00\n        /* \"#utility.yul\":10200:10288   */\n      mstore\n        /* \"#utility.yul\":10307:10311   */\n      0x21\n        /* \"#utility.yul\":10304:10305   */\n      0x04\n        /* \"#utility.yul\":10297:10312   */\n      mstore\n        /* \"#utility.yul\":10331:10335   */\n      0x24\n        /* \"#utility.yul\":10328:10329   */\n      0x00\n        /* \"#utility.yul\":10321:10336   */\n      revert\n        /* \"#utility.yul\":10348:10528   */\n    tag_223:\n        /* \"#utility.yul\":10396:10473   */\n      0x4e487b7100000000000000000000000000000000000000000000000000000000\n        /* \"#utility.yul\":10393:10394   */\n      0x00\n        /* \"#utility.yul\":10386:10474   */\n      mstore\n        /* \"#utility.yul\":10493:10497   */\n      0x22\n        /* \"#utility.yul\":10490:10491   */\n      0x04\n        /* \"#utility.yul\":10483:10498   */\n      mstore\n        /* \"#utility.yul\":10517:10521   */\n      0x24\n        /* \"#utility.yul\":10514:10515   */\n      0x00\n        /* \"#utility.yul\":10507:10522   */\n      revert\n        /* \"#utility.yul\":10534:10714   */\n    tag_189:\n        /* \"#utility.yul\":10582:10659   */\n      0x4e487b7100000000000000000000000000000000000000000000000000000000\n        /* \"#utility.yul\":10579:10580   */\n      0x00\n        /* \"#utility.yul\":10572:10660   */\n      mstore\n        /* \"#utility.yul\":10679:10683   */\n      0x41\n        /* \"#utility.yul\":10676:10677   */\n      0x04\n        /* \"#utility.yul\":10669:10684   */\n      mstore\n        /* \"#utility.yul\":10703:10707   */\n      0x24\n        /* \"#utility.yul\":10700:10701   */\n      0x00\n        /* \"#utility.yul\":10693:10708   */\n      revert\n        /* \"#utility.yul\":10720:10837   */\n    tag_101:\n        /* \"#utility.yul\":10829:10830   */\n      0x00\n        /* \"#utility.yul\":10826:10827   */\n      dup1\n        /* \"#utility.yul\":10819:10831   */\n      revert\n        /* \"#utility.yul\":10843:10960   */\n    tag_90:\n        /* \"#utility.yul\":10952:10953   */\n      0x00\n        /* \"#utility.yul\":10949:10950   */\n      dup1\n        /* \"#utility.yul\":10942:10954   */\n      revert\n        /* \"#utility.yul\":10966:11083   */\n    tag_117:\n        /* \"#utility.yul\":11075:11076   */\n      0x00\n        /* \"#utility.yul\":11072:11073   */\n      dup1\n        /* \"#utility.yul\":11065:11077   */\n      revert\n        /* \"#utility.yul\":11089:11206   */\n    tag_110:\n        /* \"#utility.yul\":11198:11199   */\n      0x00\n        /* \"#utility.yul\":11195:11196   */\n      dup1\n        /* \"#utility.yul\":11188:11200   */\n      revert\n        /* \"#utility.yul\":11212:11314   */\n    tag_143:\n        /* \"#utility.yul\":11253:11259   */\n      0x00\n        /* \"#utility.yul\":11304:11306   */\n      0x1f\n        /* \"#utility.yul\":11300:11307   */\n      not\n        /* \"#utility.yul\":11295:11297   */\n      0x1f\n        /* \"#utility.yul\":11288:11293   */\n      dup4\n        /* \"#utility.yul\":11284:11298   */\n      add\n        /* \"#utility.yul\":11280:11308   */\n      and\n        /* \"#utility.yul\":11270:11308   */\n      swap1\n      pop\n        /* \"#utility.yul\":11212:11314   */\n      swap2\n      swap1\n      pop\n      jump\t// out\n        /* \"#utility.yul\":11320:11548   */\n    tag_149:\n        /* \"#utility.yul\":11460:11494   */\n      0x506c65617365207570677261646520746f20616464206d6f7265207468616e20\n        /* \"#utility.yul\":11456:11457   */\n      0x00\n        /* \"#utility.yul\":11448:11454   */\n      dup3\n        /* \"#utility.yul\":11444:11458   */\n      add\n        /* \"#utility.yul\":11437:11495   */\n      mstore\n        /* \"#utility.yul\":11529:11540   */\n      0x3130207461736b732e0000000000000000000000000000000000000000000000\n        /* \"#utility.yul\":11524:11526   */\n      0x20\n        /* \"#utility.yul\":11516:11522   */\n      dup3\n        /* \"#utility.yul\":11512:11527   */\n      add\n        /* \"#utility.yul\":11505:11541   */\n      mstore\n        /* \"#utility.yul\":11320:11548   */\n      pop\n      jump\t// out\n        /* \"#utility.yul\":11554:11724   */\n    tag_154:\n        /* \"#utility.yul\":11694:11716   */\n      0x4e6f2073756666696369656e742066756e64732e000000000000000000000000\n        /* \"#utility.yul\":11690:11691   */\n      0x00\n        /* \"#utility.yul\":11682:11688   */\n      dup3\n        /* \"#utility.yul\":11678:11692   */\n      add\n        /* \"#utility.yul\":11671:11717   */\n      mstore\n        /* \"#utility.yul\":11554:11724   */\n      pop\n      jump\t// out\n        /* \"#utility.yul\":11730:11845   */\n    tag_208:\n        /* \"#utility.yul\":11813:11814   */\n      0x03\n        /* \"#utility.yul\":11806:11811   */\n      dup2\n        /* \"#utility.yul\":11803:11815   */\n      lt\n        /* \"#utility.yul\":11793:11839   */\n      tag_240\n      jumpi\n        /* \"#utility.yul\":11819:11837   */\n      tag_241\n      tag_45\n      jump\t// in\n    tag_241:\n        /* \"#utility.yul\":11793:11839   */\n    tag_240:\n        /* \"#utility.yul\":11730:11845   */\n      pop\n      jump\t// out\n        /* \"#utility.yul\":11851:11973   */\n    tag_96:\n        /* \"#utility.yul\":11924:11948   */\n      tag_243\n        /* \"#utility.yul\":11942:11947   */\n      dup2\n        /* \"#utility.yul\":11924:11948   */\n      tag_200\n      jump\t// in\n    tag_243:\n        /* \"#utility.yul\":11917:11922   */\n      dup2\n        /* \"#utility.yul\":11914:11949   */\n      eq\n        /* \"#utility.yul\":11904:11967   */\n      tag_244\n      jumpi\n        /* \"#utility.yul\":11963:11964   */\n      0x00\n        /* \"#utility.yul\":11960:11961   */\n      dup1\n        /* \"#utility.yul\":11953:11965   */\n      revert\n        /* \"#utility.yul\":11904:11967   */\n    tag_244:\n        /* \"#utility.yul\":11851:11973   */\n      pop\n      jump\t// out\n        /* \"#utility.yul\":11979:12101   */\n    tag_106:\n        /* \"#utility.yul\":12052:12076   */\n      tag_246\n        /* \"#utility.yul\":12070:12075   */\n      dup2\n        /* \"#utility.yul\":12052:12076   */\n      tag_165\n      jump\t// in\n    tag_246:\n        /* \"#utility.yul\":12045:12050   */\n      dup2\n        /* \"#utility.yul\":12042:12077   */\n      eq\n        /* \"#utility.yul\":12032:12095   */\n      tag_247\n      jumpi\n        /* \"#utility.yul\":12091:12092   */\n      0x00\n        /* \"#utility.yul\":12088:12089   */\n      dup1\n        /* \"#utility.yul\":12081:12093   */\n      revert\n        /* \"#utility.yul\":12032:12095   */\n    tag_247:\n        /* \"#utility.yul\":11979:12101   */\n      pop\n      jump\t// out\n\n    auxdata: 0xa26469706673582212205c2af4726beff85c2d680c1eeba9594ceaddd3497a34deeabc5f8a2e71c8b54264736f6c63430008070033\n}\n",
				"bytecode": {
					"linkReferences": {},
					"object": "608060405234801561001057600080fd5b50336000806101000a81548173ffffffffffffffffffffffffffffffffffffffff021916908373ffffffffffffffffffffffffffffffffffffffff1602179055506000600181905550610d10806100686000396000f3fe60806040526004361061004a5760003560e01c806304fafc6c1461004f57806367238562146100595780639bddb69a146100825780639f899273146100bf578063e1e29558146100ea575b600080fd5b610057610113565b005b34801561006557600080fd5b50610080600480360381019061007b91906106f8565b6101b1565b005b34801561008e57600080fd5b506100a960048036038101906100a491906106cb565b610383565b6040516100b691906108ae565b60405180910390f35b3480156100cb57600080fd5b506100d46103a3565b6040516100e19190610939565b60405180910390f35b3480156100f657600080fd5b50610111600480360381019061010c9190610741565b6103ad565b005b6005341015610157576040517f08c379a000000000000000000000000000000000000000000000000000000000815260040161014e906108e9565b60405180910390fd5b6001600360003373ffffffffffffffffffffffffffffffffffffffff1673ffffffffffffffffffffffffffffffffffffffff16815260200190815260200160002060006101000a81548160ff021916908315150217905550565b600a600180546101c191906109d7565b1115806102175750600360003373ffffffffffffffffffffffffffffffffffffffff1673ffffffffffffffffffffffffffffffffffffffff16815260200190815260200160002060009054906101000a900460ff165b610256576040517f08c379a000000000000000000000000000000000000000000000000000000000815260040161024d906108c9565b60405180910390fd5b60006040518060a0016040528060015481526020016000600281111561027f5761027e610b6e565b5b8152602001838152602001428152602001600015158152509050806002600060015481526020019081526020016000206000820151816000015560208201518160010160006101000a81548160ff021916908360028111156102e4576102e3610b6e565b5b0217905550604082015181600201908051906020019061030592919061058e565b506060820151816003015560808201518160040160006101000a81548160ff0219169083151502179055509050506103406001546001610578565b6001819055507f615eb1193ab28532b0958952317b9eefb36e49e4a65bc640cf28f2ec9a9317718142604051610377929190610909565b60405180910390a15050565b60036020528060005260406000206000915054906101000a900460ff1681565b6000600154905090565b6000600260008381526020019081526020016000206040518060a0016040529081600082015481526020016001820160009054906101000a900460ff1660028111156103fc576103fb610b6e565b5b600281111561040e5761040d610b6e565b5b815260200160028201805461042290610adc565b80601f016020809104026020016040519081016040528092919081815260200182805461044e90610adc565b801561049b5780601f106104705761010080835404028352916020019161049b565b820191906000526020600020905b81548152906001019060200180831161047e57829003601f168201915b50505050508152602001600382015481526020016004820160009054906101000a900460ff1615151515815250509050600181608001901515908115158152505080600260008481526020019081526020016000206000820151816000015560208201518160010160006101000a81548160ff0219169083600281111561052557610524610b6e565b5b0217905550604082015181600201908051906020019061054692919061058e565b506060820151816003015560808201518160040160006101000a81548160ff0219169083151502179055509050505050565b6000818361058691906109d7565b905092915050565b82805461059a90610adc565b90600052602060002090601f0160209004810192826105bc5760008555610603565b82601f106105d557805160ff1916838001178555610603565b82800160010185558215610603579182015b828111156106025782518255916020019190600101906105e7565b5b5090506106109190610614565b5090565b5b8082111561062d576000816000905550600101610615565b5090565b600061064461063f84610979565b610954565b9050828152602081018484840111156106605761065f610c00565b5b61066b848285610a9a565b509392505050565b60008135905061068281610cac565b92915050565b600082601f83011261069d5761069c610bfb565b5b81356106ad848260208601610631565b91505092915050565b6000813590506106c581610cc3565b92915050565b6000602082840312156106e1576106e0610c0a565b5b60006106ef84828501610673565b91505092915050565b60006020828403121561070e5761070d610c0a565b5b600082013567ffffffffffffffff81111561072c5761072b610c05565b5b61073884828501610688565b91505092915050565b60006020828403121561075757610756610c0a565b5b6000610765848285016106b6565b91505092915050565b61077781610a3f565b82525050565b61078681610a3f565b82525050565b61079581610a88565b82525050565b60006107a6826109aa565b6107b081856109b5565b93506107c0818560208601610aa9565b6107c981610c0f565b840191505092915050565b60006107e16029836109c6565b91506107ec82610c20565b604082019050919050565b60006108046014836109c6565b915061080f82610c6f565b602082019050919050565b600060a0830160008301516108326000860182610890565b506020830151610845602086018261078c565b506040830151848203604086015261085d828261079b565b91505060608301516108726060860182610890565b506080830151610885608086018261076e565b508091505092915050565b61089981610a7e565b82525050565b6108a881610a7e565b82525050565b60006020820190506108c3600083018461077d565b92915050565b600060208201905081810360008301526108e2816107d4565b9050919050565b60006020820190508181036000830152610902816107f7565b9050919050565b60006040820190508181036000830152610923818561081a565b9050610932602083018461089f565b9392505050565b600060208201905061094e600083018461089f565b92915050565b600061095e61096f565b905061096a8282610b0e565b919050565b6000604051905090565b600067ffffffffffffffff82111561099457610993610bcc565b5b61099d82610c0f565b9050602081019050919050565b600081519050919050565b600082825260208201905092915050565b600082825260208201905092915050565b60006109e282610a7e565b91506109ed83610a7e565b9250827fffffffffffffffffffffffffffffffffffffffffffffffffffffffffffffffff03821115610a2257610a21610b3f565b5b828201905092915050565b6000610a3882610a5e565b9050919050565b60008115159050919050565b6000819050610a5982610c98565b919050565b600073ffffffffffffffffffffffffffffffffffffffff82169050919050565b6000819050919050565b6000610a9382610a4b565b9050919050565b82818337600083830152505050565b60005b83811015610ac7578082015181840152602081019050610aac565b83811115610ad6576000848401525b50505050565b60006002820490506001821680610af457607f821691505b60208210811415610b0857610b07610b9d565b5b50919050565b610b1782610c0f565b810181811067ffffffffffffffff82111715610b3657610b35610bcc565b5b80604052505050565b7f4e487b7100000000000000000000000000000000000000000000000000000000600052601160045260246000fd5b7f4e487b7100000000000000000000000000000000000000000000000000000000600052602160045260246000fd5b7f4e487b7100000000000000000000000000000000000000000000000000000000600052602260045260246000fd5b7f4e487b7100000000000000000000000000000000000000000000000000000000600052604160045260246000fd5b600080fd5b600080fd5b600080fd5b600080fd5b6000601f19601f8301169050919050565b7f506c65617365207570677261646520746f20616464206d6f7265207468616e2060008201527f3130207461736b732e0000000000000000000000000000000000000000000000602082015250565b7f4e6f2073756666696369656e742066756e64732e000000000000000000000000600082015250565b60038110610ca957610ca8610b6e565b5b50565b610cb581610a2d565b8114610cc057600080fd5b50565b610ccc81610a7e565b8114610cd757600080fd5b5056fea26469706673582212205c2af4726beff85c2d680c1eeba9594ceaddd3497a34deeabc5f8a2e71c8b54264736f6c63430008070033",
					"opcodes": "PUSH1 0x80 PUSH1 0x40 MSTORE CALLVALUE DUP1 ISZERO PUSH2 0x10 JUMPI PUSH1 0x0 DUP1 REVERT JUMPDEST POP CALLER PUSH1 0x0 DUP1 PUSH2 0x100 EXP DUP2 SLOAD DUP2 PUSH20 0xFFFFFFFFFFFFFFFFFFFFFFFFFFFFFFFFFFFFFFFF MUL NOT AND SWAP1 DUP4 PUSH20 0xFFFFFFFFFFFFFFFFFFFFFFFFFFFFFFFFFFFFFFFF AND MUL OR SWAP1 SSTORE POP PUSH1 0x0 PUSH1 0x1 DUP2 SWAP1 SSTORE POP PUSH2 0xD10 DUP1 PUSH2 0x68 PUSH1 0x0 CODECOPY PUSH1 0x0 RETURN INVALID PUSH1 0x80 PUSH1 0x40 MSTORE PUSH1 0x4 CALLDATASIZE LT PUSH2 0x4A JUMPI PUSH1 0x0 CALLDATALOAD PUSH1 0xE0 SHR DUP1 PUSH4 0x4FAFC6C EQ PUSH2 0x4F JUMPI DUP1 PUSH4 0x67238562 EQ PUSH2 0x59 JUMPI DUP1 PUSH4 0x9BDDB69A EQ PUSH2 0x82 JUMPI DUP1 PUSH4 0x9F899273 EQ PUSH2 0xBF JUMPI DUP1 PUSH4 0xE1E29558 EQ PUSH2 0xEA JUMPI JUMPDEST PUSH1 0x0 DUP1 REVERT JUMPDEST PUSH2 0x57 PUSH2 0x113 JUMP JUMPDEST STOP JUMPDEST CALLVALUE DUP1 ISZERO PUSH2 0x65 JUMPI PUSH1 0x0 DUP1 REVERT JUMPDEST POP PUSH2 0x80 PUSH1 0x4 DUP1 CALLDATASIZE SUB DUP2 ADD SWAP1 PUSH2 0x7B SWAP2 SWAP1 PUSH2 0x6F8 JUMP JUMPDEST PUSH2 0x1B1 JUMP JUMPDEST STOP JUMPDEST CALLVALUE DUP1 ISZERO PUSH2 0x8E JUMPI PUSH1 0x0 DUP1 REVERT JUMPDEST POP PUSH2 0xA9 PUSH1 0x4 DUP1 CALLDATASIZE SUB DUP2 ADD SWAP1 PUSH2 0xA4 SWAP2 SWAP1 PUSH2 0x6CB JUMP JUMPDEST PUSH2 0x383 JUMP JUMPDEST PUSH1 0x40 MLOAD PUSH2 0xB6 SWAP2 SWAP1 PUSH2 0x8AE JUMP JUMPDEST PUSH1 0x40 MLOAD DUP1 SWAP2 SUB SWAP1 RETURN JUMPDEST CALLVALUE DUP1 ISZERO PUSH2 0xCB JUMPI PUSH1 0x0 DUP1 REVERT JUMPDEST POP PUSH2 0xD4 PUSH2 0x3A3 JUMP JUMPDEST PUSH1 0x40 MLOAD PUSH2 0xE1 SWAP2 SWAP1 PUSH2 0x939 JUMP JUMPDEST PUSH1 0x40 MLOAD DUP1 SWAP2 SUB SWAP1 RETURN JUMPDEST CALLVALUE DUP1 ISZERO PUSH2 0xF6 JUMPI PUSH1 0x0 DUP1 REVERT JUMPDEST POP PUSH2 0x111 PUSH1 0x4 DUP1 CALLDATASIZE SUB DUP2 ADD SWAP1 PUSH2 0x10C SWAP2 SWAP1 PUSH2 0x741 JUMP JUMPDEST PUSH2 0x3AD JUMP JUMPDEST STOP JUMPDEST PUSH1 0x5 CALLVALUE LT ISZERO PUSH2 0x157 JUMPI PUSH1 0x40 MLOAD PUSH32 0x8C379A000000000000000000000000000000000000000000000000000000000 DUP2 MSTORE PUSH1 0x4 ADD PUSH2 0x14E SWAP1 PUSH2 0x8E9 JUMP JUMPDEST PUSH1 0x40 MLOAD DUP1 SWAP2 SUB SWAP1 REVERT JUMPDEST PUSH1 0x1 PUSH1 0x3 PUSH1 0x0 CALLER PUSH20 0xFFFFFFFFFFFFFFFFFFFFFFFFFFFFFFFFFFFFFFFF AND PUSH20 0xFFFFFFFFFFFFFFFFFFFFFFFFFFFFFFFFFFFFFFFF AND DUP2 MSTORE PUSH1 0x20 ADD SWAP1 DUP2 MSTORE PUSH1 0x20 ADD PUSH1 0x0 KECCAK256 PUSH1 0x0 PUSH2 0x100 EXP DUP2 SLOAD DUP2 PUSH1 0xFF MUL NOT AND SWAP1 DUP4 ISZERO ISZERO MUL OR SWAP1 SSTORE POP JUMP JUMPDEST PUSH1 0xA PUSH1 0x1 DUP1 SLOAD PUSH2 0x1C1 SWAP2 SWAP1 PUSH2 0x9D7 JUMP JUMPDEST GT ISZERO DUP1 PUSH2 0x217 JUMPI POP PUSH1 0x3 PUSH1 0x0 CALLER PUSH20 0xFFFFFFFFFFFFFFFFFFFFFFFFFFFFFFFFFFFFFFFF AND PUSH20 0xFFFFFFFFFFFFFFFFFFFFFFFFFFFFFFFFFFFFFFFF AND DUP2 MSTORE PUSH1 0x20 ADD SWAP1 DUP2 MSTORE PUSH1 0x20 ADD PUSH1 0x0 KECCAK256 PUSH1 0x0 SWAP1 SLOAD SWAP1 PUSH2 0x100 EXP SWAP1 DIV PUSH1 0xFF AND JUMPDEST PUSH2 0x256 JUMPI PUSH1 0x40 MLOAD PUSH32 0x8C379A000000000000000000000000000000000000000000000000000000000 DUP2 MSTORE PUSH1 0x4 ADD PUSH2 0x24D SWAP1 PUSH2 0x8C9 JUMP JUMPDEST PUSH1 0x40 MLOAD DUP1 SWAP2 SUB SWAP1 REVERT JUMPDEST PUSH1 0x0 PUSH1 0x40 MLOAD DUP1 PUSH1 0xA0 ADD PUSH1 0x40 MSTORE DUP1 PUSH1 0x1 SLOAD DUP2 MSTORE PUSH1 0x20 ADD PUSH1 0x0 PUSH1 0x2 DUP2 GT ISZERO PUSH2 0x27F JUMPI PUSH2 0x27E PUSH2 0xB6E JUMP JUMPDEST JUMPDEST DUP2 MSTORE PUSH1 0x20 ADD DUP4 DUP2 MSTORE PUSH1 0x20 ADD TIMESTAMP DUP2 MSTORE PUSH1 0x20 ADD PUSH1 0x0 ISZERO ISZERO DUP2 MSTORE POP SWAP1 POP DUP1 PUSH1 0x2 PUSH1 0x0 PUSH1 0x1 SLOAD DUP2 MSTORE PUSH1 0x20 ADD SWAP1 DUP2 MSTORE PUSH1 0x20 ADD PUSH1 0x0 KECCAK256 PUSH1 0x0 DUP3 ADD MLOAD DUP2 PUSH1 0x0 ADD SSTORE PUSH1 0x20 DUP3 ADD MLOAD DUP2 PUSH1 0x1 ADD PUSH1 0x0 PUSH2 0x100 EXP DUP2 SLOAD DUP2 PUSH1 0xFF MUL NOT AND SWAP1 DUP4 PUSH1 0x2 DUP2 GT ISZERO PUSH2 0x2E4 JUMPI PUSH2 0x2E3 PUSH2 0xB6E JUMP JUMPDEST JUMPDEST MUL OR SWAP1 SSTORE POP PUSH1 0x40 DUP3 ADD MLOAD DUP2 PUSH1 0x2 ADD SWAP1 DUP1 MLOAD SWAP1 PUSH1 0x20 ADD SWAP1 PUSH2 0x305 SWAP3 SWAP2 SWAP1 PUSH2 0x58E JUMP JUMPDEST POP PUSH1 0x60 DUP3 ADD MLOAD DUP2 PUSH1 0x3 ADD SSTORE PUSH1 0x80 DUP3 ADD MLOAD DUP2 PUSH1 0x4 ADD PUSH1 0x0 PUSH2 0x100 EXP DUP2 SLOAD DUP2 PUSH1 0xFF MUL NOT AND SWAP1 DUP4 ISZERO ISZERO MUL OR SWAP1 SSTORE POP SWAP1 POP POP PUSH2 0x340 PUSH1 0x1 SLOAD PUSH1 0x1 PUSH2 0x578 JUMP JUMPDEST PUSH1 0x1 DUP2 SWAP1 SSTORE POP PUSH32 0x615EB1193AB28532B0958952317B9EEFB36E49E4A65BC640CF28F2EC9A931771 DUP2 TIMESTAMP PUSH1 0x40 MLOAD PUSH2 0x377 SWAP3 SWAP2 SWAP1 PUSH2 0x909 JUMP JUMPDEST PUSH1 0x40 MLOAD DUP1 SWAP2 SUB SWAP1 LOG1 POP POP JUMP JUMPDEST PUSH1 0x3 PUSH1 0x20 MSTORE DUP1 PUSH1 0x0 MSTORE PUSH1 0x40 PUSH1 0x0 KECCAK256 PUSH1 0x0 SWAP2 POP SLOAD SWAP1 PUSH2 0x100 EXP SWAP1 DIV PUSH1 0xFF AND DUP2 JUMP JUMPDEST PUSH1 0x0 PUSH1 0x1 SLOAD SWAP1 POP SWAP1 JUMP JUMPDEST PUSH1 0x0 PUSH1 0x2 PUSH1 0x0 DUP4 DUP2 MSTORE PUSH1 0x20 ADD SWAP1 DUP2 MSTORE PUSH1 0x20 ADD PUSH1 0x0 KECCAK256 PUSH1 0x40 MLOAD DUP1 PUSH1 0xA0 ADD PUSH1 0x40 MSTORE SWAP1 DUP2 PUSH1 0x0 DUP3 ADD SLOAD DUP2 MSTORE PUSH1 0x20 ADD PUSH1 0x1 DUP3 ADD PUSH1 0x0 SWAP1 SLOAD SWAP1 PUSH2 0x100 EXP SWAP1 DIV PUSH1 0xFF AND PUSH1 0x2 DUP2 GT ISZERO PUSH2 0x3FC JUMPI PUSH2 0x3FB PUSH2 0xB6E JUMP JUMPDEST JUMPDEST PUSH1 0x2 DUP2 GT ISZERO PUSH2 0x40E JUMPI PUSH2 0x40D PUSH2 0xB6E JUMP JUMPDEST JUMPDEST DUP2 MSTORE PUSH1 0x20 ADD PUSH1 0x2 DUP3 ADD DUP1 SLOAD PUSH2 0x422 SWAP1 PUSH2 0xADC JUMP JUMPDEST DUP1 PUSH1 0x1F ADD PUSH1 0x20 DUP1 SWAP2 DIV MUL PUSH1 0x20 ADD PUSH1 0x40 MLOAD SWAP1 DUP2 ADD PUSH1 0x40 MSTORE DUP1 SWAP3 SWAP2 SWAP1 DUP2 DUP2 MSTORE PUSH1 0x20 ADD DUP3 DUP1 SLOAD PUSH2 0x44E SWAP1 PUSH2 0xADC JUMP JUMPDEST DUP1 ISZERO PUSH2 0x49B JUMPI DUP1 PUSH1 0x1F LT PUSH2 0x470 JUMPI PUSH2 0x100 DUP1 DUP4 SLOAD DIV MUL DUP4 MSTORE SWAP2 PUSH1 0x20 ADD SWAP2 PUSH2 0x49B JUMP JUMPDEST DUP3 ADD SWAP2 SWAP1 PUSH1 0x0 MSTORE PUSH1 0x20 PUSH1 0x0 KECCAK256 SWAP1 JUMPDEST DUP2 SLOAD DUP2 MSTORE SWAP1 PUSH1 0x1 ADD SWAP1 PUSH1 0x20 ADD DUP1 DUP4 GT PUSH2 0x47E JUMPI DUP3 SWAP1 SUB PUSH1 0x1F AND DUP3 ADD SWAP2 JUMPDEST POP POP POP POP POP DUP2 MSTORE PUSH1 0x20 ADD PUSH1 0x3 DUP3 ADD SLOAD DUP2 MSTORE PUSH1 0x20 ADD PUSH1 0x4 DUP3 ADD PUSH1 0x0 SWAP1 SLOAD SWAP1 PUSH2 0x100 EXP SWAP1 DIV PUSH1 0xFF AND ISZERO ISZERO ISZERO ISZERO DUP2 MSTORE POP POP SWAP1 POP PUSH1 0x1 DUP2 PUSH1 0x80 ADD SWAP1 ISZERO ISZERO SWAP1 DUP2 ISZERO ISZERO DUP2 MSTORE POP POP DUP1 PUSH1 0x2 PUSH1 0x0 DUP5 DUP2 MSTORE PUSH1 0x20 ADD SWAP1 DUP2 MSTORE PUSH1 0x20 ADD PUSH1 0x0 KECCAK256 PUSH1 0x0 DUP3 ADD MLOAD DUP2 PUSH1 0x0 ADD SSTORE PUSH1 0x20 DUP3 ADD MLOAD DUP2 PUSH1 0x1 ADD PUSH1 0x0 PUSH2 0x100 EXP DUP2 SLOAD DUP2 PUSH1 0xFF MUL NOT AND SWAP1 DUP4 PUSH1 0x2 DUP2 GT ISZERO PUSH2 0x525 JUMPI PUSH2 0x524 PUSH2 0xB6E JUMP JUMPDEST JUMPDEST MUL OR SWAP1 SSTORE POP PUSH1 0x40 DUP3 ADD MLOAD DUP2 PUSH1 0x2 ADD SWAP1 DUP1 MLOAD SWAP1 PUSH1 0x20 ADD SWAP1 PUSH2 0x546 SWAP3 SWAP2 SWAP1 PUSH2 0x58E JUMP JUMPDEST POP PUSH1 0x60 DUP3 ADD MLOAD DUP2 PUSH1 0x3 ADD SSTORE PUSH1 0x80 DUP3 ADD MLOAD DUP2 PUSH1 0x4 ADD PUSH1 0x0 PUSH2 0x100 EXP DUP2 SLOAD DUP2 PUSH1 0xFF MUL NOT AND SWAP1 DUP4 ISZERO ISZERO MUL OR SWAP1 SSTORE POP SWAP1 POP POP POP POP JUMP JUMPDEST PUSH1 0x0 DUP2 DUP4 PUSH2 0x586 SWAP2 SWAP1 PUSH2 0x9D7 JUMP JUMPDEST SWAP1 POP SWAP3 SWAP2 POP POP JUMP JUMPDEST DUP3 DUP1 SLOAD PUSH2 0x59A SWAP1 PUSH2 0xADC JUMP JUMPDEST SWAP1 PUSH1 0x0 MSTORE PUSH1 0x20 PUSH1 0x0 KECCAK256 SWAP1 PUSH1 0x1F ADD PUSH1 0x20 SWAP1 DIV DUP2 ADD SWAP3 DUP3 PUSH2 0x5BC JUMPI PUSH1 0x0 DUP6 SSTORE PUSH2 0x603 JUMP JUMPDEST DUP3 PUSH1 0x1F LT PUSH2 0x5D5 JUMPI DUP1 MLOAD PUSH1 0xFF NOT AND DUP4 DUP1 ADD OR DUP6 SSTORE PUSH2 0x603 JUMP JUMPDEST DUP3 DUP1 ADD PUSH1 0x1 ADD DUP6 SSTORE DUP3 ISZERO PUSH2 0x603 JUMPI SWAP2 DUP3 ADD JUMPDEST DUP3 DUP2 GT ISZERO PUSH2 0x602 JUMPI DUP3 MLOAD DUP3 SSTORE SWAP2 PUSH1 0x20 ADD SWAP2 SWAP1 PUSH1 0x1 ADD SWAP1 PUSH2 0x5E7 JUMP JUMPDEST JUMPDEST POP SWAP1 POP PUSH2 0x610 SWAP2 SWAP1 PUSH2 0x614 JUMP JUMPDEST POP SWAP1 JUMP JUMPDEST JUMPDEST DUP1 DUP3 GT ISZERO PUSH2 0x62D JUMPI PUSH1 0x0 DUP2 PUSH1 0x0 SWAP1 SSTORE POP PUSH1 0x1 ADD PUSH2 0x615 JUMP JUMPDEST POP SWAP1 JUMP JUMPDEST PUSH1 0x0 PUSH2 0x644 PUSH2 0x63F DUP5 PUSH2 0x979 JUMP JUMPDEST PUSH2 0x954 JUMP JUMPDEST SWAP1 POP DUP3 DUP2 MSTORE PUSH1 0x20 DUP2 ADD DUP5 DUP5 DUP5 ADD GT ISZERO PUSH2 0x660 JUMPI PUSH2 0x65F PUSH2 0xC00 JUMP JUMPDEST JUMPDEST PUSH2 0x66B DUP5 DUP3 DUP6 PUSH2 0xA9A JUMP JUMPDEST POP SWAP4 SWAP3 POP POP POP JUMP JUMPDEST PUSH1 0x0 DUP2 CALLDATALOAD SWAP1 POP PUSH2 0x682 DUP2 PUSH2 0xCAC JUMP JUMPDEST SWAP3 SWAP2 POP POP JUMP JUMPDEST PUSH1 0x0 DUP3 PUSH1 0x1F DUP4 ADD SLT PUSH2 0x69D JUMPI PUSH2 0x69C PUSH2 0xBFB JUMP JUMPDEST JUMPDEST DUP2 CALLDATALOAD PUSH2 0x6AD DUP5 DUP3 PUSH1 0x20 DUP7 ADD PUSH2 0x631 JUMP JUMPDEST SWAP2 POP POP SWAP3 SWAP2 POP POP JUMP JUMPDEST PUSH1 0x0 DUP2 CALLDATALOAD SWAP1 POP PUSH2 0x6C5 DUP2 PUSH2 0xCC3 JUMP JUMPDEST SWAP3 SWAP2 POP POP JUMP JUMPDEST PUSH1 0x0 PUSH1 0x20 DUP3 DUP5 SUB SLT ISZERO PUSH2 0x6E1 JUMPI PUSH2 0x6E0 PUSH2 0xC0A JUMP JUMPDEST JUMPDEST PUSH1 0x0 PUSH2 0x6EF DUP5 DUP3 DUP6 ADD PUSH2 0x673 JUMP JUMPDEST SWAP2 POP POP SWAP3 SWAP2 POP POP JUMP JUMPDEST PUSH1 0x0 PUSH1 0x20 DUP3 DUP5 SUB SLT ISZERO PUSH2 0x70E JUMPI PUSH2 0x70D PUSH2 0xC0A JUMP JUMPDEST JUMPDEST PUSH1 0x0 DUP3 ADD CALLDATALOAD PUSH8 0xFFFFFFFFFFFFFFFF DUP2 GT ISZERO PUSH2 0x72C JUMPI PUSH2 0x72B PUSH2 0xC05 JUMP JUMPDEST JUMPDEST PUSH2 0x738 DUP5 DUP3 DUP6 ADD PUSH2 0x688 JUMP JUMPDEST SWAP2 POP POP SWAP3 SWAP2 POP POP JUMP JUMPDEST PUSH1 0x0 PUSH1 0x20 DUP3 DUP5 SUB SLT ISZERO PUSH2 0x757 JUMPI PUSH2 0x756 PUSH2 0xC0A JUMP JUMPDEST JUMPDEST PUSH1 0x0 PUSH2 0x765 DUP5 DUP3 DUP6 ADD PUSH2 0x6B6 JUMP JUMPDEST SWAP2 POP POP SWAP3 SWAP2 POP POP JUMP JUMPDEST PUSH2 0x777 DUP2 PUSH2 0xA3F JUMP JUMPDEST DUP3 MSTORE POP POP JUMP JUMPDEST PUSH2 0x786 DUP2 PUSH2 0xA3F JUMP JUMPDEST DUP3 MSTORE POP POP JUMP JUMPDEST PUSH2 0x795 DUP2 PUSH2 0xA88 JUMP JUMPDEST DUP3 MSTORE POP POP JUMP JUMPDEST PUSH1 0x0 PUSH2 0x7A6 DUP3 PUSH2 0x9AA JUMP JUMPDEST PUSH2 0x7B0 DUP2 DUP6 PUSH2 0x9B5 JUMP JUMPDEST SWAP4 POP PUSH2 0x7C0 DUP2 DUP6 PUSH1 0x20 DUP7 ADD PUSH2 0xAA9 JUMP JUMPDEST PUSH2 0x7C9 DUP2 PUSH2 0xC0F JUMP JUMPDEST DUP5 ADD SWAP2 POP POP SWAP3 SWAP2 POP POP JUMP JUMPDEST PUSH1 0x0 PUSH2 0x7E1 PUSH1 0x29 DUP4 PUSH2 0x9C6 JUMP JUMPDEST SWAP2 POP PUSH2 0x7EC DUP3 PUSH2 0xC20 JUMP JUMPDEST PUSH1 0x40 DUP3 ADD SWAP1 POP SWAP2 SWAP1 POP JUMP JUMPDEST PUSH1 0x0 PUSH2 0x804 PUSH1 0x14 DUP4 PUSH2 0x9C6 JUMP JUMPDEST SWAP2 POP PUSH2 0x80F DUP3 PUSH2 0xC6F JUMP JUMPDEST PUSH1 0x20 DUP3 ADD SWAP1 POP SWAP2 SWAP1 POP JUMP JUMPDEST PUSH1 0x0 PUSH1 0xA0 DUP4 ADD PUSH1 0x0 DUP4 ADD MLOAD PUSH2 0x832 PUSH1 0x0 DUP7 ADD DUP3 PUSH2 0x890 JUMP JUMPDEST POP PUSH1 0x20 DUP4 ADD MLOAD PUSH2 0x845 PUSH1 0x20 DUP7 ADD DUP3 PUSH2 0x78C JUMP JUMPDEST POP PUSH1 0x40 DUP4 ADD MLOAD DUP5 DUP3 SUB PUSH1 0x40 DUP7 ADD MSTORE PUSH2 0x85D DUP3 DUP3 PUSH2 0x79B JUMP JUMPDEST SWAP2 POP POP PUSH1 0x60 DUP4 ADD MLOAD PUSH2 0x872 PUSH1 0x60 DUP7 ADD DUP3 PUSH2 0x890 JUMP JUMPDEST POP PUSH1 0x80 DUP4 ADD MLOAD PUSH2 0x885 PUSH1 0x80 DUP7 ADD DUP3 PUSH2 0x76E JUMP JUMPDEST POP DUP1 SWAP2 POP POP SWAP3 SWAP2 POP POP JUMP JUMPDEST PUSH2 0x899 DUP2 PUSH2 0xA7E JUMP JUMPDEST DUP3 MSTORE POP POP JUMP JUMPDEST PUSH2 0x8A8 DUP2 PUSH2 0xA7E JUMP JUMPDEST DUP3 MSTORE POP POP JUMP JUMPDEST PUSH1 0x0 PUSH1 0x20 DUP3 ADD SWAP1 POP PUSH2 0x8C3 PUSH1 0x0 DUP4 ADD DUP5 PUSH2 0x77D JUMP JUMPDEST SWAP3 SWAP2 POP POP JUMP JUMPDEST PUSH1 0x0 PUSH1 0x20 DUP3 ADD SWAP1 POP DUP2 DUP2 SUB PUSH1 0x0 DUP4 ADD MSTORE PUSH2 0x8E2 DUP2 PUSH2 0x7D4 JUMP JUMPDEST SWAP1 POP SWAP2 SWAP1 POP JUMP JUMPDEST PUSH1 0x0 PUSH1 0x20 DUP3 ADD SWAP1 POP DUP2 DUP2 SUB PUSH1 0x0 DUP4 ADD MSTORE PUSH2 0x902 DUP2 PUSH2 0x7F7 JUMP JUMPDEST SWAP1 POP SWAP2 SWAP1 POP JUMP JUMPDEST PUSH1 0x0 PUSH1 0x40 DUP3 ADD SWAP1 POP DUP2 DUP2 SUB PUSH1 0x0 DUP4 ADD MSTORE PUSH2 0x923 DUP2 DUP6 PUSH2 0x81A JUMP JUMPDEST SWAP1 POP PUSH2 0x932 PUSH1 0x20 DUP4 ADD DUP5 PUSH2 0x89F JUMP JUMPDEST SWAP4 SWAP3 POP POP POP JUMP JUMPDEST PUSH1 0x0 PUSH1 0x20 DUP3 ADD SWAP1 POP PUSH2 0x94E PUSH1 0x0 DUP4 ADD DUP5 PUSH2 0x89F JUMP JUMPDEST SWAP3 SWAP2 POP POP JUMP JUMPDEST PUSH1 0x0 PUSH2 0x95E PUSH2 0x96F JUMP JUMPDEST SWAP1 POP PUSH2 0x96A DUP3 DUP3 PUSH2 0xB0E JUMP JUMPDEST SWAP2 SWAP1 POP JUMP JUMPDEST PUSH1 0x0 PUSH1 0x40 MLOAD SWAP1 POP SWAP1 JUMP JUMPDEST PUSH1 0x0 PUSH8 0xFFFFFFFFFFFFFFFF DUP3 GT ISZERO PUSH2 0x994 JUMPI PUSH2 0x993 PUSH2 0xBCC JUMP JUMPDEST JUMPDEST PUSH2 0x99D DUP3 PUSH2 0xC0F JUMP JUMPDEST SWAP1 POP PUSH1 0x20 DUP2 ADD SWAP1 POP SWAP2 SWAP1 POP JUMP JUMPDEST PUSH1 0x0 DUP2 MLOAD SWAP1 POP SWAP2 SWAP1 POP JUMP JUMPDEST PUSH1 0x0 DUP3 DUP3 MSTORE PUSH1 0x20 DUP3 ADD SWAP1 POP SWAP3 SWAP2 POP POP JUMP JUMPDEST PUSH1 0x0 DUP3 DUP3 MSTORE PUSH1 0x20 DUP3 ADD SWAP1 POP SWAP3 SWAP2 POP POP JUMP JUMPDEST PUSH1 0x0 PUSH2 0x9E2 DUP3 PUSH2 0xA7E JUMP JUMPDEST SWAP2 POP PUSH2 0x9ED DUP4 PUSH2 0xA7E JUMP JUMPDEST SWAP3 POP DUP3 PUSH32 0xFFFFFFFFFFFFFFFFFFFFFFFFFFFFFFFFFFFFFFFFFFFFFFFFFFFFFFFFFFFFFFFF SUB DUP3 GT ISZERO PUSH2 0xA22 JUMPI PUSH2 0xA21 PUSH2 0xB3F JUMP JUMPDEST JUMPDEST DUP3 DUP3 ADD SWAP1 POP SWAP3 SWAP2 POP POP JUMP JUMPDEST PUSH1 0x0 PUSH2 0xA38 DUP3 PUSH2 0xA5E JUMP JUMPDEST SWAP1 POP SWAP2 SWAP1 POP JUMP JUMPDEST PUSH1 0x0 DUP2 ISZERO ISZERO SWAP1 POP SWAP2 SWAP1 POP JUMP JUMPDEST PUSH1 0x0 DUP2 SWAP1 POP PUSH2 0xA59 DUP3 PUSH2 0xC98 JUMP JUMPDEST SWAP2 SWAP1 POP JUMP JUMPDEST PUSH1 0x0 PUSH20 0xFFFFFFFFFFFFFFFFFFFFFFFFFFFFFFFFFFFFFFFF DUP3 AND SWAP1 POP SWAP2 SWAP1 POP JUMP JUMPDEST PUSH1 0x0 DUP2 SWAP1 POP SWAP2 SWAP1 POP JUMP JUMPDEST PUSH1 0x0 PUSH2 0xA93 DUP3 PUSH2 0xA4B JUMP JUMPDEST SWAP1 POP SWAP2 SWAP1 POP JUMP JUMPDEST DUP3 DUP2 DUP4 CALLDATACOPY PUSH1 0x0 DUP4 DUP4 ADD MSTORE POP POP POP JUMP JUMPDEST PUSH1 0x0 JUMPDEST DUP4 DUP2 LT ISZERO PUSH2 0xAC7 JUMPI DUP1 DUP3 ADD MLOAD DUP2 DUP5 ADD MSTORE PUSH1 0x20 DUP2 ADD SWAP1 POP PUSH2 0xAAC JUMP JUMPDEST DUP4 DUP2 GT ISZERO PUSH2 0xAD6 JUMPI PUSH1 0x0 DUP5 DUP5 ADD MSTORE JUMPDEST POP POP POP POP JUMP JUMPDEST PUSH1 0x0 PUSH1 0x2 DUP3 DIV SWAP1 POP PUSH1 0x1 DUP3 AND DUP1 PUSH2 0xAF4 JUMPI PUSH1 0x7F DUP3 AND SWAP2 POP JUMPDEST PUSH1 0x20 DUP3 LT DUP2 EQ ISZERO PUSH2 0xB08 JUMPI PUSH2 0xB07 PUSH2 0xB9D JUMP JUMPDEST JUMPDEST POP SWAP2 SWAP1 POP JUMP JUMPDEST PUSH2 0xB17 DUP3 PUSH2 0xC0F JUMP JUMPDEST DUP2 ADD DUP2 DUP2 LT PUSH8 0xFFFFFFFFFFFFFFFF DUP3 GT OR ISZERO PUSH2 0xB36 JUMPI PUSH2 0xB35 PUSH2 0xBCC JUMP JUMPDEST JUMPDEST DUP1 PUSH1 0x40 MSTORE POP POP POP JUMP JUMPDEST PUSH32 0x4E487B7100000000000000000000000000000000000000000000000000000000 PUSH1 0x0 MSTORE PUSH1 0x11 PUSH1 0x4 MSTORE PUSH1 0x24 PUSH1 0x0 REVERT JUMPDEST PUSH32 0x4E487B7100000000000000000000000000000000000000000000000000000000 PUSH1 0x0 MSTORE PUSH1 0x21 PUSH1 0x4 MSTORE PUSH1 0x24 PUSH1 0x0 REVERT JUMPDEST PUSH32 0x4E487B7100000000000000000000000000000000000000000000000000000000 PUSH1 0x0 MSTORE PUSH1 0x22 PUSH1 0x4 MSTORE PUSH1 0x24 PUSH1 0x0 REVERT JUMPDEST PUSH32 0x4E487B7100000000000000000000000000000000000000000000000000000000 PUSH1 0x0 MSTORE PUSH1 0x41 PUSH1 0x4 MSTORE PUSH1 0x24 PUSH1 0x0 REVERT JUMPDEST PUSH1 0x0 DUP1 REVERT JUMPDEST PUSH1 0x0 DUP1 REVERT JUMPDEST PUSH1 0x0 DUP1 REVERT JUMPDEST PUSH1 0x0 DUP1 REVERT JUMPDEST PUSH1 0x0 PUSH1 0x1F NOT PUSH1 0x1F DUP4 ADD AND SWAP1 POP SWAP2 SWAP1 POP JUMP JUMPDEST PUSH32 0x506C65617365207570677261646520746F20616464206D6F7265207468616E20 PUSH1 0x0 DUP3 ADD MSTORE PUSH32 0x3130207461736B732E0000000000000000000000000000000000000000000000 PUSH1 0x20 DUP3 ADD MSTORE POP JUMP JUMPDEST PUSH32 0x4E6F2073756666696369656E742066756E64732E000000000000000000000000 PUSH1 0x0 DUP3 ADD MSTORE POP JUMP JUMPDEST PUSH1 0x3 DUP2 LT PUSH2 0xCA9 JUMPI PUSH2 0xCA8 PUSH2 0xB6E JUMP JUMPDEST JUMPDEST POP JUMP JUMPDEST PUSH2 0xCB5 DUP2 PUSH2 0xA2D JUMP JUMPDEST DUP2 EQ PUSH2 0xCC0 JUMPI PUSH1 0x0 DUP1 REVERT JUMPDEST POP JUMP JUMPDEST PUSH2 0xCCC DUP2 PUSH2 0xA7E JUMP JUMPDEST DUP2 EQ PUSH2 0xCD7 JUMPI PUSH1 0x0 DUP1 REVERT JUMPDEST POP JUMP INVALID LOG2 PUSH5 0x6970667358 0x22 SLT KECCAK256 0x5C 0x2A DELEGATECALL PUSH19 0x6BEFF85C2D680C1EEBA9594CEADDD3497A34DE 0xEA 0xBC 0x5F DUP11 0x2E PUSH18 0xC8B54264736F6C6343000807003300000000 "
				},
				"gasEstimates": {
					"creation": {
						"codeDepositCost": "668800",
						"executionCost": "29982",
						"totalCost": "698782"
					},
					"external": {
						"addTask(string)": "infinite",
						"completeTask(uint256)": "infinite",
						"getTasksCount()": "2481",
						"premiums(address)": "2867",
						"upgradePlan()": "24479"
					}
				},
				"methodIdentifiers": {
					"addTask(string)": "67238562",
					"completeTask(uint256)": "e1e29558",
					"getTasksCount()": "9f899273",
					"premiums(address)": "9bddb69a",
					"upgradePlan()": "04fafc6c"
				}
			},
			"storageLayout": {
				"storage": [
					{
						"astId": 23,
						"contract": "contracts/TaskManager.sol:TaskManager",
						"label": "admin",
						"offset": 0,
						"slot": "0",
						"type": "t_address"
					},
					{
						"astId": 25,
						"contract": "contracts/TaskManager.sol:TaskManager",
						"label": "count",
						"offset": 0,
						"slot": "1",
						"type": "t_uint256"
					},
					{
						"astId": 30,
						"contract": "contracts/TaskManager.sol:TaskManager",
						"label": "tasks",
						"offset": 0,
						"slot": "2",
						"type": "t_mapping(t_uint256,t_struct(Task)21_storage)"
					},
					{
						"astId": 34,
						"contract": "contracts/TaskManager.sol:TaskManager",
						"label": "premiums",
						"offset": 0,
						"slot": "3",
						"type": "t_mapping(t_address,t_bool)"
					}
				],
				"types": {
					"t_address": {
						"encoding": "inplace",
						"label": "address",
						"numberOfBytes": "20"
					},
					"t_bool": {
						"encoding": "inplace",
						"label": "bool",
						"numberOfBytes": "1"
					},
					"t_enum(Priority)9": {
						"encoding": "inplace",
						"label": "enum TaskManager.Priority",
						"numberOfBytes": "1"
					},
					"t_mapping(t_address,t_bool)": {
						"encoding": "mapping",
						"key": "t_address",
						"label": "mapping(address => bool)",
						"numberOfBytes": "32",
						"value": "t_bool"
					},
					"t_mapping(t_uint256,t_struct(Task)21_storage)": {
						"encoding": "mapping",
						"key": "t_uint256",
						"label": "mapping(uint256 => struct TaskManager.Task)",
						"numberOfBytes": "32",
						"value": "t_struct(Task)21_storage"
					},
					"t_string_storage": {
						"encoding": "bytes",
						"label": "string",
						"numberOfBytes": "32"
					},
					"t_struct(Task)21_storage": {
						"encoding": "inplace",
						"label": "struct TaskManager.Task",
						"members": [
							{
								"astId": 11,
								"contract": "contracts/TaskManager.sol:TaskManager",
								"label": "id",
								"offset": 0,
								"slot": "0",
								"type": "t_uint256"
							},
							{
								"astId": 14,
								"contract": "contracts/TaskManager.sol:TaskManager",
								"label": "priority",
								"offset": 0,
								"slot": "1",
								"type": "t_enum(Priority)9"
							},
							{
								"astId": 16,
								"contract": "contracts/TaskManager.sol:TaskManager",
								"label": "content",
								"offset": 0,
								"slot": "2",
								"type": "t_string_storage"
							},
							{
								"astId": 18,
								"contract": "contracts/TaskManager.sol:TaskManager",
								"label": "timestamp",
								"offset": 0,
								"slot": "3",
								"type": "t_uint256"
							},
							{
								"astId": 20,
								"contract": "contracts/TaskManager.sol:TaskManager",
								"label": "completed",
								"offset": 0,
								"slot": "4",
								"type": "t_bool"
							}
						],
						"numberOfBytes": "160"
					},
					"t_uint256": {
						"encoding": "inplace",
						"label": "uint256",
						"numberOfBytes": "32"
					}
				}
			},
			"userdoc": {
				"kind": "user",
				"methods": {},
				"version": 1
			}
		}
	}
}