{
	"contracts/TaskManager.sol": {
		"TaskManager": {
			"abi": [
				{
					"inputs": [],
					"stateMutability": "nonpayable",
					"type": "constructor"
				},
				{
					"inputs": [
						{
							"internalType": "string",
							"name": "content",
							"type": "string"
						}
					],
					"name": "addTask",
					"outputs": [],
					"stateMutability": "nonpayable",
					"type": "function"
				},
				{
					"inputs": [
						{
							"internalType": "uint256",
							"name": "_count",
							"type": "uint256"
						}
					],
					"name": "completeTask",
					"outputs": [],
					"stateMutability": "nonpayable",
					"type": "function"
				}
			],
			"devdoc": {
				"kind": "dev",
				"methods": {},
				"version": 1
			},
			"evm": {
				"assembly": "    /* \"contracts/TaskManager.sol\":76:1165  contract TaskManager {\r... */\n  mstore(0x40, 0x80)\n    /* \"contracts/TaskManager.sol\":603:674  constructor() {\r... */\n  callvalue\n  dup1\n  iszero\n  tag_1\n  jumpi\n  0x00\n  dup1\n  revert\ntag_1:\n  pop\n    /* \"contracts/TaskManager.sol\":636:646  msg.sender */\n  caller\n    /* \"contracts/TaskManager.sol\":628:633  admin */\n  0x00\n  dup1\n    /* \"contracts/TaskManager.sol\":628:646  admin = msg.sender */\n  0x0100\n  exp\n  dup2\n  sload\n  dup2\n  0xffffffffffffffffffffffffffffffffffffffff\n  mul\n  not\n  and\n  swap1\n  dup4\n  0xffffffffffffffffffffffffffffffffffffffff\n  and\n  mul\n  or\n  swap1\n  sstore\n  pop\n    /* \"contracts/TaskManager.sol\":665:666  0 */\n  0x00\n    /* \"contracts/TaskManager.sol\":657:662  count */\n  0x01\n    /* \"contracts/TaskManager.sol\":657:666  count = 0 */\n  dup2\n  swap1\n  sstore\n  pop\n    /* \"contracts/TaskManager.sol\":76:1165  contract TaskManager {\r... */\n  dataSize(sub_0)\n  dup1\n  dataOffset(sub_0)\n  0x00\n  codecopy\n  0x00\n  return\nstop\n\nsub_0: assembly {\n        /* \"contracts/TaskManager.sol\":76:1165  contract TaskManager {\r... */\n      mstore(0x40, 0x80)\n      callvalue\n      dup1\n      iszero\n      tag_1\n      jumpi\n      0x00\n      dup1\n      revert\n    tag_1:\n      pop\n      jumpi(tag_2, lt(calldatasize, 0x04))\n      shr(0xe0, calldataload(0x00))\n      dup1\n      0x67238562\n      eq\n      tag_3\n      jumpi\n      dup1\n      0xe1e29558\n      eq\n      tag_4\n      jumpi\n    tag_2:\n      0x00\n      dup1\n      revert\n        /* \"contracts/TaskManager.sol\":807:998  function addTask(string memory content) public {\r... */\n    tag_3:\n      tag_5\n      0x04\n      dup1\n      calldatasize\n      sub\n      dup2\n      add\n      swap1\n      tag_6\n      swap2\n      swap1\n      tag_7\n      jump\t// in\n    tag_6:\n      tag_8\n      jump\t// in\n    tag_5:\n      stop\n        /* \"contracts/TaskManager.sol\":1006:1162  function completeTask(uint _count) public {\r... */\n    tag_4:\n      tag_9\n      0x04\n      dup1\n      calldatasize\n      sub\n      dup2\n      add\n      swap1\n      tag_10\n      swap2\n      swap1\n      tag_11\n      jump\t// in\n    tag_10:\n      tag_12\n      jump\t// in\n    tag_9:\n      stop\n        /* \"contracts/TaskManager.sol\":807:998  function addTask(string memory content) public {\r... */\n    tag_8:\n        /* \"contracts/TaskManager.sol\":865:881  Task memory task */\n      0x00\n        /* \"contracts/TaskManager.sol\":884:942  Task(count, Priority.LOW, content, block.timestamp, false) */\n      mload(0x40)\n      dup1\n      0xa0\n      add\n      0x40\n      mstore\n      dup1\n        /* \"contracts/TaskManager.sol\":889:894  count */\n      sload(0x01)\n        /* \"contracts/TaskManager.sol\":884:942  Task(count, Priority.LOW, content, block.timestamp, false) */\n      dup2\n      mstore\n      0x20\n      add\n        /* \"contracts/TaskManager.sol\":896:908  Priority.LOW */\n      0x00\n        /* \"contracts/TaskManager.sol\":884:942  Task(count, Priority.LOW, content, block.timestamp, false) */\n      0x02\n      dup2\n      gt\n      iszero\n      tag_14\n      jumpi\n      tag_15\n      tag_16\n      jump\t// in\n    tag_15:\n    tag_14:\n      dup2\n      mstore\n      0x20\n      add\n        /* \"contracts/TaskManager.sol\":910:917  content */\n      dup4\n        /* \"contracts/TaskManager.sol\":884:942  Task(count, Priority.LOW, content, block.timestamp, false) */\n      dup2\n      mstore\n      0x20\n      add\n        /* \"contracts/TaskManager.sol\":919:934  block.timestamp */\n      timestamp\n        /* \"contracts/TaskManager.sol\":884:942  Task(count, Priority.LOW, content, block.timestamp, false) */\n      dup2\n      mstore\n      0x20\n      add\n        /* \"contracts/TaskManager.sol\":936:941  false */\n      0x00\n        /* \"contracts/TaskManager.sol\":884:942  Task(count, Priority.LOW, content, block.timestamp, false) */\n      iszero\n      iszero\n      dup2\n      mstore\n      pop\n        /* \"contracts/TaskManager.sol\":865:942  Task memory task = Task(count, Priority.LOW, content, block.timestamp, false) */\n      swap1\n      pop\n        /* \"contracts/TaskManager.sol\":968:972  task */\n      dup1\n        /* \"contracts/TaskManager.sol\":953:958  tasks */\n      0x02\n        /* \"contracts/TaskManager.sol\":953:965  tasks[count] */\n      0x00\n        /* \"contracts/TaskManager.sol\":959:964  count */\n      sload(0x01)\n        /* \"contracts/TaskManager.sol\":953:965  tasks[count] */\n      dup2\n      mstore\n      0x20\n      add\n      swap1\n      dup2\n      mstore\n      0x20\n      add\n      0x00\n      keccak256\n        /* \"contracts/TaskManager.sol\":953:972  tasks[count] = task */\n      0x00\n      dup3\n      add\n      mload\n      dup2\n      0x00\n      add\n      sstore\n      0x20\n      dup3\n      add\n      mload\n      dup2\n      0x01\n      add\n      exp(0x0100, 0x00)\n      dup2\n      sload\n      dup2\n      0xff\n      mul\n      not\n      and\n      swap1\n      dup4\n      0x02\n      dup2\n      gt\n      iszero\n      tag_17\n      jumpi\n      tag_18\n      tag_16\n      jump\t// in\n    tag_18:\n    tag_17:\n      mul\n      or\n      swap1\n      sstore\n      pop\n      0x40\n      dup3\n      add\n      mload\n      dup2\n      0x02\n      add\n      swap1\n      dup1\n      mload\n      swap1\n      0x20\n      add\n      swap1\n      tag_19\n      swap3\n      swap2\n      swap1\n      tag_20\n      jump\t// in\n    tag_19:\n      pop\n      0x60\n      dup3\n      add\n      mload\n      dup2\n      0x03\n      add\n      sstore\n      0x80\n      dup3\n      add\n      mload\n      dup2\n      0x04\n      add\n      exp(0x0100, 0x00)\n      dup2\n      sload\n      dup2\n      0xff\n      mul\n      not\n      and\n      swap1\n      dup4\n      iszero\n      iszero\n      mul\n      or\n      swap1\n      sstore\n      pop\n      swap1\n      pop\n      pop\n        /* \"contracts/TaskManager.sol\":983:988  count */\n      0x01\n      0x00\n        /* \"contracts/TaskManager.sol\":983:990  count++ */\n      dup2\n      sload\n      dup1\n      swap3\n      swap2\n      swap1\n      tag_21\n      swap1\n      tag_22\n      jump\t// in\n    tag_21:\n      swap2\n      swap1\n      pop\n      sstore\n      pop\n        /* \"contracts/TaskManager.sol\":854:998  {\r... */\n      pop\n        /* \"contracts/TaskManager.sol\":807:998  function addTask(string memory content) public {\r... */\n      pop\n      jump\t// out\n        /* \"contracts/TaskManager.sol\":1006:1162  function completeTask(uint _count) public {\r... */\n    tag_12:\n        /* \"contracts/TaskManager.sol\":1059:1075  Task memory task */\n      0x00\n        /* \"contracts/TaskManager.sol\":1078:1083  tasks */\n      0x02\n        /* \"contracts/TaskManager.sol\":1078:1091  tasks[_count] */\n      0x00\n        /* \"contracts/TaskManager.sol\":1084:1090  _count */\n      dup4\n        /* \"contracts/TaskManager.sol\":1078:1091  tasks[_count] */\n      dup2\n      mstore\n      0x20\n      add\n      swap1\n      dup2\n      mstore\n      0x20\n      add\n      0x00\n      keccak256\n        /* \"contracts/TaskManager.sol\":1059:1091  Task memory task = tasks[_count] */\n      mload(0x40)\n      dup1\n      0xa0\n      add\n      0x40\n      mstore\n      swap1\n      dup2\n      0x00\n      dup3\n      add\n      sload\n      dup2\n      mstore\n      0x20\n      add\n      0x01\n      dup3\n      add\n      0x00\n      swap1\n      sload\n      swap1\n      0x0100\n      exp\n      swap1\n      div\n      0xff\n      and\n      0x02\n      dup2\n      gt\n      iszero\n      tag_24\n      jumpi\n      tag_25\n      tag_16\n      jump\t// in\n    tag_25:\n    tag_24:\n      0x02\n      dup2\n      gt\n      iszero\n      tag_26\n      jumpi\n      tag_27\n      tag_16\n      jump\t// in\n    tag_27:\n    tag_26:\n      dup2\n      mstore\n      0x20\n      add\n      0x02\n      dup3\n      add\n      dup1\n      sload\n      tag_28\n      swap1\n      tag_29\n      jump\t// in\n    tag_28:\n      dup1\n      0x1f\n      add\n      0x20\n      dup1\n      swap2\n      div\n      mul\n      0x20\n      add\n      mload(0x40)\n      swap1\n      dup2\n      add\n      0x40\n      mstore\n      dup1\n      swap3\n      swap2\n      swap1\n      dup2\n      dup2\n      mstore\n      0x20\n      add\n      dup3\n      dup1\n      sload\n      tag_30\n      swap1\n      tag_29\n      jump\t// in\n    tag_30:\n      dup1\n      iszero\n      tag_31\n      jumpi\n      dup1\n      0x1f\n      lt\n      tag_32\n      jumpi\n      0x0100\n      dup1\n      dup4\n      sload\n      div\n      mul\n      dup4\n      mstore\n      swap2\n      0x20\n      add\n      swap2\n      jump(tag_31)\n    tag_32:\n      dup3\n      add\n      swap2\n      swap1\n      0x00\n      mstore\n      keccak256(0x00, 0x20)\n      swap1\n    tag_33:\n      dup2\n      sload\n      dup2\n      mstore\n      swap1\n      0x01\n      add\n      swap1\n      0x20\n      add\n      dup1\n      dup4\n      gt\n      tag_33\n      jumpi\n      dup3\n      swap1\n      sub\n      0x1f\n      and\n      dup3\n      add\n      swap2\n    tag_31:\n      pop\n      pop\n      pop\n      pop\n      pop\n      dup2\n      mstore\n      0x20\n      add\n      0x03\n      dup3\n      add\n      sload\n      dup2\n      mstore\n      0x20\n      add\n      0x04\n      dup3\n      add\n      0x00\n      swap1\n      sload\n      swap1\n      0x0100\n      exp\n      swap1\n      div\n      0xff\n      and\n      iszero\n      iszero\n      iszero\n      iszero\n      dup2\n      mstore\n      pop\n      pop\n      swap1\n      pop\n        /* \"contracts/TaskManager.sol\":1119:1123  true */\n      0x01\n        /* \"contracts/TaskManager.sol\":1102:1106  task */\n      dup2\n        /* \"contracts/TaskManager.sol\":1102:1116  task.completed */\n      0x80\n      add\n        /* \"contracts/TaskManager.sol\":1102:1123  task.completed = true */\n      swap1\n      iszero\n      iszero\n      swap1\n      dup2\n      iszero\n      iszero\n      dup2\n      mstore\n      pop\n      pop\n        /* \"contracts/TaskManager.sol\":1150:1154  task */\n      dup1\n        /* \"contracts/TaskManager.sol\":1134:1139  tasks */\n      0x02\n        /* \"contracts/TaskManager.sol\":1134:1147  tasks[_count] */\n      0x00\n        /* \"contracts/TaskManager.sol\":1140:1146  _count */\n      dup5\n        /* \"contracts/TaskManager.sol\":1134:1147  tasks[_count] */\n      dup2\n      mstore\n      0x20\n      add\n      swap1\n      dup2\n      mstore\n      0x20\n      add\n      0x00\n      keccak256\n        /* \"contracts/TaskManager.sol\":1134:1154  tasks[_count] = task */\n      0x00\n      dup3\n      add\n      mload\n      dup2\n      0x00\n      add\n      sstore\n      0x20\n      dup3\n      add\n      mload\n      dup2\n      0x01\n      add\n      exp(0x0100, 0x00)\n      dup2\n      sload\n      dup2\n      0xff\n      mul\n      not\n      and\n      swap1\n      dup4\n      0x02\n      dup2\n      gt\n      iszero\n      tag_34\n      jumpi\n      tag_35\n      tag_16\n      jump\t// in\n    tag_35:\n    tag_34:\n      mul\n      or\n      swap1\n      sstore\n      pop\n      0x40\n      dup3\n      add\n      mload\n      dup2\n      0x02\n      add\n      swap1\n      dup1\n      mload\n      swap1\n      0x20\n      add\n      swap1\n      tag_36\n      swap3\n      swap2\n      swap1\n      tag_20\n      jump\t// in\n    tag_36:\n      pop\n      0x60\n      dup3\n      add\n      mload\n      dup2\n      0x03\n      add\n      sstore\n      0x80\n      dup3\n      add\n      mload\n      dup2\n      0x04\n      add\n      exp(0x0100, 0x00)\n      dup2\n      sload\n      dup2\n      0xff\n      mul\n      not\n      and\n      swap1\n      dup4\n      iszero\n      iszero\n      mul\n      or\n      swap1\n      sstore\n      pop\n      swap1\n      pop\n      pop\n        /* \"contracts/TaskManager.sol\":1048:1162  {\r... */\n      pop\n        /* \"contracts/TaskManager.sol\":1006:1162  function completeTask(uint _count) public {\r... */\n      pop\n      jump\t// out\n    tag_20:\n      dup3\n      dup1\n      sload\n      tag_37\n      swap1\n      tag_29\n      jump\t// in\n    tag_37:\n      swap1\n      0x00\n      mstore\n      keccak256(0x00, 0x20)\n      swap1\n      0x1f\n      add\n      0x20\n      swap1\n      div\n      dup2\n      add\n      swap3\n      dup3\n      tag_39\n      jumpi\n      0x00\n      dup6\n      sstore\n      jump(tag_38)\n    tag_39:\n      dup3\n      0x1f\n      lt\n      tag_40\n      jumpi\n      dup1\n      mload\n      not(0xff)\n      and\n      dup4\n      dup1\n      add\n      or\n      dup6\n      sstore\n      jump(tag_38)\n    tag_40:\n      dup3\n      dup1\n      add\n      0x01\n      add\n      dup6\n      sstore\n      dup3\n      iszero\n      tag_38\n      jumpi\n      swap2\n      dup3\n      add\n    tag_41:\n      dup3\n      dup2\n      gt\n      iszero\n      tag_42\n      jumpi\n      dup3\n      mload\n      dup3\n      sstore\n      swap2\n      0x20\n      add\n      swap2\n      swap1\n      0x01\n      add\n      swap1\n      jump(tag_41)\n    tag_42:\n    tag_38:\n      pop\n      swap1\n      pop\n      tag_43\n      swap2\n      swap1\n      tag_44\n      jump\t// in\n    tag_43:\n      pop\n      swap1\n      jump\t// out\n    tag_44:\n    tag_45:\n      dup1\n      dup3\n      gt\n      iszero\n      tag_46\n      jumpi\n      0x00\n      dup2\n      0x00\n      swap1\n      sstore\n      pop\n      0x01\n      add\n      jump(tag_45)\n    tag_46:\n      pop\n      swap1\n      jump\t// out\n        /* \"#utility.yul\":7:419   */\n    tag_48:\n        /* \"#utility.yul\":85:90   */\n      0x00\n        /* \"#utility.yul\":110:176   */\n      tag_50\n        /* \"#utility.yul\":126:175   */\n      tag_51\n        /* \"#utility.yul\":168:174   */\n      dup5\n        /* \"#utility.yul\":126:175   */\n      tag_52\n      jump\t// in\n    tag_51:\n        /* \"#utility.yul\":110:176   */\n      tag_53\n      jump\t// in\n    tag_50:\n        /* \"#utility.yul\":101:176   */\n      swap1\n      pop\n        /* \"#utility.yul\":199:205   */\n      dup3\n        /* \"#utility.yul\":192:197   */\n      dup2\n        /* \"#utility.yul\":185:206   */\n      mstore\n        /* \"#utility.yul\":237:241   */\n      0x20\n        /* \"#utility.yul\":230:235   */\n      dup2\n        /* \"#utility.yul\":226:242   */\n      add\n        /* \"#utility.yul\":275:278   */\n      dup5\n        /* \"#utility.yul\":266:272   */\n      dup5\n        /* \"#utility.yul\":261:264   */\n      dup5\n        /* \"#utility.yul\":257:273   */\n      add\n        /* \"#utility.yul\":254:279   */\n      gt\n        /* \"#utility.yul\":251:363   */\n      iszero\n      tag_54\n      jumpi\n        /* \"#utility.yul\":282:361   */\n      tag_55\n      tag_56\n      jump\t// in\n    tag_55:\n        /* \"#utility.yul\":251:363   */\n    tag_54:\n        /* \"#utility.yul\":372:413   */\n      tag_57\n        /* \"#utility.yul\":406:412   */\n      dup5\n        /* \"#utility.yul\":401:404   */\n      dup3\n        /* \"#utility.yul\":396:399   */\n      dup6\n        /* \"#utility.yul\":372:413   */\n      tag_58\n      jump\t// in\n    tag_57:\n        /* \"#utility.yul\":91:419   */\n      pop\n        /* \"#utility.yul\":7:419   */\n      swap4\n      swap3\n      pop\n      pop\n      pop\n      jump\t// out\n        /* \"#utility.yul\":439:779   */\n    tag_59:\n        /* \"#utility.yul\":495:500   */\n      0x00\n        /* \"#utility.yul\":544:547   */\n      dup3\n        /* \"#utility.yul\":537:541   */\n      0x1f\n        /* \"#utility.yul\":529:535   */\n      dup4\n        /* \"#utility.yul\":525:542   */\n      add\n        /* \"#utility.yul\":521:548   */\n      slt\n        /* \"#utility.yul\":511:633   */\n      tag_61\n      jumpi\n        /* \"#utility.yul\":552:631   */\n      tag_62\n      tag_63\n      jump\t// in\n    tag_62:\n        /* \"#utility.yul\":511:633   */\n    tag_61:\n        /* \"#utility.yul\":669:675   */\n      dup2\n        /* \"#utility.yul\":656:676   */\n      calldataload\n        /* \"#utility.yul\":694:773   */\n      tag_64\n        /* \"#utility.yul\":769:772   */\n      dup5\n        /* \"#utility.yul\":761:767   */\n      dup3\n        /* \"#utility.yul\":754:758   */\n      0x20\n        /* \"#utility.yul\":746:752   */\n      dup7\n        /* \"#utility.yul\":742:759   */\n      add\n        /* \"#utility.yul\":694:773   */\n      tag_48\n      jump\t// in\n    tag_64:\n        /* \"#utility.yul\":685:773   */\n      swap2\n      pop\n        /* \"#utility.yul\":501:779   */\n      pop\n        /* \"#utility.yul\":439:779   */\n      swap3\n      swap2\n      pop\n      pop\n      jump\t// out\n        /* \"#utility.yul\":785:924   */\n    tag_65:\n        /* \"#utility.yul\":831:836   */\n      0x00\n        /* \"#utility.yul\":869:875   */\n      dup2\n        /* \"#utility.yul\":856:876   */\n      calldataload\n        /* \"#utility.yul\":847:876   */\n      swap1\n      pop\n        /* \"#utility.yul\":885:918   */\n      tag_67\n        /* \"#utility.yul\":912:917   */\n      dup2\n        /* \"#utility.yul\":885:918   */\n      tag_68\n      jump\t// in\n    tag_67:\n        /* \"#utility.yul\":785:924   */\n      swap3\n      swap2\n      pop\n      pop\n      jump\t// out\n        /* \"#utility.yul\":930:1439   */\n    tag_7:\n        /* \"#utility.yul\":999:1005   */\n      0x00\n        /* \"#utility.yul\":1048:1050   */\n      0x20\n        /* \"#utility.yul\":1036:1045   */\n      dup3\n        /* \"#utility.yul\":1027:1034   */\n      dup5\n        /* \"#utility.yul\":1023:1046   */\n      sub\n        /* \"#utility.yul\":1019:1051   */\n      slt\n        /* \"#utility.yul\":1016:1135   */\n      iszero\n      tag_70\n      jumpi\n        /* \"#utility.yul\":1054:1133   */\n      tag_71\n      tag_72\n      jump\t// in\n    tag_71:\n        /* \"#utility.yul\":1016:1135   */\n    tag_70:\n        /* \"#utility.yul\":1202:1203   */\n      0x00\n        /* \"#utility.yul\":1191:1200   */\n      dup3\n        /* \"#utility.yul\":1187:1204   */\n      add\n        /* \"#utility.yul\":1174:1205   */\n      calldataload\n        /* \"#utility.yul\":1232:1250   */\n      0xffffffffffffffff\n        /* \"#utility.yul\":1224:1230   */\n      dup2\n        /* \"#utility.yul\":1221:1251   */\n      gt\n        /* \"#utility.yul\":1218:1335   */\n      iszero\n      tag_73\n      jumpi\n        /* \"#utility.yul\":1254:1333   */\n      tag_74\n      tag_75\n      jump\t// in\n    tag_74:\n        /* \"#utility.yul\":1218:1335   */\n    tag_73:\n        /* \"#utility.yul\":1359:1422   */\n      tag_76\n        /* \"#utility.yul\":1414:1421   */\n      dup5\n        /* \"#utility.yul\":1405:1411   */\n      dup3\n        /* \"#utility.yul\":1394:1403   */\n      dup6\n        /* \"#utility.yul\":1390:1412   */\n      add\n        /* \"#utility.yul\":1359:1422   */\n      tag_59\n      jump\t// in\n    tag_76:\n        /* \"#utility.yul\":1349:1422   */\n      swap2\n      pop\n        /* \"#utility.yul\":1145:1432   */\n      pop\n        /* \"#utility.yul\":930:1439   */\n      swap3\n      swap2\n      pop\n      pop\n      jump\t// out\n        /* \"#utility.yul\":1445:1774   */\n    tag_11:\n        /* \"#utility.yul\":1504:1510   */\n      0x00\n        /* \"#utility.yul\":1553:1555   */\n      0x20\n        /* \"#utility.yul\":1541:1550   */\n      dup3\n        /* \"#utility.yul\":1532:1539   */\n      dup5\n        /* \"#utility.yul\":1528:1551   */\n      sub\n        /* \"#utility.yul\":1524:1556   */\n      slt\n        /* \"#utility.yul\":1521:1640   */\n      iszero\n      tag_78\n      jumpi\n        /* \"#utility.yul\":1559:1638   */\n      tag_79\n      tag_72\n      jump\t// in\n    tag_79:\n        /* \"#utility.yul\":1521:1640   */\n    tag_78:\n        /* \"#utility.yul\":1679:1680   */\n      0x00\n        /* \"#utility.yul\":1704:1757   */\n      tag_80\n        /* \"#utility.yul\":1749:1756   */\n      dup5\n        /* \"#utility.yul\":1740:1746   */\n      dup3\n        /* \"#utility.yul\":1729:1738   */\n      dup6\n        /* \"#utility.yul\":1725:1747   */\n      add\n        /* \"#utility.yul\":1704:1757   */\n      tag_65\n      jump\t// in\n    tag_80:\n        /* \"#utility.yul\":1694:1757   */\n      swap2\n      pop\n        /* \"#utility.yul\":1650:1767   */\n      pop\n        /* \"#utility.yul\":1445:1774   */\n      swap3\n      swap2\n      pop\n      pop\n      jump\t// out\n        /* \"#utility.yul\":1780:1909   */\n    tag_53:\n        /* \"#utility.yul\":1814:1820   */\n      0x00\n        /* \"#utility.yul\":1841:1861   */\n      tag_82\n      tag_83\n      jump\t// in\n    tag_82:\n        /* \"#utility.yul\":1831:1861   */\n      swap1\n      pop\n        /* \"#utility.yul\":1870:1903   */\n      tag_84\n        /* \"#utility.yul\":1898:1902   */\n      dup3\n        /* \"#utility.yul\":1890:1896   */\n      dup3\n        /* \"#utility.yul\":1870:1903   */\n      tag_85\n      jump\t// in\n    tag_84:\n        /* \"#utility.yul\":1780:1909   */\n      swap2\n      swap1\n      pop\n      jump\t// out\n        /* \"#utility.yul\":1915:1990   */\n    tag_83:\n        /* \"#utility.yul\":1948:1954   */\n      0x00\n        /* \"#utility.yul\":1981:1983   */\n      0x40\n        /* \"#utility.yul\":1975:1984   */\n      mload\n        /* \"#utility.yul\":1965:1984   */\n      swap1\n      pop\n        /* \"#utility.yul\":1915:1990   */\n      swap1\n      jump\t// out\n        /* \"#utility.yul\":1996:2304   */\n    tag_52:\n        /* \"#utility.yul\":2058:2062   */\n      0x00\n        /* \"#utility.yul\":2148:2166   */\n      0xffffffffffffffff\n        /* \"#utility.yul\":2140:2146   */\n      dup3\n        /* \"#utility.yul\":2137:2167   */\n      gt\n        /* \"#utility.yul\":2134:2190   */\n      iszero\n      tag_88\n      jumpi\n        /* \"#utility.yul\":2170:2188   */\n      tag_89\n      tag_90\n      jump\t// in\n    tag_89:\n        /* \"#utility.yul\":2134:2190   */\n    tag_88:\n        /* \"#utility.yul\":2208:2237   */\n      tag_91\n        /* \"#utility.yul\":2230:2236   */\n      dup3\n        /* \"#utility.yul\":2208:2237   */\n      tag_92\n      jump\t// in\n    tag_91:\n        /* \"#utility.yul\":2200:2237   */\n      swap1\n      pop\n        /* \"#utility.yul\":2292:2296   */\n      0x20\n        /* \"#utility.yul\":2286:2290   */\n      dup2\n        /* \"#utility.yul\":2282:2297   */\n      add\n        /* \"#utility.yul\":2274:2297   */\n      swap1\n      pop\n        /* \"#utility.yul\":1996:2304   */\n      swap2\n      swap1\n      pop\n      jump\t// out\n        /* \"#utility.yul\":2310:2387   */\n    tag_93:\n        /* \"#utility.yul\":2347:2354   */\n      0x00\n        /* \"#utility.yul\":2376:2381   */\n      dup2\n        /* \"#utility.yul\":2365:2381   */\n      swap1\n      pop\n        /* \"#utility.yul\":2310:2387   */\n      swap2\n      swap1\n      pop\n      jump\t// out\n        /* \"#utility.yul\":2393:2547   */\n    tag_58:\n        /* \"#utility.yul\":2477:2483   */\n      dup3\n        /* \"#utility.yul\":2472:2475   */\n      dup2\n        /* \"#utility.yul\":2467:2470   */\n      dup4\n        /* \"#utility.yul\":2454:2484   */\n      calldatacopy\n        /* \"#utility.yul\":2539:2540   */\n      0x00\n        /* \"#utility.yul\":2530:2536   */\n      dup4\n        /* \"#utility.yul\":2525:2528   */\n      dup4\n        /* \"#utility.yul\":2521:2537   */\n      add\n        /* \"#utility.yul\":2514:2541   */\n      mstore\n        /* \"#utility.yul\":2393:2547   */\n      pop\n      pop\n      pop\n      jump\t// out\n        /* \"#utility.yul\":2553:2873   */\n    tag_29:\n        /* \"#utility.yul\":2597:2603   */\n      0x00\n        /* \"#utility.yul\":2634:2635   */\n      0x02\n        /* \"#utility.yul\":2628:2632   */\n      dup3\n        /* \"#utility.yul\":2624:2636   */\n      div\n        /* \"#utility.yul\":2614:2636   */\n      swap1\n      pop\n        /* \"#utility.yul\":2681:2682   */\n      0x01\n        /* \"#utility.yul\":2675:2679   */\n      dup3\n        /* \"#utility.yul\":2671:2683   */\n      and\n        /* \"#utility.yul\":2702:2720   */\n      dup1\n        /* \"#utility.yul\":2692:2773   */\n      tag_97\n      jumpi\n        /* \"#utility.yul\":2758:2762   */\n      0x7f\n        /* \"#utility.yul\":2750:2756   */\n      dup3\n        /* \"#utility.yul\":2746:2763   */\n      and\n        /* \"#utility.yul\":2736:2763   */\n      swap2\n      pop\n        /* \"#utility.yul\":2692:2773   */\n    tag_97:\n        /* \"#utility.yul\":2820:2822   */\n      0x20\n        /* \"#utility.yul\":2812:2818   */\n      dup3\n        /* \"#utility.yul\":2809:2823   */\n      lt\n        /* \"#utility.yul\":2789:2807   */\n      dup2\n        /* \"#utility.yul\":2786:2824   */\n      eq\n        /* \"#utility.yul\":2783:2867   */\n      iszero\n      tag_98\n      jumpi\n        /* \"#utility.yul\":2839:2857   */\n      tag_99\n      tag_100\n      jump\t// in\n    tag_99:\n        /* \"#utility.yul\":2783:2867   */\n    tag_98:\n        /* \"#utility.yul\":2604:2873   */\n      pop\n        /* \"#utility.yul\":2553:2873   */\n      swap2\n      swap1\n      pop\n      jump\t// out\n        /* \"#utility.yul\":2879:3160   */\n    tag_85:\n        /* \"#utility.yul\":2962:2989   */\n      tag_102\n        /* \"#utility.yul\":2984:2988   */\n      dup3\n        /* \"#utility.yul\":2962:2989   */\n      tag_92\n      jump\t// in\n    tag_102:\n        /* \"#utility.yul\":2954:2960   */\n      dup2\n        /* \"#utility.yul\":2950:2990   */\n      add\n        /* \"#utility.yul\":3092:3098   */\n      dup2\n        /* \"#utility.yul\":3080:3090   */\n      dup2\n        /* \"#utility.yul\":3077:3099   */\n      lt\n        /* \"#utility.yul\":3056:3074   */\n      0xffffffffffffffff\n        /* \"#utility.yul\":3044:3054   */\n      dup3\n        /* \"#utility.yul\":3041:3075   */\n      gt\n        /* \"#utility.yul\":3038:3100   */\n      or\n        /* \"#utility.yul\":3035:3123   */\n      iszero\n      tag_103\n      jumpi\n        /* \"#utility.yul\":3103:3121   */\n      tag_104\n      tag_90\n      jump\t// in\n    tag_104:\n        /* \"#utility.yul\":3035:3123   */\n    tag_103:\n        /* \"#utility.yul\":3143:3153   */\n      dup1\n        /* \"#utility.yul\":3139:3141   */\n      0x40\n        /* \"#utility.yul\":3132:3154   */\n      mstore\n        /* \"#utility.yul\":2922:3160   */\n      pop\n        /* \"#utility.yul\":2879:3160   */\n      pop\n      pop\n      jump\t// out\n        /* \"#utility.yul\":3166:3399   */\n    tag_22:\n        /* \"#utility.yul\":3205:3208   */\n      0x00\n        /* \"#utility.yul\":3228:3252   */\n      tag_106\n        /* \"#utility.yul\":3246:3251   */\n      dup3\n        /* \"#utility.yul\":3228:3252   */\n      tag_93\n      jump\t// in\n    tag_106:\n        /* \"#utility.yul\":3219:3252   */\n      swap2\n      pop\n        /* \"#utility.yul\":3274:3340   */\n      0xffffffffffffffffffffffffffffffffffffffffffffffffffffffffffffffff\n        /* \"#utility.yul\":3267:3272   */\n      dup3\n        /* \"#utility.yul\":3264:3341   */\n      eq\n        /* \"#utility.yul\":3261:3364   */\n      iszero\n      tag_107\n      jumpi\n        /* \"#utility.yul\":3344:3362   */\n      tag_108\n      tag_109\n      jump\t// in\n    tag_108:\n        /* \"#utility.yul\":3261:3364   */\n    tag_107:\n        /* \"#utility.yul\":3391:3392   */\n      0x01\n        /* \"#utility.yul\":3384:3389   */\n      dup3\n        /* \"#utility.yul\":3380:3393   */\n      add\n        /* \"#utility.yul\":3373:3393   */\n      swap1\n      pop\n        /* \"#utility.yul\":3166:3399   */\n      swap2\n      swap1\n      pop\n      jump\t// out\n        /* \"#utility.yul\":3405:3585   */\n    tag_109:\n        /* \"#utility.yul\":3453:3530   */\n      0x4e487b7100000000000000000000000000000000000000000000000000000000\n        /* \"#utility.yul\":3450:3451   */\n      0x00\n        /* \"#utility.yul\":3443:3531   */\n      mstore\n        /* \"#utility.yul\":3550:3554   */\n      0x11\n        /* \"#utility.yul\":3547:3548   */\n      0x04\n        /* \"#utility.yul\":3540:3555   */\n      mstore\n        /* \"#utility.yul\":3574:3578   */\n      0x24\n        /* \"#utility.yul\":3571:3572   */\n      0x00\n        /* \"#utility.yul\":3564:3579   */\n      revert\n        /* \"#utility.yul\":3591:3771   */\n    tag_16:\n        /* \"#utility.yul\":3639:3716   */\n      0x4e487b7100000000000000000000000000000000000000000000000000000000\n        /* \"#utility.yul\":3636:3637   */\n      0x00\n        /* \"#utility.yul\":3629:3717   */\n      mstore\n        /* \"#utility.yul\":3736:3740   */\n      0x21\n        /* \"#utility.yul\":3733:3734   */\n      0x04\n        /* \"#utility.yul\":3726:3741   */\n      mstore\n        /* \"#utility.yul\":3760:3764   */\n      0x24\n        /* \"#utility.yul\":3757:3758   */\n      0x00\n        /* \"#utility.yul\":3750:3765   */\n      revert\n        /* \"#utility.yul\":3777:3957   */\n    tag_100:\n        /* \"#utility.yul\":3825:3902   */\n      0x4e487b7100000000000000000000000000000000000000000000000000000000\n        /* \"#utility.yul\":3822:3823   */\n      0x00\n        /* \"#utility.yul\":3815:3903   */\n      mstore\n        /* \"#utility.yul\":3922:3926   */\n      0x22\n        /* \"#utility.yul\":3919:3920   */\n      0x04\n        /* \"#utility.yul\":3912:3927   */\n      mstore\n        /* \"#utility.yul\":3946:3950   */\n      0x24\n        /* \"#utility.yul\":3943:3944   */\n      0x00\n        /* \"#utility.yul\":3936:3951   */\n      revert\n        /* \"#utility.yul\":3963:4143   */\n    tag_90:\n        /* \"#utility.yul\":4011:4088   */\n      0x4e487b7100000000000000000000000000000000000000000000000000000000\n        /* \"#utility.yul\":4008:4009   */\n      0x00\n        /* \"#utility.yul\":4001:4089   */\n      mstore\n        /* \"#utility.yul\":4108:4112   */\n      0x41\n        /* \"#utility.yul\":4105:4106   */\n      0x04\n        /* \"#utility.yul\":4098:4113   */\n      mstore\n        /* \"#utility.yul\":4132:4136   */\n      0x24\n        /* \"#utility.yul\":4129:4130   */\n      0x00\n        /* \"#utility.yul\":4122:4137   */\n      revert\n        /* \"#utility.yul\":4149:4266   */\n    tag_63:\n        /* \"#utility.yul\":4258:4259   */\n      0x00\n        /* \"#utility.yul\":4255:4256   */\n      dup1\n        /* \"#utility.yul\":4248:4260   */\n      revert\n        /* \"#utility.yul\":4272:4389   */\n    tag_56:\n        /* \"#utility.yul\":4381:4382   */\n      0x00\n        /* \"#utility.yul\":4378:4379   */\n      dup1\n        /* \"#utility.yul\":4371:4383   */\n      revert\n        /* \"#utility.yul\":4395:4512   */\n    tag_75:\n        /* \"#utility.yul\":4504:4505   */\n      0x00\n        /* \"#utility.yul\":4501:4502   */\n      dup1\n        /* \"#utility.yul\":4494:4506   */\n      revert\n        /* \"#utility.yul\":4518:4635   */\n    tag_72:\n        /* \"#utility.yul\":4627:4628   */\n      0x00\n        /* \"#utility.yul\":4624:4625   */\n      dup1\n        /* \"#utility.yul\":4617:4629   */\n      revert\n        /* \"#utility.yul\":4641:4743   */\n    tag_92:\n        /* \"#utility.yul\":4682:4688   */\n      0x00\n        /* \"#utility.yul\":4733:4735   */\n      0x1f\n        /* \"#utility.yul\":4729:4736   */\n      not\n        /* \"#utility.yul\":4724:4726   */\n      0x1f\n        /* \"#utility.yul\":4717:4722   */\n      dup4\n        /* \"#utility.yul\":4713:4727   */\n      add\n        /* \"#utility.yul\":4709:4737   */\n      and\n        /* \"#utility.yul\":4699:4737   */\n      swap1\n      pop\n        /* \"#utility.yul\":4641:4743   */\n      swap2\n      swap1\n      pop\n      jump\t// out\n        /* \"#utility.yul\":4749:4871   */\n    tag_68:\n        /* \"#utility.yul\":4822:4846   */\n      tag_120\n        /* \"#utility.yul\":4840:4845   */\n      dup2\n        /* \"#utility.yul\":4822:4846   */\n      tag_93\n      jump\t// in\n    tag_120:\n        /* \"#utility.yul\":4815:4820   */\n      dup2\n        /* \"#utility.yul\":4812:4847   */\n      eq\n        /* \"#utility.yul\":4802:4865   */\n      tag_121\n      jumpi\n        /* \"#utility.yul\":4861:4862   */\n      0x00\n        /* \"#utility.yul\":4858:4859   */\n      dup1\n        /* \"#utility.yul\":4851:4863   */\n      revert\n        /* \"#utility.yul\":4802:4865   */\n    tag_121:\n        /* \"#utility.yul\":4749:4871   */\n      pop\n      jump\t// out\n\n    auxdata: 0xa264697066735822122060bc9ec919ef7642bf8a1681bab94588e7e854db86c964c1d20570b6fe9abc1c64736f6c63430008070033\n}\n",
				"bytecode": {
					"linkReferences": {},
					"object": "608060405234801561001057600080fd5b50336000806101000a81548173ffffffffffffffffffffffffffffffffffffffff021916908373ffffffffffffffffffffffffffffffffffffffff160217905550600060018190555061071e806100686000396000f3fe608060405234801561001057600080fd5b50600436106100365760003560e01c8063672385621461003b578063e1e2955814610057575b600080fd5b6100556004803603810190610050919061045f565b610073565b005b610071600480360381019061006c91906104a8565b61016c565b005b60006040518060a0016040528060015481526020016000600281111561009c5761009b61061f565b5b8152602001838152602001428152602001600015158152509050806002600060015481526020019081526020016000206000820151816000015560208201518160010160006101000a81548160ff021916908360028111156101015761010061061f565b5b02179055506040820151816002019080519060200190610122929190610337565b506060820151816003015560808201518160040160006101000a81548160ff02191690831515021790555090505060016000815480929190610163906105a7565b91905055505050565b6000600260008381526020019081526020016000206040518060a0016040529081600082015481526020016001820160009054906101000a900460ff1660028111156101bb576101ba61061f565b5b60028111156101cd576101cc61061f565b5b81526020016002820180546101e190610544565b80601f016020809104026020016040519081016040528092919081815260200182805461020d90610544565b801561025a5780601f1061022f5761010080835404028352916020019161025a565b820191906000526020600020905b81548152906001019060200180831161023d57829003601f168201915b50505050508152602001600382015481526020016004820160009054906101000a900460ff1615151515815250509050600181608001901515908115158152505080600260008481526020019081526020016000206000820151816000015560208201518160010160006101000a81548160ff021916908360028111156102e4576102e361061f565b5b02179055506040820151816002019080519060200190610305929190610337565b506060820151816003015560808201518160040160006101000a81548160ff0219169083151502179055509050505050565b82805461034390610544565b90600052602060002090601f01602090048101928261036557600085556103ac565b82601f1061037e57805160ff19168380011785556103ac565b828001600101855582156103ac579182015b828111156103ab578251825591602001919060010190610390565b5b5090506103b991906103bd565b5090565b5b808211156103d65760008160009055506001016103be565b5090565b60006103ed6103e8846104fa565b6104d5565b905082815260208101848484011115610409576104086106b1565b5b610414848285610535565b509392505050565b600082601f830112610431576104306106ac565b5b81356104418482602086016103da565b91505092915050565b600081359050610459816106d1565b92915050565b600060208284031215610475576104746106bb565b5b600082013567ffffffffffffffff811115610493576104926106b6565b5b61049f8482850161041c565b91505092915050565b6000602082840312156104be576104bd6106bb565b5b60006104cc8482850161044a565b91505092915050565b60006104df6104f0565b90506104eb8282610576565b919050565b6000604051905090565b600067ffffffffffffffff8211156105155761051461067d565b5b61051e826106c0565b9050602081019050919050565b6000819050919050565b82818337600083830152505050565b6000600282049050600182168061055c57607f821691505b602082108114156105705761056f61064e565b5b50919050565b61057f826106c0565b810181811067ffffffffffffffff8211171561059e5761059d61067d565b5b80604052505050565b60006105b28261052b565b91507fffffffffffffffffffffffffffffffffffffffffffffffffffffffffffffffff8214156105e5576105e46105f0565b5b600182019050919050565b7f4e487b7100000000000000000000000000000000000000000000000000000000600052601160045260246000fd5b7f4e487b7100000000000000000000000000000000000000000000000000000000600052602160045260246000fd5b7f4e487b7100000000000000000000000000000000000000000000000000000000600052602260045260246000fd5b7f4e487b7100000000000000000000000000000000000000000000000000000000600052604160045260246000fd5b600080fd5b600080fd5b600080fd5b600080fd5b6000601f19601f8301169050919050565b6106da8161052b565b81146106e557600080fd5b5056fea264697066735822122060bc9ec919ef7642bf8a1681bab94588e7e854db86c964c1d20570b6fe9abc1c64736f6c63430008070033",
					"opcodes": "PUSH1 0x80 PUSH1 0x40 MSTORE CALLVALUE DUP1 ISZERO PUSH2 0x10 JUMPI PUSH1 0x0 DUP1 REVERT JUMPDEST POP CALLER PUSH1 0x0 DUP1 PUSH2 0x100 EXP DUP2 SLOAD DUP2 PUSH20 0xFFFFFFFFFFFFFFFFFFFFFFFFFFFFFFFFFFFFFFFF MUL NOT AND SWAP1 DUP4 PUSH20 0xFFFFFFFFFFFFFFFFFFFFFFFFFFFFFFFFFFFFFFFF AND MUL OR SWAP1 SSTORE POP PUSH1 0x0 PUSH1 0x1 DUP2 SWAP1 SSTORE POP PUSH2 0x71E DUP1 PUSH2 0x68 PUSH1 0x0 CODECOPY PUSH1 0x0 RETURN INVALID PUSH1 0x80 PUSH1 0x40 MSTORE CALLVALUE DUP1 ISZERO PUSH2 0x10 JUMPI PUSH1 0x0 DUP1 REVERT JUMPDEST POP PUSH1 0x4 CALLDATASIZE LT PUSH2 0x36 JUMPI PUSH1 0x0 CALLDATALOAD PUSH1 0xE0 SHR DUP1 PUSH4 0x67238562 EQ PUSH2 0x3B JUMPI DUP1 PUSH4 0xE1E29558 EQ PUSH2 0x57 JUMPI JUMPDEST PUSH1 0x0 DUP1 REVERT JUMPDEST PUSH2 0x55 PUSH1 0x4 DUP1 CALLDATASIZE SUB DUP2 ADD SWAP1 PUSH2 0x50 SWAP2 SWAP1 PUSH2 0x45F JUMP JUMPDEST PUSH2 0x73 JUMP JUMPDEST STOP JUMPDEST PUSH2 0x71 PUSH1 0x4 DUP1 CALLDATASIZE SUB DUP2 ADD SWAP1 PUSH2 0x6C SWAP2 SWAP1 PUSH2 0x4A8 JUMP JUMPDEST PUSH2 0x16C JUMP JUMPDEST STOP JUMPDEST PUSH1 0x0 PUSH1 0x40 MLOAD DUP1 PUSH1 0xA0 ADD PUSH1 0x40 MSTORE DUP1 PUSH1 0x1 SLOAD DUP2 MSTORE PUSH1 0x20 ADD PUSH1 0x0 PUSH1 0x2 DUP2 GT ISZERO PUSH2 0x9C JUMPI PUSH2 0x9B PUSH2 0x61F JUMP JUMPDEST JUMPDEST DUP2 MSTORE PUSH1 0x20 ADD DUP4 DUP2 MSTORE PUSH1 0x20 ADD TIMESTAMP DUP2 MSTORE PUSH1 0x20 ADD PUSH1 0x0 ISZERO ISZERO DUP2 MSTORE POP SWAP1 POP DUP1 PUSH1 0x2 PUSH1 0x0 PUSH1 0x1 SLOAD DUP2 MSTORE PUSH1 0x20 ADD SWAP1 DUP2 MSTORE PUSH1 0x20 ADD PUSH1 0x0 KECCAK256 PUSH1 0x0 DUP3 ADD MLOAD DUP2 PUSH1 0x0 ADD SSTORE PUSH1 0x20 DUP3 ADD MLOAD DUP2 PUSH1 0x1 ADD PUSH1 0x0 PUSH2 0x100 EXP DUP2 SLOAD DUP2 PUSH1 0xFF MUL NOT AND SWAP1 DUP4 PUSH1 0x2 DUP2 GT ISZERO PUSH2 0x101 JUMPI PUSH2 0x100 PUSH2 0x61F JUMP JUMPDEST JUMPDEST MUL OR SWAP1 SSTORE POP PUSH1 0x40 DUP3 ADD MLOAD DUP2 PUSH1 0x2 ADD SWAP1 DUP1 MLOAD SWAP1 PUSH1 0x20 ADD SWAP1 PUSH2 0x122 SWAP3 SWAP2 SWAP1 PUSH2 0x337 JUMP JUMPDEST POP PUSH1 0x60 DUP3 ADD MLOAD DUP2 PUSH1 0x3 ADD SSTORE PUSH1 0x80 DUP3 ADD MLOAD DUP2 PUSH1 0x4 ADD PUSH1 0x0 PUSH2 0x100 EXP DUP2 SLOAD DUP2 PUSH1 0xFF MUL NOT AND SWAP1 DUP4 ISZERO ISZERO MUL OR SWAP1 SSTORE POP SWAP1 POP POP PUSH1 0x1 PUSH1 0x0 DUP2 SLOAD DUP1 SWAP3 SWAP2 SWAP1 PUSH2 0x163 SWAP1 PUSH2 0x5A7 JUMP JUMPDEST SWAP2 SWAP1 POP SSTORE POP POP POP JUMP JUMPDEST PUSH1 0x0 PUSH1 0x2 PUSH1 0x0 DUP4 DUP2 MSTORE PUSH1 0x20 ADD SWAP1 DUP2 MSTORE PUSH1 0x20 ADD PUSH1 0x0 KECCAK256 PUSH1 0x40 MLOAD DUP1 PUSH1 0xA0 ADD PUSH1 0x40 MSTORE SWAP1 DUP2 PUSH1 0x0 DUP3 ADD SLOAD DUP2 MSTORE PUSH1 0x20 ADD PUSH1 0x1 DUP3 ADD PUSH1 0x0 SWAP1 SLOAD SWAP1 PUSH2 0x100 EXP SWAP1 DIV PUSH1 0xFF AND PUSH1 0x2 DUP2 GT ISZERO PUSH2 0x1BB JUMPI PUSH2 0x1BA PUSH2 0x61F JUMP JUMPDEST JUMPDEST PUSH1 0x2 DUP2 GT ISZERO PUSH2 0x1CD JUMPI PUSH2 0x1CC PUSH2 0x61F JUMP JUMPDEST JUMPDEST DUP2 MSTORE PUSH1 0x20 ADD PUSH1 0x2 DUP3 ADD DUP1 SLOAD PUSH2 0x1E1 SWAP1 PUSH2 0x544 JUMP JUMPDEST DUP1 PUSH1 0x1F ADD PUSH1 0x20 DUP1 SWAP2 DIV MUL PUSH1 0x20 ADD PUSH1 0x40 MLOAD SWAP1 DUP2 ADD PUSH1 0x40 MSTORE DUP1 SWAP3 SWAP2 SWAP1 DUP2 DUP2 MSTORE PUSH1 0x20 ADD DUP3 DUP1 SLOAD PUSH2 0x20D SWAP1 PUSH2 0x544 JUMP JUMPDEST DUP1 ISZERO PUSH2 0x25A JUMPI DUP1 PUSH1 0x1F LT PUSH2 0x22F JUMPI PUSH2 0x100 DUP1 DUP4 SLOAD DIV MUL DUP4 MSTORE SWAP2 PUSH1 0x20 ADD SWAP2 PUSH2 0x25A JUMP JUMPDEST DUP3 ADD SWAP2 SWAP1 PUSH1 0x0 MSTORE PUSH1 0x20 PUSH1 0x0 KECCAK256 SWAP1 JUMPDEST DUP2 SLOAD DUP2 MSTORE SWAP1 PUSH1 0x1 ADD SWAP1 PUSH1 0x20 ADD DUP1 DUP4 GT PUSH2 0x23D JUMPI DUP3 SWAP1 SUB PUSH1 0x1F AND DUP3 ADD SWAP2 JUMPDEST POP POP POP POP POP DUP2 MSTORE PUSH1 0x20 ADD PUSH1 0x3 DUP3 ADD SLOAD DUP2 MSTORE PUSH1 0x20 ADD PUSH1 0x4 DUP3 ADD PUSH1 0x0 SWAP1 SLOAD SWAP1 PUSH2 0x100 EXP SWAP1 DIV PUSH1 0xFF AND ISZERO ISZERO ISZERO ISZERO DUP2 MSTORE POP POP SWAP1 POP PUSH1 0x1 DUP2 PUSH1 0x80 ADD SWAP1 ISZERO ISZERO SWAP1 DUP2 ISZERO ISZERO DUP2 MSTORE POP POP DUP1 PUSH1 0x2 PUSH1 0x0 DUP5 DUP2 MSTORE PUSH1 0x20 ADD SWAP1 DUP2 MSTORE PUSH1 0x20 ADD PUSH1 0x0 KECCAK256 PUSH1 0x0 DUP3 ADD MLOAD DUP2 PUSH1 0x0 ADD SSTORE PUSH1 0x20 DUP3 ADD MLOAD DUP2 PUSH1 0x1 ADD PUSH1 0x0 PUSH2 0x100 EXP DUP2 SLOAD DUP2 PUSH1 0xFF MUL NOT AND SWAP1 DUP4 PUSH1 0x2 DUP2 GT ISZERO PUSH2 0x2E4 JUMPI PUSH2 0x2E3 PUSH2 0x61F JUMP JUMPDEST JUMPDEST MUL OR SWAP1 SSTORE POP PUSH1 0x40 DUP3 ADD MLOAD DUP2 PUSH1 0x2 ADD SWAP1 DUP1 MLOAD SWAP1 PUSH1 0x20 ADD SWAP1 PUSH2 0x305 SWAP3 SWAP2 SWAP1 PUSH2 0x337 JUMP JUMPDEST POP PUSH1 0x60 DUP3 ADD MLOAD DUP2 PUSH1 0x3 ADD SSTORE PUSH1 0x80 DUP3 ADD MLOAD DUP2 PUSH1 0x4 ADD PUSH1 0x0 PUSH2 0x100 EXP DUP2 SLOAD DUP2 PUSH1 0xFF MUL NOT AND SWAP1 DUP4 ISZERO ISZERO MUL OR SWAP1 SSTORE POP SWAP1 POP POP POP POP JUMP JUMPDEST DUP3 DUP1 SLOAD PUSH2 0x343 SWAP1 PUSH2 0x544 JUMP JUMPDEST SWAP1 PUSH1 0x0 MSTORE PUSH1 0x20 PUSH1 0x0 KECCAK256 SWAP1 PUSH1 0x1F ADD PUSH1 0x20 SWAP1 DIV DUP2 ADD SWAP3 DUP3 PUSH2 0x365 JUMPI PUSH1 0x0 DUP6 SSTORE PUSH2 0x3AC JUMP JUMPDEST DUP3 PUSH1 0x1F LT PUSH2 0x37E JUMPI DUP1 MLOAD PUSH1 0xFF NOT AND DUP4 DUP1 ADD OR DUP6 SSTORE PUSH2 0x3AC JUMP JUMPDEST DUP3 DUP1 ADD PUSH1 0x1 ADD DUP6 SSTORE DUP3 ISZERO PUSH2 0x3AC JUMPI SWAP2 DUP3 ADD JUMPDEST DUP3 DUP2 GT ISZERO PUSH2 0x3AB JUMPI DUP3 MLOAD DUP3 SSTORE SWAP2 PUSH1 0x20 ADD SWAP2 SWAP1 PUSH1 0x1 ADD SWAP1 PUSH2 0x390 JUMP JUMPDEST JUMPDEST POP SWAP1 POP PUSH2 0x3B9 SWAP2 SWAP1 PUSH2 0x3BD JUMP JUMPDEST POP SWAP1 JUMP JUMPDEST JUMPDEST DUP1 DUP3 GT ISZERO PUSH2 0x3D6 JUMPI PUSH1 0x0 DUP2 PUSH1 0x0 SWAP1 SSTORE POP PUSH1 0x1 ADD PUSH2 0x3BE JUMP JUMPDEST POP SWAP1 JUMP JUMPDEST PUSH1 0x0 PUSH2 0x3ED PUSH2 0x3E8 DUP5 PUSH2 0x4FA JUMP JUMPDEST PUSH2 0x4D5 JUMP JUMPDEST SWAP1 POP DUP3 DUP2 MSTORE PUSH1 0x20 DUP2 ADD DUP5 DUP5 DUP5 ADD GT ISZERO PUSH2 0x409 JUMPI PUSH2 0x408 PUSH2 0x6B1 JUMP JUMPDEST JUMPDEST PUSH2 0x414 DUP5 DUP3 DUP6 PUSH2 0x535 JUMP JUMPDEST POP SWAP4 SWAP3 POP POP POP JUMP JUMPDEST PUSH1 0x0 DUP3 PUSH1 0x1F DUP4 ADD SLT PUSH2 0x431 JUMPI PUSH2 0x430 PUSH2 0x6AC JUMP JUMPDEST JUMPDEST DUP2 CALLDATALOAD PUSH2 0x441 DUP5 DUP3 PUSH1 0x20 DUP7 ADD PUSH2 0x3DA JUMP JUMPDEST SWAP2 POP POP SWAP3 SWAP2 POP POP JUMP JUMPDEST PUSH1 0x0 DUP2 CALLDATALOAD SWAP1 POP PUSH2 0x459 DUP2 PUSH2 0x6D1 JUMP JUMPDEST SWAP3 SWAP2 POP POP JUMP JUMPDEST PUSH1 0x0 PUSH1 0x20 DUP3 DUP5 SUB SLT ISZERO PUSH2 0x475 JUMPI PUSH2 0x474 PUSH2 0x6BB JUMP JUMPDEST JUMPDEST PUSH1 0x0 DUP3 ADD CALLDATALOAD PUSH8 0xFFFFFFFFFFFFFFFF DUP2 GT ISZERO PUSH2 0x493 JUMPI PUSH2 0x492 PUSH2 0x6B6 JUMP JUMPDEST JUMPDEST PUSH2 0x49F DUP5 DUP3 DUP6 ADD PUSH2 0x41C JUMP JUMPDEST SWAP2 POP POP SWAP3 SWAP2 POP POP JUMP JUMPDEST PUSH1 0x0 PUSH1 0x20 DUP3 DUP5 SUB SLT ISZERO PUSH2 0x4BE JUMPI PUSH2 0x4BD PUSH2 0x6BB JUMP JUMPDEST JUMPDEST PUSH1 0x0 PUSH2 0x4CC DUP5 DUP3 DUP6 ADD PUSH2 0x44A JUMP JUMPDEST SWAP2 POP POP SWAP3 SWAP2 POP POP JUMP JUMPDEST PUSH1 0x0 PUSH2 0x4DF PUSH2 0x4F0 JUMP JUMPDEST SWAP1 POP PUSH2 0x4EB DUP3 DUP3 PUSH2 0x576 JUMP JUMPDEST SWAP2 SWAP1 POP JUMP JUMPDEST PUSH1 0x0 PUSH1 0x40 MLOAD SWAP1 POP SWAP1 JUMP JUMPDEST PUSH1 0x0 PUSH8 0xFFFFFFFFFFFFFFFF DUP3 GT ISZERO PUSH2 0x515 JUMPI PUSH2 0x514 PUSH2 0x67D JUMP JUMPDEST JUMPDEST PUSH2 0x51E DUP3 PUSH2 0x6C0 JUMP JUMPDEST SWAP1 POP PUSH1 0x20 DUP2 ADD SWAP1 POP SWAP2 SWAP1 POP JUMP JUMPDEST PUSH1 0x0 DUP2 SWAP1 POP SWAP2 SWAP1 POP JUMP JUMPDEST DUP3 DUP2 DUP4 CALLDATACOPY PUSH1 0x0 DUP4 DUP4 ADD MSTORE POP POP POP JUMP JUMPDEST PUSH1 0x0 PUSH1 0x2 DUP3 DIV SWAP1 POP PUSH1 0x1 DUP3 AND DUP1 PUSH2 0x55C JUMPI PUSH1 0x7F DUP3 AND SWAP2 POP JUMPDEST PUSH1 0x20 DUP3 LT DUP2 EQ ISZERO PUSH2 0x570 JUMPI PUSH2 0x56F PUSH2 0x64E JUMP JUMPDEST JUMPDEST POP SWAP2 SWAP1 POP JUMP JUMPDEST PUSH2 0x57F DUP3 PUSH2 0x6C0 JUMP JUMPDEST DUP2 ADD DUP2 DUP2 LT PUSH8 0xFFFFFFFFFFFFFFFF DUP3 GT OR ISZERO PUSH2 0x59E JUMPI PUSH2 0x59D PUSH2 0x67D JUMP JUMPDEST JUMPDEST DUP1 PUSH1 0x40 MSTORE POP POP POP JUMP JUMPDEST PUSH1 0x0 PUSH2 0x5B2 DUP3 PUSH2 0x52B JUMP JUMPDEST SWAP2 POP PUSH32 0xFFFFFFFFFFFFFFFFFFFFFFFFFFFFFFFFFFFFFFFFFFFFFFFFFFFFFFFFFFFFFFFF DUP3 EQ ISZERO PUSH2 0x5E5 JUMPI PUSH2 0x5E4 PUSH2 0x5F0 JUMP JUMPDEST JUMPDEST PUSH1 0x1 DUP3 ADD SWAP1 POP SWAP2 SWAP1 POP JUMP JUMPDEST PUSH32 0x4E487B7100000000000000000000000000000000000000000000000000000000 PUSH1 0x0 MSTORE PUSH1 0x11 PUSH1 0x4 MSTORE PUSH1 0x24 PUSH1 0x0 REVERT JUMPDEST PUSH32 0x4E487B7100000000000000000000000000000000000000000000000000000000 PUSH1 0x0 MSTORE PUSH1 0x21 PUSH1 0x4 MSTORE PUSH1 0x24 PUSH1 0x0 REVERT JUMPDEST PUSH32 0x4E487B7100000000000000000000000000000000000000000000000000000000 PUSH1 0x0 MSTORE PUSH1 0x22 PUSH1 0x4 MSTORE PUSH1 0x24 PUSH1 0x0 REVERT JUMPDEST PUSH32 0x4E487B7100000000000000000000000000000000000000000000000000000000 PUSH1 0x0 MSTORE PUSH1 0x41 PUSH1 0x4 MSTORE PUSH1 0x24 PUSH1 0x0 REVERT JUMPDEST PUSH1 0x0 DUP1 REVERT JUMPDEST PUSH1 0x0 DUP1 REVERT JUMPDEST PUSH1 0x0 DUP1 REVERT JUMPDEST PUSH1 0x0 DUP1 REVERT JUMPDEST PUSH1 0x0 PUSH1 0x1F NOT PUSH1 0x1F DUP4 ADD AND SWAP1 POP SWAP2 SWAP1 POP JUMP JUMPDEST PUSH2 0x6DA DUP2 PUSH2 0x52B JUMP JUMPDEST DUP2 EQ PUSH2 0x6E5 JUMPI PUSH1 0x0 DUP1 REVERT JUMPDEST POP JUMP INVALID LOG2 PUSH5 0x6970667358 0x22 SLT KECCAK256 PUSH1 0xBC SWAP15 0xC9 NOT 0xEF PUSH23 0x42BF8A1681BAB94588E7E854DB86C964C1D20570B6FE9A 0xBC SHR PUSH5 0x736F6C6343 STOP ADDMOD SMOD STOP CALLER "
				},
				"gasEstimates": {
					"creation": {
						"codeDepositCost": "364400",
						"executionCost": "29679",
						"totalCost": "394079"
					},
					"external": {
						"addTask(string)": "infinite",
						"completeTask(uint256)": "infinite"
					}
				},
				"methodIdentifiers": {
					"addTask(string)": "67238562",
					"completeTask(uint256)": "e1e29558"
				}
			},
			"storageLayout": {
				"storage": [
					{
						"astId": 19,
						"contract": "contracts/TaskManager.sol:TaskManager",
						"label": "admin",
						"offset": 0,
						"slot": "0",
						"type": "t_address"
					},
					{
						"astId": 21,
						"contract": "contracts/TaskManager.sol:TaskManager",
						"label": "count",
						"offset": 0,
						"slot": "1",
						"type": "t_uint256"
					},
					{
						"astId": 26,
						"contract": "contracts/TaskManager.sol:TaskManager",
						"label": "tasks",
						"offset": 0,
						"slot": "2",
						"type": "t_mapping(t_uint256,t_struct(Task)17_storage)"
					},
					{
						"astId": 30,
						"contract": "contracts/TaskManager.sol:TaskManager",
						"label": "premiums",
						"offset": 0,
						"slot": "3",
						"type": "t_mapping(t_address,t_bool)"
					}
				],
				"types": {
					"t_address": {
						"encoding": "inplace",
						"label": "address",
						"numberOfBytes": "20"
					},
					"t_bool": {
						"encoding": "inplace",
						"label": "bool",
						"numberOfBytes": "1"
					},
					"t_enum(Priority)5": {
						"encoding": "inplace",
						"label": "enum TaskManager.Priority",
						"numberOfBytes": "1"
					},
					"t_mapping(t_address,t_bool)": {
						"encoding": "mapping",
						"key": "t_address",
						"label": "mapping(address => bool)",
						"numberOfBytes": "32",
						"value": "t_bool"
					},
					"t_mapping(t_uint256,t_struct(Task)17_storage)": {
						"encoding": "mapping",
						"key": "t_uint256",
						"label": "mapping(uint256 => struct TaskManager.Task)",
						"numberOfBytes": "32",
						"value": "t_struct(Task)17_storage"
					},
					"t_string_storage": {
						"encoding": "bytes",
						"label": "string",
						"numberOfBytes": "32"
					},
					"t_struct(Task)17_storage": {
						"encoding": "inplace",
						"label": "struct TaskManager.Task",
						"members": [
							{
								"astId": 7,
								"contract": "contracts/TaskManager.sol:TaskManager",
								"label": "id",
								"offset": 0,
								"slot": "0",
								"type": "t_uint256"
							},
							{
								"astId": 10,
								"contract": "contracts/TaskManager.sol:TaskManager",
								"label": "priority",
								"offset": 0,
								"slot": "1",
								"type": "t_enum(Priority)5"
							},
							{
								"astId": 12,
								"contract": "contracts/TaskManager.sol:TaskManager",
								"label": "content",
								"offset": 0,
								"slot": "2",
								"type": "t_string_storage"
							},
							{
								"astId": 14,
								"contract": "contracts/TaskManager.sol:TaskManager",
								"label": "timestamp",
								"offset": 0,
								"slot": "3",
								"type": "t_uint256"
							},
							{
								"astId": 16,
								"contract": "contracts/TaskManager.sol:TaskManager",
								"label": "completed",
								"offset": 0,
								"slot": "4",
								"type": "t_bool"
							}
						],
						"numberOfBytes": "160"
					},
					"t_uint256": {
						"encoding": "inplace",
						"label": "uint256",
						"numberOfBytes": "32"
					}
				}
			},
			"userdoc": {
				"kind": "user",
				"methods": {},
				"version": 1
			}
		}
	}
}