{
	"contracts/TaskManager.sol": {
		"TaskManager": {
			"abi": [
				{
					"inputs": [],
					"stateMutability": "nonpayable",
					"type": "constructor"
				},
				{
					"anonymous": false,
					"inputs": [
						{
							"components": [
								{
									"internalType": "uint256",
									"name": "id",
									"type": "uint256"
								},
								{
									"internalType": "enum TaskManager.Priority",
									"name": "priority",
									"type": "uint8"
								},
								{
									"internalType": "string",
									"name": "content",
									"type": "string"
								},
								{
									"internalType": "uint256",
									"name": "timestamp",
									"type": "uint256"
								},
								{
									"internalType": "bool",
									"name": "completed",
									"type": "bool"
								}
							],
							"indexed": false,
							"internalType": "struct TaskManager.Task",
							"name": "task",
							"type": "tuple"
						},
						{
							"indexed": false,
							"internalType": "uint256",
							"name": "time",
							"type": "uint256"
						}
					],
					"name": "NewTask",
					"type": "event"
				},
				{
					"inputs": [
						{
							"internalType": "string",
							"name": "content",
							"type": "string"
						}
					],
					"name": "addTask",
					"outputs": [],
					"stateMutability": "nonpayable",
					"type": "function"
				},
				{
					"inputs": [
						{
							"internalType": "uint256",
							"name": "_count",
							"type": "uint256"
						}
					],
					"name": "completeTask",
					"outputs": [],
					"stateMutability": "nonpayable",
					"type": "function"
				}
			],
			"devdoc": {
				"kind": "dev",
				"methods": {},
				"version": 1
			},
			"evm": {
				"assembly": "    /* \"contracts/TaskManager.sol\":76:1312  contract TaskManager {\r... */\n  mstore(0x40, 0x80)\n    /* \"contracts/TaskManager.sol\":645:716  constructor() {\r... */\n  callvalue\n  dup1\n  iszero\n  tag_1\n  jumpi\n  0x00\n  dup1\n  revert\ntag_1:\n  pop\n    /* \"contracts/TaskManager.sol\":678:688  msg.sender */\n  caller\n    /* \"contracts/TaskManager.sol\":670:675  admin */\n  0x00\n  dup1\n    /* \"contracts/TaskManager.sol\":670:688  admin = msg.sender */\n  0x0100\n  exp\n  dup2\n  sload\n  dup2\n  0xffffffffffffffffffffffffffffffffffffffff\n  mul\n  not\n  and\n  swap1\n  dup4\n  0xffffffffffffffffffffffffffffffffffffffff\n  and\n  mul\n  or\n  swap1\n  sstore\n  pop\n    /* \"contracts/TaskManager.sol\":707:708  0 */\n  0x00\n    /* \"contracts/TaskManager.sol\":699:704  count */\n  0x01\n    /* \"contracts/TaskManager.sol\":699:708  count = 0 */\n  dup2\n  swap1\n  sstore\n  pop\n    /* \"contracts/TaskManager.sol\":76:1312  contract TaskManager {\r... */\n  dataSize(sub_0)\n  dup1\n  dataOffset(sub_0)\n  0x00\n  codecopy\n  0x00\n  return\nstop\n\nsub_0: assembly {\n        /* \"contracts/TaskManager.sol\":76:1312  contract TaskManager {\r... */\n      mstore(0x40, 0x80)\n      callvalue\n      dup1\n      iszero\n      tag_1\n      jumpi\n      0x00\n      dup1\n      revert\n    tag_1:\n      pop\n      jumpi(tag_2, lt(calldatasize, 0x04))\n      shr(0xe0, calldataload(0x00))\n      dup1\n      0x67238562\n      eq\n      tag_3\n      jumpi\n      dup1\n      0xe1e29558\n      eq\n      tag_4\n      jumpi\n    tag_2:\n      0x00\n      dup1\n      revert\n        /* \"contracts/TaskManager.sol\":849:1145  function addTask(string memory content) public {\r... */\n    tag_3:\n      tag_5\n      0x04\n      dup1\n      calldatasize\n      sub\n      dup2\n      add\n      swap1\n      tag_6\n      swap2\n      swap1\n      tag_7\n      jump\t// in\n    tag_6:\n      tag_8\n      jump\t// in\n    tag_5:\n      stop\n        /* \"contracts/TaskManager.sol\":1153:1309  function completeTask(uint _count) public {\r... */\n    tag_4:\n      tag_9\n      0x04\n      dup1\n      calldatasize\n      sub\n      dup2\n      add\n      swap1\n      tag_10\n      swap2\n      swap1\n      tag_11\n      jump\t// in\n    tag_10:\n      tag_12\n      jump\t// in\n    tag_9:\n      stop\n        /* \"contracts/TaskManager.sol\":849:1145  function addTask(string memory content) public {\r... */\n    tag_8:\n        /* \"contracts/TaskManager.sol\":907:923  Task memory task */\n      0x00\n        /* \"contracts/TaskManager.sol\":926:984  Task(count, Priority.LOW, content, block.timestamp, false) */\n      mload(0x40)\n      dup1\n      0xa0\n      add\n      0x40\n      mstore\n      dup1\n        /* \"contracts/TaskManager.sol\":931:936  count */\n      sload(0x01)\n        /* \"contracts/TaskManager.sol\":926:984  Task(count, Priority.LOW, content, block.timestamp, false) */\n      dup2\n      mstore\n      0x20\n      add\n        /* \"contracts/TaskManager.sol\":938:950  Priority.LOW */\n      0x00\n        /* \"contracts/TaskManager.sol\":926:984  Task(count, Priority.LOW, content, block.timestamp, false) */\n      0x02\n      dup2\n      gt\n      iszero\n      tag_14\n      jumpi\n      tag_15\n      tag_16\n      jump\t// in\n    tag_15:\n    tag_14:\n      dup2\n      mstore\n      0x20\n      add\n        /* \"contracts/TaskManager.sol\":952:959  content */\n      dup4\n        /* \"contracts/TaskManager.sol\":926:984  Task(count, Priority.LOW, content, block.timestamp, false) */\n      dup2\n      mstore\n      0x20\n      add\n        /* \"contracts/TaskManager.sol\":961:976  block.timestamp */\n      timestamp\n        /* \"contracts/TaskManager.sol\":926:984  Task(count, Priority.LOW, content, block.timestamp, false) */\n      dup2\n      mstore\n      0x20\n      add\n        /* \"contracts/TaskManager.sol\":978:983  false */\n      0x00\n        /* \"contracts/TaskManager.sol\":926:984  Task(count, Priority.LOW, content, block.timestamp, false) */\n      iszero\n      iszero\n      dup2\n      mstore\n      pop\n        /* \"contracts/TaskManager.sol\":907:984  Task memory task = Task(count, Priority.LOW, content, block.timestamp, false) */\n      swap1\n      pop\n        /* \"contracts/TaskManager.sol\":1010:1014  task */\n      dup1\n        /* \"contracts/TaskManager.sol\":995:1000  tasks */\n      0x02\n        /* \"contracts/TaskManager.sol\":995:1007  tasks[count] */\n      0x00\n        /* \"contracts/TaskManager.sol\":1001:1006  count */\n      sload(0x01)\n        /* \"contracts/TaskManager.sol\":995:1007  tasks[count] */\n      dup2\n      mstore\n      0x20\n      add\n      swap1\n      dup2\n      mstore\n      0x20\n      add\n      0x00\n      keccak256\n        /* \"contracts/TaskManager.sol\":995:1014  tasks[count] = task */\n      0x00\n      dup3\n      add\n      mload\n      dup2\n      0x00\n      add\n      sstore\n      0x20\n      dup3\n      add\n      mload\n      dup2\n      0x01\n      add\n      exp(0x0100, 0x00)\n      dup2\n      sload\n      dup2\n      0xff\n      mul\n      not\n      and\n      swap1\n      dup4\n      0x02\n      dup2\n      gt\n      iszero\n      tag_17\n      jumpi\n      tag_18\n      tag_16\n      jump\t// in\n    tag_18:\n    tag_17:\n      mul\n      or\n      swap1\n      sstore\n      pop\n      0x40\n      dup3\n      add\n      mload\n      dup2\n      0x02\n      add\n      swap1\n      dup1\n      mload\n      swap1\n      0x20\n      add\n      swap1\n      tag_19\n      swap3\n      swap2\n      swap1\n      tag_20\n      jump\t// in\n    tag_19:\n      pop\n      0x60\n      dup3\n      add\n      mload\n      dup2\n      0x03\n      add\n      sstore\n      0x80\n      dup3\n      add\n      mload\n      dup2\n      0x04\n      add\n      exp(0x0100, 0x00)\n      dup2\n      sload\n      dup2\n      0xff\n      mul\n      not\n      and\n      swap1\n      dup4\n      iszero\n      iszero\n      mul\n      or\n      swap1\n      sstore\n      pop\n      swap1\n      pop\n      pop\n        /* \"contracts/TaskManager.sol\":1025:1030  count */\n      0x01\n      0x00\n        /* \"contracts/TaskManager.sol\":1025:1032  count++ */\n      dup2\n      sload\n      dup1\n      swap3\n      swap2\n      swap1\n      tag_21\n      swap1\n      tag_22\n      jump\t// in\n    tag_21:\n      swap2\n      swap1\n      pop\n      sstore\n      pop\n        /* \"contracts/TaskManager.sol\":1107:1137  NewTask(task, block.timestamp) */\n      0x615eb1193ab28532b0958952317b9eefb36e49e4a65bc640cf28f2ec9a931771\n        /* \"contracts/TaskManager.sol\":1115:1119  task */\n      dup2\n        /* \"contracts/TaskManager.sol\":1121:1136  block.timestamp */\n      timestamp\n        /* \"contracts/TaskManager.sol\":1107:1137  NewTask(task, block.timestamp) */\n      mload(0x40)\n      tag_23\n      swap3\n      swap2\n      swap1\n      tag_24\n      jump\t// in\n    tag_23:\n      mload(0x40)\n      dup1\n      swap2\n      sub\n      swap1\n      log1\n        /* \"contracts/TaskManager.sol\":896:1145  {\r... */\n      pop\n        /* \"contracts/TaskManager.sol\":849:1145  function addTask(string memory content) public {\r... */\n      pop\n      jump\t// out\n        /* \"contracts/TaskManager.sol\":1153:1309  function completeTask(uint _count) public {\r... */\n    tag_12:\n        /* \"contracts/TaskManager.sol\":1206:1222  Task memory task */\n      0x00\n        /* \"contracts/TaskManager.sol\":1225:1230  tasks */\n      0x02\n        /* \"contracts/TaskManager.sol\":1225:1238  tasks[_count] */\n      0x00\n        /* \"contracts/TaskManager.sol\":1231:1237  _count */\n      dup4\n        /* \"contracts/TaskManager.sol\":1225:1238  tasks[_count] */\n      dup2\n      mstore\n      0x20\n      add\n      swap1\n      dup2\n      mstore\n      0x20\n      add\n      0x00\n      keccak256\n        /* \"contracts/TaskManager.sol\":1206:1238  Task memory task = tasks[_count] */\n      mload(0x40)\n      dup1\n      0xa0\n      add\n      0x40\n      mstore\n      swap1\n      dup2\n      0x00\n      dup3\n      add\n      sload\n      dup2\n      mstore\n      0x20\n      add\n      0x01\n      dup3\n      add\n      0x00\n      swap1\n      sload\n      swap1\n      0x0100\n      exp\n      swap1\n      div\n      0xff\n      and\n      0x02\n      dup2\n      gt\n      iszero\n      tag_26\n      jumpi\n      tag_27\n      tag_16\n      jump\t// in\n    tag_27:\n    tag_26:\n      0x02\n      dup2\n      gt\n      iszero\n      tag_28\n      jumpi\n      tag_29\n      tag_16\n      jump\t// in\n    tag_29:\n    tag_28:\n      dup2\n      mstore\n      0x20\n      add\n      0x02\n      dup3\n      add\n      dup1\n      sload\n      tag_30\n      swap1\n      tag_31\n      jump\t// in\n    tag_30:\n      dup1\n      0x1f\n      add\n      0x20\n      dup1\n      swap2\n      div\n      mul\n      0x20\n      add\n      mload(0x40)\n      swap1\n      dup2\n      add\n      0x40\n      mstore\n      dup1\n      swap3\n      swap2\n      swap1\n      dup2\n      dup2\n      mstore\n      0x20\n      add\n      dup3\n      dup1\n      sload\n      tag_32\n      swap1\n      tag_31\n      jump\t// in\n    tag_32:\n      dup1\n      iszero\n      tag_33\n      jumpi\n      dup1\n      0x1f\n      lt\n      tag_34\n      jumpi\n      0x0100\n      dup1\n      dup4\n      sload\n      div\n      mul\n      dup4\n      mstore\n      swap2\n      0x20\n      add\n      swap2\n      jump(tag_33)\n    tag_34:\n      dup3\n      add\n      swap2\n      swap1\n      0x00\n      mstore\n      keccak256(0x00, 0x20)\n      swap1\n    tag_35:\n      dup2\n      sload\n      dup2\n      mstore\n      swap1\n      0x01\n      add\n      swap1\n      0x20\n      add\n      dup1\n      dup4\n      gt\n      tag_35\n      jumpi\n      dup3\n      swap1\n      sub\n      0x1f\n      and\n      dup3\n      add\n      swap2\n    tag_33:\n      pop\n      pop\n      pop\n      pop\n      pop\n      dup2\n      mstore\n      0x20\n      add\n      0x03\n      dup3\n      add\n      sload\n      dup2\n      mstore\n      0x20\n      add\n      0x04\n      dup3\n      add\n      0x00\n      swap1\n      sload\n      swap1\n      0x0100\n      exp\n      swap1\n      div\n      0xff\n      and\n      iszero\n      iszero\n      iszero\n      iszero\n      dup2\n      mstore\n      pop\n      pop\n      swap1\n      pop\n        /* \"contracts/TaskManager.sol\":1266:1270  true */\n      0x01\n        /* \"contracts/TaskManager.sol\":1249:1253  task */\n      dup2\n        /* \"contracts/TaskManager.sol\":1249:1263  task.completed */\n      0x80\n      add\n        /* \"contracts/TaskManager.sol\":1249:1270  task.completed = true */\n      swap1\n      iszero\n      iszero\n      swap1\n      dup2\n      iszero\n      iszero\n      dup2\n      mstore\n      pop\n      pop\n        /* \"contracts/TaskManager.sol\":1297:1301  task */\n      dup1\n        /* \"contracts/TaskManager.sol\":1281:1286  tasks */\n      0x02\n        /* \"contracts/TaskManager.sol\":1281:1294  tasks[_count] */\n      0x00\n        /* \"contracts/TaskManager.sol\":1287:1293  _count */\n      dup5\n        /* \"contracts/TaskManager.sol\":1281:1294  tasks[_count] */\n      dup2\n      mstore\n      0x20\n      add\n      swap1\n      dup2\n      mstore\n      0x20\n      add\n      0x00\n      keccak256\n        /* \"contracts/TaskManager.sol\":1281:1301  tasks[_count] = task */\n      0x00\n      dup3\n      add\n      mload\n      dup2\n      0x00\n      add\n      sstore\n      0x20\n      dup3\n      add\n      mload\n      dup2\n      0x01\n      add\n      exp(0x0100, 0x00)\n      dup2\n      sload\n      dup2\n      0xff\n      mul\n      not\n      and\n      swap1\n      dup4\n      0x02\n      dup2\n      gt\n      iszero\n      tag_36\n      jumpi\n      tag_37\n      tag_16\n      jump\t// in\n    tag_37:\n    tag_36:\n      mul\n      or\n      swap1\n      sstore\n      pop\n      0x40\n      dup3\n      add\n      mload\n      dup2\n      0x02\n      add\n      swap1\n      dup1\n      mload\n      swap1\n      0x20\n      add\n      swap1\n      tag_38\n      swap3\n      swap2\n      swap1\n      tag_20\n      jump\t// in\n    tag_38:\n      pop\n      0x60\n      dup3\n      add\n      mload\n      dup2\n      0x03\n      add\n      sstore\n      0x80\n      dup3\n      add\n      mload\n      dup2\n      0x04\n      add\n      exp(0x0100, 0x00)\n      dup2\n      sload\n      dup2\n      0xff\n      mul\n      not\n      and\n      swap1\n      dup4\n      iszero\n      iszero\n      mul\n      or\n      swap1\n      sstore\n      pop\n      swap1\n      pop\n      pop\n        /* \"contracts/TaskManager.sol\":1195:1309  {\r... */\n      pop\n        /* \"contracts/TaskManager.sol\":1153:1309  function completeTask(uint _count) public {\r... */\n      pop\n      jump\t// out\n    tag_20:\n      dup3\n      dup1\n      sload\n      tag_39\n      swap1\n      tag_31\n      jump\t// in\n    tag_39:\n      swap1\n      0x00\n      mstore\n      keccak256(0x00, 0x20)\n      swap1\n      0x1f\n      add\n      0x20\n      swap1\n      div\n      dup2\n      add\n      swap3\n      dup3\n      tag_41\n      jumpi\n      0x00\n      dup6\n      sstore\n      jump(tag_40)\n    tag_41:\n      dup3\n      0x1f\n      lt\n      tag_42\n      jumpi\n      dup1\n      mload\n      not(0xff)\n      and\n      dup4\n      dup1\n      add\n      or\n      dup6\n      sstore\n      jump(tag_40)\n    tag_42:\n      dup3\n      dup1\n      add\n      0x01\n      add\n      dup6\n      sstore\n      dup3\n      iszero\n      tag_40\n      jumpi\n      swap2\n      dup3\n      add\n    tag_43:\n      dup3\n      dup2\n      gt\n      iszero\n      tag_44\n      jumpi\n      dup3\n      mload\n      dup3\n      sstore\n      swap2\n      0x20\n      add\n      swap2\n      swap1\n      0x01\n      add\n      swap1\n      jump(tag_43)\n    tag_44:\n    tag_40:\n      pop\n      swap1\n      pop\n      tag_45\n      swap2\n      swap1\n      tag_46\n      jump\t// in\n    tag_45:\n      pop\n      swap1\n      jump\t// out\n    tag_46:\n    tag_47:\n      dup1\n      dup3\n      gt\n      iszero\n      tag_48\n      jumpi\n      0x00\n      dup2\n      0x00\n      swap1\n      sstore\n      pop\n      0x01\n      add\n      jump(tag_47)\n    tag_48:\n      pop\n      swap1\n      jump\t// out\n        /* \"#utility.yul\":7:419   */\n    tag_50:\n        /* \"#utility.yul\":85:90   */\n      0x00\n        /* \"#utility.yul\":110:176   */\n      tag_52\n        /* \"#utility.yul\":126:175   */\n      tag_53\n        /* \"#utility.yul\":168:174   */\n      dup5\n        /* \"#utility.yul\":126:175   */\n      tag_54\n      jump\t// in\n    tag_53:\n        /* \"#utility.yul\":110:176   */\n      tag_55\n      jump\t// in\n    tag_52:\n        /* \"#utility.yul\":101:176   */\n      swap1\n      pop\n        /* \"#utility.yul\":199:205   */\n      dup3\n        /* \"#utility.yul\":192:197   */\n      dup2\n        /* \"#utility.yul\":185:206   */\n      mstore\n        /* \"#utility.yul\":237:241   */\n      0x20\n        /* \"#utility.yul\":230:235   */\n      dup2\n        /* \"#utility.yul\":226:242   */\n      add\n        /* \"#utility.yul\":275:278   */\n      dup5\n        /* \"#utility.yul\":266:272   */\n      dup5\n        /* \"#utility.yul\":261:264   */\n      dup5\n        /* \"#utility.yul\":257:273   */\n      add\n        /* \"#utility.yul\":254:279   */\n      gt\n        /* \"#utility.yul\":251:363   */\n      iszero\n      tag_56\n      jumpi\n        /* \"#utility.yul\":282:361   */\n      tag_57\n      tag_58\n      jump\t// in\n    tag_57:\n        /* \"#utility.yul\":251:363   */\n    tag_56:\n        /* \"#utility.yul\":372:413   */\n      tag_59\n        /* \"#utility.yul\":406:412   */\n      dup5\n        /* \"#utility.yul\":401:404   */\n      dup3\n        /* \"#utility.yul\":396:399   */\n      dup6\n        /* \"#utility.yul\":372:413   */\n      tag_60\n      jump\t// in\n    tag_59:\n        /* \"#utility.yul\":91:419   */\n      pop\n        /* \"#utility.yul\":7:419   */\n      swap4\n      swap3\n      pop\n      pop\n      pop\n      jump\t// out\n        /* \"#utility.yul\":439:779   */\n    tag_61:\n        /* \"#utility.yul\":495:500   */\n      0x00\n        /* \"#utility.yul\":544:547   */\n      dup3\n        /* \"#utility.yul\":537:541   */\n      0x1f\n        /* \"#utility.yul\":529:535   */\n      dup4\n        /* \"#utility.yul\":525:542   */\n      add\n        /* \"#utility.yul\":521:548   */\n      slt\n        /* \"#utility.yul\":511:633   */\n      tag_63\n      jumpi\n        /* \"#utility.yul\":552:631   */\n      tag_64\n      tag_65\n      jump\t// in\n    tag_64:\n        /* \"#utility.yul\":511:633   */\n    tag_63:\n        /* \"#utility.yul\":669:675   */\n      dup2\n        /* \"#utility.yul\":656:676   */\n      calldataload\n        /* \"#utility.yul\":694:773   */\n      tag_66\n        /* \"#utility.yul\":769:772   */\n      dup5\n        /* \"#utility.yul\":761:767   */\n      dup3\n        /* \"#utility.yul\":754:758   */\n      0x20\n        /* \"#utility.yul\":746:752   */\n      dup7\n        /* \"#utility.yul\":742:759   */\n      add\n        /* \"#utility.yul\":694:773   */\n      tag_50\n      jump\t// in\n    tag_66:\n        /* \"#utility.yul\":685:773   */\n      swap2\n      pop\n        /* \"#utility.yul\":501:779   */\n      pop\n        /* \"#utility.yul\":439:779   */\n      swap3\n      swap2\n      pop\n      pop\n      jump\t// out\n        /* \"#utility.yul\":785:924   */\n    tag_67:\n        /* \"#utility.yul\":831:836   */\n      0x00\n        /* \"#utility.yul\":869:875   */\n      dup2\n        /* \"#utility.yul\":856:876   */\n      calldataload\n        /* \"#utility.yul\":847:876   */\n      swap1\n      pop\n        /* \"#utility.yul\":885:918   */\n      tag_69\n        /* \"#utility.yul\":912:917   */\n      dup2\n        /* \"#utility.yul\":885:918   */\n      tag_70\n      jump\t// in\n    tag_69:\n        /* \"#utility.yul\":785:924   */\n      swap3\n      swap2\n      pop\n      pop\n      jump\t// out\n        /* \"#utility.yul\":930:1439   */\n    tag_7:\n        /* \"#utility.yul\":999:1005   */\n      0x00\n        /* \"#utility.yul\":1048:1050   */\n      0x20\n        /* \"#utility.yul\":1036:1045   */\n      dup3\n        /* \"#utility.yul\":1027:1034   */\n      dup5\n        /* \"#utility.yul\":1023:1046   */\n      sub\n        /* \"#utility.yul\":1019:1051   */\n      slt\n        /* \"#utility.yul\":1016:1135   */\n      iszero\n      tag_72\n      jumpi\n        /* \"#utility.yul\":1054:1133   */\n      tag_73\n      tag_74\n      jump\t// in\n    tag_73:\n        /* \"#utility.yul\":1016:1135   */\n    tag_72:\n        /* \"#utility.yul\":1202:1203   */\n      0x00\n        /* \"#utility.yul\":1191:1200   */\n      dup3\n        /* \"#utility.yul\":1187:1204   */\n      add\n        /* \"#utility.yul\":1174:1205   */\n      calldataload\n        /* \"#utility.yul\":1232:1250   */\n      0xffffffffffffffff\n        /* \"#utility.yul\":1224:1230   */\n      dup2\n        /* \"#utility.yul\":1221:1251   */\n      gt\n        /* \"#utility.yul\":1218:1335   */\n      iszero\n      tag_75\n      jumpi\n        /* \"#utility.yul\":1254:1333   */\n      tag_76\n      tag_77\n      jump\t// in\n    tag_76:\n        /* \"#utility.yul\":1218:1335   */\n    tag_75:\n        /* \"#utility.yul\":1359:1422   */\n      tag_78\n        /* \"#utility.yul\":1414:1421   */\n      dup5\n        /* \"#utility.yul\":1405:1411   */\n      dup3\n        /* \"#utility.yul\":1394:1403   */\n      dup6\n        /* \"#utility.yul\":1390:1412   */\n      add\n        /* \"#utility.yul\":1359:1422   */\n      tag_61\n      jump\t// in\n    tag_78:\n        /* \"#utility.yul\":1349:1422   */\n      swap2\n      pop\n        /* \"#utility.yul\":1145:1432   */\n      pop\n        /* \"#utility.yul\":930:1439   */\n      swap3\n      swap2\n      pop\n      pop\n      jump\t// out\n        /* \"#utility.yul\":1445:1774   */\n    tag_11:\n        /* \"#utility.yul\":1504:1510   */\n      0x00\n        /* \"#utility.yul\":1553:1555   */\n      0x20\n        /* \"#utility.yul\":1541:1550   */\n      dup3\n        /* \"#utility.yul\":1532:1539   */\n      dup5\n        /* \"#utility.yul\":1528:1551   */\n      sub\n        /* \"#utility.yul\":1524:1556   */\n      slt\n        /* \"#utility.yul\":1521:1640   */\n      iszero\n      tag_80\n      jumpi\n        /* \"#utility.yul\":1559:1638   */\n      tag_81\n      tag_74\n      jump\t// in\n    tag_81:\n        /* \"#utility.yul\":1521:1640   */\n    tag_80:\n        /* \"#utility.yul\":1679:1680   */\n      0x00\n        /* \"#utility.yul\":1704:1757   */\n      tag_82\n        /* \"#utility.yul\":1749:1756   */\n      dup5\n        /* \"#utility.yul\":1740:1746   */\n      dup3\n        /* \"#utility.yul\":1729:1738   */\n      dup6\n        /* \"#utility.yul\":1725:1747   */\n      add\n        /* \"#utility.yul\":1704:1757   */\n      tag_67\n      jump\t// in\n    tag_82:\n        /* \"#utility.yul\":1694:1757   */\n      swap2\n      pop\n        /* \"#utility.yul\":1650:1767   */\n      pop\n        /* \"#utility.yul\":1445:1774   */\n      swap3\n      swap2\n      pop\n      pop\n      jump\t// out\n        /* \"#utility.yul\":1780:1879   */\n    tag_83:\n        /* \"#utility.yul\":1851:1872   */\n      tag_85\n        /* \"#utility.yul\":1866:1871   */\n      dup2\n        /* \"#utility.yul\":1851:1872   */\n      tag_86\n      jump\t// in\n    tag_85:\n        /* \"#utility.yul\":1846:1849   */\n      dup3\n        /* \"#utility.yul\":1839:1873   */\n      mstore\n        /* \"#utility.yul\":1780:1879   */\n      pop\n      pop\n      jump\t// out\n        /* \"#utility.yul\":1885:2022   */\n    tag_87:\n        /* \"#utility.yul\":1970:2015   */\n      tag_89\n        /* \"#utility.yul\":2009:2014   */\n      dup2\n        /* \"#utility.yul\":1970:2015   */\n      tag_90\n      jump\t// in\n    tag_89:\n        /* \"#utility.yul\":1965:1968   */\n      dup3\n        /* \"#utility.yul\":1958:2016   */\n      mstore\n        /* \"#utility.yul\":1885:2022   */\n      pop\n      pop\n      jump\t// out\n        /* \"#utility.yul\":2028:2372   */\n    tag_91:\n        /* \"#utility.yul\":2106:2109   */\n      0x00\n        /* \"#utility.yul\":2134:2173   */\n      tag_93\n        /* \"#utility.yul\":2167:2172   */\n      dup3\n        /* \"#utility.yul\":2134:2173   */\n      tag_94\n      jump\t// in\n    tag_93:\n        /* \"#utility.yul\":2189:2250   */\n      tag_95\n        /* \"#utility.yul\":2243:2249   */\n      dup2\n        /* \"#utility.yul\":2238:2241   */\n      dup6\n        /* \"#utility.yul\":2189:2250   */\n      tag_96\n      jump\t// in\n    tag_95:\n        /* \"#utility.yul\":2182:2250   */\n      swap4\n      pop\n        /* \"#utility.yul\":2259:2311   */\n      tag_97\n        /* \"#utility.yul\":2304:2310   */\n      dup2\n        /* \"#utility.yul\":2299:2302   */\n      dup6\n        /* \"#utility.yul\":2292:2296   */\n      0x20\n        /* \"#utility.yul\":2285:2290   */\n      dup7\n        /* \"#utility.yul\":2281:2297   */\n      add\n        /* \"#utility.yul\":2259:2311   */\n      tag_98\n      jump\t// in\n    tag_97:\n        /* \"#utility.yul\":2336:2365   */\n      tag_99\n        /* \"#utility.yul\":2358:2364   */\n      dup2\n        /* \"#utility.yul\":2336:2365   */\n      tag_100\n      jump\t// in\n    tag_99:\n        /* \"#utility.yul\":2331:2334   */\n      dup5\n        /* \"#utility.yul\":2327:2366   */\n      add\n        /* \"#utility.yul\":2320:2366   */\n      swap2\n      pop\n        /* \"#utility.yul\":2110:2372   */\n      pop\n        /* \"#utility.yul\":2028:2372   */\n      swap3\n      swap2\n      pop\n      pop\n      jump\t// out\n        /* \"#utility.yul\":2436:3571   */\n    tag_101:\n        /* \"#utility.yul\":2545:2548   */\n      0x00\n        /* \"#utility.yul\":2581:2585   */\n      0xa0\n        /* \"#utility.yul\":2576:2579   */\n      dup4\n        /* \"#utility.yul\":2572:2586   */\n      add\n        /* \"#utility.yul\":2666:2670   */\n      0x00\n        /* \"#utility.yul\":2659:2664   */\n      dup4\n        /* \"#utility.yul\":2655:2671   */\n      add\n        /* \"#utility.yul\":2649:2672   */\n      mload\n        /* \"#utility.yul\":2685:2748   */\n      tag_103\n        /* \"#utility.yul\":2742:2746   */\n      0x00\n        /* \"#utility.yul\":2737:2740   */\n      dup7\n        /* \"#utility.yul\":2733:2747   */\n      add\n        /* \"#utility.yul\":2719:2731   */\n      dup3\n        /* \"#utility.yul\":2685:2748   */\n      tag_104\n      jump\t// in\n    tag_103:\n        /* \"#utility.yul\":2596:2758   */\n      pop\n        /* \"#utility.yul\":2844:2848   */\n      0x20\n        /* \"#utility.yul\":2837:2842   */\n      dup4\n        /* \"#utility.yul\":2833:2849   */\n      add\n        /* \"#utility.yul\":2827:2850   */\n      mload\n        /* \"#utility.yul\":2863:2934   */\n      tag_105\n        /* \"#utility.yul\":2928:2932   */\n      0x20\n        /* \"#utility.yul\":2923:2926   */\n      dup7\n        /* \"#utility.yul\":2919:2933   */\n      add\n        /* \"#utility.yul\":2905:2917   */\n      dup3\n        /* \"#utility.yul\":2863:2934   */\n      tag_87\n      jump\t// in\n    tag_105:\n        /* \"#utility.yul\":2768:2944   */\n      pop\n        /* \"#utility.yul\":3029:3033   */\n      0x40\n        /* \"#utility.yul\":3022:3027   */\n      dup4\n        /* \"#utility.yul\":3018:3034   */\n      add\n        /* \"#utility.yul\":3012:3035   */\n      mload\n        /* \"#utility.yul\":3082:3085   */\n      dup5\n        /* \"#utility.yul\":3076:3080   */\n      dup3\n        /* \"#utility.yul\":3072:3086   */\n      sub\n        /* \"#utility.yul\":3065:3069   */\n      0x40\n        /* \"#utility.yul\":3060:3063   */\n      dup7\n        /* \"#utility.yul\":3056:3070   */\n      add\n        /* \"#utility.yul\":3049:3087   */\n      mstore\n        /* \"#utility.yul\":3108:3181   */\n      tag_106\n        /* \"#utility.yul\":3176:3180   */\n      dup3\n        /* \"#utility.yul\":3162:3174   */\n      dup3\n        /* \"#utility.yul\":3108:3181   */\n      tag_91\n      jump\t// in\n    tag_106:\n        /* \"#utility.yul\":3100:3181   */\n      swap2\n      pop\n        /* \"#utility.yul\":2954:3192   */\n      pop\n        /* \"#utility.yul\":3279:3283   */\n      0x60\n        /* \"#utility.yul\":3272:3277   */\n      dup4\n        /* \"#utility.yul\":3268:3284   */\n      add\n        /* \"#utility.yul\":3262:3285   */\n      mload\n        /* \"#utility.yul\":3298:3361   */\n      tag_107\n        /* \"#utility.yul\":3355:3359   */\n      0x60\n        /* \"#utility.yul\":3350:3353   */\n      dup7\n        /* \"#utility.yul\":3346:3360   */\n      add\n        /* \"#utility.yul\":3332:3344   */\n      dup3\n        /* \"#utility.yul\":3298:3361   */\n      tag_104\n      jump\t// in\n    tag_107:\n        /* \"#utility.yul\":3202:3371   */\n      pop\n        /* \"#utility.yul\":3458:3462   */\n      0x80\n        /* \"#utility.yul\":3451:3456   */\n      dup4\n        /* \"#utility.yul\":3447:3463   */\n      add\n        /* \"#utility.yul\":3441:3464   */\n      mload\n        /* \"#utility.yul\":3477:3534   */\n      tag_108\n        /* \"#utility.yul\":3528:3532   */\n      0x80\n        /* \"#utility.yul\":3523:3526   */\n      dup7\n        /* \"#utility.yul\":3519:3533   */\n      add\n        /* \"#utility.yul\":3505:3517   */\n      dup3\n        /* \"#utility.yul\":3477:3534   */\n      tag_83\n      jump\t// in\n    tag_108:\n        /* \"#utility.yul\":3381:3544   */\n      pop\n        /* \"#utility.yul\":3561:3565   */\n      dup1\n        /* \"#utility.yul\":3554:3565   */\n      swap2\n      pop\n        /* \"#utility.yul\":2550:3571   */\n      pop\n        /* \"#utility.yul\":2436:3571   */\n      swap3\n      swap2\n      pop\n      pop\n      jump\t// out\n        /* \"#utility.yul\":3577:3685   */\n    tag_104:\n        /* \"#utility.yul\":3654:3678   */\n      tag_110\n        /* \"#utility.yul\":3672:3677   */\n      dup2\n        /* \"#utility.yul\":3654:3678   */\n      tag_111\n      jump\t// in\n    tag_110:\n        /* \"#utility.yul\":3649:3652   */\n      dup3\n        /* \"#utility.yul\":3642:3679   */\n      mstore\n        /* \"#utility.yul\":3577:3685   */\n      pop\n      pop\n      jump\t// out\n        /* \"#utility.yul\":3691:3809   */\n    tag_112:\n        /* \"#utility.yul\":3778:3802   */\n      tag_114\n        /* \"#utility.yul\":3796:3801   */\n      dup2\n        /* \"#utility.yul\":3778:3802   */\n      tag_111\n      jump\t// in\n    tag_114:\n        /* \"#utility.yul\":3773:3776   */\n      dup3\n        /* \"#utility.yul\":3766:3803   */\n      mstore\n        /* \"#utility.yul\":3691:3809   */\n      pop\n      pop\n      jump\t// out\n        /* \"#utility.yul\":3815:4278   */\n    tag_24:\n        /* \"#utility.yul\":3976:3980   */\n      0x00\n        /* \"#utility.yul\":4014:4016   */\n      0x40\n        /* \"#utility.yul\":4003:4012   */\n      dup3\n        /* \"#utility.yul\":3999:4017   */\n      add\n        /* \"#utility.yul\":3991:4017   */\n      swap1\n      pop\n        /* \"#utility.yul\":4063:4072   */\n      dup2\n        /* \"#utility.yul\":4057:4061   */\n      dup2\n        /* \"#utility.yul\":4053:4073   */\n      sub\n        /* \"#utility.yul\":4049:4050   */\n      0x00\n        /* \"#utility.yul\":4038:4047   */\n      dup4\n        /* \"#utility.yul\":4034:4051   */\n      add\n        /* \"#utility.yul\":4027:4074   */\n      mstore\n        /* \"#utility.yul\":4091:4189   */\n      tag_116\n        /* \"#utility.yul\":4184:4188   */\n      dup2\n        /* \"#utility.yul\":4175:4181   */\n      dup6\n        /* \"#utility.yul\":4091:4189   */\n      tag_101\n      jump\t// in\n    tag_116:\n        /* \"#utility.yul\":4083:4189   */\n      swap1\n      pop\n        /* \"#utility.yul\":4199:4271   */\n      tag_117\n        /* \"#utility.yul\":4267:4269   */\n      0x20\n        /* \"#utility.yul\":4256:4265   */\n      dup4\n        /* \"#utility.yul\":4252:4270   */\n      add\n        /* \"#utility.yul\":4243:4249   */\n      dup5\n        /* \"#utility.yul\":4199:4271   */\n      tag_112\n      jump\t// in\n    tag_117:\n        /* \"#utility.yul\":3815:4278   */\n      swap4\n      swap3\n      pop\n      pop\n      pop\n      jump\t// out\n        /* \"#utility.yul\":4284:4413   */\n    tag_55:\n        /* \"#utility.yul\":4318:4324   */\n      0x00\n        /* \"#utility.yul\":4345:4365   */\n      tag_119\n      tag_120\n      jump\t// in\n    tag_119:\n        /* \"#utility.yul\":4335:4365   */\n      swap1\n      pop\n        /* \"#utility.yul\":4374:4407   */\n      tag_121\n        /* \"#utility.yul\":4402:4406   */\n      dup3\n        /* \"#utility.yul\":4394:4400   */\n      dup3\n        /* \"#utility.yul\":4374:4407   */\n      tag_122\n      jump\t// in\n    tag_121:\n        /* \"#utility.yul\":4284:4413   */\n      swap2\n      swap1\n      pop\n      jump\t// out\n        /* \"#utility.yul\":4419:4494   */\n    tag_120:\n        /* \"#utility.yul\":4452:4458   */\n      0x00\n        /* \"#utility.yul\":4485:4487   */\n      0x40\n        /* \"#utility.yul\":4479:4488   */\n      mload\n        /* \"#utility.yul\":4469:4488   */\n      swap1\n      pop\n        /* \"#utility.yul\":4419:4494   */\n      swap1\n      jump\t// out\n        /* \"#utility.yul\":4500:4808   */\n    tag_54:\n        /* \"#utility.yul\":4562:4566   */\n      0x00\n        /* \"#utility.yul\":4652:4670   */\n      0xffffffffffffffff\n        /* \"#utility.yul\":4644:4650   */\n      dup3\n        /* \"#utility.yul\":4641:4671   */\n      gt\n        /* \"#utility.yul\":4638:4694   */\n      iszero\n      tag_125\n      jumpi\n        /* \"#utility.yul\":4674:4692   */\n      tag_126\n      tag_127\n      jump\t// in\n    tag_126:\n        /* \"#utility.yul\":4638:4694   */\n    tag_125:\n        /* \"#utility.yul\":4712:4741   */\n      tag_128\n        /* \"#utility.yul\":4734:4740   */\n      dup3\n        /* \"#utility.yul\":4712:4741   */\n      tag_100\n      jump\t// in\n    tag_128:\n        /* \"#utility.yul\":4704:4741   */\n      swap1\n      pop\n        /* \"#utility.yul\":4796:4800   */\n      0x20\n        /* \"#utility.yul\":4790:4794   */\n      dup2\n        /* \"#utility.yul\":4786:4801   */\n      add\n        /* \"#utility.yul\":4778:4801   */\n      swap1\n      pop\n        /* \"#utility.yul\":4500:4808   */\n      swap2\n      swap1\n      pop\n      jump\t// out\n        /* \"#utility.yul\":4814:4913   */\n    tag_94:\n        /* \"#utility.yul\":4866:4872   */\n      0x00\n        /* \"#utility.yul\":4900:4905   */\n      dup2\n        /* \"#utility.yul\":4894:4906   */\n      mload\n        /* \"#utility.yul\":4884:4906   */\n      swap1\n      pop\n        /* \"#utility.yul\":4814:4913   */\n      swap2\n      swap1\n      pop\n      jump\t// out\n        /* \"#utility.yul\":4919:5078   */\n    tag_96:\n        /* \"#utility.yul\":4993:5004   */\n      0x00\n        /* \"#utility.yul\":5027:5033   */\n      dup3\n        /* \"#utility.yul\":5022:5025   */\n      dup3\n        /* \"#utility.yul\":5015:5034   */\n      mstore\n        /* \"#utility.yul\":5067:5071   */\n      0x20\n        /* \"#utility.yul\":5062:5065   */\n      dup3\n        /* \"#utility.yul\":5058:5072   */\n      add\n        /* \"#utility.yul\":5043:5072   */\n      swap1\n      pop\n        /* \"#utility.yul\":4919:5078   */\n      swap3\n      swap2\n      pop\n      pop\n      jump\t// out\n        /* \"#utility.yul\":5084:5174   */\n    tag_86:\n        /* \"#utility.yul\":5118:5125   */\n      0x00\n        /* \"#utility.yul\":5161:5166   */\n      dup2\n        /* \"#utility.yul\":5154:5167   */\n      iszero\n        /* \"#utility.yul\":5147:5168   */\n      iszero\n        /* \"#utility.yul\":5136:5168   */\n      swap1\n      pop\n        /* \"#utility.yul\":5084:5174   */\n      swap2\n      swap1\n      pop\n      jump\t// out\n        /* \"#utility.yul\":5180:5311   */\n    tag_132:\n        /* \"#utility.yul\":5227:5234   */\n      0x00\n        /* \"#utility.yul\":5256:5261   */\n      dup2\n        /* \"#utility.yul\":5245:5261   */\n      swap1\n      pop\n        /* \"#utility.yul\":5262:5305   */\n      tag_134\n        /* \"#utility.yul\":5299:5304   */\n      dup3\n        /* \"#utility.yul\":5262:5305   */\n      tag_135\n      jump\t// in\n    tag_134:\n        /* \"#utility.yul\":5180:5311   */\n      swap2\n      swap1\n      pop\n      jump\t// out\n        /* \"#utility.yul\":5317:5394   */\n    tag_111:\n        /* \"#utility.yul\":5354:5361   */\n      0x00\n        /* \"#utility.yul\":5383:5388   */\n      dup2\n        /* \"#utility.yul\":5372:5388   */\n      swap1\n      pop\n        /* \"#utility.yul\":5317:5394   */\n      swap2\n      swap1\n      pop\n      jump\t// out\n        /* \"#utility.yul\":5400:5531   */\n    tag_90:\n        /* \"#utility.yul\":5458:5467   */\n      0x00\n        /* \"#utility.yul\":5491:5525   */\n      tag_138\n        /* \"#utility.yul\":5519:5524   */\n      dup3\n        /* \"#utility.yul\":5491:5525   */\n      tag_132\n      jump\t// in\n    tag_138:\n        /* \"#utility.yul\":5478:5525   */\n      swap1\n      pop\n        /* \"#utility.yul\":5400:5531   */\n      swap2\n      swap1\n      pop\n      jump\t// out\n        /* \"#utility.yul\":5537:5691   */\n    tag_60:\n        /* \"#utility.yul\":5621:5627   */\n      dup3\n        /* \"#utility.yul\":5616:5619   */\n      dup2\n        /* \"#utility.yul\":5611:5614   */\n      dup4\n        /* \"#utility.yul\":5598:5628   */\n      calldatacopy\n        /* \"#utility.yul\":5683:5684   */\n      0x00\n        /* \"#utility.yul\":5674:5680   */\n      dup4\n        /* \"#utility.yul\":5669:5672   */\n      dup4\n        /* \"#utility.yul\":5665:5681   */\n      add\n        /* \"#utility.yul\":5658:5685   */\n      mstore\n        /* \"#utility.yul\":5537:5691   */\n      pop\n      pop\n      pop\n      jump\t// out\n        /* \"#utility.yul\":5697:6004   */\n    tag_98:\n        /* \"#utility.yul\":5765:5766   */\n      0x00\n        /* \"#utility.yul\":5775:5888   */\n    tag_141:\n        /* \"#utility.yul\":5789:5795   */\n      dup4\n        /* \"#utility.yul\":5786:5787   */\n      dup2\n        /* \"#utility.yul\":5783:5796   */\n      lt\n        /* \"#utility.yul\":5775:5888   */\n      iszero\n      tag_143\n      jumpi\n        /* \"#utility.yul\":5874:5875   */\n      dup1\n        /* \"#utility.yul\":5869:5872   */\n      dup3\n        /* \"#utility.yul\":5865:5876   */\n      add\n        /* \"#utility.yul\":5859:5877   */\n      mload\n        /* \"#utility.yul\":5855:5856   */\n      dup2\n        /* \"#utility.yul\":5850:5853   */\n      dup5\n        /* \"#utility.yul\":5846:5857   */\n      add\n        /* \"#utility.yul\":5839:5878   */\n      mstore\n        /* \"#utility.yul\":5811:5813   */\n      0x20\n        /* \"#utility.yul\":5808:5809   */\n      dup2\n        /* \"#utility.yul\":5804:5814   */\n      add\n        /* \"#utility.yul\":5799:5814   */\n      swap1\n      pop\n        /* \"#utility.yul\":5775:5888   */\n      jump(tag_141)\n    tag_143:\n        /* \"#utility.yul\":5906:5912   */\n      dup4\n        /* \"#utility.yul\":5903:5904   */\n      dup2\n        /* \"#utility.yul\":5900:5913   */\n      gt\n        /* \"#utility.yul\":5897:5998   */\n      iszero\n      tag_144\n      jumpi\n        /* \"#utility.yul\":5986:5987   */\n      0x00\n        /* \"#utility.yul\":5977:5983   */\n      dup5\n        /* \"#utility.yul\":5972:5975   */\n      dup5\n        /* \"#utility.yul\":5968:5984   */\n      add\n        /* \"#utility.yul\":5961:5988   */\n      mstore\n        /* \"#utility.yul\":5897:5998   */\n    tag_144:\n        /* \"#utility.yul\":5746:6004   */\n      pop\n        /* \"#utility.yul\":5697:6004   */\n      pop\n      pop\n      pop\n      jump\t// out\n        /* \"#utility.yul\":6010:6330   */\n    tag_31:\n        /* \"#utility.yul\":6054:6060   */\n      0x00\n        /* \"#utility.yul\":6091:6092   */\n      0x02\n        /* \"#utility.yul\":6085:6089   */\n      dup3\n        /* \"#utility.yul\":6081:6093   */\n      div\n        /* \"#utility.yul\":6071:6093   */\n      swap1\n      pop\n        /* \"#utility.yul\":6138:6139   */\n      0x01\n        /* \"#utility.yul\":6132:6136   */\n      dup3\n        /* \"#utility.yul\":6128:6140   */\n      and\n        /* \"#utility.yul\":6159:6177   */\n      dup1\n        /* \"#utility.yul\":6149:6230   */\n      tag_146\n      jumpi\n        /* \"#utility.yul\":6215:6219   */\n      0x7f\n        /* \"#utility.yul\":6207:6213   */\n      dup3\n        /* \"#utility.yul\":6203:6220   */\n      and\n        /* \"#utility.yul\":6193:6220   */\n      swap2\n      pop\n        /* \"#utility.yul\":6149:6230   */\n    tag_146:\n        /* \"#utility.yul\":6277:6279   */\n      0x20\n        /* \"#utility.yul\":6269:6275   */\n      dup3\n        /* \"#utility.yul\":6266:6280   */\n      lt\n        /* \"#utility.yul\":6246:6264   */\n      dup2\n        /* \"#utility.yul\":6243:6281   */\n      eq\n        /* \"#utility.yul\":6240:6324   */\n      iszero\n      tag_147\n      jumpi\n        /* \"#utility.yul\":6296:6314   */\n      tag_148\n      tag_149\n      jump\t// in\n    tag_148:\n        /* \"#utility.yul\":6240:6324   */\n    tag_147:\n        /* \"#utility.yul\":6061:6330   */\n      pop\n        /* \"#utility.yul\":6010:6330   */\n      swap2\n      swap1\n      pop\n      jump\t// out\n        /* \"#utility.yul\":6336:6617   */\n    tag_122:\n        /* \"#utility.yul\":6419:6446   */\n      tag_151\n        /* \"#utility.yul\":6441:6445   */\n      dup3\n        /* \"#utility.yul\":6419:6446   */\n      tag_100\n      jump\t// in\n    tag_151:\n        /* \"#utility.yul\":6411:6417   */\n      dup2\n        /* \"#utility.yul\":6407:6447   */\n      add\n        /* \"#utility.yul\":6549:6555   */\n      dup2\n        /* \"#utility.yul\":6537:6547   */\n      dup2\n        /* \"#utility.yul\":6534:6556   */\n      lt\n        /* \"#utility.yul\":6513:6531   */\n      0xffffffffffffffff\n        /* \"#utility.yul\":6501:6511   */\n      dup3\n        /* \"#utility.yul\":6498:6532   */\n      gt\n        /* \"#utility.yul\":6495:6557   */\n      or\n        /* \"#utility.yul\":6492:6580   */\n      iszero\n      tag_152\n      jumpi\n        /* \"#utility.yul\":6560:6578   */\n      tag_153\n      tag_127\n      jump\t// in\n    tag_153:\n        /* \"#utility.yul\":6492:6580   */\n    tag_152:\n        /* \"#utility.yul\":6600:6610   */\n      dup1\n        /* \"#utility.yul\":6596:6598   */\n      0x40\n        /* \"#utility.yul\":6589:6611   */\n      mstore\n        /* \"#utility.yul\":6379:6617   */\n      pop\n        /* \"#utility.yul\":6336:6617   */\n      pop\n      pop\n      jump\t// out\n        /* \"#utility.yul\":6623:6856   */\n    tag_22:\n        /* \"#utility.yul\":6662:6665   */\n      0x00\n        /* \"#utility.yul\":6685:6709   */\n      tag_155\n        /* \"#utility.yul\":6703:6708   */\n      dup3\n        /* \"#utility.yul\":6685:6709   */\n      tag_111\n      jump\t// in\n    tag_155:\n        /* \"#utility.yul\":6676:6709   */\n      swap2\n      pop\n        /* \"#utility.yul\":6731:6797   */\n      0xffffffffffffffffffffffffffffffffffffffffffffffffffffffffffffffff\n        /* \"#utility.yul\":6724:6729   */\n      dup3\n        /* \"#utility.yul\":6721:6798   */\n      eq\n        /* \"#utility.yul\":6718:6821   */\n      iszero\n      tag_156\n      jumpi\n        /* \"#utility.yul\":6801:6819   */\n      tag_157\n      tag_158\n      jump\t// in\n    tag_157:\n        /* \"#utility.yul\":6718:6821   */\n    tag_156:\n        /* \"#utility.yul\":6848:6849   */\n      0x01\n        /* \"#utility.yul\":6841:6846   */\n      dup3\n        /* \"#utility.yul\":6837:6850   */\n      add\n        /* \"#utility.yul\":6830:6850   */\n      swap1\n      pop\n        /* \"#utility.yul\":6623:6856   */\n      swap2\n      swap1\n      pop\n      jump\t// out\n        /* \"#utility.yul\":6862:7042   */\n    tag_158:\n        /* \"#utility.yul\":6910:6987   */\n      0x4e487b7100000000000000000000000000000000000000000000000000000000\n        /* \"#utility.yul\":6907:6908   */\n      0x00\n        /* \"#utility.yul\":6900:6988   */\n      mstore\n        /* \"#utility.yul\":7007:7011   */\n      0x11\n        /* \"#utility.yul\":7004:7005   */\n      0x04\n        /* \"#utility.yul\":6997:7012   */\n      mstore\n        /* \"#utility.yul\":7031:7035   */\n      0x24\n        /* \"#utility.yul\":7028:7029   */\n      0x00\n        /* \"#utility.yul\":7021:7036   */\n      revert\n        /* \"#utility.yul\":7048:7228   */\n    tag_16:\n        /* \"#utility.yul\":7096:7173   */\n      0x4e487b7100000000000000000000000000000000000000000000000000000000\n        /* \"#utility.yul\":7093:7094   */\n      0x00\n        /* \"#utility.yul\":7086:7174   */\n      mstore\n        /* \"#utility.yul\":7193:7197   */\n      0x21\n        /* \"#utility.yul\":7190:7191   */\n      0x04\n        /* \"#utility.yul\":7183:7198   */\n      mstore\n        /* \"#utility.yul\":7217:7221   */\n      0x24\n        /* \"#utility.yul\":7214:7215   */\n      0x00\n        /* \"#utility.yul\":7207:7222   */\n      revert\n        /* \"#utility.yul\":7234:7414   */\n    tag_149:\n        /* \"#utility.yul\":7282:7359   */\n      0x4e487b7100000000000000000000000000000000000000000000000000000000\n        /* \"#utility.yul\":7279:7280   */\n      0x00\n        /* \"#utility.yul\":7272:7360   */\n      mstore\n        /* \"#utility.yul\":7379:7383   */\n      0x22\n        /* \"#utility.yul\":7376:7377   */\n      0x04\n        /* \"#utility.yul\":7369:7384   */\n      mstore\n        /* \"#utility.yul\":7403:7407   */\n      0x24\n        /* \"#utility.yul\":7400:7401   */\n      0x00\n        /* \"#utility.yul\":7393:7408   */\n      revert\n        /* \"#utility.yul\":7420:7600   */\n    tag_127:\n        /* \"#utility.yul\":7468:7545   */\n      0x4e487b7100000000000000000000000000000000000000000000000000000000\n        /* \"#utility.yul\":7465:7466   */\n      0x00\n        /* \"#utility.yul\":7458:7546   */\n      mstore\n        /* \"#utility.yul\":7565:7569   */\n      0x41\n        /* \"#utility.yul\":7562:7563   */\n      0x04\n        /* \"#utility.yul\":7555:7570   */\n      mstore\n        /* \"#utility.yul\":7589:7593   */\n      0x24\n        /* \"#utility.yul\":7586:7587   */\n      0x00\n        /* \"#utility.yul\":7579:7594   */\n      revert\n        /* \"#utility.yul\":7606:7723   */\n    tag_65:\n        /* \"#utility.yul\":7715:7716   */\n      0x00\n        /* \"#utility.yul\":7712:7713   */\n      dup1\n        /* \"#utility.yul\":7705:7717   */\n      revert\n        /* \"#utility.yul\":7729:7846   */\n    tag_58:\n        /* \"#utility.yul\":7838:7839   */\n      0x00\n        /* \"#utility.yul\":7835:7836   */\n      dup1\n        /* \"#utility.yul\":7828:7840   */\n      revert\n        /* \"#utility.yul\":7852:7969   */\n    tag_77:\n        /* \"#utility.yul\":7961:7962   */\n      0x00\n        /* \"#utility.yul\":7958:7959   */\n      dup1\n        /* \"#utility.yul\":7951:7963   */\n      revert\n        /* \"#utility.yul\":7975:8092   */\n    tag_74:\n        /* \"#utility.yul\":8084:8085   */\n      0x00\n        /* \"#utility.yul\":8081:8082   */\n      dup1\n        /* \"#utility.yul\":8074:8086   */\n      revert\n        /* \"#utility.yul\":8098:8200   */\n    tag_100:\n        /* \"#utility.yul\":8139:8145   */\n      0x00\n        /* \"#utility.yul\":8190:8192   */\n      0x1f\n        /* \"#utility.yul\":8186:8193   */\n      not\n        /* \"#utility.yul\":8181:8183   */\n      0x1f\n        /* \"#utility.yul\":8174:8179   */\n      dup4\n        /* \"#utility.yul\":8170:8184   */\n      add\n        /* \"#utility.yul\":8166:8194   */\n      and\n        /* \"#utility.yul\":8156:8194   */\n      swap1\n      pop\n        /* \"#utility.yul\":8098:8200   */\n      swap2\n      swap1\n      pop\n      jump\t// out\n        /* \"#utility.yul\":8206:8321   */\n    tag_135:\n        /* \"#utility.yul\":8289:8290   */\n      0x03\n        /* \"#utility.yul\":8282:8287   */\n      dup2\n        /* \"#utility.yul\":8279:8291   */\n      lt\n        /* \"#utility.yul\":8269:8315   */\n      tag_169\n      jumpi\n        /* \"#utility.yul\":8295:8313   */\n      tag_170\n      tag_16\n      jump\t// in\n    tag_170:\n        /* \"#utility.yul\":8269:8315   */\n    tag_169:\n        /* \"#utility.yul\":8206:8321   */\n      pop\n      jump\t// out\n        /* \"#utility.yul\":8327:8449   */\n    tag_70:\n        /* \"#utility.yul\":8400:8424   */\n      tag_172\n        /* \"#utility.yul\":8418:8423   */\n      dup2\n        /* \"#utility.yul\":8400:8424   */\n      tag_111\n      jump\t// in\n    tag_172:\n        /* \"#utility.yul\":8393:8398   */\n      dup2\n        /* \"#utility.yul\":8390:8425   */\n      eq\n        /* \"#utility.yul\":8380:8443   */\n      tag_173\n      jumpi\n        /* \"#utility.yul\":8439:8440   */\n      0x00\n        /* \"#utility.yul\":8436:8437   */\n      dup1\n        /* \"#utility.yul\":8429:8441   */\n      revert\n        /* \"#utility.yul\":8380:8443   */\n    tag_173:\n        /* \"#utility.yul\":8327:8449   */\n      pop\n      jump\t// out\n\n    auxdata: 0xa2646970667358221220271ba811e5199f33cae50bbac0cbecc0279117ff2428d7ce7797f68205ae9ec864736f6c63430008070033\n}\n",
				"bytecode": {
					"linkReferences": {},
					"object": "608060405234801561001057600080fd5b50336000806101000a81548173ffffffffffffffffffffffffffffffffffffffff021916908373ffffffffffffffffffffffffffffffffffffffff1602179055506000600181905550610906806100686000396000f3fe608060405234801561001057600080fd5b50600436106100365760003560e01c8063672385621461003b578063e1e2955814610057575b600080fd5b61005560048036038101906100509190610498565b610073565b005b610071600480360381019061006c91906104e1565b6101a5565b005b60006040518060a0016040528060015481526020016000600281111561009c5761009b6107f3565b5b8152602001838152602001428152602001600015158152509050806002600060015481526020019081526020016000206000820151816000015560208201518160010160006101000a81548160ff02191690836002811115610101576101006107f3565b5b02179055506040820151816002019080519060200190610122929190610370565b506060820151816003015560808201518160040160006101000a81548160ff021916908315150217905550905050600160008154809291906101639061077b565b91905055507f615eb1193ab28532b0958952317b9eefb36e49e4a65bc640cf28f2ec9a93177181426040516101999291906105f9565b60405180910390a15050565b6000600260008381526020019081526020016000206040518060a0016040529081600082015481526020016001820160009054906101000a900460ff1660028111156101f4576101f36107f3565b5b6002811115610206576102056107f3565b5b815260200160028201805461021a90610718565b80601f016020809104026020016040519081016040528092919081815260200182805461024690610718565b80156102935780601f1061026857610100808354040283529160200191610293565b820191906000526020600020905b81548152906001019060200180831161027657829003601f168201915b50505050508152602001600382015481526020016004820160009054906101000a900460ff1615151515815250509050600181608001901515908115158152505080600260008481526020019081526020016000206000820151816000015560208201518160010160006101000a81548160ff0219169083600281111561031d5761031c6107f3565b5b0217905550604082015181600201908051906020019061033e929190610370565b506060820151816003015560808201518160040160006101000a81548160ff0219169083151502179055509050505050565b82805461037c90610718565b90600052602060002090601f01602090048101928261039e57600085556103e5565b82601f106103b757805160ff19168380011785556103e5565b828001600101855582156103e5579182015b828111156103e45782518255916020019190600101906103c9565b5b5090506103f291906103f6565b5090565b5b8082111561040f5760008160009055506001016103f7565b5090565b60006104266104218461064e565b610629565b90508281526020810184848401111561044257610441610885565b5b61044d8482856106d6565b509392505050565b600082601f83011261046a57610469610880565b5b813561047a848260208601610413565b91505092915050565b600081359050610492816108b9565b92915050565b6000602082840312156104ae576104ad61088f565b5b600082013567ffffffffffffffff8111156104cc576104cb61088a565b5b6104d884828501610455565b91505092915050565b6000602082840312156104f7576104f661088f565b5b600061050584828501610483565b91505092915050565b6105178161069b565b82525050565b610526816106c4565b82525050565b60006105378261067f565b610541818561068a565b93506105518185602086016106e5565b61055a81610894565b840191505092915050565b600060a08301600083015161057d60008601826105db565b506020830151610590602086018261051d565b50604083015184820360408601526105a8828261052c565b91505060608301516105bd60608601826105db565b5060808301516105d0608086018261050e565b508091505092915050565b6105e4816106ba565b82525050565b6105f3816106ba565b82525050565b600060408201905081810360008301526106138185610565565b905061062260208301846105ea565b9392505050565b6000610633610644565b905061063f828261074a565b919050565b6000604051905090565b600067ffffffffffffffff82111561066957610668610851565b5b61067282610894565b9050602081019050919050565b600081519050919050565b600082825260208201905092915050565b60008115159050919050565b60008190506106b5826108a5565b919050565b6000819050919050565b60006106cf826106a7565b9050919050565b82818337600083830152505050565b60005b838110156107035780820151818401526020810190506106e8565b83811115610712576000848401525b50505050565b6000600282049050600182168061073057607f821691505b6020821081141561074457610743610822565b5b50919050565b61075382610894565b810181811067ffffffffffffffff8211171561077257610771610851565b5b80604052505050565b6000610786826106ba565b91507fffffffffffffffffffffffffffffffffffffffffffffffffffffffffffffffff8214156107b9576107b86107c4565b5b600182019050919050565b7f4e487b7100000000000000000000000000000000000000000000000000000000600052601160045260246000fd5b7f4e487b7100000000000000000000000000000000000000000000000000000000600052602160045260246000fd5b7f4e487b7100000000000000000000000000000000000000000000000000000000600052602260045260246000fd5b7f4e487b7100000000000000000000000000000000000000000000000000000000600052604160045260246000fd5b600080fd5b600080fd5b600080fd5b600080fd5b6000601f19601f8301169050919050565b600381106108b6576108b56107f3565b5b50565b6108c2816106ba565b81146108cd57600080fd5b5056fea2646970667358221220271ba811e5199f33cae50bbac0cbecc0279117ff2428d7ce7797f68205ae9ec864736f6c63430008070033",
					"opcodes": "PUSH1 0x80 PUSH1 0x40 MSTORE CALLVALUE DUP1 ISZERO PUSH2 0x10 JUMPI PUSH1 0x0 DUP1 REVERT JUMPDEST POP CALLER PUSH1 0x0 DUP1 PUSH2 0x100 EXP DUP2 SLOAD DUP2 PUSH20 0xFFFFFFFFFFFFFFFFFFFFFFFFFFFFFFFFFFFFFFFF MUL NOT AND SWAP1 DUP4 PUSH20 0xFFFFFFFFFFFFFFFFFFFFFFFFFFFFFFFFFFFFFFFF AND MUL OR SWAP1 SSTORE POP PUSH1 0x0 PUSH1 0x1 DUP2 SWAP1 SSTORE POP PUSH2 0x906 DUP1 PUSH2 0x68 PUSH1 0x0 CODECOPY PUSH1 0x0 RETURN INVALID PUSH1 0x80 PUSH1 0x40 MSTORE CALLVALUE DUP1 ISZERO PUSH2 0x10 JUMPI PUSH1 0x0 DUP1 REVERT JUMPDEST POP PUSH1 0x4 CALLDATASIZE LT PUSH2 0x36 JUMPI PUSH1 0x0 CALLDATALOAD PUSH1 0xE0 SHR DUP1 PUSH4 0x67238562 EQ PUSH2 0x3B JUMPI DUP1 PUSH4 0xE1E29558 EQ PUSH2 0x57 JUMPI JUMPDEST PUSH1 0x0 DUP1 REVERT JUMPDEST PUSH2 0x55 PUSH1 0x4 DUP1 CALLDATASIZE SUB DUP2 ADD SWAP1 PUSH2 0x50 SWAP2 SWAP1 PUSH2 0x498 JUMP JUMPDEST PUSH2 0x73 JUMP JUMPDEST STOP JUMPDEST PUSH2 0x71 PUSH1 0x4 DUP1 CALLDATASIZE SUB DUP2 ADD SWAP1 PUSH2 0x6C SWAP2 SWAP1 PUSH2 0x4E1 JUMP JUMPDEST PUSH2 0x1A5 JUMP JUMPDEST STOP JUMPDEST PUSH1 0x0 PUSH1 0x40 MLOAD DUP1 PUSH1 0xA0 ADD PUSH1 0x40 MSTORE DUP1 PUSH1 0x1 SLOAD DUP2 MSTORE PUSH1 0x20 ADD PUSH1 0x0 PUSH1 0x2 DUP2 GT ISZERO PUSH2 0x9C JUMPI PUSH2 0x9B PUSH2 0x7F3 JUMP JUMPDEST JUMPDEST DUP2 MSTORE PUSH1 0x20 ADD DUP4 DUP2 MSTORE PUSH1 0x20 ADD TIMESTAMP DUP2 MSTORE PUSH1 0x20 ADD PUSH1 0x0 ISZERO ISZERO DUP2 MSTORE POP SWAP1 POP DUP1 PUSH1 0x2 PUSH1 0x0 PUSH1 0x1 SLOAD DUP2 MSTORE PUSH1 0x20 ADD SWAP1 DUP2 MSTORE PUSH1 0x20 ADD PUSH1 0x0 KECCAK256 PUSH1 0x0 DUP3 ADD MLOAD DUP2 PUSH1 0x0 ADD SSTORE PUSH1 0x20 DUP3 ADD MLOAD DUP2 PUSH1 0x1 ADD PUSH1 0x0 PUSH2 0x100 EXP DUP2 SLOAD DUP2 PUSH1 0xFF MUL NOT AND SWAP1 DUP4 PUSH1 0x2 DUP2 GT ISZERO PUSH2 0x101 JUMPI PUSH2 0x100 PUSH2 0x7F3 JUMP JUMPDEST JUMPDEST MUL OR SWAP1 SSTORE POP PUSH1 0x40 DUP3 ADD MLOAD DUP2 PUSH1 0x2 ADD SWAP1 DUP1 MLOAD SWAP1 PUSH1 0x20 ADD SWAP1 PUSH2 0x122 SWAP3 SWAP2 SWAP1 PUSH2 0x370 JUMP JUMPDEST POP PUSH1 0x60 DUP3 ADD MLOAD DUP2 PUSH1 0x3 ADD SSTORE PUSH1 0x80 DUP3 ADD MLOAD DUP2 PUSH1 0x4 ADD PUSH1 0x0 PUSH2 0x100 EXP DUP2 SLOAD DUP2 PUSH1 0xFF MUL NOT AND SWAP1 DUP4 ISZERO ISZERO MUL OR SWAP1 SSTORE POP SWAP1 POP POP PUSH1 0x1 PUSH1 0x0 DUP2 SLOAD DUP1 SWAP3 SWAP2 SWAP1 PUSH2 0x163 SWAP1 PUSH2 0x77B JUMP JUMPDEST SWAP2 SWAP1 POP SSTORE POP PUSH32 0x615EB1193AB28532B0958952317B9EEFB36E49E4A65BC640CF28F2EC9A931771 DUP2 TIMESTAMP PUSH1 0x40 MLOAD PUSH2 0x199 SWAP3 SWAP2 SWAP1 PUSH2 0x5F9 JUMP JUMPDEST PUSH1 0x40 MLOAD DUP1 SWAP2 SUB SWAP1 LOG1 POP POP JUMP JUMPDEST PUSH1 0x0 PUSH1 0x2 PUSH1 0x0 DUP4 DUP2 MSTORE PUSH1 0x20 ADD SWAP1 DUP2 MSTORE PUSH1 0x20 ADD PUSH1 0x0 KECCAK256 PUSH1 0x40 MLOAD DUP1 PUSH1 0xA0 ADD PUSH1 0x40 MSTORE SWAP1 DUP2 PUSH1 0x0 DUP3 ADD SLOAD DUP2 MSTORE PUSH1 0x20 ADD PUSH1 0x1 DUP3 ADD PUSH1 0x0 SWAP1 SLOAD SWAP1 PUSH2 0x100 EXP SWAP1 DIV PUSH1 0xFF AND PUSH1 0x2 DUP2 GT ISZERO PUSH2 0x1F4 JUMPI PUSH2 0x1F3 PUSH2 0x7F3 JUMP JUMPDEST JUMPDEST PUSH1 0x2 DUP2 GT ISZERO PUSH2 0x206 JUMPI PUSH2 0x205 PUSH2 0x7F3 JUMP JUMPDEST JUMPDEST DUP2 MSTORE PUSH1 0x20 ADD PUSH1 0x2 DUP3 ADD DUP1 SLOAD PUSH2 0x21A SWAP1 PUSH2 0x718 JUMP JUMPDEST DUP1 PUSH1 0x1F ADD PUSH1 0x20 DUP1 SWAP2 DIV MUL PUSH1 0x20 ADD PUSH1 0x40 MLOAD SWAP1 DUP2 ADD PUSH1 0x40 MSTORE DUP1 SWAP3 SWAP2 SWAP1 DUP2 DUP2 MSTORE PUSH1 0x20 ADD DUP3 DUP1 SLOAD PUSH2 0x246 SWAP1 PUSH2 0x718 JUMP JUMPDEST DUP1 ISZERO PUSH2 0x293 JUMPI DUP1 PUSH1 0x1F LT PUSH2 0x268 JUMPI PUSH2 0x100 DUP1 DUP4 SLOAD DIV MUL DUP4 MSTORE SWAP2 PUSH1 0x20 ADD SWAP2 PUSH2 0x293 JUMP JUMPDEST DUP3 ADD SWAP2 SWAP1 PUSH1 0x0 MSTORE PUSH1 0x20 PUSH1 0x0 KECCAK256 SWAP1 JUMPDEST DUP2 SLOAD DUP2 MSTORE SWAP1 PUSH1 0x1 ADD SWAP1 PUSH1 0x20 ADD DUP1 DUP4 GT PUSH2 0x276 JUMPI DUP3 SWAP1 SUB PUSH1 0x1F AND DUP3 ADD SWAP2 JUMPDEST POP POP POP POP POP DUP2 MSTORE PUSH1 0x20 ADD PUSH1 0x3 DUP3 ADD SLOAD DUP2 MSTORE PUSH1 0x20 ADD PUSH1 0x4 DUP3 ADD PUSH1 0x0 SWAP1 SLOAD SWAP1 PUSH2 0x100 EXP SWAP1 DIV PUSH1 0xFF AND ISZERO ISZERO ISZERO ISZERO DUP2 MSTORE POP POP SWAP1 POP PUSH1 0x1 DUP2 PUSH1 0x80 ADD SWAP1 ISZERO ISZERO SWAP1 DUP2 ISZERO ISZERO DUP2 MSTORE POP POP DUP1 PUSH1 0x2 PUSH1 0x0 DUP5 DUP2 MSTORE PUSH1 0x20 ADD SWAP1 DUP2 MSTORE PUSH1 0x20 ADD PUSH1 0x0 KECCAK256 PUSH1 0x0 DUP3 ADD MLOAD DUP2 PUSH1 0x0 ADD SSTORE PUSH1 0x20 DUP3 ADD MLOAD DUP2 PUSH1 0x1 ADD PUSH1 0x0 PUSH2 0x100 EXP DUP2 SLOAD DUP2 PUSH1 0xFF MUL NOT AND SWAP1 DUP4 PUSH1 0x2 DUP2 GT ISZERO PUSH2 0x31D JUMPI PUSH2 0x31C PUSH2 0x7F3 JUMP JUMPDEST JUMPDEST MUL OR SWAP1 SSTORE POP PUSH1 0x40 DUP3 ADD MLOAD DUP2 PUSH1 0x2 ADD SWAP1 DUP1 MLOAD SWAP1 PUSH1 0x20 ADD SWAP1 PUSH2 0x33E SWAP3 SWAP2 SWAP1 PUSH2 0x370 JUMP JUMPDEST POP PUSH1 0x60 DUP3 ADD MLOAD DUP2 PUSH1 0x3 ADD SSTORE PUSH1 0x80 DUP3 ADD MLOAD DUP2 PUSH1 0x4 ADD PUSH1 0x0 PUSH2 0x100 EXP DUP2 SLOAD DUP2 PUSH1 0xFF MUL NOT AND SWAP1 DUP4 ISZERO ISZERO MUL OR SWAP1 SSTORE POP SWAP1 POP POP POP POP JUMP JUMPDEST DUP3 DUP1 SLOAD PUSH2 0x37C SWAP1 PUSH2 0x718 JUMP JUMPDEST SWAP1 PUSH1 0x0 MSTORE PUSH1 0x20 PUSH1 0x0 KECCAK256 SWAP1 PUSH1 0x1F ADD PUSH1 0x20 SWAP1 DIV DUP2 ADD SWAP3 DUP3 PUSH2 0x39E JUMPI PUSH1 0x0 DUP6 SSTORE PUSH2 0x3E5 JUMP JUMPDEST DUP3 PUSH1 0x1F LT PUSH2 0x3B7 JUMPI DUP1 MLOAD PUSH1 0xFF NOT AND DUP4 DUP1 ADD OR DUP6 SSTORE PUSH2 0x3E5 JUMP JUMPDEST DUP3 DUP1 ADD PUSH1 0x1 ADD DUP6 SSTORE DUP3 ISZERO PUSH2 0x3E5 JUMPI SWAP2 DUP3 ADD JUMPDEST DUP3 DUP2 GT ISZERO PUSH2 0x3E4 JUMPI DUP3 MLOAD DUP3 SSTORE SWAP2 PUSH1 0x20 ADD SWAP2 SWAP1 PUSH1 0x1 ADD SWAP1 PUSH2 0x3C9 JUMP JUMPDEST JUMPDEST POP SWAP1 POP PUSH2 0x3F2 SWAP2 SWAP1 PUSH2 0x3F6 JUMP JUMPDEST POP SWAP1 JUMP JUMPDEST JUMPDEST DUP1 DUP3 GT ISZERO PUSH2 0x40F JUMPI PUSH1 0x0 DUP2 PUSH1 0x0 SWAP1 SSTORE POP PUSH1 0x1 ADD PUSH2 0x3F7 JUMP JUMPDEST POP SWAP1 JUMP JUMPDEST PUSH1 0x0 PUSH2 0x426 PUSH2 0x421 DUP5 PUSH2 0x64E JUMP JUMPDEST PUSH2 0x629 JUMP JUMPDEST SWAP1 POP DUP3 DUP2 MSTORE PUSH1 0x20 DUP2 ADD DUP5 DUP5 DUP5 ADD GT ISZERO PUSH2 0x442 JUMPI PUSH2 0x441 PUSH2 0x885 JUMP JUMPDEST JUMPDEST PUSH2 0x44D DUP5 DUP3 DUP6 PUSH2 0x6D6 JUMP JUMPDEST POP SWAP4 SWAP3 POP POP POP JUMP JUMPDEST PUSH1 0x0 DUP3 PUSH1 0x1F DUP4 ADD SLT PUSH2 0x46A JUMPI PUSH2 0x469 PUSH2 0x880 JUMP JUMPDEST JUMPDEST DUP2 CALLDATALOAD PUSH2 0x47A DUP5 DUP3 PUSH1 0x20 DUP7 ADD PUSH2 0x413 JUMP JUMPDEST SWAP2 POP POP SWAP3 SWAP2 POP POP JUMP JUMPDEST PUSH1 0x0 DUP2 CALLDATALOAD SWAP1 POP PUSH2 0x492 DUP2 PUSH2 0x8B9 JUMP JUMPDEST SWAP3 SWAP2 POP POP JUMP JUMPDEST PUSH1 0x0 PUSH1 0x20 DUP3 DUP5 SUB SLT ISZERO PUSH2 0x4AE JUMPI PUSH2 0x4AD PUSH2 0x88F JUMP JUMPDEST JUMPDEST PUSH1 0x0 DUP3 ADD CALLDATALOAD PUSH8 0xFFFFFFFFFFFFFFFF DUP2 GT ISZERO PUSH2 0x4CC JUMPI PUSH2 0x4CB PUSH2 0x88A JUMP JUMPDEST JUMPDEST PUSH2 0x4D8 DUP5 DUP3 DUP6 ADD PUSH2 0x455 JUMP JUMPDEST SWAP2 POP POP SWAP3 SWAP2 POP POP JUMP JUMPDEST PUSH1 0x0 PUSH1 0x20 DUP3 DUP5 SUB SLT ISZERO PUSH2 0x4F7 JUMPI PUSH2 0x4F6 PUSH2 0x88F JUMP JUMPDEST JUMPDEST PUSH1 0x0 PUSH2 0x505 DUP5 DUP3 DUP6 ADD PUSH2 0x483 JUMP JUMPDEST SWAP2 POP POP SWAP3 SWAP2 POP POP JUMP JUMPDEST PUSH2 0x517 DUP2 PUSH2 0x69B JUMP JUMPDEST DUP3 MSTORE POP POP JUMP JUMPDEST PUSH2 0x526 DUP2 PUSH2 0x6C4 JUMP JUMPDEST DUP3 MSTORE POP POP JUMP JUMPDEST PUSH1 0x0 PUSH2 0x537 DUP3 PUSH2 0x67F JUMP JUMPDEST PUSH2 0x541 DUP2 DUP6 PUSH2 0x68A JUMP JUMPDEST SWAP4 POP PUSH2 0x551 DUP2 DUP6 PUSH1 0x20 DUP7 ADD PUSH2 0x6E5 JUMP JUMPDEST PUSH2 0x55A DUP2 PUSH2 0x894 JUMP JUMPDEST DUP5 ADD SWAP2 POP POP SWAP3 SWAP2 POP POP JUMP JUMPDEST PUSH1 0x0 PUSH1 0xA0 DUP4 ADD PUSH1 0x0 DUP4 ADD MLOAD PUSH2 0x57D PUSH1 0x0 DUP7 ADD DUP3 PUSH2 0x5DB JUMP JUMPDEST POP PUSH1 0x20 DUP4 ADD MLOAD PUSH2 0x590 PUSH1 0x20 DUP7 ADD DUP3 PUSH2 0x51D JUMP JUMPDEST POP PUSH1 0x40 DUP4 ADD MLOAD DUP5 DUP3 SUB PUSH1 0x40 DUP7 ADD MSTORE PUSH2 0x5A8 DUP3 DUP3 PUSH2 0x52C JUMP JUMPDEST SWAP2 POP POP PUSH1 0x60 DUP4 ADD MLOAD PUSH2 0x5BD PUSH1 0x60 DUP7 ADD DUP3 PUSH2 0x5DB JUMP JUMPDEST POP PUSH1 0x80 DUP4 ADD MLOAD PUSH2 0x5D0 PUSH1 0x80 DUP7 ADD DUP3 PUSH2 0x50E JUMP JUMPDEST POP DUP1 SWAP2 POP POP SWAP3 SWAP2 POP POP JUMP JUMPDEST PUSH2 0x5E4 DUP2 PUSH2 0x6BA JUMP JUMPDEST DUP3 MSTORE POP POP JUMP JUMPDEST PUSH2 0x5F3 DUP2 PUSH2 0x6BA JUMP JUMPDEST DUP3 MSTORE POP POP JUMP JUMPDEST PUSH1 0x0 PUSH1 0x40 DUP3 ADD SWAP1 POP DUP2 DUP2 SUB PUSH1 0x0 DUP4 ADD MSTORE PUSH2 0x613 DUP2 DUP6 PUSH2 0x565 JUMP JUMPDEST SWAP1 POP PUSH2 0x622 PUSH1 0x20 DUP4 ADD DUP5 PUSH2 0x5EA JUMP JUMPDEST SWAP4 SWAP3 POP POP POP JUMP JUMPDEST PUSH1 0x0 PUSH2 0x633 PUSH2 0x644 JUMP JUMPDEST SWAP1 POP PUSH2 0x63F DUP3 DUP3 PUSH2 0x74A JUMP JUMPDEST SWAP2 SWAP1 POP JUMP JUMPDEST PUSH1 0x0 PUSH1 0x40 MLOAD SWAP1 POP SWAP1 JUMP JUMPDEST PUSH1 0x0 PUSH8 0xFFFFFFFFFFFFFFFF DUP3 GT ISZERO PUSH2 0x669 JUMPI PUSH2 0x668 PUSH2 0x851 JUMP JUMPDEST JUMPDEST PUSH2 0x672 DUP3 PUSH2 0x894 JUMP JUMPDEST SWAP1 POP PUSH1 0x20 DUP2 ADD SWAP1 POP SWAP2 SWAP1 POP JUMP JUMPDEST PUSH1 0x0 DUP2 MLOAD SWAP1 POP SWAP2 SWAP1 POP JUMP JUMPDEST PUSH1 0x0 DUP3 DUP3 MSTORE PUSH1 0x20 DUP3 ADD SWAP1 POP SWAP3 SWAP2 POP POP JUMP JUMPDEST PUSH1 0x0 DUP2 ISZERO ISZERO SWAP1 POP SWAP2 SWAP1 POP JUMP JUMPDEST PUSH1 0x0 DUP2 SWAP1 POP PUSH2 0x6B5 DUP3 PUSH2 0x8A5 JUMP JUMPDEST SWAP2 SWAP1 POP JUMP JUMPDEST PUSH1 0x0 DUP2 SWAP1 POP SWAP2 SWAP1 POP JUMP JUMPDEST PUSH1 0x0 PUSH2 0x6CF DUP3 PUSH2 0x6A7 JUMP JUMPDEST SWAP1 POP SWAP2 SWAP1 POP JUMP JUMPDEST DUP3 DUP2 DUP4 CALLDATACOPY PUSH1 0x0 DUP4 DUP4 ADD MSTORE POP POP POP JUMP JUMPDEST PUSH1 0x0 JUMPDEST DUP4 DUP2 LT ISZERO PUSH2 0x703 JUMPI DUP1 DUP3 ADD MLOAD DUP2 DUP5 ADD MSTORE PUSH1 0x20 DUP2 ADD SWAP1 POP PUSH2 0x6E8 JUMP JUMPDEST DUP4 DUP2 GT ISZERO PUSH2 0x712 JUMPI PUSH1 0x0 DUP5 DUP5 ADD MSTORE JUMPDEST POP POP POP POP JUMP JUMPDEST PUSH1 0x0 PUSH1 0x2 DUP3 DIV SWAP1 POP PUSH1 0x1 DUP3 AND DUP1 PUSH2 0x730 JUMPI PUSH1 0x7F DUP3 AND SWAP2 POP JUMPDEST PUSH1 0x20 DUP3 LT DUP2 EQ ISZERO PUSH2 0x744 JUMPI PUSH2 0x743 PUSH2 0x822 JUMP JUMPDEST JUMPDEST POP SWAP2 SWAP1 POP JUMP JUMPDEST PUSH2 0x753 DUP3 PUSH2 0x894 JUMP JUMPDEST DUP2 ADD DUP2 DUP2 LT PUSH8 0xFFFFFFFFFFFFFFFF DUP3 GT OR ISZERO PUSH2 0x772 JUMPI PUSH2 0x771 PUSH2 0x851 JUMP JUMPDEST JUMPDEST DUP1 PUSH1 0x40 MSTORE POP POP POP JUMP JUMPDEST PUSH1 0x0 PUSH2 0x786 DUP3 PUSH2 0x6BA JUMP JUMPDEST SWAP2 POP PUSH32 0xFFFFFFFFFFFFFFFFFFFFFFFFFFFFFFFFFFFFFFFFFFFFFFFFFFFFFFFFFFFFFFFF DUP3 EQ ISZERO PUSH2 0x7B9 JUMPI PUSH2 0x7B8 PUSH2 0x7C4 JUMP JUMPDEST JUMPDEST PUSH1 0x1 DUP3 ADD SWAP1 POP SWAP2 SWAP1 POP JUMP JUMPDEST PUSH32 0x4E487B7100000000000000000000000000000000000000000000000000000000 PUSH1 0x0 MSTORE PUSH1 0x11 PUSH1 0x4 MSTORE PUSH1 0x24 PUSH1 0x0 REVERT JUMPDEST PUSH32 0x4E487B7100000000000000000000000000000000000000000000000000000000 PUSH1 0x0 MSTORE PUSH1 0x21 PUSH1 0x4 MSTORE PUSH1 0x24 PUSH1 0x0 REVERT JUMPDEST PUSH32 0x4E487B7100000000000000000000000000000000000000000000000000000000 PUSH1 0x0 MSTORE PUSH1 0x22 PUSH1 0x4 MSTORE PUSH1 0x24 PUSH1 0x0 REVERT JUMPDEST PUSH32 0x4E487B7100000000000000000000000000000000000000000000000000000000 PUSH1 0x0 MSTORE PUSH1 0x41 PUSH1 0x4 MSTORE PUSH1 0x24 PUSH1 0x0 REVERT JUMPDEST PUSH1 0x0 DUP1 REVERT JUMPDEST PUSH1 0x0 DUP1 REVERT JUMPDEST PUSH1 0x0 DUP1 REVERT JUMPDEST PUSH1 0x0 DUP1 REVERT JUMPDEST PUSH1 0x0 PUSH1 0x1F NOT PUSH1 0x1F DUP4 ADD AND SWAP1 POP SWAP2 SWAP1 POP JUMP JUMPDEST PUSH1 0x3 DUP2 LT PUSH2 0x8B6 JUMPI PUSH2 0x8B5 PUSH2 0x7F3 JUMP JUMPDEST JUMPDEST POP JUMP JUMPDEST PUSH2 0x8C2 DUP2 PUSH2 0x6BA JUMP JUMPDEST DUP2 EQ PUSH2 0x8CD JUMPI PUSH1 0x0 DUP1 REVERT JUMPDEST POP JUMP INVALID LOG2 PUSH5 0x6970667358 0x22 SLT KECCAK256 0x27 SHL 0xA8 GT 0xE5 NOT SWAP16 CALLER 0xCA 0xE5 SIGNEXTEND 0xBA 0xC0 0xCB 0xEC 0xC0 0x27 SWAP2 OR SELFDESTRUCT 0x24 0x28 0xD7 0xCE PUSH24 0x97F68205AE9EC864736F6C63430008070033000000000000 "
				},
				"gasEstimates": {
					"creation": {
						"codeDepositCost": "462000",
						"executionCost": "29779",
						"totalCost": "491779"
					},
					"external": {
						"addTask(string)": "infinite",
						"completeTask(uint256)": "infinite"
					}
				},
				"methodIdentifiers": {
					"addTask(string)": "67238562",
					"completeTask(uint256)": "e1e29558"
				}
			},
			"storageLayout": {
				"storage": [
					{
						"astId": 19,
						"contract": "contracts/TaskManager.sol:TaskManager",
						"label": "admin",
						"offset": 0,
						"slot": "0",
						"type": "t_address"
					},
					{
						"astId": 21,
						"contract": "contracts/TaskManager.sol:TaskManager",
						"label": "count",
						"offset": 0,
						"slot": "1",
						"type": "t_uint256"
					},
					{
						"astId": 26,
						"contract": "contracts/TaskManager.sol:TaskManager",
						"label": "tasks",
						"offset": 0,
						"slot": "2",
						"type": "t_mapping(t_uint256,t_struct(Task)17_storage)"
					},
					{
						"astId": 30,
						"contract": "contracts/TaskManager.sol:TaskManager",
						"label": "premiums",
						"offset": 0,
						"slot": "3",
						"type": "t_mapping(t_address,t_bool)"
					}
				],
				"types": {
					"t_address": {
						"encoding": "inplace",
						"label": "address",
						"numberOfBytes": "20"
					},
					"t_bool": {
						"encoding": "inplace",
						"label": "bool",
						"numberOfBytes": "1"
					},
					"t_enum(Priority)5": {
						"encoding": "inplace",
						"label": "enum TaskManager.Priority",
						"numberOfBytes": "1"
					},
					"t_mapping(t_address,t_bool)": {
						"encoding": "mapping",
						"key": "t_address",
						"label": "mapping(address => bool)",
						"numberOfBytes": "32",
						"value": "t_bool"
					},
					"t_mapping(t_uint256,t_struct(Task)17_storage)": {
						"encoding": "mapping",
						"key": "t_uint256",
						"label": "mapping(uint256 => struct TaskManager.Task)",
						"numberOfBytes": "32",
						"value": "t_struct(Task)17_storage"
					},
					"t_string_storage": {
						"encoding": "bytes",
						"label": "string",
						"numberOfBytes": "32"
					},
					"t_struct(Task)17_storage": {
						"encoding": "inplace",
						"label": "struct TaskManager.Task",
						"members": [
							{
								"astId": 7,
								"contract": "contracts/TaskManager.sol:TaskManager",
								"label": "id",
								"offset": 0,
								"slot": "0",
								"type": "t_uint256"
							},
							{
								"astId": 10,
								"contract": "contracts/TaskManager.sol:TaskManager",
								"label": "priority",
								"offset": 0,
								"slot": "1",
								"type": "t_enum(Priority)5"
							},
							{
								"astId": 12,
								"contract": "contracts/TaskManager.sol:TaskManager",
								"label": "content",
								"offset": 0,
								"slot": "2",
								"type": "t_string_storage"
							},
							{
								"astId": 14,
								"contract": "contracts/TaskManager.sol:TaskManager",
								"label": "timestamp",
								"offset": 0,
								"slot": "3",
								"type": "t_uint256"
							},
							{
								"astId": 16,
								"contract": "contracts/TaskManager.sol:TaskManager",
								"label": "completed",
								"offset": 0,
								"slot": "4",
								"type": "t_bool"
							}
						],
						"numberOfBytes": "160"
					},
					"t_uint256": {
						"encoding": "inplace",
						"label": "uint256",
						"numberOfBytes": "32"
					}
				}
			},
			"userdoc": {
				"kind": "user",
				"methods": {},
				"version": 1
			}
		}
	}
}