{
	"data": {
		"bytecode": {
			"linkReferences": {},
			"object": "608060405234801561001057600080fd5b50610347806100206000396000f3fe608060405234801561001057600080fd5b50600436106100575760003560e01c806360fe47b11461005c5780636d4ce63c146100785780638381f58a14610096578063a3d2b1bc146100b4578063cad0899b146100d2575b600080fd5b61007660048036038101906100719190610175565b610102565b005b61008061010e565b60405161008d91906101f1565b60405180910390f35b61009e610117565b6040516100ab91906101f1565b60405180910390f35b6100bc61011d565b6040516100c991906101f1565b60405180910390f35b6100ec60048036038101906100e791906101a2565b610133565b6040516100f991906101f1565b60405180910390f35b61010b81610149565b50565b60008054905090565b60005481565b6000805460005461012e9190610262565b905090565b60008183610141919061020c565b905092915050565b80600054610157919061020c565b60008190555050565b60008135905061016f816102fa565b92915050565b60006020828403121561018b5761018a6102f5565b5b600061019984828501610160565b91505092915050565b600080604083850312156101b9576101b86102f5565b5b60006101c785828601610160565b92505060206101d885828601610160565b9150509250929050565b6101eb816102bc565b82525050565b600060208201905061020660008301846101e2565b92915050565b6000610217826102bc565b9150610222836102bc565b9250827fffffffffffffffffffffffffffffffffffffffffffffffffffffffffffffffff03821115610257576102566102c6565b5b828201905092915050565b600061026d826102bc565b9150610278836102bc565b9250817fffffffffffffffffffffffffffffffffffffffffffffffffffffffffffffffff04831182151516156102b1576102b06102c6565b5b828202905092915050565b6000819050919050565b7f4e487b7100000000000000000000000000000000000000000000000000000000600052601160045260246000fd5b600080fd5b610303816102bc565b811461030e57600080fd5b5056fea26469706673582212204e31536fb59338af1fb8c1715cdd11f239d3a71098012bef8d08b12773e6a13e64736f6c63430008070033",
			"opcodes": "PUSH1 0x80 PUSH1 0x40 MSTORE CALLVALUE DUP1 ISZERO PUSH2 0x10 JUMPI PUSH1 0x0 DUP1 REVERT JUMPDEST POP PUSH2 0x347 DUP1 PUSH2 0x20 PUSH1 0x0 CODECOPY PUSH1 0x0 RETURN INVALID PUSH1 0x80 PUSH1 0x40 MSTORE CALLVALUE DUP1 ISZERO PUSH2 0x10 JUMPI PUSH1 0x0 DUP1 REVERT JUMPDEST POP PUSH1 0x4 CALLDATASIZE LT PUSH2 0x57 JUMPI PUSH1 0x0 CALLDATALOAD PUSH1 0xE0 SHR DUP1 PUSH4 0x60FE47B1 EQ PUSH2 0x5C JUMPI DUP1 PUSH4 0x6D4CE63C EQ PUSH2 0x78 JUMPI DUP1 PUSH4 0x8381F58A EQ PUSH2 0x96 JUMPI DUP1 PUSH4 0xA3D2B1BC EQ PUSH2 0xB4 JUMPI DUP1 PUSH4 0xCAD0899B EQ PUSH2 0xD2 JUMPI JUMPDEST PUSH1 0x0 DUP1 REVERT JUMPDEST PUSH2 0x76 PUSH1 0x4 DUP1 CALLDATASIZE SUB DUP2 ADD SWAP1 PUSH2 0x71 SWAP2 SWAP1 PUSH2 0x175 JUMP JUMPDEST PUSH2 0x102 JUMP JUMPDEST STOP JUMPDEST PUSH2 0x80 PUSH2 0x10E JUMP JUMPDEST PUSH1 0x40 MLOAD PUSH2 0x8D SWAP2 SWAP1 PUSH2 0x1F1 JUMP JUMPDEST PUSH1 0x40 MLOAD DUP1 SWAP2 SUB SWAP1 RETURN JUMPDEST PUSH2 0x9E PUSH2 0x117 JUMP JUMPDEST PUSH1 0x40 MLOAD PUSH2 0xAB SWAP2 SWAP1 PUSH2 0x1F1 JUMP JUMPDEST PUSH1 0x40 MLOAD DUP1 SWAP2 SUB SWAP1 RETURN JUMPDEST PUSH2 0xBC PUSH2 0x11D JUMP JUMPDEST PUSH1 0x40 MLOAD PUSH2 0xC9 SWAP2 SWAP1 PUSH2 0x1F1 JUMP JUMPDEST PUSH1 0x40 MLOAD DUP1 SWAP2 SUB SWAP1 RETURN JUMPDEST PUSH2 0xEC PUSH1 0x4 DUP1 CALLDATASIZE SUB DUP2 ADD SWAP1 PUSH2 0xE7 SWAP2 SWAP1 PUSH2 0x1A2 JUMP JUMPDEST PUSH2 0x133 JUMP JUMPDEST PUSH1 0x40 MLOAD PUSH2 0xF9 SWAP2 SWAP1 PUSH2 0x1F1 JUMP JUMPDEST PUSH1 0x40 MLOAD DUP1 SWAP2 SUB SWAP1 RETURN JUMPDEST PUSH2 0x10B DUP2 PUSH2 0x149 JUMP JUMPDEST POP JUMP JUMPDEST PUSH1 0x0 DUP1 SLOAD SWAP1 POP SWAP1 JUMP JUMPDEST PUSH1 0x0 SLOAD DUP2 JUMP JUMPDEST PUSH1 0x0 DUP1 SLOAD PUSH1 0x0 SLOAD PUSH2 0x12E SWAP2 SWAP1 PUSH2 0x262 JUMP JUMPDEST SWAP1 POP SWAP1 JUMP JUMPDEST PUSH1 0x0 DUP2 DUP4 PUSH2 0x141 SWAP2 SWAP1 PUSH2 0x20C JUMP JUMPDEST SWAP1 POP SWAP3 SWAP2 POP POP JUMP JUMPDEST DUP1 PUSH1 0x0 SLOAD PUSH2 0x157 SWAP2 SWAP1 PUSH2 0x20C JUMP JUMPDEST PUSH1 0x0 DUP2 SWAP1 SSTORE POP POP JUMP JUMPDEST PUSH1 0x0 DUP2 CALLDATALOAD SWAP1 POP PUSH2 0x16F DUP2 PUSH2 0x2FA JUMP JUMPDEST SWAP3 SWAP2 POP POP JUMP JUMPDEST PUSH1 0x0 PUSH1 0x20 DUP3 DUP5 SUB SLT ISZERO PUSH2 0x18B JUMPI PUSH2 0x18A PUSH2 0x2F5 JUMP JUMPDEST JUMPDEST PUSH1 0x0 PUSH2 0x199 DUP5 DUP3 DUP6 ADD PUSH2 0x160 JUMP JUMPDEST SWAP2 POP POP SWAP3 SWAP2 POP POP JUMP JUMPDEST PUSH1 0x0 DUP1 PUSH1 0x40 DUP4 DUP6 SUB SLT ISZERO PUSH2 0x1B9 JUMPI PUSH2 0x1B8 PUSH2 0x2F5 JUMP JUMPDEST JUMPDEST PUSH1 0x0 PUSH2 0x1C7 DUP6 DUP3 DUP7 ADD PUSH2 0x160 JUMP JUMPDEST SWAP3 POP POP PUSH1 0x20 PUSH2 0x1D8 DUP6 DUP3 DUP7 ADD PUSH2 0x160 JUMP JUMPDEST SWAP2 POP POP SWAP3 POP SWAP3 SWAP1 POP JUMP JUMPDEST PUSH2 0x1EB DUP2 PUSH2 0x2BC JUMP JUMPDEST DUP3 MSTORE POP POP JUMP JUMPDEST PUSH1 0x0 PUSH1 0x20 DUP3 ADD SWAP1 POP PUSH2 0x206 PUSH1 0x0 DUP4 ADD DUP5 PUSH2 0x1E2 JUMP JUMPDEST SWAP3 SWAP2 POP POP JUMP JUMPDEST PUSH1 0x0 PUSH2 0x217 DUP3 PUSH2 0x2BC JUMP JUMPDEST SWAP2 POP PUSH2 0x222 DUP4 PUSH2 0x2BC JUMP JUMPDEST SWAP3 POP DUP3 PUSH32 0xFFFFFFFFFFFFFFFFFFFFFFFFFFFFFFFFFFFFFFFFFFFFFFFFFFFFFFFFFFFFFFFF SUB DUP3 GT ISZERO PUSH2 0x257 JUMPI PUSH2 0x256 PUSH2 0x2C6 JUMP JUMPDEST JUMPDEST DUP3 DUP3 ADD SWAP1 POP SWAP3 SWAP2 POP POP JUMP JUMPDEST PUSH1 0x0 PUSH2 0x26D DUP3 PUSH2 0x2BC JUMP JUMPDEST SWAP2 POP PUSH2 0x278 DUP4 PUSH2 0x2BC JUMP JUMPDEST SWAP3 POP DUP2 PUSH32 0xFFFFFFFFFFFFFFFFFFFFFFFFFFFFFFFFFFFFFFFFFFFFFFFFFFFFFFFFFFFFFFFF DIV DUP4 GT DUP3 ISZERO ISZERO AND ISZERO PUSH2 0x2B1 JUMPI PUSH2 0x2B0 PUSH2 0x2C6 JUMP JUMPDEST JUMPDEST DUP3 DUP3 MUL SWAP1 POP SWAP3 SWAP2 POP POP JUMP JUMPDEST PUSH1 0x0 DUP2 SWAP1 POP SWAP2 SWAP1 POP JUMP JUMPDEST PUSH32 0x4E487B7100000000000000000000000000000000000000000000000000000000 PUSH1 0x0 MSTORE PUSH1 0x11 PUSH1 0x4 MSTORE PUSH1 0x24 PUSH1 0x0 REVERT JUMPDEST PUSH1 0x0 DUP1 REVERT JUMPDEST PUSH2 0x303 DUP2 PUSH2 0x2BC JUMP JUMPDEST DUP2 EQ PUSH2 0x30E JUMPI PUSH1 0x0 DUP1 REVERT JUMPDEST POP JUMP INVALID LOG2 PUSH5 0x6970667358 0x22 SLT KECCAK256 0x4E BALANCE MSTORE8 PUSH16 0xB59338AF1FB8C1715CDD11F239D3A710 SWAP9 ADD 0x2B 0xEF DUP14 ADDMOD 0xB1 0x27 PUSH20 0xE6A13E64736F6C63430008070033000000000000 "
		},
		"gasEstimates": {
			"creation": {
				"codeDepositCost": "167800",
				"executionCost": "214",
				"totalCost": "168014"
			},
			"external": {
				"get()": "2437",
				"get_square()": "infinite",
				"number()": "2451",
				"set(uint256)": "infinite",
				"sum(uint256,uint256)": "infinite"
			},
			"internal": {
				"add(uint256)": "infinite"
			}
		},
		"methodIdentifiers": {
			"get()": "6d4ce63c",
			"get_square()": "a3d2b1bc",
			"number()": "8381f58a",
			"set(uint256)": "60fe47b1",
			"sum(uint256,uint256)": "cad0899b"
		}
	},
	"abi": [
		{
			"inputs": [],
			"name": "get",
			"outputs": [
				{
					"internalType": "uint256",
					"name": "num",
					"type": "uint256"
				}
			],
			"stateMutability": "view",
			"type": "function"
		},
		{
			"inputs": [],
			"name": "get_square",
			"outputs": [
				{
					"internalType": "uint256",
					"name": "num",
					"type": "uint256"
				}
			],
			"stateMutability": "view",
			"type": "function"
		},
		{
			"inputs": [],
			"name": "number",
			"outputs": [
				{
					"internalType": "uint256",
					"name": "",
					"type": "uint256"
				}
			],
			"stateMutability": "view",
			"type": "function"
		},
		{
			"inputs": [
				{
					"internalType": "uint256",
					"name": "_num",
					"type": "uint256"
				}
			],
			"name": "set",
			"outputs": [],
			"stateMutability": "nonpayable",
			"type": "function"
		},
		{
			"inputs": [
				{
					"internalType": "uint256",
					"name": "num1",
					"type": "uint256"
				},
				{
					"internalType": "uint256",
					"name": "num2",
					"type": "uint256"
				}
			],
			"name": "sum",
			"outputs": [
				{
					"internalType": "uint256",
					"name": "result",
					"type": "uint256"
				}
			],
			"stateMutability": "pure",
			"type": "function"
		}
	]
}