{
	"data": {
		"bytecode": {
			"linkReferences": {},
			"object": "608060405234801561001057600080fd5b50336000806101000a81548173ffffffffffffffffffffffffffffffffffffffff021916908373ffffffffffffffffffffffffffffffffffffffff1602179055506000600181905550610b9f806100686000396000f3fe60806040526004361061003f5760003560e01c806304fafc6c14610044578063672385621461004e5780639f89927314610077578063e1e29558146100a2575b600080fd5b61004c6100cb565b005b34801561005a57600080fd5b50610075600480360381019061007091906105fa565b610169565b005b34801561008357600080fd5b5061008c6102e7565b6040516100999190610811565b60405180910390f35b3480156100ae57600080fd5b506100c960048036038101906100c49190610643565b6102f1565b005b600534101561010f576040517f08c379a0000000000000000000000000000000000000000000000000000000008152600401610106906107c1565b60405180910390fd5b6001600360003373ffffffffffffffffffffffffffffffffffffffff1673ffffffffffffffffffffffffffffffffffffffff16815260200190815260200160002060006101000a81548160ff021916908315150217905550565b600a6001805461017991906108af565b11156101ba576040517f08c379a00000000000000000000000000000000000000000000000000000000081526004016101b1906107a1565b60405180910390fd5b60006040518060a001604052806001548152602001600060028111156101e3576101e2610a14565b5b8152602001838152602001428152602001600015158152509050806002600060015481526020019081526020016000206000820151816000015560208201518160010160006101000a81548160ff0219169083600281111561024857610247610a14565b5b021790555060408201518160020190805190602001906102699291906104d2565b506060820151816003015560808201518160040160006101000a81548160ff0219169083151502179055509050506102a460015460016104bc565b6001819055507f615eb1193ab28532b0958952317b9eefb36e49e4a65bc640cf28f2ec9a93177181426040516102db9291906107e1565b60405180910390a15050565b6000600154905090565b6000600260008381526020019081526020016000206040518060a0016040529081600082015481526020016001820160009054906101000a900460ff1660028111156103405761033f610a14565b5b600281111561035257610351610a14565b5b815260200160028201805461036690610982565b80601f016020809104026020016040519081016040528092919081815260200182805461039290610982565b80156103df5780601f106103b4576101008083540402835291602001916103df565b820191906000526020600020905b8154815290600101906020018083116103c257829003601f168201915b50505050508152602001600382015481526020016004820160009054906101000a900460ff1615151515815250509050600181608001901515908115158152505080600260008481526020019081526020016000206000820151816000015560208201518160010160006101000a81548160ff0219169083600281111561046957610468610a14565b5b0217905550604082015181600201908051906020019061048a9291906104d2565b506060820151816003015560808201518160040160006101000a81548160ff0219169083151502179055509050505050565b600081836104ca91906108af565b905092915050565b8280546104de90610982565b90600052602060002090601f0160209004810192826105005760008555610547565b82601f1061051957805160ff1916838001178555610547565b82800160010185558215610547579182015b8281111561054657825182559160200191906001019061052b565b5b5090506105549190610558565b5090565b5b80821115610571576000816000905550600101610559565b5090565b600061058861058384610851565b61082c565b9050828152602081018484840111156105a4576105a3610aa6565b5b6105af848285610940565b509392505050565b600082601f8301126105cc576105cb610aa1565b5b81356105dc848260208601610575565b91505092915050565b6000813590506105f481610b52565b92915050565b6000602082840312156106105761060f610ab0565b5b600082013567ffffffffffffffff81111561062e5761062d610aab565b5b61063a848285016105b7565b91505092915050565b60006020828403121561065957610658610ab0565b5b6000610667848285016105e5565b91505092915050565b61067981610905565b82525050565b6106888161092e565b82525050565b600061069982610882565b6106a3818561088d565b93506106b381856020860161094f565b6106bc81610ab5565b840191505092915050565b60006106d460298361089e565b91506106df82610ac6565b604082019050919050565b60006106f760148361089e565b915061070282610b15565b602082019050919050565b600060a0830160008301516107256000860182610783565b506020830151610738602086018261067f565b5060408301518482036040860152610750828261068e565b91505060608301516107656060860182610783565b5060808301516107786080860182610670565b508091505092915050565b61078c81610924565b82525050565b61079b81610924565b82525050565b600060208201905081810360008301526107ba816106c7565b9050919050565b600060208201905081810360008301526107da816106ea565b9050919050565b600060408201905081810360008301526107fb818561070d565b905061080a6020830184610792565b9392505050565b60006020820190506108266000830184610792565b92915050565b6000610836610847565b905061084282826109b4565b919050565b6000604051905090565b600067ffffffffffffffff82111561086c5761086b610a72565b5b61087582610ab5565b9050602081019050919050565b600081519050919050565b600082825260208201905092915050565b600082825260208201905092915050565b60006108ba82610924565b91506108c583610924565b9250827fffffffffffffffffffffffffffffffffffffffffffffffffffffffffffffffff038211156108fa576108f96109e5565b5b828201905092915050565b60008115159050919050565b600081905061091f82610b3e565b919050565b6000819050919050565b600061093982610911565b9050919050565b82818337600083830152505050565b60005b8381101561096d578082015181840152602081019050610952565b8381111561097c576000848401525b50505050565b6000600282049050600182168061099a57607f821691505b602082108114156109ae576109ad610a43565b5b50919050565b6109bd82610ab5565b810181811067ffffffffffffffff821117156109dc576109db610a72565b5b80604052505050565b7f4e487b7100000000000000000000000000000000000000000000000000000000600052601160045260246000fd5b7f4e487b7100000000000000000000000000000000000000000000000000000000600052602160045260246000fd5b7f4e487b7100000000000000000000000000000000000000000000000000000000600052602260045260246000fd5b7f4e487b7100000000000000000000000000000000000000000000000000000000600052604160045260246000fd5b600080fd5b600080fd5b600080fd5b600080fd5b6000601f19601f8301169050919050565b7f506c65617365207570677261646520746f20616464206d6f7265207468616e2060008201527f3130207461736b732e0000000000000000000000000000000000000000000000602082015250565b7f4e6f2073756666696369656e742066756e64732e000000000000000000000000600082015250565b60038110610b4f57610b4e610a14565b5b50565b610b5b81610924565b8114610b6657600080fd5b5056fea2646970667358221220f76b7902c66832a61cc5b06e13efd8157974895c83f52281acaa291b7e4ae74d64736f6c63430008070033",
			"opcodes": "PUSH1 0x80 PUSH1 0x40 MSTORE CALLVALUE DUP1 ISZERO PUSH2 0x10 JUMPI PUSH1 0x0 DUP1 REVERT JUMPDEST POP CALLER PUSH1 0x0 DUP1 PUSH2 0x100 EXP DUP2 SLOAD DUP2 PUSH20 0xFFFFFFFFFFFFFFFFFFFFFFFFFFFFFFFFFFFFFFFF MUL NOT AND SWAP1 DUP4 PUSH20 0xFFFFFFFFFFFFFFFFFFFFFFFFFFFFFFFFFFFFFFFF AND MUL OR SWAP1 SSTORE POP PUSH1 0x0 PUSH1 0x1 DUP2 SWAP1 SSTORE POP PUSH2 0xB9F DUP1 PUSH2 0x68 PUSH1 0x0 CODECOPY PUSH1 0x0 RETURN INVALID PUSH1 0x80 PUSH1 0x40 MSTORE PUSH1 0x4 CALLDATASIZE LT PUSH2 0x3F JUMPI PUSH1 0x0 CALLDATALOAD PUSH1 0xE0 SHR DUP1 PUSH4 0x4FAFC6C EQ PUSH2 0x44 JUMPI DUP1 PUSH4 0x67238562 EQ PUSH2 0x4E JUMPI DUP1 PUSH4 0x9F899273 EQ PUSH2 0x77 JUMPI DUP1 PUSH4 0xE1E29558 EQ PUSH2 0xA2 JUMPI JUMPDEST PUSH1 0x0 DUP1 REVERT JUMPDEST PUSH2 0x4C PUSH2 0xCB JUMP JUMPDEST STOP JUMPDEST CALLVALUE DUP1 ISZERO PUSH2 0x5A JUMPI PUSH1 0x0 DUP1 REVERT JUMPDEST POP PUSH2 0x75 PUSH1 0x4 DUP1 CALLDATASIZE SUB DUP2 ADD SWAP1 PUSH2 0x70 SWAP2 SWAP1 PUSH2 0x5FA JUMP JUMPDEST PUSH2 0x169 JUMP JUMPDEST STOP JUMPDEST CALLVALUE DUP1 ISZERO PUSH2 0x83 JUMPI PUSH1 0x0 DUP1 REVERT JUMPDEST POP PUSH2 0x8C PUSH2 0x2E7 JUMP JUMPDEST PUSH1 0x40 MLOAD PUSH2 0x99 SWAP2 SWAP1 PUSH2 0x811 JUMP JUMPDEST PUSH1 0x40 MLOAD DUP1 SWAP2 SUB SWAP1 RETURN JUMPDEST CALLVALUE DUP1 ISZERO PUSH2 0xAE JUMPI PUSH1 0x0 DUP1 REVERT JUMPDEST POP PUSH2 0xC9 PUSH1 0x4 DUP1 CALLDATASIZE SUB DUP2 ADD SWAP1 PUSH2 0xC4 SWAP2 SWAP1 PUSH2 0x643 JUMP JUMPDEST PUSH2 0x2F1 JUMP JUMPDEST STOP JUMPDEST PUSH1 0x5 CALLVALUE LT ISZERO PUSH2 0x10F JUMPI PUSH1 0x40 MLOAD PUSH32 0x8C379A000000000000000000000000000000000000000000000000000000000 DUP2 MSTORE PUSH1 0x4 ADD PUSH2 0x106 SWAP1 PUSH2 0x7C1 JUMP JUMPDEST PUSH1 0x40 MLOAD DUP1 SWAP2 SUB SWAP1 REVERT JUMPDEST PUSH1 0x1 PUSH1 0x3 PUSH1 0x0 CALLER PUSH20 0xFFFFFFFFFFFFFFFFFFFFFFFFFFFFFFFFFFFFFFFF AND PUSH20 0xFFFFFFFFFFFFFFFFFFFFFFFFFFFFFFFFFFFFFFFF AND DUP2 MSTORE PUSH1 0x20 ADD SWAP1 DUP2 MSTORE PUSH1 0x20 ADD PUSH1 0x0 KECCAK256 PUSH1 0x0 PUSH2 0x100 EXP DUP2 SLOAD DUP2 PUSH1 0xFF MUL NOT AND SWAP1 DUP4 ISZERO ISZERO MUL OR SWAP1 SSTORE POP JUMP JUMPDEST PUSH1 0xA PUSH1 0x1 DUP1 SLOAD PUSH2 0x179 SWAP2 SWAP1 PUSH2 0x8AF JUMP JUMPDEST GT ISZERO PUSH2 0x1BA JUMPI PUSH1 0x40 MLOAD PUSH32 0x8C379A000000000000000000000000000000000000000000000000000000000 DUP2 MSTORE PUSH1 0x4 ADD PUSH2 0x1B1 SWAP1 PUSH2 0x7A1 JUMP JUMPDEST PUSH1 0x40 MLOAD DUP1 SWAP2 SUB SWAP1 REVERT JUMPDEST PUSH1 0x0 PUSH1 0x40 MLOAD DUP1 PUSH1 0xA0 ADD PUSH1 0x40 MSTORE DUP1 PUSH1 0x1 SLOAD DUP2 MSTORE PUSH1 0x20 ADD PUSH1 0x0 PUSH1 0x2 DUP2 GT ISZERO PUSH2 0x1E3 JUMPI PUSH2 0x1E2 PUSH2 0xA14 JUMP JUMPDEST JUMPDEST DUP2 MSTORE PUSH1 0x20 ADD DUP4 DUP2 MSTORE PUSH1 0x20 ADD TIMESTAMP DUP2 MSTORE PUSH1 0x20 ADD PUSH1 0x0 ISZERO ISZERO DUP2 MSTORE POP SWAP1 POP DUP1 PUSH1 0x2 PUSH1 0x0 PUSH1 0x1 SLOAD DUP2 MSTORE PUSH1 0x20 ADD SWAP1 DUP2 MSTORE PUSH1 0x20 ADD PUSH1 0x0 KECCAK256 PUSH1 0x0 DUP3 ADD MLOAD DUP2 PUSH1 0x0 ADD SSTORE PUSH1 0x20 DUP3 ADD MLOAD DUP2 PUSH1 0x1 ADD PUSH1 0x0 PUSH2 0x100 EXP DUP2 SLOAD DUP2 PUSH1 0xFF MUL NOT AND SWAP1 DUP4 PUSH1 0x2 DUP2 GT ISZERO PUSH2 0x248 JUMPI PUSH2 0x247 PUSH2 0xA14 JUMP JUMPDEST JUMPDEST MUL OR SWAP1 SSTORE POP PUSH1 0x40 DUP3 ADD MLOAD DUP2 PUSH1 0x2 ADD SWAP1 DUP1 MLOAD SWAP1 PUSH1 0x20 ADD SWAP1 PUSH2 0x269 SWAP3 SWAP2 SWAP1 PUSH2 0x4D2 JUMP JUMPDEST POP PUSH1 0x60 DUP3 ADD MLOAD DUP2 PUSH1 0x3 ADD SSTORE PUSH1 0x80 DUP3 ADD MLOAD DUP2 PUSH1 0x4 ADD PUSH1 0x0 PUSH2 0x100 EXP DUP2 SLOAD DUP2 PUSH1 0xFF MUL NOT AND SWAP1 DUP4 ISZERO ISZERO MUL OR SWAP1 SSTORE POP SWAP1 POP POP PUSH2 0x2A4 PUSH1 0x1 SLOAD PUSH1 0x1 PUSH2 0x4BC JUMP JUMPDEST PUSH1 0x1 DUP2 SWAP1 SSTORE POP PUSH32 0x615EB1193AB28532B0958952317B9EEFB36E49E4A65BC640CF28F2EC9A931771 DUP2 TIMESTAMP PUSH1 0x40 MLOAD PUSH2 0x2DB SWAP3 SWAP2 SWAP1 PUSH2 0x7E1 JUMP JUMPDEST PUSH1 0x40 MLOAD DUP1 SWAP2 SUB SWAP1 LOG1 POP POP JUMP JUMPDEST PUSH1 0x0 PUSH1 0x1 SLOAD SWAP1 POP SWAP1 JUMP JUMPDEST PUSH1 0x0 PUSH1 0x2 PUSH1 0x0 DUP4 DUP2 MSTORE PUSH1 0x20 ADD SWAP1 DUP2 MSTORE PUSH1 0x20 ADD PUSH1 0x0 KECCAK256 PUSH1 0x40 MLOAD DUP1 PUSH1 0xA0 ADD PUSH1 0x40 MSTORE SWAP1 DUP2 PUSH1 0x0 DUP3 ADD SLOAD DUP2 MSTORE PUSH1 0x20 ADD PUSH1 0x1 DUP3 ADD PUSH1 0x0 SWAP1 SLOAD SWAP1 PUSH2 0x100 EXP SWAP1 DIV PUSH1 0xFF AND PUSH1 0x2 DUP2 GT ISZERO PUSH2 0x340 JUMPI PUSH2 0x33F PUSH2 0xA14 JUMP JUMPDEST JUMPDEST PUSH1 0x2 DUP2 GT ISZERO PUSH2 0x352 JUMPI PUSH2 0x351 PUSH2 0xA14 JUMP JUMPDEST JUMPDEST DUP2 MSTORE PUSH1 0x20 ADD PUSH1 0x2 DUP3 ADD DUP1 SLOAD PUSH2 0x366 SWAP1 PUSH2 0x982 JUMP JUMPDEST DUP1 PUSH1 0x1F ADD PUSH1 0x20 DUP1 SWAP2 DIV MUL PUSH1 0x20 ADD PUSH1 0x40 MLOAD SWAP1 DUP2 ADD PUSH1 0x40 MSTORE DUP1 SWAP3 SWAP2 SWAP1 DUP2 DUP2 MSTORE PUSH1 0x20 ADD DUP3 DUP1 SLOAD PUSH2 0x392 SWAP1 PUSH2 0x982 JUMP JUMPDEST DUP1 ISZERO PUSH2 0x3DF JUMPI DUP1 PUSH1 0x1F LT PUSH2 0x3B4 JUMPI PUSH2 0x100 DUP1 DUP4 SLOAD DIV MUL DUP4 MSTORE SWAP2 PUSH1 0x20 ADD SWAP2 PUSH2 0x3DF JUMP JUMPDEST DUP3 ADD SWAP2 SWAP1 PUSH1 0x0 MSTORE PUSH1 0x20 PUSH1 0x0 KECCAK256 SWAP1 JUMPDEST DUP2 SLOAD DUP2 MSTORE SWAP1 PUSH1 0x1 ADD SWAP1 PUSH1 0x20 ADD DUP1 DUP4 GT PUSH2 0x3C2 JUMPI DUP3 SWAP1 SUB PUSH1 0x1F AND DUP3 ADD SWAP2 JUMPDEST POP POP POP POP POP DUP2 MSTORE PUSH1 0x20 ADD PUSH1 0x3 DUP3 ADD SLOAD DUP2 MSTORE PUSH1 0x20 ADD PUSH1 0x4 DUP3 ADD PUSH1 0x0 SWAP1 SLOAD SWAP1 PUSH2 0x100 EXP SWAP1 DIV PUSH1 0xFF AND ISZERO ISZERO ISZERO ISZERO DUP2 MSTORE POP POP SWAP1 POP PUSH1 0x1 DUP2 PUSH1 0x80 ADD SWAP1 ISZERO ISZERO SWAP1 DUP2 ISZERO ISZERO DUP2 MSTORE POP POP DUP1 PUSH1 0x2 PUSH1 0x0 DUP5 DUP2 MSTORE PUSH1 0x20 ADD SWAP1 DUP2 MSTORE PUSH1 0x20 ADD PUSH1 0x0 KECCAK256 PUSH1 0x0 DUP3 ADD MLOAD DUP2 PUSH1 0x0 ADD SSTORE PUSH1 0x20 DUP3 ADD MLOAD DUP2 PUSH1 0x1 ADD PUSH1 0x0 PUSH2 0x100 EXP DUP2 SLOAD DUP2 PUSH1 0xFF MUL NOT AND SWAP1 DUP4 PUSH1 0x2 DUP2 GT ISZERO PUSH2 0x469 JUMPI PUSH2 0x468 PUSH2 0xA14 JUMP JUMPDEST JUMPDEST MUL OR SWAP1 SSTORE POP PUSH1 0x40 DUP3 ADD MLOAD DUP2 PUSH1 0x2 ADD SWAP1 DUP1 MLOAD SWAP1 PUSH1 0x20 ADD SWAP1 PUSH2 0x48A SWAP3 SWAP2 SWAP1 PUSH2 0x4D2 JUMP JUMPDEST POP PUSH1 0x60 DUP3 ADD MLOAD DUP2 PUSH1 0x3 ADD SSTORE PUSH1 0x80 DUP3 ADD MLOAD DUP2 PUSH1 0x4 ADD PUSH1 0x0 PUSH2 0x100 EXP DUP2 SLOAD DUP2 PUSH1 0xFF MUL NOT AND SWAP1 DUP4 ISZERO ISZERO MUL OR SWAP1 SSTORE POP SWAP1 POP POP POP POP JUMP JUMPDEST PUSH1 0x0 DUP2 DUP4 PUSH2 0x4CA SWAP2 SWAP1 PUSH2 0x8AF JUMP JUMPDEST SWAP1 POP SWAP3 SWAP2 POP POP JUMP JUMPDEST DUP3 DUP1 SLOAD PUSH2 0x4DE SWAP1 PUSH2 0x982 JUMP JUMPDEST SWAP1 PUSH1 0x0 MSTORE PUSH1 0x20 PUSH1 0x0 KECCAK256 SWAP1 PUSH1 0x1F ADD PUSH1 0x20 SWAP1 DIV DUP2 ADD SWAP3 DUP3 PUSH2 0x500 JUMPI PUSH1 0x0 DUP6 SSTORE PUSH2 0x547 JUMP JUMPDEST DUP3 PUSH1 0x1F LT PUSH2 0x519 JUMPI DUP1 MLOAD PUSH1 0xFF NOT AND DUP4 DUP1 ADD OR DUP6 SSTORE PUSH2 0x547 JUMP JUMPDEST DUP3 DUP1 ADD PUSH1 0x1 ADD DUP6 SSTORE DUP3 ISZERO PUSH2 0x547 JUMPI SWAP2 DUP3 ADD JUMPDEST DUP3 DUP2 GT ISZERO PUSH2 0x546 JUMPI DUP3 MLOAD DUP3 SSTORE SWAP2 PUSH1 0x20 ADD SWAP2 SWAP1 PUSH1 0x1 ADD SWAP1 PUSH2 0x52B JUMP JUMPDEST JUMPDEST POP SWAP1 POP PUSH2 0x554 SWAP2 SWAP1 PUSH2 0x558 JUMP JUMPDEST POP SWAP1 JUMP JUMPDEST JUMPDEST DUP1 DUP3 GT ISZERO PUSH2 0x571 JUMPI PUSH1 0x0 DUP2 PUSH1 0x0 SWAP1 SSTORE POP PUSH1 0x1 ADD PUSH2 0x559 JUMP JUMPDEST POP SWAP1 JUMP JUMPDEST PUSH1 0x0 PUSH2 0x588 PUSH2 0x583 DUP5 PUSH2 0x851 JUMP JUMPDEST PUSH2 0x82C JUMP JUMPDEST SWAP1 POP DUP3 DUP2 MSTORE PUSH1 0x20 DUP2 ADD DUP5 DUP5 DUP5 ADD GT ISZERO PUSH2 0x5A4 JUMPI PUSH2 0x5A3 PUSH2 0xAA6 JUMP JUMPDEST JUMPDEST PUSH2 0x5AF DUP5 DUP3 DUP6 PUSH2 0x940 JUMP JUMPDEST POP SWAP4 SWAP3 POP POP POP JUMP JUMPDEST PUSH1 0x0 DUP3 PUSH1 0x1F DUP4 ADD SLT PUSH2 0x5CC JUMPI PUSH2 0x5CB PUSH2 0xAA1 JUMP JUMPDEST JUMPDEST DUP2 CALLDATALOAD PUSH2 0x5DC DUP5 DUP3 PUSH1 0x20 DUP7 ADD PUSH2 0x575 JUMP JUMPDEST SWAP2 POP POP SWAP3 SWAP2 POP POP JUMP JUMPDEST PUSH1 0x0 DUP2 CALLDATALOAD SWAP1 POP PUSH2 0x5F4 DUP2 PUSH2 0xB52 JUMP JUMPDEST SWAP3 SWAP2 POP POP JUMP JUMPDEST PUSH1 0x0 PUSH1 0x20 DUP3 DUP5 SUB SLT ISZERO PUSH2 0x610 JUMPI PUSH2 0x60F PUSH2 0xAB0 JUMP JUMPDEST JUMPDEST PUSH1 0x0 DUP3 ADD CALLDATALOAD PUSH8 0xFFFFFFFFFFFFFFFF DUP2 GT ISZERO PUSH2 0x62E JUMPI PUSH2 0x62D PUSH2 0xAAB JUMP JUMPDEST JUMPDEST PUSH2 0x63A DUP5 DUP3 DUP6 ADD PUSH2 0x5B7 JUMP JUMPDEST SWAP2 POP POP SWAP3 SWAP2 POP POP JUMP JUMPDEST PUSH1 0x0 PUSH1 0x20 DUP3 DUP5 SUB SLT ISZERO PUSH2 0x659 JUMPI PUSH2 0x658 PUSH2 0xAB0 JUMP JUMPDEST JUMPDEST PUSH1 0x0 PUSH2 0x667 DUP5 DUP3 DUP6 ADD PUSH2 0x5E5 JUMP JUMPDEST SWAP2 POP POP SWAP3 SWAP2 POP POP JUMP JUMPDEST PUSH2 0x679 DUP2 PUSH2 0x905 JUMP JUMPDEST DUP3 MSTORE POP POP JUMP JUMPDEST PUSH2 0x688 DUP2 PUSH2 0x92E JUMP JUMPDEST DUP3 MSTORE POP POP JUMP JUMPDEST PUSH1 0x0 PUSH2 0x699 DUP3 PUSH2 0x882 JUMP JUMPDEST PUSH2 0x6A3 DUP2 DUP6 PUSH2 0x88D JUMP JUMPDEST SWAP4 POP PUSH2 0x6B3 DUP2 DUP6 PUSH1 0x20 DUP7 ADD PUSH2 0x94F JUMP JUMPDEST PUSH2 0x6BC DUP2 PUSH2 0xAB5 JUMP JUMPDEST DUP5 ADD SWAP2 POP POP SWAP3 SWAP2 POP POP JUMP JUMPDEST PUSH1 0x0 PUSH2 0x6D4 PUSH1 0x29 DUP4 PUSH2 0x89E JUMP JUMPDEST SWAP2 POP PUSH2 0x6DF DUP3 PUSH2 0xAC6 JUMP JUMPDEST PUSH1 0x40 DUP3 ADD SWAP1 POP SWAP2 SWAP1 POP JUMP JUMPDEST PUSH1 0x0 PUSH2 0x6F7 PUSH1 0x14 DUP4 PUSH2 0x89E JUMP JUMPDEST SWAP2 POP PUSH2 0x702 DUP3 PUSH2 0xB15 JUMP JUMPDEST PUSH1 0x20 DUP3 ADD SWAP1 POP SWAP2 SWAP1 POP JUMP JUMPDEST PUSH1 0x0 PUSH1 0xA0 DUP4 ADD PUSH1 0x0 DUP4 ADD MLOAD PUSH2 0x725 PUSH1 0x0 DUP7 ADD DUP3 PUSH2 0x783 JUMP JUMPDEST POP PUSH1 0x20 DUP4 ADD MLOAD PUSH2 0x738 PUSH1 0x20 DUP7 ADD DUP3 PUSH2 0x67F JUMP JUMPDEST POP PUSH1 0x40 DUP4 ADD MLOAD DUP5 DUP3 SUB PUSH1 0x40 DUP7 ADD MSTORE PUSH2 0x750 DUP3 DUP3 PUSH2 0x68E JUMP JUMPDEST SWAP2 POP POP PUSH1 0x60 DUP4 ADD MLOAD PUSH2 0x765 PUSH1 0x60 DUP7 ADD DUP3 PUSH2 0x783 JUMP JUMPDEST POP PUSH1 0x80 DUP4 ADD MLOAD PUSH2 0x778 PUSH1 0x80 DUP7 ADD DUP3 PUSH2 0x670 JUMP JUMPDEST POP DUP1 SWAP2 POP POP SWAP3 SWAP2 POP POP JUMP JUMPDEST PUSH2 0x78C DUP2 PUSH2 0x924 JUMP JUMPDEST DUP3 MSTORE POP POP JUMP JUMPDEST PUSH2 0x79B DUP2 PUSH2 0x924 JUMP JUMPDEST DUP3 MSTORE POP POP JUMP JUMPDEST PUSH1 0x0 PUSH1 0x20 DUP3 ADD SWAP1 POP DUP2 DUP2 SUB PUSH1 0x0 DUP4 ADD MSTORE PUSH2 0x7BA DUP2 PUSH2 0x6C7 JUMP JUMPDEST SWAP1 POP SWAP2 SWAP1 POP JUMP JUMPDEST PUSH1 0x0 PUSH1 0x20 DUP3 ADD SWAP1 POP DUP2 DUP2 SUB PUSH1 0x0 DUP4 ADD MSTORE PUSH2 0x7DA DUP2 PUSH2 0x6EA JUMP JUMPDEST SWAP1 POP SWAP2 SWAP1 POP JUMP JUMPDEST PUSH1 0x0 PUSH1 0x40 DUP3 ADD SWAP1 POP DUP2 DUP2 SUB PUSH1 0x0 DUP4 ADD MSTORE PUSH2 0x7FB DUP2 DUP6 PUSH2 0x70D JUMP JUMPDEST SWAP1 POP PUSH2 0x80A PUSH1 0x20 DUP4 ADD DUP5 PUSH2 0x792 JUMP JUMPDEST SWAP4 SWAP3 POP POP POP JUMP JUMPDEST PUSH1 0x0 PUSH1 0x20 DUP3 ADD SWAP1 POP PUSH2 0x826 PUSH1 0x0 DUP4 ADD DUP5 PUSH2 0x792 JUMP JUMPDEST SWAP3 SWAP2 POP POP JUMP JUMPDEST PUSH1 0x0 PUSH2 0x836 PUSH2 0x847 JUMP JUMPDEST SWAP1 POP PUSH2 0x842 DUP3 DUP3 PUSH2 0x9B4 JUMP JUMPDEST SWAP2 SWAP1 POP JUMP JUMPDEST PUSH1 0x0 PUSH1 0x40 MLOAD SWAP1 POP SWAP1 JUMP JUMPDEST PUSH1 0x0 PUSH8 0xFFFFFFFFFFFFFFFF DUP3 GT ISZERO PUSH2 0x86C JUMPI PUSH2 0x86B PUSH2 0xA72 JUMP JUMPDEST JUMPDEST PUSH2 0x875 DUP3 PUSH2 0xAB5 JUMP JUMPDEST SWAP1 POP PUSH1 0x20 DUP2 ADD SWAP1 POP SWAP2 SWAP1 POP JUMP JUMPDEST PUSH1 0x0 DUP2 MLOAD SWAP1 POP SWAP2 SWAP1 POP JUMP JUMPDEST PUSH1 0x0 DUP3 DUP3 MSTORE PUSH1 0x20 DUP3 ADD SWAP1 POP SWAP3 SWAP2 POP POP JUMP JUMPDEST PUSH1 0x0 DUP3 DUP3 MSTORE PUSH1 0x20 DUP3 ADD SWAP1 POP SWAP3 SWAP2 POP POP JUMP JUMPDEST PUSH1 0x0 PUSH2 0x8BA DUP3 PUSH2 0x924 JUMP JUMPDEST SWAP2 POP PUSH2 0x8C5 DUP4 PUSH2 0x924 JUMP JUMPDEST SWAP3 POP DUP3 PUSH32 0xFFFFFFFFFFFFFFFFFFFFFFFFFFFFFFFFFFFFFFFFFFFFFFFFFFFFFFFFFFFFFFFF SUB DUP3 GT ISZERO PUSH2 0x8FA JUMPI PUSH2 0x8F9 PUSH2 0x9E5 JUMP JUMPDEST JUMPDEST DUP3 DUP3 ADD SWAP1 POP SWAP3 SWAP2 POP POP JUMP JUMPDEST PUSH1 0x0 DUP2 ISZERO ISZERO SWAP1 POP SWAP2 SWAP1 POP JUMP JUMPDEST PUSH1 0x0 DUP2 SWAP1 POP PUSH2 0x91F DUP3 PUSH2 0xB3E JUMP JUMPDEST SWAP2 SWAP1 POP JUMP JUMPDEST PUSH1 0x0 DUP2 SWAP1 POP SWAP2 SWAP1 POP JUMP JUMPDEST PUSH1 0x0 PUSH2 0x939 DUP3 PUSH2 0x911 JUMP JUMPDEST SWAP1 POP SWAP2 SWAP1 POP JUMP JUMPDEST DUP3 DUP2 DUP4 CALLDATACOPY PUSH1 0x0 DUP4 DUP4 ADD MSTORE POP POP POP JUMP JUMPDEST PUSH1 0x0 JUMPDEST DUP4 DUP2 LT ISZERO PUSH2 0x96D JUMPI DUP1 DUP3 ADD MLOAD DUP2 DUP5 ADD MSTORE PUSH1 0x20 DUP2 ADD SWAP1 POP PUSH2 0x952 JUMP JUMPDEST DUP4 DUP2 GT ISZERO PUSH2 0x97C JUMPI PUSH1 0x0 DUP5 DUP5 ADD MSTORE JUMPDEST POP POP POP POP JUMP JUMPDEST PUSH1 0x0 PUSH1 0x2 DUP3 DIV SWAP1 POP PUSH1 0x1 DUP3 AND DUP1 PUSH2 0x99A JUMPI PUSH1 0x7F DUP3 AND SWAP2 POP JUMPDEST PUSH1 0x20 DUP3 LT DUP2 EQ ISZERO PUSH2 0x9AE JUMPI PUSH2 0x9AD PUSH2 0xA43 JUMP JUMPDEST JUMPDEST POP SWAP2 SWAP1 POP JUMP JUMPDEST PUSH2 0x9BD DUP3 PUSH2 0xAB5 JUMP JUMPDEST DUP2 ADD DUP2 DUP2 LT PUSH8 0xFFFFFFFFFFFFFFFF DUP3 GT OR ISZERO PUSH2 0x9DC JUMPI PUSH2 0x9DB PUSH2 0xA72 JUMP JUMPDEST JUMPDEST DUP1 PUSH1 0x40 MSTORE POP POP POP JUMP JUMPDEST PUSH32 0x4E487B7100000000000000000000000000000000000000000000000000000000 PUSH1 0x0 MSTORE PUSH1 0x11 PUSH1 0x4 MSTORE PUSH1 0x24 PUSH1 0x0 REVERT JUMPDEST PUSH32 0x4E487B7100000000000000000000000000000000000000000000000000000000 PUSH1 0x0 MSTORE PUSH1 0x21 PUSH1 0x4 MSTORE PUSH1 0x24 PUSH1 0x0 REVERT JUMPDEST PUSH32 0x4E487B7100000000000000000000000000000000000000000000000000000000 PUSH1 0x0 MSTORE PUSH1 0x22 PUSH1 0x4 MSTORE PUSH1 0x24 PUSH1 0x0 REVERT JUMPDEST PUSH32 0x4E487B7100000000000000000000000000000000000000000000000000000000 PUSH1 0x0 MSTORE PUSH1 0x41 PUSH1 0x4 MSTORE PUSH1 0x24 PUSH1 0x0 REVERT JUMPDEST PUSH1 0x0 DUP1 REVERT JUMPDEST PUSH1 0x0 DUP1 REVERT JUMPDEST PUSH1 0x0 DUP1 REVERT JUMPDEST PUSH1 0x0 DUP1 REVERT JUMPDEST PUSH1 0x0 PUSH1 0x1F NOT PUSH1 0x1F DUP4 ADD AND SWAP1 POP SWAP2 SWAP1 POP JUMP JUMPDEST PUSH32 0x506C65617365207570677261646520746F20616464206D6F7265207468616E20 PUSH1 0x0 DUP3 ADD MSTORE PUSH32 0x3130207461736B732E0000000000000000000000000000000000000000000000 PUSH1 0x20 DUP3 ADD MSTORE POP JUMP JUMPDEST PUSH32 0x4E6F2073756666696369656E742066756E64732E000000000000000000000000 PUSH1 0x0 DUP3 ADD MSTORE POP JUMP JUMPDEST PUSH1 0x3 DUP2 LT PUSH2 0xB4F JUMPI PUSH2 0xB4E PUSH2 0xA14 JUMP JUMPDEST JUMPDEST POP JUMP JUMPDEST PUSH2 0xB5B DUP2 PUSH2 0x924 JUMP JUMPDEST DUP2 EQ PUSH2 0xB66 JUMPI PUSH1 0x0 DUP1 REVERT JUMPDEST POP JUMP INVALID LOG2 PUSH5 0x6970667358 0x22 SLT KECCAK256 0xF7 PUSH12 0x7902C66832A61CC5B06E13EF 0xD8 ISZERO PUSH26 0x74895C83F52281ACAA291B7E4AE74D64736F6C63430008070033 "
		},
		"gasEstimates": {
			"creation": {
				"codeDepositCost": "595000",
				"executionCost": "29905",
				"totalCost": "624905"
			},
			"external": {
				"addTask(string)": "infinite",
				"completeTask(uint256)": "infinite",
				"getTasksCount()": "2459",
				"upgradePlan()": "24479"
			}
		},
		"methodIdentifiers": {
			"addTask(string)": "67238562",
			"completeTask(uint256)": "e1e29558",
			"getTasksCount()": "9f899273",
			"upgradePlan()": "04fafc6c"
		}
	},
	"abi": [
		{
			"inputs": [],
			"stateMutability": "nonpayable",
			"type": "constructor"
		},
		{
			"anonymous": false,
			"inputs": [
				{
					"components": [
						{
							"internalType": "uint256",
							"name": "id",
							"type": "uint256"
						},
						{
							"internalType": "enum TaskManager.Priority",
							"name": "priority",
							"type": "uint8"
						},
						{
							"internalType": "string",
							"name": "content",
							"type": "string"
						},
						{
							"internalType": "uint256",
							"name": "timestamp",
							"type": "uint256"
						},
						{
							"internalType": "bool",
							"name": "completed",
							"type": "bool"
						}
					],
					"indexed": false,
					"internalType": "struct TaskManager.Task",
					"name": "task",
					"type": "tuple"
				},
				{
					"indexed": false,
					"internalType": "uint256",
					"name": "time",
					"type": "uint256"
				}
			],
			"name": "NewTask",
			"type": "event"
		},
		{
			"inputs": [
				{
					"internalType": "string",
					"name": "content",
					"type": "string"
				}
			],
			"name": "addTask",
			"outputs": [],
			"stateMutability": "nonpayable",
			"type": "function"
		},
		{
			"inputs": [
				{
					"internalType": "uint256",
					"name": "_count",
					"type": "uint256"
				}
			],
			"name": "completeTask",
			"outputs": [],
			"stateMutability": "nonpayable",
			"type": "function"
		},
		{
			"inputs": [],
			"name": "getTasksCount",
			"outputs": [
				{
					"internalType": "uint256",
					"name": "countTasks",
					"type": "uint256"
				}
			],
			"stateMutability": "view",
			"type": "function"
		},
		{
			"inputs": [],
			"name": "upgradePlan",
			"outputs": [],
			"stateMutability": "payable",
			"type": "function"
		}
	]
}